{
  "contractName": "CurrencyTransferLib",
  "abi": [
    {
      "inputs": [],
      "name": "NATIVE_TOKEN",
      "outputs": [
        {
          "internalType": "address",
          "name": "",
          "type": "address"
        }
      ],
      "stateMutability": "view",
      "type": "function"
    }
  ],
  "bytecode": "0x60a2610033600b8282823980515f1a607314602757634e487b7160e01b5f525f60045260245ffd5b305f52607381538281f3fe73000000000000000000000000000000000000000030146080604052600436106032575f3560e01c806331f7d964146036575b5f80fd5b605073eeeeeeeeeeeeeeeeeeeeeeeeeeeeeeeeeeeeeeee81565b6040516001600160a01b03909116815260200160405180910390f3fea264697066735822122049a33833d80b735c904e20ecc761c14c5fc5543ecd235816ff1f9e484cb0271e64736f6c63430008150033",
  "immutableReferences": {},
  "source": "// SPDX-License-Identifier: Apache-2.0\npragma solidity ^0.8.0;\n\n/// @author thirdweb\n\n// Helper interfaces\nimport { IWETH } from \"../interfaces/IWETH.sol\";\n\nimport \"../openzeppelin-presets/token/ERC20/utils/SafeERC20.sol\";\n\nlibrary CurrencyTransferLib {\n    using SafeERC20 for IERC20;\n\n    /// @dev The address interpreted as native token of the chain.\n    address public constant NATIVE_TOKEN = 0xEeeeeEeeeEeEeeEeEeEeeEEEeeeeEeeeeeeeEEeE;\n\n    /// @dev Transfers a given amount of currency.\n    function transferCurrency(\n        address _currency,\n        address _from,\n        address _to,\n        uint256 _amount\n    ) internal {\n        if (_amount == 0) {\n            return;\n        }\n\n        if (_currency == NATIVE_TOKEN) {\n            safeTransferNativeToken(_to, _amount);\n        } else {\n            safeTransferERC20(_currency, _from, _to, _amount);\n        }\n    }\n\n    /// @dev Transfers a given amount of currency. (With native token wrapping)\n    function transferCurrencyWithWrapper(\n        address _currency,\n        address _from,\n        address _to,\n        uint256 _amount,\n        address _nativeTokenWrapper\n    ) internal {\n        if (_amount == 0) {\n            return;\n        }\n\n        if (_currency == NATIVE_TOKEN) {\n            if (_from == address(this)) {\n                // withdraw from weth then transfer withdrawn native token to recipient\n                IWETH(_nativeTokenWrapper).withdraw(_amount);\n                safeTransferNativeTokenWithWrapper(_to, _amount, _nativeTokenWrapper);\n            } else if (_to == address(this)) {\n                // store native currency in weth\n                require(_amount == msg.value, \"msg.value != amount\");\n                IWETH(_nativeTokenWrapper).deposit{ value: _amount }();\n            } else {\n                safeTransferNativeTokenWithWrapper(_to, _amount, _nativeTokenWrapper);\n            }\n        } else {\n            safeTransferERC20(_currency, _from, _to, _amount);\n        }\n    }\n\n    /// @dev Transfer `amount` of ERC20 token from `from` to `to`.\n    function safeTransferERC20(\n        address _currency,\n        address _from,\n        address _to,\n        uint256 _amount\n    ) internal {\n        if (_from == _to) {\n            return;\n        }\n\n        if (_from == address(this)) {\n            IERC20(_currency).safeTransfer(_to, _amount);\n        } else {\n            IERC20(_currency).safeTransferFrom(_from, _to, _amount);\n        }\n    }\n\n    /// @dev Transfers `amount` of native token to `to`.\n    function safeTransferNativeToken(address to, uint256 value) internal {\n        // solhint-disable avoid-low-level-calls\n        // slither-disable-next-line low-level-calls\n        (bool success, ) = to.call{ value: value }(\"\");\n        require(success, \"native token transfer failed\");\n    }\n\n    /// @dev Transfers `amount` of native token to `to`. (With native token wrapping)\n    function safeTransferNativeTokenWithWrapper(\n        address to,\n        uint256 value,\n        address _nativeTokenWrapper\n    ) internal {\n        // solhint-disable avoid-low-level-calls\n        // slither-disable-next-line low-level-calls\n        (bool success, ) = to.call{ value: value }(\"\");\n        if (!success) {\n            IWETH(_nativeTokenWrapper).deposit{ value: value }();\n            IERC20(_nativeTokenWrapper).safeTransfer(to, value);\n        }\n    }\n}\n",
  "sourcePath": "@thirdweb-dev\\contracts\\lib\\CurrencyTransferLib.sol",
  "compiler": {
    "name": "solc",
    "version": "0.8.21+commit.d9974bed.Emscripten.clang"
  },
  "schemaVersion": "3.4.15",
  "updatedAt": "2023-08-15T23:19:36.632Z",
  "devdoc": {
    "kind": "dev",
    "methods": {},
    "stateVariables": {
      "NATIVE_TOKEN": {
        "details": "The address interpreted as native token of the chain."
      }
    },
    "version": 1
  },
  "userdoc": {
    "kind": "user",
    "methods": {},
    "version": 1
  }
}