{
  "contractName": "PermissionsEnumerable",
  "abi": [
    {
      "anonymous": false,
      "inputs": [
        {
          "indexed": true,
          "internalType": "bytes32",
          "name": "role",
          "type": "bytes32"
        },
        {
          "indexed": true,
          "internalType": "bytes32",
          "name": "previousAdminRole",
          "type": "bytes32"
        },
        {
          "indexed": true,
          "internalType": "bytes32",
          "name": "newAdminRole",
          "type": "bytes32"
        }
      ],
      "name": "RoleAdminChanged",
      "type": "event"
    },
    {
      "anonymous": false,
      "inputs": [
        {
          "indexed": true,
          "internalType": "bytes32",
          "name": "role",
          "type": "bytes32"
        },
        {
          "indexed": true,
          "internalType": "address",
          "name": "account",
          "type": "address"
        },
        {
          "indexed": true,
          "internalType": "address",
          "name": "sender",
          "type": "address"
        }
      ],
      "name": "RoleGranted",
      "type": "event"
    },
    {
      "anonymous": false,
      "inputs": [
        {
          "indexed": true,
          "internalType": "bytes32",
          "name": "role",
          "type": "bytes32"
        },
        {
          "indexed": true,
          "internalType": "address",
          "name": "account",
          "type": "address"
        },
        {
          "indexed": true,
          "internalType": "address",
          "name": "sender",
          "type": "address"
        }
      ],
      "name": "RoleRevoked",
      "type": "event"
    },
    {
      "inputs": [],
      "name": "DEFAULT_ADMIN_ROLE",
      "outputs": [
        {
          "internalType": "bytes32",
          "name": "",
          "type": "bytes32"
        }
      ],
      "stateMutability": "view",
      "type": "function"
    },
    {
      "inputs": [
        {
          "internalType": "bytes32",
          "name": "role",
          "type": "bytes32"
        }
      ],
      "name": "getRoleAdmin",
      "outputs": [
        {
          "internalType": "bytes32",
          "name": "",
          "type": "bytes32"
        }
      ],
      "stateMutability": "view",
      "type": "function"
    },
    {
      "inputs": [
        {
          "internalType": "bytes32",
          "name": "role",
          "type": "bytes32"
        },
        {
          "internalType": "address",
          "name": "account",
          "type": "address"
        }
      ],
      "name": "grantRole",
      "outputs": [],
      "stateMutability": "nonpayable",
      "type": "function"
    },
    {
      "inputs": [
        {
          "internalType": "bytes32",
          "name": "role",
          "type": "bytes32"
        },
        {
          "internalType": "address",
          "name": "account",
          "type": "address"
        }
      ],
      "name": "hasRole",
      "outputs": [
        {
          "internalType": "bool",
          "name": "",
          "type": "bool"
        }
      ],
      "stateMutability": "view",
      "type": "function"
    },
    {
      "inputs": [
        {
          "internalType": "bytes32",
          "name": "role",
          "type": "bytes32"
        },
        {
          "internalType": "address",
          "name": "account",
          "type": "address"
        }
      ],
      "name": "hasRoleWithSwitch",
      "outputs": [
        {
          "internalType": "bool",
          "name": "",
          "type": "bool"
        }
      ],
      "stateMutability": "view",
      "type": "function"
    },
    {
      "inputs": [
        {
          "internalType": "bytes32",
          "name": "role",
          "type": "bytes32"
        },
        {
          "internalType": "address",
          "name": "account",
          "type": "address"
        }
      ],
      "name": "renounceRole",
      "outputs": [],
      "stateMutability": "nonpayable",
      "type": "function"
    },
    {
      "inputs": [
        {
          "internalType": "bytes32",
          "name": "role",
          "type": "bytes32"
        },
        {
          "internalType": "address",
          "name": "account",
          "type": "address"
        }
      ],
      "name": "revokeRole",
      "outputs": [],
      "stateMutability": "nonpayable",
      "type": "function"
    },
    {
      "inputs": [
        {
          "internalType": "bytes32",
          "name": "role",
          "type": "bytes32"
        },
        {
          "internalType": "uint256",
          "name": "index",
          "type": "uint256"
        }
      ],
      "name": "getRoleMember",
      "outputs": [
        {
          "internalType": "address",
          "name": "member",
          "type": "address"
        }
      ],
      "stateMutability": "view",
      "type": "function"
    },
    {
      "inputs": [
        {
          "internalType": "bytes32",
          "name": "role",
          "type": "bytes32"
        }
      ],
      "name": "getRoleMemberCount",
      "outputs": [
        {
          "internalType": "uint256",
          "name": "count",
          "type": "uint256"
        }
      ],
      "stateMutability": "view",
      "type": "function"
    }
  ],
  "bytecode": "0x608060405234801561000f575f80fd5b506109e68061001d5f395ff3fe608060405234801561000f575f80fd5b5060043610610081575f3560e01c8063248a9ca3146100855780632f2ff15d146100b757806336568abe146100cc5780639010d07c146100df57806391d148541461010a578063a217fddf1461012d578063a32fa5b314610134578063ca15c87314610147578063d547741f1461015a575b5f80fd5b6100a4610093366004610805565b5f9081526001602052604090205490565b6040519081526020015b60405180910390f35b6100ca6100c536600461081c565b61016d565b005b6100ca6100da36600461081c565b610208565b6100f26100ed366004610855565b610267565b6040516001600160a01b0390911681526020016100ae565b61011d61011836600461081c565b610350565b60405190151581526020016100ae565b6100a45f81565b61011d61014236600461081c565b610378565b6100a4610155366004610805565b6103c8565b6100ca61016836600461081c565b61044e565b5f828152600160205260409020546101859033610462565b5f828152602081815260408083206001600160a01b038516845290915290205460ff16156101fa5760405162461bcd60e51b815260206004820152601d60248201527f43616e206f6e6c79206772616e7420746f206e6f6e20686f6c6465727300000060448201526064015b60405180910390fd5b61020482826104df565b5050565b336001600160a01b0382161461025d5760405162461bcd60e51b815260206004820152601a60248201527921b0b71037b7363c903932b737bab731b2903337b91039b2b63360311b60448201526064016101f1565b61020482826104f3565b5f8281526002602052604081205481805b82811015610346575f8681526002602090815260408083208484526001019091529020546001600160a01b0316156102f2578482036102e0575f8681526002602090815260408083209383526001909301905220546001600160a01b0316925061034a915050565b6102eb600183610889565b9150610334565b6102fc865f610350565b801561032157505f868152600260208181526040808420848052909201905290205481145b1561033457610331600183610889565b91505b61033f600182610889565b9050610278565b5050505b92915050565b5f918252602082815260408084206001600160a01b0393909316845291905290205460ff1690565b5f8281526020818152604080832083805290915281205460ff166103bf57505f828152602081815260408083206001600160a01b038516845290915290205460ff1661034a565b50600192915050565b5f81815260026020526040812054815b8181101561042a575f8481526002602090815260408083208484526001019091529020546001600160a01b03161561041857610415600184610889565b92505b610423600182610889565b90506103d8565b50610435835f610350565b1561044857610445600183610889565b91505b50919050565b5f8281526001602052604090205461025d90335b5f828152602081815260408083206001600160a01b038516845290915290205460ff166102045761049d816001600160a01b03166014610548565b6104a8836020610548565b6040516020016104b99291906108be565b60408051601f198184030181529082905262461bcd60e51b82526101f19160040161092a565b6104e982826106e4565b610204828261073c565b6104fd82826107a6565b5f9182526002602081815260408085206001600160a01b0394909416808652928401808352818620805487526001909501835290852080546001600160a01b03191690559184525255565b60605f61055683600261095c565b610561906002610889565b6001600160401b0381111561057857610578610973565b6040519080825280601f01601f1916602001820160405280156105a2576020820181803683370190505b509050600360fc1b815f815181106105bc576105bc610987565b60200101906001600160f81b03191690815f1a905350600f60fb1b816001815181106105ea576105ea610987565b60200101906001600160f81b03191690815f1a9053505f61060c84600261095c565b610617906001610889565b90505b600181111561068e576f181899199a1a9b1b9c1cb0b131b232b360811b85600f166010811061064b5761064b610987565b1a60f81b82828151811061066157610661610987565b60200101906001600160f81b03191690815f1a90535060049490941c936106878161099b565b905061061a565b5083156106dd5760405162461bcd60e51b815260206004820181905260248201527f537472696e67733a20686578206c656e67746820696e73756666696369656e7460448201526064016101f1565b9392505050565b5f828152602081815260408083206001600160a01b0385168085529252808320805460ff1916600117905551339285917f2f8788117e7eff1d82e926ec794901d17c78024a50270940304540a733656f0d9190a45050565b5f8281526002602052604081208054916001919061075a8385610889565b90915550505f92835260026020818152604080862084875260018101835281872080546001600160a01b039097166001600160a01b031990971687179055948652939091019052912055565b6107b08282610462565b5f828152602081815260408083206001600160a01b0385168085529252808320805460ff1916905551339285917ff6391f5c32d9c69d2a47ea670b442974b53935d1edc7fd64eb21e047a839171b9190a45050565b5f60208284031215610815575f80fd5b5035919050565b5f806040838503121561082d575f80fd5b8235915060208301356001600160a01b038116811461084a575f80fd5b809150509250929050565b5f8060408385031215610866575f80fd5b50508035926020909101359150565b634e487b7160e01b5f52601160045260245ffd5b8082018082111561034a5761034a610875565b5f5b838110156108b657818101518382015260200161089e565b50505f910152565b7402832b936b4b9b9b4b7b7399d1030b1b1b7bab73a1605d1b81525f83516108ed81601585016020880161089c565b7001034b99036b4b9b9b4b733903937b6329607d1b601591840191820152835161091e81602684016020880161089c565b01602601949350505050565b602081525f825180602084015261094881604085016020870161089c565b601f01601f19169190910160400192915050565b808202811582820484141761034a5761034a610875565b634e487b7160e01b5f52604160045260245ffd5b634e487b7160e01b5f52603260045260245ffd5b5f816109a9576109a9610875565b505f19019056fea2646970667358221220b911d9d3218b871c2f4babeacc1eb4a257812caf8dec753a0dfa155dc2cd322964736f6c63430008150033",
  "immutableReferences": {},
  "source": "// SPDX-License-Identifier: Apache-2.0\npragma solidity ^0.8.0;\n\n/// @author thirdweb\n\nimport \"./interface/IPermissionsEnumerable.sol\";\nimport \"./Permissions.sol\";\n\n/**\n *  @title   PermissionsEnumerable\n *  @dev     This contracts provides extending-contracts with role-based access control mechanisms.\n *           Also provides interfaces to view all members with a given role, and total count of members.\n */\ncontract PermissionsEnumerable is IPermissionsEnumerable, Permissions {\n    /**\n     *  @notice A data structure to store data of members for a given role.\n     *\n     *  @param index    Current index in the list of accounts that have a role.\n     *  @param members  map from index => address of account that has a role\n     *  @param indexOf  map from address => index which the account has.\n     */\n    struct RoleMembers {\n        uint256 index;\n        mapping(uint256 => address) members;\n        mapping(address => uint256) indexOf;\n    }\n\n    /// @dev map from keccak256 hash of a role to its members' data. See {RoleMembers}.\n    mapping(bytes32 => RoleMembers) private roleMembers;\n\n    /**\n     *  @notice         Returns the role-member from a list of members for a role,\n     *                  at a given index.\n     *  @dev            Returns `member` who has `role`, at `index` of role-members list.\n     *                  See struct {RoleMembers}, and mapping {roleMembers}\n     *\n     *  @param role     keccak256 hash of the role. e.g. keccak256(\"TRANSFER_ROLE\")\n     *  @param index    Index in list of current members for the role.\n     *\n     *  @return member  Address of account that has `role`\n     */\n    function getRoleMember(bytes32 role, uint256 index) external view override returns (address member) {\n        uint256 currentIndex = roleMembers[role].index;\n        uint256 check;\n\n        for (uint256 i = 0; i < currentIndex; i += 1) {\n            if (roleMembers[role].members[i] != address(0)) {\n                if (check == index) {\n                    member = roleMembers[role].members[i];\n                    return member;\n                }\n                check += 1;\n            } else if (hasRole(role, address(0)) && i == roleMembers[role].indexOf[address(0)]) {\n                check += 1;\n            }\n        }\n    }\n\n    /**\n     *  @notice         Returns total number of accounts that have a role.\n     *  @dev            Returns `count` of accounts that have `role`.\n     *                  See struct {RoleMembers}, and mapping {roleMembers}\n     *\n     *  @param role     keccak256 hash of the role. e.g. keccak256(\"TRANSFER_ROLE\")\n     *\n     *  @return count   Total number of accounts that have `role`\n     */\n    function getRoleMemberCount(bytes32 role) external view override returns (uint256 count) {\n        uint256 currentIndex = roleMembers[role].index;\n\n        for (uint256 i = 0; i < currentIndex; i += 1) {\n            if (roleMembers[role].members[i] != address(0)) {\n                count += 1;\n            }\n        }\n        if (hasRole(role, address(0))) {\n            count += 1;\n        }\n    }\n\n    /// @dev Revokes `role` from `account`, and removes `account` from {roleMembers}\n    ///      See {_removeMember}\n    function _revokeRole(bytes32 role, address account) internal override {\n        super._revokeRole(role, account);\n        _removeMember(role, account);\n    }\n\n    /// @dev Grants `role` to `account`, and adds `account` to {roleMembers}\n    ///      See {_addMember}\n    function _setupRole(bytes32 role, address account) internal override {\n        super._setupRole(role, account);\n        _addMember(role, account);\n    }\n\n    /// @dev adds `account` to {roleMembers}, for `role`\n    function _addMember(bytes32 role, address account) internal {\n        uint256 idx = roleMembers[role].index;\n        roleMembers[role].index += 1;\n\n        roleMembers[role].members[idx] = account;\n        roleMembers[role].indexOf[account] = idx;\n    }\n\n    /// @dev removes `account` from {roleMembers}, for `role`\n    function _removeMember(bytes32 role, address account) internal {\n        uint256 idx = roleMembers[role].indexOf[account];\n\n        delete roleMembers[role].members[idx];\n        delete roleMembers[role].indexOf[account];\n    }\n}\n",
  "sourcePath": "@thirdweb-dev\\contracts\\extension\\PermissionsEnumerable.sol",
  "compiler": {
    "name": "solc",
    "version": "0.8.21+commit.d9974bed.Emscripten.clang"
  },
  "schemaVersion": "3.4.15",
  "updatedAt": "2023-08-15T23:19:36.613Z",
  "devdoc": {
    "details": "This contracts provides extending-contracts with role-based access control mechanisms.           Also provides interfaces to view all members with a given role, and total count of members.",
    "events": {
      "RoleAdminChanged(bytes32,bytes32,bytes32)": {
        "details": "Emitted when `newAdminRole` is set as ``role``'s admin role, replacing `previousAdminRole` `DEFAULT_ADMIN_ROLE` is the starting admin for all roles, despite {RoleAdminChanged} not being emitted signaling this. _Available since v3.1._"
      },
      "RoleGranted(bytes32,address,address)": {
        "details": "Emitted when `account` is granted `role`. `sender` is the account that originated the contract call, an admin role bearer except when using {AccessControl-_setupRole}."
      },
      "RoleRevoked(bytes32,address,address)": {
        "details": "Emitted when `account` is revoked `role`. `sender` is the account that originated the contract call:   - if using `revokeRole`, it is the admin role bearer   - if using `renounceRole`, it is the role bearer (i.e. `account`)"
      }
    },
    "kind": "dev",
    "methods": {
      "getRoleAdmin(bytes32)": {
        "details": "See {grantRole} and {revokeRole}.                  To change a role's admin, use {_setRoleAdmin}.",
        "params": {
          "role": "keccak256 hash of the role. e.g. keccak256(\"TRANSFER_ROLE\")"
        }
      },
      "getRoleMember(bytes32,uint256)": {
        "details": "Returns `member` who has `role`, at `index` of role-members list.                  See struct {RoleMembers}, and mapping {roleMembers}",
        "params": {
          "index": "Index in list of current members for the role.",
          "role": "keccak256 hash of the role. e.g. keccak256(\"TRANSFER_ROLE\")"
        },
        "returns": {
          "member": " Address of account that has `role`"
        }
      },
      "getRoleMemberCount(bytes32)": {
        "details": "Returns `count` of accounts that have `role`.                  See struct {RoleMembers}, and mapping {roleMembers}",
        "params": {
          "role": "keccak256 hash of the role. e.g. keccak256(\"TRANSFER_ROLE\")"
        },
        "returns": {
          "count": "  Total number of accounts that have `role`"
        }
      },
      "grantRole(bytes32,address)": {
        "details": "Caller must have admin role for the `role`.                  Emits {RoleGranted Event}.",
        "params": {
          "account": "Address of the account to which the role is being granted.",
          "role": "keccak256 hash of the role. e.g. keccak256(\"TRANSFER_ROLE\")"
        }
      },
      "hasRole(bytes32,address)": {
        "details": "Returns `true` if `account` has been granted `role`.",
        "params": {
          "account": "Address of the account for which the role is being checked.",
          "role": "keccak256 hash of the role. e.g. keccak256(\"TRANSFER_ROLE\")"
        }
      },
      "hasRoleWithSwitch(bytes32,address)": {
        "details": "Returns `true` if `account` has been granted `role`.                  Role restrictions can be swtiched on and off:                      - If address(0) has ROLE, then the ROLE restrictions                        don't apply.                      - If address(0) does not have ROLE, then the ROLE                        restrictions will apply.",
        "params": {
          "account": "Address of the account for which the role is being checked.",
          "role": "keccak256 hash of the role. e.g. keccak256(\"TRANSFER_ROLE\")"
        }
      },
      "renounceRole(bytes32,address)": {
        "details": "Caller must have the `role`, with caller being the same as `account`.                  Emits {RoleRevoked Event}.",
        "params": {
          "account": "Address of the account from which the role is being revoked.",
          "role": "keccak256 hash of the role. e.g. keccak256(\"TRANSFER_ROLE\")"
        }
      },
      "revokeRole(bytes32,address)": {
        "details": "Caller must have admin role for the `role`.                  Emits {RoleRevoked Event}.",
        "params": {
          "account": "Address of the account from which the role is being revoked.",
          "role": "keccak256 hash of the role. e.g. keccak256(\"TRANSFER_ROLE\")"
        }
      }
    },
    "stateVariables": {
      "roleMembers": {
        "details": "map from keccak256 hash of a role to its members' data. See {RoleMembers}."
      }
    },
    "title": "PermissionsEnumerable",
    "version": 1
  },
  "userdoc": {
    "kind": "user",
    "methods": {
      "getRoleAdmin(bytes32)": {
        "notice": "Returns the admin role that controls the specified role."
      },
      "getRoleMember(bytes32,uint256)": {
        "notice": "Returns the role-member from a list of members for a role,                  at a given index."
      },
      "getRoleMemberCount(bytes32)": {
        "notice": "Returns total number of accounts that have a role."
      },
      "grantRole(bytes32,address)": {
        "notice": "Grants a role to an account, if not previously granted."
      },
      "hasRole(bytes32,address)": {
        "notice": "Checks whether an account has a particular role."
      },
      "hasRoleWithSwitch(bytes32,address)": {
        "notice": "Checks whether an account has a particular role;                  role restrictions can be swtiched on and off."
      },
      "renounceRole(bytes32,address)": {
        "notice": "Revokes role from the account."
      },
      "revokeRole(bytes32,address)": {
        "notice": "Revokes role from an account."
      }
    },
    "version": 1
  }
}