{
  "contractName": "Permissions",
  "abi": [
    {
      "anonymous": false,
      "inputs": [
        {
          "indexed": true,
          "internalType": "bytes32",
          "name": "role",
          "type": "bytes32"
        },
        {
          "indexed": true,
          "internalType": "bytes32",
          "name": "previousAdminRole",
          "type": "bytes32"
        },
        {
          "indexed": true,
          "internalType": "bytes32",
          "name": "newAdminRole",
          "type": "bytes32"
        }
      ],
      "name": "RoleAdminChanged",
      "type": "event"
    },
    {
      "anonymous": false,
      "inputs": [
        {
          "indexed": true,
          "internalType": "bytes32",
          "name": "role",
          "type": "bytes32"
        },
        {
          "indexed": true,
          "internalType": "address",
          "name": "account",
          "type": "address"
        },
        {
          "indexed": true,
          "internalType": "address",
          "name": "sender",
          "type": "address"
        }
      ],
      "name": "RoleGranted",
      "type": "event"
    },
    {
      "anonymous": false,
      "inputs": [
        {
          "indexed": true,
          "internalType": "bytes32",
          "name": "role",
          "type": "bytes32"
        },
        {
          "indexed": true,
          "internalType": "address",
          "name": "account",
          "type": "address"
        },
        {
          "indexed": true,
          "internalType": "address",
          "name": "sender",
          "type": "address"
        }
      ],
      "name": "RoleRevoked",
      "type": "event"
    },
    {
      "inputs": [],
      "name": "DEFAULT_ADMIN_ROLE",
      "outputs": [
        {
          "internalType": "bytes32",
          "name": "",
          "type": "bytes32"
        }
      ],
      "stateMutability": "view",
      "type": "function"
    },
    {
      "inputs": [
        {
          "internalType": "bytes32",
          "name": "role",
          "type": "bytes32"
        },
        {
          "internalType": "address",
          "name": "account",
          "type": "address"
        }
      ],
      "name": "hasRole",
      "outputs": [
        {
          "internalType": "bool",
          "name": "",
          "type": "bool"
        }
      ],
      "stateMutability": "view",
      "type": "function"
    },
    {
      "inputs": [
        {
          "internalType": "bytes32",
          "name": "role",
          "type": "bytes32"
        },
        {
          "internalType": "address",
          "name": "account",
          "type": "address"
        }
      ],
      "name": "hasRoleWithSwitch",
      "outputs": [
        {
          "internalType": "bool",
          "name": "",
          "type": "bool"
        }
      ],
      "stateMutability": "view",
      "type": "function"
    },
    {
      "inputs": [
        {
          "internalType": "bytes32",
          "name": "role",
          "type": "bytes32"
        }
      ],
      "name": "getRoleAdmin",
      "outputs": [
        {
          "internalType": "bytes32",
          "name": "",
          "type": "bytes32"
        }
      ],
      "stateMutability": "view",
      "type": "function"
    },
    {
      "inputs": [
        {
          "internalType": "bytes32",
          "name": "role",
          "type": "bytes32"
        },
        {
          "internalType": "address",
          "name": "account",
          "type": "address"
        }
      ],
      "name": "grantRole",
      "outputs": [],
      "stateMutability": "nonpayable",
      "type": "function"
    },
    {
      "inputs": [
        {
          "internalType": "bytes32",
          "name": "role",
          "type": "bytes32"
        },
        {
          "internalType": "address",
          "name": "account",
          "type": "address"
        }
      ],
      "name": "revokeRole",
      "outputs": [],
      "stateMutability": "nonpayable",
      "type": "function"
    },
    {
      "inputs": [
        {
          "internalType": "bytes32",
          "name": "role",
          "type": "bytes32"
        },
        {
          "internalType": "address",
          "name": "account",
          "type": "address"
        }
      ],
      "name": "renounceRole",
      "outputs": [],
      "stateMutability": "nonpayable",
      "type": "function"
    }
  ],
  "bytecode": "0x608060405234801561000f575f80fd5b506107328061001d5f395ff3fe608060405234801561000f575f80fd5b506004361061006b575f3560e01c8063248a9ca31461006f5780632f2ff15d146100a157806336568abe146100b657806391d14854146100c9578063a217fddf146100ec578063a32fa5b3146100f3578063d547741f14610106575b5f80fd5b61008e61007d366004610571565b5f9081526001602052604090205490565b6040519081526020015b60405180910390f35b6100b46100af366004610588565b610119565b005b6100b46100c4366004610588565b6101b4565b6100dc6100d7366004610588565b610213565b6040519015158152602001610098565b61008e5f81565b6100dc610101366004610588565b61023d565b6100b4610114366004610588565b61028d565b5f8281526001602052604090205461013190336102a1565b5f828152602081815260408083206001600160a01b038516845290915290205460ff16156101a65760405162461bcd60e51b815260206004820152601d60248201527f43616e206f6e6c79206772616e7420746f206e6f6e20686f6c6465727300000060448201526064015b60405180910390fd5b6101b0828261031e565b5050565b336001600160a01b038216146102095760405162461bcd60e51b815260206004820152601a60248201527921b0b71037b7363c903932b737bab731b2903337b91039b2b63360311b604482015260640161019d565b6101b08282610376565b5f828152602081815260408083206001600160a01b038516845290915290205460ff165b92915050565b5f8281526020818152604080832083805290915281205460ff1661028457505f828152602081815260408083206001600160a01b038516845290915290205460ff16610237565b50600192915050565b5f8281526001602052604090205461020990335b5f828152602081815260408083206001600160a01b038516845290915290205460ff166101b0576102dc816001600160a01b031660146103d5565b6102e78360206103d5565b6040516020016102f89291906105e3565b60408051601f198184030181529082905262461bcd60e51b825261019d9160040161064f565b5f828152602081815260408083206001600160a01b0385168085529252808320805460ff1916600117905551339285917f2f8788117e7eff1d82e926ec794901d17c78024a50270940304540a733656f0d9190a45050565b61038082826102a1565b5f828152602081815260408083206001600160a01b0385168085529252808320805460ff1916905551339285917ff6391f5c32d9c69d2a47ea670b442974b53935d1edc7fd64eb21e047a839171b9190a45050565b60605f6103e3836002610695565b6103ee9060026106ac565b6001600160401b03811115610405576104056106bf565b6040519080825280601f01601f19166020018201604052801561042f576020820181803683370190505b509050600360fc1b815f81518110610449576104496106d3565b60200101906001600160f81b03191690815f1a905350600f60fb1b81600181518110610477576104776106d3565b60200101906001600160f81b03191690815f1a9053505f610499846002610695565b6104a49060016106ac565b90505b600181111561051b576f181899199a1a9b1b9c1cb0b131b232b360811b85600f16601081106104d8576104d86106d3565b1a60f81b8282815181106104ee576104ee6106d3565b60200101906001600160f81b03191690815f1a90535060049490941c93610514816106e7565b90506104a7565b50831561056a5760405162461bcd60e51b815260206004820181905260248201527f537472696e67733a20686578206c656e67746820696e73756666696369656e74604482015260640161019d565b9392505050565b5f60208284031215610581575f80fd5b5035919050565b5f8060408385031215610599575f80fd5b8235915060208301356001600160a01b03811681146105b6575f80fd5b809150509250929050565b5f5b838110156105db5781810151838201526020016105c3565b50505f910152565b7402832b936b4b9b9b4b7b7399d1030b1b1b7bab73a1605d1b81525f83516106128160158501602088016105c1565b7001034b99036b4b9b9b4b733903937b6329607d1b60159184019182015283516106438160268401602088016105c1565b01602601949350505050565b602081525f825180602084015261066d8160408501602087016105c1565b601f01601f19169190910160400192915050565b634e487b7160e01b5f52601160045260245ffd5b808202811582820484141761023757610237610681565b8082018082111561023757610237610681565b634e487b7160e01b5f52604160045260245ffd5b634e487b7160e01b5f52603260045260245ffd5b5f816106f5576106f5610681565b505f19019056fea26469706673582212208358f6b93d3ff1008f9091f3358529964804ac7b871c4f515172f6f9661f0c1764736f6c63430008150033",
  "immutableReferences": {},
  "source": "// SPDX-License-Identifier: Apache-2.0\npragma solidity ^0.8.0;\n\n/// @author thirdweb\n\nimport \"./interface/IPermissions.sol\";\nimport \"../lib/TWStrings.sol\";\n\n/**\n *  @title   Permissions\n *  @dev     This contracts provides extending-contracts with role-based access control mechanisms\n */\ncontract Permissions is IPermissions {\n    /// @dev Map from keccak256 hash of a role => a map from address => whether address has role.\n    mapping(bytes32 => mapping(address => bool)) private _hasRole;\n\n    /// @dev Map from keccak256 hash of a role to role admin. See {getRoleAdmin}.\n    mapping(bytes32 => bytes32) private _getRoleAdmin;\n\n    /// @dev Default admin role for all roles. Only accounts with this role can grant/revoke other roles.\n    bytes32 public constant DEFAULT_ADMIN_ROLE = 0x00;\n\n    /// @dev Modifier that checks if an account has the specified role; reverts otherwise.\n    modifier onlyRole(bytes32 role) {\n        _checkRole(role, msg.sender);\n        _;\n    }\n\n    /**\n     *  @notice         Checks whether an account has a particular role.\n     *  @dev            Returns `true` if `account` has been granted `role`.\n     *\n     *  @param role     keccak256 hash of the role. e.g. keccak256(\"TRANSFER_ROLE\")\n     *  @param account  Address of the account for which the role is being checked.\n     */\n    function hasRole(bytes32 role, address account) public view override returns (bool) {\n        return _hasRole[role][account];\n    }\n\n    /**\n     *  @notice         Checks whether an account has a particular role;\n     *                  role restrictions can be swtiched on and off.\n     *\n     *  @dev            Returns `true` if `account` has been granted `role`.\n     *                  Role restrictions can be swtiched on and off:\n     *                      - If address(0) has ROLE, then the ROLE restrictions\n     *                        don't apply.\n     *                      - If address(0) does not have ROLE, then the ROLE\n     *                        restrictions will apply.\n     *\n     *  @param role     keccak256 hash of the role. e.g. keccak256(\"TRANSFER_ROLE\")\n     *  @param account  Address of the account for which the role is being checked.\n     */\n    function hasRoleWithSwitch(bytes32 role, address account) public view returns (bool) {\n        if (!_hasRole[role][address(0)]) {\n            return _hasRole[role][account];\n        }\n\n        return true;\n    }\n\n    /**\n     *  @notice         Returns the admin role that controls the specified role.\n     *  @dev            See {grantRole} and {revokeRole}.\n     *                  To change a role's admin, use {_setRoleAdmin}.\n     *\n     *  @param role     keccak256 hash of the role. e.g. keccak256(\"TRANSFER_ROLE\")\n     */\n    function getRoleAdmin(bytes32 role) external view override returns (bytes32) {\n        return _getRoleAdmin[role];\n    }\n\n    /**\n     *  @notice         Grants a role to an account, if not previously granted.\n     *  @dev            Caller must have admin role for the `role`.\n     *                  Emits {RoleGranted Event}.\n     *\n     *  @param role     keccak256 hash of the role. e.g. keccak256(\"TRANSFER_ROLE\")\n     *  @param account  Address of the account to which the role is being granted.\n     */\n    function grantRole(bytes32 role, address account) public virtual override {\n        _checkRole(_getRoleAdmin[role], msg.sender);\n        if (_hasRole[role][account]) {\n            revert(\"Can only grant to non holders\");\n        }\n        _setupRole(role, account);\n    }\n\n    /**\n     *  @notice         Revokes role from an account.\n     *  @dev            Caller must have admin role for the `role`.\n     *                  Emits {RoleRevoked Event}.\n     *\n     *  @param role     keccak256 hash of the role. e.g. keccak256(\"TRANSFER_ROLE\")\n     *  @param account  Address of the account from which the role is being revoked.\n     */\n    function revokeRole(bytes32 role, address account) public virtual override {\n        _checkRole(_getRoleAdmin[role], msg.sender);\n        _revokeRole(role, account);\n    }\n\n    /**\n     *  @notice         Revokes role from the account.\n     *  @dev            Caller must have the `role`, with caller being the same as `account`.\n     *                  Emits {RoleRevoked Event}.\n     *\n     *  @param role     keccak256 hash of the role. e.g. keccak256(\"TRANSFER_ROLE\")\n     *  @param account  Address of the account from which the role is being revoked.\n     */\n    function renounceRole(bytes32 role, address account) public virtual override {\n        if (msg.sender != account) {\n            revert(\"Can only renounce for self\");\n        }\n        _revokeRole(role, account);\n    }\n\n    /// @dev Sets `adminRole` as `role`'s admin role.\n    function _setRoleAdmin(bytes32 role, bytes32 adminRole) internal virtual {\n        bytes32 previousAdminRole = _getRoleAdmin[role];\n        _getRoleAdmin[role] = adminRole;\n        emit RoleAdminChanged(role, previousAdminRole, adminRole);\n    }\n\n    /// @dev Sets up `role` for `account`\n    function _setupRole(bytes32 role, address account) internal virtual {\n        _hasRole[role][account] = true;\n        emit RoleGranted(role, account, msg.sender);\n    }\n\n    /// @dev Revokes `role` from `account`\n    function _revokeRole(bytes32 role, address account) internal virtual {\n        _checkRole(role, account);\n        delete _hasRole[role][account];\n        emit RoleRevoked(role, account, msg.sender);\n    }\n\n    /// @dev Checks `role` for `account`. Reverts with a message including the required role.\n    function _checkRole(bytes32 role, address account) internal view virtual {\n        if (!_hasRole[role][account]) {\n            revert(\n                string(\n                    abi.encodePacked(\n                        \"Permissions: account \",\n                        TWStrings.toHexString(uint160(account), 20),\n                        \" is missing role \",\n                        TWStrings.toHexString(uint256(role), 32)\n                    )\n                )\n            );\n        }\n    }\n\n    /// @dev Checks `role` for `account`. Reverts with a message including the required role.\n    function _checkRoleWithSwitch(bytes32 role, address account) internal view virtual {\n        if (!hasRoleWithSwitch(role, account)) {\n            revert(\n                string(\n                    abi.encodePacked(\n                        \"Permissions: account \",\n                        TWStrings.toHexString(uint160(account), 20),\n                        \" is missing role \",\n                        TWStrings.toHexString(uint256(role), 32)\n                    )\n                )\n            );\n        }\n    }\n}\n",
  "sourcePath": "@thirdweb-dev\\contracts\\extension\\Permissions.sol",
  "compiler": {
    "name": "solc",
    "version": "0.8.21+commit.d9974bed.Emscripten.clang"
  },
  "schemaVersion": "3.4.15",
  "updatedAt": "2023-08-15T23:19:36.609Z",
  "devdoc": {
    "details": "This contracts provides extending-contracts with role-based access control mechanisms",
    "events": {
      "RoleAdminChanged(bytes32,bytes32,bytes32)": {
        "details": "Emitted when `newAdminRole` is set as ``role``'s admin role, replacing `previousAdminRole` `DEFAULT_ADMIN_ROLE` is the starting admin for all roles, despite {RoleAdminChanged} not being emitted signaling this. _Available since v3.1._"
      },
      "RoleGranted(bytes32,address,address)": {
        "details": "Emitted when `account` is granted `role`. `sender` is the account that originated the contract call, an admin role bearer except when using {AccessControl-_setupRole}."
      },
      "RoleRevoked(bytes32,address,address)": {
        "details": "Emitted when `account` is revoked `role`. `sender` is the account that originated the contract call:   - if using `revokeRole`, it is the admin role bearer   - if using `renounceRole`, it is the role bearer (i.e. `account`)"
      }
    },
    "kind": "dev",
    "methods": {
      "getRoleAdmin(bytes32)": {
        "details": "See {grantRole} and {revokeRole}.                  To change a role's admin, use {_setRoleAdmin}.",
        "params": {
          "role": "keccak256 hash of the role. e.g. keccak256(\"TRANSFER_ROLE\")"
        }
      },
      "grantRole(bytes32,address)": {
        "details": "Caller must have admin role for the `role`.                  Emits {RoleGranted Event}.",
        "params": {
          "account": "Address of the account to which the role is being granted.",
          "role": "keccak256 hash of the role. e.g. keccak256(\"TRANSFER_ROLE\")"
        }
      },
      "hasRole(bytes32,address)": {
        "details": "Returns `true` if `account` has been granted `role`.",
        "params": {
          "account": "Address of the account for which the role is being checked.",
          "role": "keccak256 hash of the role. e.g. keccak256(\"TRANSFER_ROLE\")"
        }
      },
      "hasRoleWithSwitch(bytes32,address)": {
        "details": "Returns `true` if `account` has been granted `role`.                  Role restrictions can be swtiched on and off:                      - If address(0) has ROLE, then the ROLE restrictions                        don't apply.                      - If address(0) does not have ROLE, then the ROLE                        restrictions will apply.",
        "params": {
          "account": "Address of the account for which the role is being checked.",
          "role": "keccak256 hash of the role. e.g. keccak256(\"TRANSFER_ROLE\")"
        }
      },
      "renounceRole(bytes32,address)": {
        "details": "Caller must have the `role`, with caller being the same as `account`.                  Emits {RoleRevoked Event}.",
        "params": {
          "account": "Address of the account from which the role is being revoked.",
          "role": "keccak256 hash of the role. e.g. keccak256(\"TRANSFER_ROLE\")"
        }
      },
      "revokeRole(bytes32,address)": {
        "details": "Caller must have admin role for the `role`.                  Emits {RoleRevoked Event}.",
        "params": {
          "account": "Address of the account from which the role is being revoked.",
          "role": "keccak256 hash of the role. e.g. keccak256(\"TRANSFER_ROLE\")"
        }
      }
    },
    "stateVariables": {
      "DEFAULT_ADMIN_ROLE": {
        "details": "Default admin role for all roles. Only accounts with this role can grant/revoke other roles."
      },
      "_getRoleAdmin": {
        "details": "Map from keccak256 hash of a role to role admin. See {getRoleAdmin}."
      },
      "_hasRole": {
        "details": "Map from keccak256 hash of a role => a map from address => whether address has role."
      }
    },
    "title": "Permissions",
    "version": 1
  },
  "userdoc": {
    "kind": "user",
    "methods": {
      "getRoleAdmin(bytes32)": {
        "notice": "Returns the admin role that controls the specified role."
      },
      "grantRole(bytes32,address)": {
        "notice": "Grants a role to an account, if not previously granted."
      },
      "hasRole(bytes32,address)": {
        "notice": "Checks whether an account has a particular role."
      },
      "hasRoleWithSwitch(bytes32,address)": {
        "notice": "Checks whether an account has a particular role;                  role restrictions can be swtiched on and off."
      },
      "renounceRole(bytes32,address)": {
        "notice": "Revokes role from the account."
      },
      "revokeRole(bytes32,address)": {
        "notice": "Revokes role from an account."
      }
    },
    "version": 1
  }
}