{
  "contractName": "SpaceWarsNFT",
  "abi": [
    {
      "inputs": [],
      "stateMutability": "nonpayable",
      "type": "constructor"
    },
    {
      "anonymous": false,
      "inputs": [
        {
          "indexed": true,
          "internalType": "address",
          "name": "account",
          "type": "address"
        },
        {
          "indexed": true,
          "internalType": "address",
          "name": "operator",
          "type": "address"
        },
        {
          "indexed": false,
          "internalType": "bool",
          "name": "approved",
          "type": "bool"
        }
      ],
      "name": "ApprovalForAll",
      "type": "event"
    },
    {
      "anonymous": false,
      "inputs": [
        {
          "indexed": true,
          "internalType": "address",
          "name": "newRoyaltyRecipient",
          "type": "address"
        },
        {
          "indexed": false,
          "internalType": "uint256",
          "name": "newRoyaltyBps",
          "type": "uint256"
        }
      ],
      "name": "DefaultRoyalty",
      "type": "event"
    },
    {
      "anonymous": false,
      "inputs": [
        {
          "indexed": false,
          "internalType": "address",
          "name": "platformFeeRecipient",
          "type": "address"
        },
        {
          "indexed": false,
          "internalType": "uint256",
          "name": "flatFee",
          "type": "uint256"
        }
      ],
      "name": "FlatPlatformFeeUpdated",
      "type": "event"
    },
    {
      "anonymous": false,
      "inputs": [
        {
          "indexed": false,
          "internalType": "uint8",
          "name": "version",
          "type": "uint8"
        }
      ],
      "name": "Initialized",
      "type": "event"
    },
    {
      "anonymous": false,
      "inputs": [
        {
          "indexed": true,
          "internalType": "address",
          "name": "prevOwner",
          "type": "address"
        },
        {
          "indexed": true,
          "internalType": "address",
          "name": "newOwner",
          "type": "address"
        }
      ],
      "name": "OwnerUpdated",
      "type": "event"
    },
    {
      "anonymous": false,
      "inputs": [
        {
          "indexed": true,
          "internalType": "address",
          "name": "platformFeeRecipient",
          "type": "address"
        },
        {
          "indexed": false,
          "internalType": "uint256",
          "name": "platformFeeBps",
          "type": "uint256"
        }
      ],
      "name": "PlatformFeeInfoUpdated",
      "type": "event"
    },
    {
      "anonymous": false,
      "inputs": [
        {
          "indexed": false,
          "internalType": "enum IPlatformFee.PlatformFeeType",
          "name": "feeType",
          "type": "uint8"
        }
      ],
      "name": "PlatformFeeTypeUpdated",
      "type": "event"
    },
    {
      "anonymous": false,
      "inputs": [
        {
          "indexed": true,
          "internalType": "address",
          "name": "recipient",
          "type": "address"
        }
      ],
      "name": "PrimarySaleRecipientUpdated",
      "type": "event"
    },
    {
      "anonymous": false,
      "inputs": [
        {
          "indexed": true,
          "internalType": "bytes32",
          "name": "role",
          "type": "bytes32"
        },
        {
          "indexed": true,
          "internalType": "bytes32",
          "name": "previousAdminRole",
          "type": "bytes32"
        },
        {
          "indexed": true,
          "internalType": "bytes32",
          "name": "newAdminRole",
          "type": "bytes32"
        }
      ],
      "name": "RoleAdminChanged",
      "type": "event"
    },
    {
      "anonymous": false,
      "inputs": [
        {
          "indexed": true,
          "internalType": "bytes32",
          "name": "role",
          "type": "bytes32"
        },
        {
          "indexed": true,
          "internalType": "address",
          "name": "account",
          "type": "address"
        },
        {
          "indexed": true,
          "internalType": "address",
          "name": "sender",
          "type": "address"
        }
      ],
      "name": "RoleGranted",
      "type": "event"
    },
    {
      "anonymous": false,
      "inputs": [
        {
          "indexed": true,
          "internalType": "bytes32",
          "name": "role",
          "type": "bytes32"
        },
        {
          "indexed": true,
          "internalType": "address",
          "name": "account",
          "type": "address"
        },
        {
          "indexed": true,
          "internalType": "address",
          "name": "sender",
          "type": "address"
        }
      ],
      "name": "RoleRevoked",
      "type": "event"
    },
    {
      "anonymous": false,
      "inputs": [
        {
          "indexed": true,
          "internalType": "uint256",
          "name": "tokenId",
          "type": "uint256"
        },
        {
          "indexed": true,
          "internalType": "address",
          "name": "royaltyRecipient",
          "type": "address"
        },
        {
          "indexed": false,
          "internalType": "uint256",
          "name": "royaltyBps",
          "type": "uint256"
        }
      ],
      "name": "RoyaltyForToken",
      "type": "event"
    },
    {
      "anonymous": false,
      "inputs": [
        {
          "indexed": true,
          "internalType": "address",
          "name": "mintedTo",
          "type": "address"
        },
        {
          "indexed": true,
          "internalType": "uint256",
          "name": "tokenIdMinted",
          "type": "uint256"
        },
        {
          "indexed": false,
          "internalType": "string",
          "name": "uri",
          "type": "string"
        },
        {
          "indexed": false,
          "internalType": "uint256",
          "name": "quantityMinted",
          "type": "uint256"
        }
      ],
      "name": "TokensMinted",
      "type": "event"
    },
    {
      "anonymous": false,
      "inputs": [
        {
          "indexed": true,
          "internalType": "address",
          "name": "signer",
          "type": "address"
        },
        {
          "indexed": true,
          "internalType": "address",
          "name": "mintedTo",
          "type": "address"
        },
        {
          "indexed": true,
          "internalType": "uint256",
          "name": "tokenIdMinted",
          "type": "uint256"
        },
        {
          "components": [
            {
              "internalType": "address",
              "name": "to",
              "type": "address"
            },
            {
              "internalType": "address",
              "name": "royaltyRecipient",
              "type": "address"
            },
            {
              "internalType": "uint256",
              "name": "royaltyBps",
              "type": "uint256"
            },
            {
              "internalType": "address",
              "name": "primarySaleRecipient",
              "type": "address"
            },
            {
              "internalType": "uint256",
              "name": "tokenId",
              "type": "uint256"
            },
            {
              "internalType": "string",
              "name": "uri",
              "type": "string"
            },
            {
              "internalType": "uint256",
              "name": "quantity",
              "type": "uint256"
            },
            {
              "internalType": "uint256",
              "name": "pricePerToken",
              "type": "uint256"
            },
            {
              "internalType": "address",
              "name": "currency",
              "type": "address"
            },
            {
              "internalType": "uint128",
              "name": "validityStartTimestamp",
              "type": "uint128"
            },
            {
              "internalType": "uint128",
              "name": "validityEndTimestamp",
              "type": "uint128"
            },
            {
              "internalType": "bytes32",
              "name": "uid",
              "type": "bytes32"
            }
          ],
          "indexed": false,
          "internalType": "struct ITokenERC1155.MintRequest",
          "name": "mintRequest",
          "type": "tuple"
        }
      ],
      "name": "TokensMintedWithSignature",
      "type": "event"
    },
    {
      "anonymous": false,
      "inputs": [
        {
          "indexed": true,
          "internalType": "address",
          "name": "operator",
          "type": "address"
        },
        {
          "indexed": true,
          "internalType": "address",
          "name": "from",
          "type": "address"
        },
        {
          "indexed": true,
          "internalType": "address",
          "name": "to",
          "type": "address"
        },
        {
          "indexed": false,
          "internalType": "uint256[]",
          "name": "ids",
          "type": "uint256[]"
        },
        {
          "indexed": false,
          "internalType": "uint256[]",
          "name": "values",
          "type": "uint256[]"
        }
      ],
      "name": "TransferBatch",
      "type": "event"
    },
    {
      "anonymous": false,
      "inputs": [
        {
          "indexed": true,
          "internalType": "address",
          "name": "operator",
          "type": "address"
        },
        {
          "indexed": true,
          "internalType": "address",
          "name": "from",
          "type": "address"
        },
        {
          "indexed": true,
          "internalType": "address",
          "name": "to",
          "type": "address"
        },
        {
          "indexed": false,
          "internalType": "uint256",
          "name": "id",
          "type": "uint256"
        },
        {
          "indexed": false,
          "internalType": "uint256",
          "name": "value",
          "type": "uint256"
        }
      ],
      "name": "TransferSingle",
      "type": "event"
    },
    {
      "anonymous": false,
      "inputs": [
        {
          "indexed": false,
          "internalType": "string",
          "name": "value",
          "type": "string"
        },
        {
          "indexed": true,
          "internalType": "uint256",
          "name": "id",
          "type": "uint256"
        }
      ],
      "name": "URI",
      "type": "event"
    },
    {
      "inputs": [],
      "name": "DEFAULT_ADMIN_ROLE",
      "outputs": [
        {
          "internalType": "bytes32",
          "name": "",
          "type": "bytes32"
        }
      ],
      "stateMutability": "view",
      "type": "function"
    },
    {
      "inputs": [
        {
          "internalType": "address",
          "name": "account",
          "type": "address"
        },
        {
          "internalType": "uint256",
          "name": "id",
          "type": "uint256"
        }
      ],
      "name": "balanceOf",
      "outputs": [
        {
          "internalType": "uint256",
          "name": "",
          "type": "uint256"
        }
      ],
      "stateMutability": "view",
      "type": "function"
    },
    {
      "inputs": [
        {
          "internalType": "address[]",
          "name": "accounts",
          "type": "address[]"
        },
        {
          "internalType": "uint256[]",
          "name": "ids",
          "type": "uint256[]"
        }
      ],
      "name": "balanceOfBatch",
      "outputs": [
        {
          "internalType": "uint256[]",
          "name": "",
          "type": "uint256[]"
        }
      ],
      "stateMutability": "view",
      "type": "function"
    },
    {
      "inputs": [],
      "name": "contractURI",
      "outputs": [
        {
          "internalType": "string",
          "name": "",
          "type": "string"
        }
      ],
      "stateMutability": "view",
      "type": "function"
    },
    {
      "inputs": [
        {
          "internalType": "bytes32",
          "name": "role",
          "type": "bytes32"
        }
      ],
      "name": "getRoleAdmin",
      "outputs": [
        {
          "internalType": "bytes32",
          "name": "",
          "type": "bytes32"
        }
      ],
      "stateMutability": "view",
      "type": "function"
    },
    {
      "inputs": [
        {
          "internalType": "bytes32",
          "name": "role",
          "type": "bytes32"
        },
        {
          "internalType": "uint256",
          "name": "index",
          "type": "uint256"
        }
      ],
      "name": "getRoleMember",
      "outputs": [
        {
          "internalType": "address",
          "name": "",
          "type": "address"
        }
      ],
      "stateMutability": "view",
      "type": "function"
    },
    {
      "inputs": [
        {
          "internalType": "bytes32",
          "name": "role",
          "type": "bytes32"
        }
      ],
      "name": "getRoleMemberCount",
      "outputs": [
        {
          "internalType": "uint256",
          "name": "",
          "type": "uint256"
        }
      ],
      "stateMutability": "view",
      "type": "function"
    },
    {
      "inputs": [
        {
          "internalType": "bytes32",
          "name": "role",
          "type": "bytes32"
        },
        {
          "internalType": "address",
          "name": "account",
          "type": "address"
        }
      ],
      "name": "grantRole",
      "outputs": [],
      "stateMutability": "nonpayable",
      "type": "function"
    },
    {
      "inputs": [
        {
          "internalType": "bytes32",
          "name": "role",
          "type": "bytes32"
        },
        {
          "internalType": "address",
          "name": "account",
          "type": "address"
        }
      ],
      "name": "hasRole",
      "outputs": [
        {
          "internalType": "bool",
          "name": "",
          "type": "bool"
        }
      ],
      "stateMutability": "view",
      "type": "function"
    },
    {
      "inputs": [
        {
          "internalType": "address",
          "name": "account",
          "type": "address"
        },
        {
          "internalType": "address",
          "name": "operator",
          "type": "address"
        }
      ],
      "name": "isApprovedForAll",
      "outputs": [
        {
          "internalType": "bool",
          "name": "",
          "type": "bool"
        }
      ],
      "stateMutability": "view",
      "type": "function"
    },
    {
      "inputs": [
        {
          "internalType": "address",
          "name": "forwarder",
          "type": "address"
        }
      ],
      "name": "isTrustedForwarder",
      "outputs": [
        {
          "internalType": "bool",
          "name": "",
          "type": "bool"
        }
      ],
      "stateMutability": "view",
      "type": "function"
    },
    {
      "inputs": [
        {
          "internalType": "bytes[]",
          "name": "data",
          "type": "bytes[]"
        }
      ],
      "name": "multicall",
      "outputs": [
        {
          "internalType": "bytes[]",
          "name": "results",
          "type": "bytes[]"
        }
      ],
      "stateMutability": "nonpayable",
      "type": "function"
    },
    {
      "inputs": [],
      "name": "name",
      "outputs": [
        {
          "internalType": "string",
          "name": "",
          "type": "string"
        }
      ],
      "stateMutability": "view",
      "type": "function"
    },
    {
      "inputs": [],
      "name": "nextTokenIdToMint",
      "outputs": [
        {
          "internalType": "uint256",
          "name": "",
          "type": "uint256"
        }
      ],
      "stateMutability": "view",
      "type": "function"
    },
    {
      "inputs": [],
      "name": "platformFeeRecipient",
      "outputs": [
        {
          "internalType": "address",
          "name": "",
          "type": "address"
        }
      ],
      "stateMutability": "view",
      "type": "function"
    },
    {
      "inputs": [],
      "name": "primarySaleRecipient",
      "outputs": [
        {
          "internalType": "address",
          "name": "",
          "type": "address"
        }
      ],
      "stateMutability": "view",
      "type": "function"
    },
    {
      "inputs": [
        {
          "internalType": "bytes32",
          "name": "role",
          "type": "bytes32"
        },
        {
          "internalType": "address",
          "name": "account",
          "type": "address"
        }
      ],
      "name": "renounceRole",
      "outputs": [],
      "stateMutability": "nonpayable",
      "type": "function"
    },
    {
      "inputs": [
        {
          "internalType": "bytes32",
          "name": "role",
          "type": "bytes32"
        },
        {
          "internalType": "address",
          "name": "account",
          "type": "address"
        }
      ],
      "name": "revokeRole",
      "outputs": [],
      "stateMutability": "nonpayable",
      "type": "function"
    },
    {
      "inputs": [
        {
          "internalType": "address",
          "name": "from",
          "type": "address"
        },
        {
          "internalType": "address",
          "name": "to",
          "type": "address"
        },
        {
          "internalType": "uint256[]",
          "name": "ids",
          "type": "uint256[]"
        },
        {
          "internalType": "uint256[]",
          "name": "amounts",
          "type": "uint256[]"
        },
        {
          "internalType": "bytes",
          "name": "data",
          "type": "bytes"
        }
      ],
      "name": "safeBatchTransferFrom",
      "outputs": [],
      "stateMutability": "nonpayable",
      "type": "function"
    },
    {
      "inputs": [
        {
          "internalType": "address",
          "name": "from",
          "type": "address"
        },
        {
          "internalType": "address",
          "name": "to",
          "type": "address"
        },
        {
          "internalType": "uint256",
          "name": "id",
          "type": "uint256"
        },
        {
          "internalType": "uint256",
          "name": "amount",
          "type": "uint256"
        },
        {
          "internalType": "bytes",
          "name": "data",
          "type": "bytes"
        }
      ],
      "name": "safeTransferFrom",
      "outputs": [],
      "stateMutability": "nonpayable",
      "type": "function"
    },
    {
      "inputs": [
        {
          "internalType": "uint256",
          "name": "",
          "type": "uint256"
        }
      ],
      "name": "saleRecipientForToken",
      "outputs": [
        {
          "internalType": "address",
          "name": "",
          "type": "address"
        }
      ],
      "stateMutability": "view",
      "type": "function"
    },
    {
      "inputs": [
        {
          "internalType": "address",
          "name": "operator",
          "type": "address"
        },
        {
          "internalType": "bool",
          "name": "approved",
          "type": "bool"
        }
      ],
      "name": "setApprovalForAll",
      "outputs": [],
      "stateMutability": "nonpayable",
      "type": "function"
    },
    {
      "inputs": [],
      "name": "symbol",
      "outputs": [
        {
          "internalType": "string",
          "name": "",
          "type": "string"
        }
      ],
      "stateMutability": "view",
      "type": "function"
    },
    {
      "inputs": [
        {
          "internalType": "uint256",
          "name": "",
          "type": "uint256"
        }
      ],
      "name": "totalSupply",
      "outputs": [
        {
          "internalType": "uint256",
          "name": "",
          "type": "uint256"
        }
      ],
      "stateMutability": "view",
      "type": "function"
    },
    {
      "inputs": [
        {
          "internalType": "address",
          "name": "_defaultAdmin",
          "type": "address"
        },
        {
          "internalType": "string",
          "name": "_name",
          "type": "string"
        },
        {
          "internalType": "string",
          "name": "_symbol",
          "type": "string"
        },
        {
          "internalType": "string",
          "name": "_contractURI",
          "type": "string"
        },
        {
          "internalType": "address[]",
          "name": "_trustedForwarders",
          "type": "address[]"
        },
        {
          "internalType": "address",
          "name": "_primarySaleRecipient",
          "type": "address"
        },
        {
          "internalType": "address",
          "name": "_royaltyRecipient",
          "type": "address"
        },
        {
          "internalType": "uint128",
          "name": "_royaltyBps",
          "type": "uint128"
        },
        {
          "internalType": "uint128",
          "name": "_platformFeeBps",
          "type": "uint128"
        },
        {
          "internalType": "address",
          "name": "_platformFeeRecipient",
          "type": "address"
        }
      ],
      "name": "initialize",
      "outputs": [],
      "stateMutability": "nonpayable",
      "type": "function"
    },
    {
      "inputs": [],
      "name": "contractType",
      "outputs": [
        {
          "internalType": "bytes32",
          "name": "",
          "type": "bytes32"
        }
      ],
      "stateMutability": "pure",
      "type": "function"
    },
    {
      "inputs": [],
      "name": "contractVersion",
      "outputs": [
        {
          "internalType": "uint8",
          "name": "",
          "type": "uint8"
        }
      ],
      "stateMutability": "pure",
      "type": "function"
    },
    {
      "inputs": [],
      "name": "owner",
      "outputs": [
        {
          "internalType": "address",
          "name": "",
          "type": "address"
        }
      ],
      "stateMutability": "view",
      "type": "function"
    },
    {
      "inputs": [
        {
          "components": [
            {
              "internalType": "address",
              "name": "to",
              "type": "address"
            },
            {
              "internalType": "address",
              "name": "royaltyRecipient",
              "type": "address"
            },
            {
              "internalType": "uint256",
              "name": "royaltyBps",
              "type": "uint256"
            },
            {
              "internalType": "address",
              "name": "primarySaleRecipient",
              "type": "address"
            },
            {
              "internalType": "uint256",
              "name": "tokenId",
              "type": "uint256"
            },
            {
              "internalType": "string",
              "name": "uri",
              "type": "string"
            },
            {
              "internalType": "uint256",
              "name": "quantity",
              "type": "uint256"
            },
            {
              "internalType": "uint256",
              "name": "pricePerToken",
              "type": "uint256"
            },
            {
              "internalType": "address",
              "name": "currency",
              "type": "address"
            },
            {
              "internalType": "uint128",
              "name": "validityStartTimestamp",
              "type": "uint128"
            },
            {
              "internalType": "uint128",
              "name": "validityEndTimestamp",
              "type": "uint128"
            },
            {
              "internalType": "bytes32",
              "name": "uid",
              "type": "bytes32"
            }
          ],
          "internalType": "struct ITokenERC1155.MintRequest",
          "name": "_req",
          "type": "tuple"
        },
        {
          "internalType": "bytes",
          "name": "_signature",
          "type": "bytes"
        }
      ],
      "name": "verify",
      "outputs": [
        {
          "internalType": "bool",
          "name": "",
          "type": "bool"
        },
        {
          "internalType": "address",
          "name": "",
          "type": "address"
        }
      ],
      "stateMutability": "view",
      "type": "function"
    },
    {
      "inputs": [
        {
          "internalType": "uint256",
          "name": "_tokenId",
          "type": "uint256"
        }
      ],
      "name": "uri",
      "outputs": [
        {
          "internalType": "string",
          "name": "",
          "type": "string"
        }
      ],
      "stateMutability": "view",
      "type": "function"
    },
    {
      "inputs": [
        {
          "internalType": "address",
          "name": "_to",
          "type": "address"
        },
        {
          "internalType": "uint256",
          "name": "_tokenId",
          "type": "uint256"
        },
        {
          "internalType": "string",
          "name": "_uri",
          "type": "string"
        },
        {
          "internalType": "uint256",
          "name": "_amount",
          "type": "uint256"
        }
      ],
      "name": "mintTo",
      "outputs": [],
      "stateMutability": "nonpayable",
      "type": "function"
    },
    {
      "inputs": [
        {
          "internalType": "uint256",
          "name": "tokenId",
          "type": "uint256"
        },
        {
          "internalType": "uint256",
          "name": "salePrice",
          "type": "uint256"
        }
      ],
      "name": "royaltyInfo",
      "outputs": [
        {
          "internalType": "address",
          "name": "receiver",
          "type": "address"
        },
        {
          "internalType": "uint256",
          "name": "royaltyAmount",
          "type": "uint256"
        }
      ],
      "stateMutability": "view",
      "type": "function"
    },
    {
      "inputs": [
        {
          "components": [
            {
              "internalType": "address",
              "name": "to",
              "type": "address"
            },
            {
              "internalType": "address",
              "name": "royaltyRecipient",
              "type": "address"
            },
            {
              "internalType": "uint256",
              "name": "royaltyBps",
              "type": "uint256"
            },
            {
              "internalType": "address",
              "name": "primarySaleRecipient",
              "type": "address"
            },
            {
              "internalType": "uint256",
              "name": "tokenId",
              "type": "uint256"
            },
            {
              "internalType": "string",
              "name": "uri",
              "type": "string"
            },
            {
              "internalType": "uint256",
              "name": "quantity",
              "type": "uint256"
            },
            {
              "internalType": "uint256",
              "name": "pricePerToken",
              "type": "uint256"
            },
            {
              "internalType": "address",
              "name": "currency",
              "type": "address"
            },
            {
              "internalType": "uint128",
              "name": "validityStartTimestamp",
              "type": "uint128"
            },
            {
              "internalType": "uint128",
              "name": "validityEndTimestamp",
              "type": "uint128"
            },
            {
              "internalType": "bytes32",
              "name": "uid",
              "type": "bytes32"
            }
          ],
          "internalType": "struct ITokenERC1155.MintRequest",
          "name": "_req",
          "type": "tuple"
        },
        {
          "internalType": "bytes",
          "name": "_signature",
          "type": "bytes"
        }
      ],
      "name": "mintWithSignature",
      "outputs": [],
      "stateMutability": "payable",
      "type": "function"
    },
    {
      "inputs": [
        {
          "internalType": "address",
          "name": "_saleRecipient",
          "type": "address"
        }
      ],
      "name": "setPrimarySaleRecipient",
      "outputs": [],
      "stateMutability": "nonpayable",
      "type": "function"
    },
    {
      "inputs": [
        {
          "internalType": "address",
          "name": "_royaltyRecipient",
          "type": "address"
        },
        {
          "internalType": "uint256",
          "name": "_royaltyBps",
          "type": "uint256"
        }
      ],
      "name": "setDefaultRoyaltyInfo",
      "outputs": [],
      "stateMutability": "nonpayable",
      "type": "function"
    },
    {
      "inputs": [
        {
          "internalType": "uint256",
          "name": "_tokenId",
          "type": "uint256"
        },
        {
          "internalType": "address",
          "name": "_recipient",
          "type": "address"
        },
        {
          "internalType": "uint256",
          "name": "_bps",
          "type": "uint256"
        }
      ],
      "name": "setRoyaltyInfoForToken",
      "outputs": [],
      "stateMutability": "nonpayable",
      "type": "function"
    },
    {
      "inputs": [
        {
          "internalType": "address",
          "name": "_platformFeeRecipient",
          "type": "address"
        },
        {
          "internalType": "uint256",
          "name": "_platformFeeBps",
          "type": "uint256"
        }
      ],
      "name": "setPlatformFeeInfo",
      "outputs": [],
      "stateMutability": "nonpayable",
      "type": "function"
    },
    {
      "inputs": [
        {
          "internalType": "address",
          "name": "_newOwner",
          "type": "address"
        }
      ],
      "name": "setOwner",
      "outputs": [],
      "stateMutability": "nonpayable",
      "type": "function"
    },
    {
      "inputs": [
        {
          "internalType": "string",
          "name": "_uri",
          "type": "string"
        }
      ],
      "name": "setContractURI",
      "outputs": [],
      "stateMutability": "nonpayable",
      "type": "function"
    },
    {
      "inputs": [],
      "name": "getPlatformFeeInfo",
      "outputs": [
        {
          "internalType": "address",
          "name": "",
          "type": "address"
        },
        {
          "internalType": "uint16",
          "name": "",
          "type": "uint16"
        }
      ],
      "stateMutability": "view",
      "type": "function"
    },
    {
      "inputs": [],
      "name": "getDefaultRoyaltyInfo",
      "outputs": [
        {
          "internalType": "address",
          "name": "",
          "type": "address"
        },
        {
          "internalType": "uint16",
          "name": "",
          "type": "uint16"
        }
      ],
      "stateMutability": "view",
      "type": "function"
    },
    {
      "inputs": [
        {
          "internalType": "uint256",
          "name": "_tokenId",
          "type": "uint256"
        }
      ],
      "name": "getRoyaltyInfoForToken",
      "outputs": [
        {
          "internalType": "address",
          "name": "",
          "type": "address"
        },
        {
          "internalType": "uint16",
          "name": "",
          "type": "uint16"
        }
      ],
      "stateMutability": "view",
      "type": "function"
    },
    {
      "inputs": [
        {
          "internalType": "address",
          "name": "account",
          "type": "address"
        },
        {
          "internalType": "uint256",
          "name": "id",
          "type": "uint256"
        },
        {
          "internalType": "uint256",
          "name": "value",
          "type": "uint256"
        }
      ],
      "name": "burn",
      "outputs": [],
      "stateMutability": "nonpayable",
      "type": "function"
    },
    {
      "inputs": [
        {
          "internalType": "address",
          "name": "account",
          "type": "address"
        },
        {
          "internalType": "uint256[]",
          "name": "ids",
          "type": "uint256[]"
        },
        {
          "internalType": "uint256[]",
          "name": "values",
          "type": "uint256[]"
        }
      ],
      "name": "burnBatch",
      "outputs": [],
      "stateMutability": "nonpayable",
      "type": "function"
    },
    {
      "inputs": [
        {
          "internalType": "bytes4",
          "name": "interfaceId",
          "type": "bytes4"
        }
      ],
      "name": "supportsInterface",
      "outputs": [
        {
          "internalType": "bool",
          "name": "",
          "type": "bool"
        }
      ],
      "stateMutability": "view",
      "type": "function"
    }
  ],
  "bytecode": "0x608060405234801562000010575f80fd5b506200001b62000021565b620000e0565b5f54610100900460ff16156200008d5760405162461bcd60e51b815260206004820152602760248201527f496e697469616c697a61626c653a20636f6e747261637420697320696e697469604482015266616c697a696e6760c81b606482015260840160405180910390fd5b5f5460ff9081161015620000de575f805460ff191660ff9081179091556040519081527f7f26b83ff96e1f2b6a682f133852f6798a09c465da95921460cefb38474024989060200160405180910390a15b565b614f0580620000ee5f395ff3fe608060405260043610610200575f3560e01c8062fdd58e1461020457806301ffc9a71461023657806306fdde0314610265578063079fe40e146102865780630e89341c146102be57806313af4035146102dd5780631e7ac488146102fe578063248a9ca31461031d5780632a55205a1461033c5780632eb2c2d6146103695780632f2ff15d1461038857806336568abe146103a75780633b1475a7146103c65780634cc157df146103dc5780634e1273f41461041d578063572b6c0514610449578063600dd5ea146104685780636b20c454146104875780636f4f2837146104a65780638da5cb5b146104c55780639010d07c146104d957806391d14854146104f8578063938e3d7b1461051757806395d89b411461053657806398a6e9931461054a5780639bcf7a151461055d578063a0a8e4601461057c578063a217fddf14610597578063a22cb465146105aa578063ac9650d8146105c9578063b03f4528146105f5578063b17cd86f14610614578063b24f2d3914610652578063bd85b03914610680578063ca15c873146106ac578063cb2ef6f7146106cb578063d45573f6146106ec578063d547741f14610721578063e159163414610740578063e8a3d4851461075f578063e985e9c514610773578063ea500d69146107bb578063eb13554f146107f0578063f242432a14610810578063f5298aca1461082f575b5f80fd5b34801561020f575f80fd5b5061022361021e366004613a20565b61084e565b6040519081526020015b60405180910390f35b348015610241575f80fd5b50610255610250366004613a5d565b6108e8565b604051901515815260200161022d565b348015610270575f80fd5b5061027961092d565b60405161022d9190613ac5565b348015610291575f80fd5b506101c9546102a6906001600160a01b031681565b6040516001600160a01b03909116815260200161022d565b3480156102c9575f80fd5b506102796102d8366004613ae4565b6109ba565b3480156102e8575f80fd5b506102fc6102f7366004613afb565b610a5a565b005b348015610309575f80fd5b506102fc610318366004613a20565b610b0b565b348015610328575f80fd5b50610223610337366004613ae4565b610bb0565b348015610347575f80fd5b5061035b610356366004613b14565b610bc5565b60405161022d929190613b34565b348015610374575f80fd5b506102fc610383366004613c8c565b610c00565b348015610393575f80fd5b506102fc6103a2366004613d2e565b610c5e565b3480156103b2575f80fd5b506102fc6103c1366004613d2e565b610c7f565b3480156103d1575f80fd5b506102236101c85481565b3480156103e7575f80fd5b506103fb6103f6366004613ae4565b610d0d565b604080516001600160a01b03909316835261ffff90911660208301520161022d565b348015610428575f80fd5b5061043c610437366004613dc2565b610d7c565b60405161022d9190613e5a565b348015610454575f80fd5b50610255610463366004613afb565b610ea3565b348015610473575f80fd5b506102fc610482366004613a20565b610ec0565b348015610492575f80fd5b506102fc6104a1366004613e6c565b610f57565b3480156104b1575f80fd5b506102fc6104c0366004613afb565b610fac565b3480156104d0575f80fd5b506102a6611001565b3480156104e4575f80fd5b506102a66104f3366004613b14565b611037565b348015610503575f80fd5b50610255610512366004613d2e565b611056565b348015610522575f80fd5b506102fc610531366004613f17565b611081565b348015610541575f80fd5b5061027961109f565b6102fc610558366004613f55565b6110ad565b348015610568575f80fd5b506102fc610577366004613fc0565b61127a565b348015610587575f80fd5b506040516001815260200161022d565b3480156105a2575f80fd5b506102235f81565b3480156105b5575f80fd5b506102fc6105c4366004613fff565b61132c565b3480156105d4575f80fd5b506105e86105e3366004614034565b61133e565b60405161022d91906140a2565b348015610600575f80fd5b506102fc61060f366004614102565b611430565b34801561061f575f80fd5b5061063361062e366004613f55565b6114ab565b6040805192151583526001600160a01b0390911660208301520161022d565b34801561065d575f80fd5b506101cb546101cc546001600160a01b03909116906001600160801b03166103fb565b34801561068b575f80fd5b5061022361069a366004613ae4565b6101d06020525f908152604090205481565b3480156106b7575f80fd5b506102236106c6366004613ae4565b6114fe565b3480156106d6575f80fd5b506b14dc1858d955d85c9cd3919560a21b610223565b3480156106f7575f80fd5b506101ca546101cc546001600160a01b0390911690600160801b90046001600160801b03166103fb565b34801561072c575f80fd5b506102fc61073b366004613d2e565b611515565b34801561074b575f80fd5b506102fc61075a366004614174565b611531565b34801561076a575f80fd5b506102796117ee565b34801561077e575f80fd5b5061025561078d36600461427c565b6001600160a01b039182165f9081526101946020908152604080832093909416825291909152205460ff1690565b3480156107c6575f80fd5b506102a66107d5366004613ae4565b6101d16020525f90815260409020546001600160a01b031681565b3480156107fb575f80fd5b506101ca546102a6906001600160a01b031681565b34801561081b575f80fd5b506102fc61082a3660046142a4565b6117fc565b34801561083a575f80fd5b506102fc610849366004614303565b611853565b5f6001600160a01b0383166108bd5760405162461bcd60e51b815260206004820152602a60248201527f455243313135353a2061646472657373207a65726f206973206e6f742061207660448201526930b634b21037bbb732b960b11b60648201526084015b60405180910390fd5b505f818152610193602090815260408083206001600160a01b03861684529091529020545b92915050565b5f6108f2826118a8565b8061090d57506001600160e01b03198216636cdb3d1360e11b145b806108e257506001600160e01b0319821663152a902d60e11b1492915050565b6101c5805461093b90614333565b80601f016020809104026020016040519081016040528092919081815260200182805461096790614333565b80156109b25780601f10610989576101008083540402835291602001916109b2565b820191905f5260205f20905b81548152906001019060200180831161099557829003601f168201915b505050505081565b5f8181526101cf602052604090208054606091906109d790614333565b80601f0160208091040260200160405190810160405280929190818152602001828054610a0390614333565b8015610a4e5780601f10610a2557610100808354040283529160200191610a4e565b820191905f5260205f20905b815481529060010190602001808311610a3157829003601f168201915b50505050509050919050565b5f610a64816118e7565b610a6e5f83611056565b610ab85760405162461bcd60e51b815260206004820152601b60248201527a3732bb9037bbb732b9103737ba1036b7b23ab6329030b236b4b71760291b60448201526064016108b4565b6101c780546001600160a01b038481166001600160a01b0319831681179093556040519116919082907f8292fce18fa69edf4db7b94ea2e58241df0ae57f97e0a6c9b29067028bf92d76905f90a3505050565b5f610b15816118e7565b612710821115610b375760405162461bcd60e51b81526004016108b49061436b565b6101cc80546001600160801b03166001600160401b038416600160801b021790556101ca80546001600160a01b0319166001600160a01b0385169081179091556040518381527fe2497bd806ec41a6e0dd992c29a72efc0ef8fec9092d1978fd4a1e00b2f18304906020015b60405180910390a2505050565b5f90815261012f602052604090206001015490565b5f805f80610bd286610d0d565b90945084925061ffff169050612710610beb82876143a8565b610bf591906143bf565b925050509250929050565b610c086118fb565b6001600160a01b0316856001600160a01b03161480610c2e5750610c2e8561078d6118fb565b610c4a5760405162461bcd60e51b81526004016108b4906143de565b610c578585858585611904565b5050505050565b610c6782610bb0565b610c70816118e7565b610c7a8383611aa5565b505050565b610c876118fb565b6001600160a01b0316816001600160a01b031614610cff5760405162461bcd60e51b815260206004820152602f60248201527f416363657373436f6e74726f6c3a2063616e206f6e6c792072656e6f756e636560448201526e103937b632b9903337b91039b2b63360891b60648201526084016108b4565b610d098282611ac7565b5050565b5f8181526101d260209081526040808320815180830190925280546001600160a01b031680835260019091015492820192909252829115610d545780516020820151610d72565b6101cb546101cc546001600160a01b03909116906001600160801b03165b9250925050915091565b60608151835114610de15760405162461bcd60e51b815260206004820152602960248201527f455243313135353a206163636f756e747320616e6420696473206c656e677468604482015268040dad2e6dac2e8c6d60bb1b60648201526084016108b4565b5f83516001600160401b03811115610dfb57610dfb613b4d565b604051908082528060200260200182016040528015610e24578160200160208202803683370190505b5090505f5b8451811015610e9b57610e6e858281518110610e4757610e4761442d565b6020026020010151858381518110610e6157610e6161442d565b602002602001015161084e565b828281518110610e8057610e8061442d565b6020908102919091010152610e9481614441565b9050610e29565b509392505050565b6001600160a01b03165f9081526099602052604090205460ff1690565b5f610eca816118e7565b612710821115610eec5760405162461bcd60e51b81526004016108b490614459565b6101cb80546001600160a01b0319166001600160a01b0385169081179091556101cc80546001600160801b0319166001600160801b0385161790556040518381527f90d7ec04bcb8978719414f82e52e4cb651db41d0e6f8cea6118c2191e6183adb90602001610ba3565b610f5f6118fb565b6001600160a01b0316836001600160a01b03161480610f855750610f858361078d6118fb565b610fa15760405162461bcd60e51b81526004016108b490614485565b610c7a838383611ae9565b5f610fb6816118e7565b6101c980546001600160a01b0319166001600160a01b0384169081179091556040517f299d17e95023f496e0ffc4909cff1a61f74bb5eb18de6f900f4155bfa1b3b333905f90a25050565b6101c7545f9061101b9082906001600160a01b0316611056565b61102457505f90565b6101c7546001600160a01b03165b905090565b5f8281526101616020526040812061104f9083611c74565b9392505050565b5f91825261012f602090815260408084206001600160a01b0393909316845291905290205460ff1690565b5f61108b816118e7565b6101cd611099838583614528565b50505050565b6101c6805461093b90614333565b6002603554036110ff5760405162461bcd60e51b815260206004820152601f60248201527f5265656e7472616e637947756172643a207265656e7472616e742063616c6c0060448201526064016108b4565b60026035555f611110848484611c7f565b90505f6111206020860186613afb565b90505f5f1986608001350361114f57506101c88054906001905f61114483856145dd565b9091555061117c9050565b6101c8548660800135106111755760405162461bcd60e51b81526004016108b4906145f0565b5060808501355b5f61118d6040880160208901613afb565b6001600160a01b0316146111fc5760405180604001604052808760200160208101906111b99190613afb565b6001600160a01b0390811682526040898101356020938401525f8581526101d2845220835181546001600160a01b03191692169190911781559101516001909101555b6112188261120d60a0890189614614565b848a60c00135611e1a565b61122186611f06565b80826001600160a01b0316846001600160a01b03167f0b35afaf155daeef41cc46df86f058df2855c57d30ab134647a6b587e7cc8c398960405161126591906146cc565b60405180910390a45050600160355550505050565b5f611284816118e7565b6127108211156112a65760405162461bcd60e51b81526004016108b490614459565b6040805180820182526001600160a01b0385811680835260208084018781525f8a81526101d28352869020945185546001600160a01b031916941693909317845591516001909301929092559151848152909186917f7365cf4122f072a3365c20d54eff9b38d73c096c28e1892ec8f5b0e403a0f12d910160405180910390a350505050565b610d096113376118fb565b83836120c1565b6060816001600160401b0381111561135857611358613b4d565b60405190808252806020026020018201604052801561138b57816020015b60608152602001906001900390816113765790505b5090505f5b82811015611429576113f9308585848181106113ae576113ae61442d565b90506020028101906113c09190614614565b8080601f0160208091040260200160405190810160405280939291908181526020018383808284375f920191909152506121a192505050565b82828151811061140b5761140b61442d565b6020026020010181905250808061142190614441565b915050611390565b5092915050565b5f80516020614eb0833981519152611447816118e7565b5f5f19860361147057506101c88054906001905f61146583856145dd565b909155506114959050565b6101c85486106114925760405162461bcd60e51b81526004016108b4906145f0565b50845b6114a28786868487611e1a565b50505050505050565b5f805f6114b986868661228f565b6101608701355f9081526101ce602052604090205490915060ff161580156114f357506114f35f80516020614eb083398151915282611056565b969095509350505050565b5f818152610161602052604081206108e2906122f1565b61151e82610bb0565b611527816118e7565b610c7a8383611ac7565b5f54610100900460ff161580801561154f57505f54600160ff909116105b8061156f575061155e306122fa565b15801561156f57505f5460ff166001145b6115d25760405162461bcd60e51b815260206004820152602e60248201527f496e697469616c697a61626c653a20636f6e747261637420697320616c72656160448201526d191e481a5b9a5d1a585b1a5e995960921b60648201526084016108b4565b5f805460ff1916600117905580156115f3575f805461ff0019166101001790555b6115fb612309565b6116426040518060400160405280600c81526020016b14dc1858d955d85c9cd3919560a21b815250604051806040016040528060018152602001603160f81b815250612339565b61164b87612369565b61166260405180602001604052805f8152506123a0565b6101c561166f8b826147d6565b506101c661167d8a826147d6565b506101cb80546001600160a01b03199081166001600160a01b03888116919091179092556101cc80546001600160801b0319166001600160801b0388161790556101ca805482168584161790556101c980549091169188169190911790556101cd6116e889826147d6565b50612710836001600160801b031611156117145760405162461bcd60e51b81526004016108b49061436b565b6101cc80546001600160801b03808616600160801b0291161790556101c780546001600160a01b038d166001600160a01b03199091161790556117575f8c6123cf565b61176e5f80516020614eb08339815191528c6123cf565b6117855f80516020614e498339815191528c6123cf565b61179c5f80516020614e498339815191525f6123cf565b80156117e1575f805461ff0019169055604051600181527f7f26b83ff96e1f2b6a682f133852f6798a09c465da95921460cefb38474024989060200160405180910390a15b5050505050505050505050565b6101cd805461093b90614333565b6118046118fb565b6001600160a01b0316856001600160a01b0316148061182a575061182a8561078d6118fb565b6118465760405162461bcd60e51b81526004016108b4906143de565b610c5785858585856123d9565b61185b6118fb565b6001600160a01b0316836001600160a01b0316148061188157506118818361078d6118fb565b61189d5760405162461bcd60e51b81526004016108b490614485565b610c7a83838361250a565b5f6001600160e01b03198216636cdb3d1360e11b14806118d857506001600160e01b031982166303a24d0760e21b145b806108e257506108e282612618565b6118f8816118f36118fb565b61263c565b50565b5f6110326126a0565b81518351146119255760405162461bcd60e51b81526004016108b49061488c565b6001600160a01b03841661194b5760405162461bcd60e51b81526004016108b4906148d4565b5f6119546118fb565b90506119648187878787876126c4565b5f5b8451811015611a4a575f8582815181106119825761198261442d565b602002602001015190505f85838151811061199f5761199f61442d565b6020908102919091018101515f848152610193835260408082206001600160a01b038e1683529093529190912054909150818110156119f05760405162461bcd60e51b81526004016108b490614919565b5f838152610193602090815260408083206001600160a01b038e8116855292528083208585039055908b16825281208054849290611a2f9084906145dd565b9250508190555050505080611a4390614441565b9050611966565b50846001600160a01b0316866001600160a01b0316826001600160a01b03165f80516020614e298339815191528787604051611a87929190614963565b60405180910390a4611a9d81878787878761289b565b505050505050565b611aaf82826129fc565b5f82815261016160205260409020610c7a9082612a83565b611ad18282612a97565b5f82815261016160205260409020610c7a9082612b1c565b6001600160a01b038316611b0f5760405162461bcd60e51b81526004016108b490614987565b8051825114611b305760405162461bcd60e51b81526004016108b49061488c565b5f611b396118fb565b9050611b5781855f868660405180602001604052805f8152506126c4565b5f5b8351811015611c1c575f848281518110611b7557611b7561442d565b602002602001015190505f848381518110611b9257611b9261442d565b6020908102919091018101515f848152610193835260408082206001600160a01b038c168352909352919091205490915081811015611be35760405162461bcd60e51b81526004016108b4906149ca565b5f928352610193602090815260408085206001600160a01b038b1686529091529092209103905580611c1481614441565b915050611b59565b505f6001600160a01b0316846001600160a01b0316826001600160a01b03165f80516020614e298339815191528686604051611c59929190614963565b60405180910390a460408051602081019091525f9052611099565b5f61104f8383612b30565b5f805f611c8d8686866114ab565b9150915081611cd25760405162461bcd60e51b8152602060048201526011602482015270696e76616c6964207369676e617475726560781b60448201526064016108b4565b42611ce561014088016101208901614a0e565b6001600160801b031611158015611d16575042611d0a61016088016101408901614a0e565b6001600160801b031610155b611d545760405162461bcd60e51b815260206004820152600f60248201526e1c995c5d595cdd08195e1c1a5c9959608a1b60448201526064016108b4565b5f611d626020880188613afb565b6001600160a01b031603611dae5760405162461bcd60e51b81526020600482015260136024820152721c9958da5c1a595b9d081d5b9919599a5b9959606a1b60448201526064016108b4565b5f8660c0013511611df15760405162461bcd60e51b815260206004820152600d60248201526c7a65726f207175616e7469747960981b60448201526064016108b4565b6101608601355f9081526101ce60205260409020805460ff191660011790559150509392505050565b5f8281526101cf602052604090208054611e3390614333565b90505f03611e905782611e755760405162461bcd60e51b815260206004820152600a60248201526932b6b83a3c903ab9349760b11b60448201526064016108b4565b5f8281526101cf60205260409020611e8e848683614528565b505b611eaa85838360405180602001604052805f815250612b56565b81856001600160a01b03167f04133ee4cb027e1c5fce5e3481289278a93bd16a65a3b65b428a6d239e706bfb6101cf5f8681526020019081526020015f2084604051611ef7929190614a27565b60405180910390a35050505050565b8060e001355f03611f145750565b5f611f2760c083013560e08401356143a8565b6101cc549091505f9061271090611f4e90600160801b90046001600160801b0316846143a8565b611f5891906143bf565b905073eeeeeeeeeeeeeeeeeeeeeeeeeeeeeeeeeeeeeeee611f8161012085016101008601613afb565b6001600160a01b031603611fdc57813414611fd75760405162461bcd60e51b815260206004820152601660248201527536bab9ba1039b2b732103a37ba30b610383934b1b29760511b60448201526064016108b4565b61201f565b341561201f5760405162461bcd60e51b81526020600482015260126024820152716d73672076616c7565206e6f74207a65726f60701b60448201526064016108b4565b5f806120316080860160608701613afb565b6001600160a01b0316146120545761204f6080850160608601613afb565b612062565b6101c9546001600160a01b03165b905061209461207961012086016101008701613afb565b6120816118fb565b6101ca546001600160a01b031685612c64565b6110996120a961012086016101008701613afb565b6120b16118fb565b836120bc8688614ab6565b612c64565b816001600160a01b0316836001600160a01b0316036121345760405162461bcd60e51b815260206004820152602960248201527f455243313135353a2073657474696e6720617070726f76616c20737461747573604482015268103337b91039b2b63360b91b60648201526084016108b4565b6001600160a01b038381165f8181526101946020908152604080832094871680845294825291829020805460ff191686151590811790915591519182527f17307eab39ab6107e8899845ad3d59bd9653f200f220920489ca2b5937696c31910160405180910390a3505050565b60606121ac836122fa565b6122075760405162461bcd60e51b815260206004820152602660248201527f416464726573733a2064656c65676174652063616c6c20746f206e6f6e2d636f6044820152651b9d1c9858dd60d21b60648201526084016108b4565b5f80846001600160a01b0316846040516122219190614ac9565b5f60405180830381855af49150503d805f8114612259576040519150601f19603f3d011682016040523d82523d5f602084013e61225e565b606091505b50915091506122868282604051806060016040528060278152602001614e8960279139612caa565b95945050505050565b5f6122e983838080601f0160208091040260200160405190810160405280939291908181526020018383808284375f920191909152506122e392506122d79150889050612ce3565b80519060200120612dd9565b90612e25565b949350505050565b5f6108e2825490565b6001600160a01b03163b151590565b5f54610100900460ff1661232f5760405162461bcd60e51b81526004016108b490614ae4565b612337612e3f565b565b5f54610100900460ff1661235f5760405162461bcd60e51b81526004016108b490614ae4565b610d098282612e6c565b5f54610100900460ff1661238f5760405162461bcd60e51b81526004016108b490614ae4565b612397612eac565b6118f881612ed2565b5f54610100900460ff166123c65760405162461bcd60e51b81526004016108b490614ae4565b6118f881612f5d565b610d098282611aa5565b6001600160a01b0384166123ff5760405162461bcd60e51b81526004016108b4906148d4565b5f6124086118fb565b90505f61241485612f8c565b90505f61242085612f8c565b90506124308389898585896126c4565b5f868152610193602090815260408083206001600160a01b038c168452909152902054858110156124735760405162461bcd60e51b81526004016108b490614919565b5f878152610193602090815260408083206001600160a01b038d8116855292528083208985039055908a168252812080548892906124b29084906145dd565b909155505060408051888152602081018890526001600160a01b03808b16928c821692918816915f80516020614e69833981519152910160405180910390a46124ff848a8a8a8a8a612fd5565b505050505050505050565b6001600160a01b0383166125305760405162461bcd60e51b81526004016108b490614987565b5f6125396118fb565b90505f61254584612f8c565b90505f61255184612f8c565b905061256f83875f858560405180602001604052805f8152506126c4565b5f858152610193602090815260408083206001600160a01b038a168452909152902054848110156125b25760405162461bcd60e51b81526004016108b4906149ca565b5f868152610193602090815260408083206001600160a01b038b81168086529184528285208a8703905582518b81529384018a90529092908816915f80516020614e69833981519152910160405180910390a460408051602081019091525f90526114a2565b5f6001600160e01b03198216635a05180f60e01b14806108e257506108e282613096565b6126468282611056565b610d095761265e816001600160a01b031660146130ca565b6126698360206130ca565b60405160200161267a929190614b2f565b60408051601f198184030181529082905262461bcd60e51b82526108b491600401613ac5565b5f6126aa33610ea3565b156126bc575060131936013560601c90565b503390565b90565b6126db5f80516020614e498339815191525f611056565b1580156126f057506001600160a01b03851615155b801561270457506001600160a01b03841615155b15612795576127205f80516020614e4983398151915286611056565b8061273d575061273d5f80516020614e4983398151915285611056565b6127955760405162461bcd60e51b8152602060048201526024808201527f7265737472696374656420746f205452414e534645525f524f4c4520686f6c6460448201526332b9399760e11b60648201526084016108b4565b6001600160a01b038516612819575f5b8351811015612817578281815181106127c0576127c061442d565b60200260200101516101d05f8684815181106127de576127de61442d565b602002602001015181526020019081526020015f205f82825461280191906145dd565b90915550612810905081614441565b90506127a5565b505b6001600160a01b038416611a9d575f5b83518110156114a2578281815181106128445761284461442d565b60200260200101516101d05f8684815181106128625761286261442d565b602002602001015181526020019081526020015f205f8282546128859190614ab6565b90915550612894905081614441565b9050612829565b6128ad846001600160a01b03166122fa565b15611a9d5760405163bc197c8160e01b81526001600160a01b0385169063bc197c81906128e69089908990889088908890600401614b9d565b6020604051808303815f875af1925050508015612920575060408051601f3d908101601f1916820190925261291d91810190614bfa565b60015b6129cc5761292c614c15565b806308c379a0036129655750612940614c2d565b8061294b5750612967565b8060405162461bcd60e51b81526004016108b49190613ac5565b505b60405162461bcd60e51b815260206004820152603460248201527f455243313135353a207472616e7366657220746f206e6f6e20455243313135356044820152732932b1b2b4bb32b91034b6b83632b6b2b73a32b960611b60648201526084016108b4565b6001600160e01b0319811663bc197c8160e01b146114a25760405162461bcd60e51b81526004016108b490614cb5565b612a068282611056565b610d09575f82815261012f602090815260408083206001600160a01b03851684529091529020805460ff19166001179055612a3f6118fb565b6001600160a01b0316816001600160a01b0316837f2f8788117e7eff1d82e926ec794901d17c78024a50270940304540a733656f0d60405160405180910390a45050565b5f61104f836001600160a01b03841661325f565b612aa18282611056565b15610d09575f82815261012f602090815260408083206001600160a01b03851684529091529020805460ff19169055612ad86118fb565b6001600160a01b0316816001600160a01b0316837ff6391f5c32d9c69d2a47ea670b442974b53935d1edc7fd64eb21e047a839171b60405160405180910390a45050565b5f61104f836001600160a01b0384166132ab565b5f825f018281548110612b4557612b4561442d565b905f5260205f200154905092915050565b6001600160a01b038416612bb65760405162461bcd60e51b815260206004820152602160248201527f455243313135353a206d696e7420746f20746865207a65726f206164647265736044820152607360f81b60648201526084016108b4565b5f612bbf6118fb565b90505f612bcb85612f8c565b90505f612bd785612f8c565b9050612be7835f898585896126c4565b5f868152610193602090815260408083206001600160a01b038b16845290915281208054879290612c199084906145dd565b909155505060408051878152602081018790526001600160a01b03808a16925f92918716915f80516020614e69833981519152910160405180910390a46114a2835f89898989612fd5565b80156110995773eeeeeeeeeeeeeeeeeeeeeeeeeeeeeeeeeeeeeeed196001600160a01b03851601612c9e57612c99828261338e565b611099565b6110998484848461342c565b60608315612cb957508161104f565b825115612cc95782518084602001fd5b8160405162461bcd60e51b81526004016108b49190613ac5565b60607fc7a95ef88f83fa833ccfce325157b7111633b181b6a27181b86415d8d501134d612d136020840184613afb565b612d236040850160208601613afb565b6040850135612d386080870160608801613afb565b6080870135612d4a60a0890189614614565b604051612d58929190614cfd565b60405190819003902060c089013560e08a0135612d7d6101208c016101008d01613afb565b612d8f6101408d016101208e01614a0e565b612da16101608e016101408f01614a0e565b8d6101600135604051602001612dc39d9c9b9a99989796959493929190614d0c565b6040516020818303038152906040529050919050565b5f6108e2612de561347f565b8360405161190160f01b602082015260228101839052604281018290525f9060620160405160208183030381529060405280519060200120905092915050565b5f805f612e3285856134f8565b91509150610e9b8161353a565b5f54610100900460ff16612e655760405162461bcd60e51b81526004016108b490614ae4565b6001603555565b5f54610100900460ff16612e925760405162461bcd60e51b81526004016108b490614ae4565b815160209283012081519190920120600191909155600255565b5f54610100900460ff166123375760405162461bcd60e51b81526004016108b490614ae4565b5f54610100900460ff16612ef85760405162461bcd60e51b81526004016108b490614ae4565b5f5b8151811015610d0957600160995f848481518110612f1a57612f1a61442d565b6020908102919091018101516001600160a01b031682528101919091526040015f20805460ff191691151591909117905580612f5581614441565b915050612efa565b5f54610100900460ff16612f835760405162461bcd60e51b81526004016108b490614ae4565b6118f8816136ea565b6040805160018082528183019092526060915f91906020808301908036833701905050905082815f81518110612fc457612fc461442d565b602090810291909101015292915050565b612fe7846001600160a01b03166122fa565b15611a9d5760405163f23a6e6160e01b81526001600160a01b0385169063f23a6e61906130209089908990889088908890600401614d97565b6020604051808303815f875af192505050801561305a575060408051601f3d908101601f1916820190925261305791810190614bfa565b60015b6130665761292c614c15565b6001600160e01b0319811663f23a6e6160e01b146114a25760405162461bcd60e51b81526004016108b490614cb5565b5f6001600160e01b03198216637965db0b60e01b14806108e257506301ffc9a760e01b6001600160e01b03198316146108e2565b60605f6130d88360026143a8565b6130e39060026145dd565b6001600160401b038111156130fa576130fa613b4d565b6040519080825280601f01601f191660200182016040528015613124576020820181803683370190505b509050600360fc1b815f8151811061313e5761313e61442d565b60200101906001600160f81b03191690815f1a905350600f60fb1b8160018151811061316c5761316c61442d565b60200101906001600160f81b03191690815f1a9053505f61318e8460026143a8565b6131999060016145dd565b90505b6001811115613210576f181899199a1a9b1b9c1cb0b131b232b360811b85600f16601081106131cd576131cd61442d565b1a60f81b8282815181106131e3576131e361442d565b60200101906001600160f81b03191690815f1a90535060049490941c9361320981614dd0565b905061319c565b50831561104f5760405162461bcd60e51b815260206004820181905260248201527f537472696e67733a20686578206c656e67746820696e73756666696369656e7460448201526064016108b4565b5f8181526001830160205260408120546132a457508154600181810184555f8481526020808220909301849055845484825282860190935260409020919091556108e2565b505f6108e2565b5f8181526001830160205260408120548015613385575f6132cd600183614ab6565b85549091505f906132e090600190614ab6565b905081811461333f575f865f0182815481106132fe576132fe61442d565b905f5260205f200154905080875f01848154811061331e5761331e61442d565b5f918252602080832090910192909255918252600188019052604090208390555b855486908061335057613350614de5565b600190038181905f5260205f20015f90559055856001015f8681526020019081526020015f205f9055600193505050506108e2565b5f9150506108e2565b5f826001600160a01b0316826040515f6040518083038185875af1925050503d805f81146133d7576040519150601f19603f3d011682016040523d82523d5f602084013e6133dc565b606091505b5050905080610c7a5760405162461bcd60e51b815260206004820152601c60248201527b1b985d1a5d99481d1bdad95b881d1c985b9cd9995c8819985a5b195960221b60448201526064016108b4565b816001600160a01b0316836001600160a01b0316031561109957306001600160a01b0384160361346a57612c996001600160a01b03851683836136f7565b6110996001600160a01b03851684848461374d565b5f6110327f8b73c3c69bb8fe3d512ecc4cf759cc79239f7b179b0ffacaa9a75d522b39400f6134ad60015490565b6002546040805160208101859052908101839052606081018290524660808201523060a08201525f9060c0016040516020818303038152906040528051906020012090509392505050565b5f80825160410361352c576020830151604084015160608501515f1a61352087828585613785565b94509450505050613533565b505f905060025b9250929050565b5f81600481111561354d5761354d614df9565b036135555750565b600181600481111561356957613569614df9565b036135b15760405162461bcd60e51b815260206004820152601860248201527745434453413a20696e76616c6964207369676e617475726560401b60448201526064016108b4565b60028160048111156135c5576135c5614df9565b036136125760405162461bcd60e51b815260206004820152601f60248201527f45434453413a20696e76616c6964207369676e6174757265206c656e6774680060448201526064016108b4565b600381600481111561362657613626614df9565b0361367e5760405162461bcd60e51b815260206004820152602260248201527f45434453413a20696e76616c6964207369676e6174757265202773272076616c604482015261756560f01b60648201526084016108b4565b600481600481111561369257613692614df9565b036118f85760405162461bcd60e51b815260206004820152602260248201527f45434453413a20696e76616c6964207369676e6174757265202776272076616c604482015261756560f01b60648201526084016108b4565b610195610d0982826147d6565b610c7a8363a9059cbb60e01b8484604051602401613716929190613b34565b60408051601f198184030181529190526020810180516001600160e01b03166001600160e01b031990931692909217909152613860565b6040516001600160a01b03808516602483015283166044820152606481018290526110999085906323b872dd60e01b90608401613716565b5f806fa2a8918ca85bafe22016d0b997e4df60600160ff1b038311156137b057505f90506003613857565b8460ff16601b141580156137c857508460ff16601c14155b156137d857505f90506004613857565b604080515f8082526020820180845289905260ff881692820192909252606081018690526080810185905260019060a0016020604051602081039080840390855afa158015613829573d5f803e3d5ffd5b5050604051601f1901519150506001600160a01b038116613851575f60019250925050613857565b91505f90505b94509492505050565b5f6138b4826040518060400160405280602081526020017f5361666545524332303a206c6f772d6c6576656c2063616c6c206661696c6564815250856001600160a01b03166139319092919063ffffffff16565b805190915015610c7a57808060200190518101906138d29190614e0d565b610c7a5760405162461bcd60e51b815260206004820152602a60248201527f5361666545524332303a204552433230206f7065726174696f6e20646964206e6044820152691bdd081cdd58d8d9595960b21b60648201526084016108b4565b60606122e984845f8585613944856122fa565b6139905760405162461bcd60e51b815260206004820152601d60248201527f416464726573733a2063616c6c20746f206e6f6e2d636f6e747261637400000060448201526064016108b4565b5f80866001600160a01b031685876040516139ab9190614ac9565b5f6040518083038185875af1925050503d805f81146139e5576040519150601f19603f3d011682016040523d82523d5f602084013e6139ea565b606091505b50915091506139fa828286612caa565b979650505050505050565b80356001600160a01b0381168114613a1b575f80fd5b919050565b5f8060408385031215613a31575f80fd5b613a3a83613a05565b946020939093013593505050565b6001600160e01b0319811681146118f8575f80fd5b5f60208284031215613a6d575f80fd5b813561104f81613a48565b5f5b83811015613a92578181015183820152602001613a7a565b50505f910152565b5f8151808452613ab1816020860160208601613a78565b601f01601f19169290920160200192915050565b602081525f61104f6020830184613a9a565b6001600160a01b03169052565b5f60208284031215613af4575f80fd5b5035919050565b5f60208284031215613b0b575f80fd5b61104f82613a05565b5f8060408385031215613b25575f80fd5b50508035926020909101359150565b6001600160a01b03929092168252602082015260400190565b634e487b7160e01b5f52604160045260245ffd5b601f8201601f191681016001600160401b0381118282101715613b8657613b86613b4d565b6040525050565b5f6001600160401b03821115613ba557613ba5613b4d565b5060051b60200190565b5f82601f830112613bbe575f80fd5b81356020613bcb82613b8d565b604051613bd88282613b61565b83815260059390931b8501820192828101915086841115613bf7575f80fd5b8286015b84811015613c125780358352918301918301613bfb565b509695505050505050565b5f82601f830112613c2c575f80fd5b81356001600160401b03811115613c4557613c45613b4d565b604051613c5c601f8301601f191660200182613b61565b818152846020838601011115613c70575f80fd5b816020850160208301375f918101602001919091529392505050565b5f805f805f60a08688031215613ca0575f80fd5b613ca986613a05565b9450613cb760208701613a05565b935060408601356001600160401b0380821115613cd2575f80fd5b613cde89838a01613baf565b94506060880135915080821115613cf3575f80fd5b613cff89838a01613baf565b93506080880135915080821115613d14575f80fd5b50613d2188828901613c1d565b9150509295509295909350565b5f8060408385031215613d3f575f80fd5b82359150613d4f60208401613a05565b90509250929050565b5f82601f830112613d67575f80fd5b81356020613d7482613b8d565b604051613d818282613b61565b83815260059390931b8501820192828101915086841115613da0575f80fd5b8286015b84811015613c1257613db581613a05565b8352918301918301613da4565b5f8060408385031215613dd3575f80fd5b82356001600160401b0380821115613de9575f80fd5b613df586838701613d58565b93506020850135915080821115613e0a575f80fd5b50613e1785828601613baf565b9150509250929050565b5f8151808452602080850194508084015f5b83811015613e4f57815187529582019590820190600101613e33565b509495945050505050565b602081525f61104f6020830184613e21565b5f805f60608486031215613e7e575f80fd5b613e8784613a05565b925060208401356001600160401b0380821115613ea2575f80fd5b613eae87838801613baf565b93506040860135915080821115613ec3575f80fd5b50613ed086828701613baf565b9150509250925092565b5f8083601f840112613eea575f80fd5b5081356001600160401b03811115613f00575f80fd5b602083019150836020828501011115613533575f80fd5b5f8060208385031215613f28575f80fd5b82356001600160401b03811115613f3d575f80fd5b613f4985828601613eda565b90969095509350505050565b5f805f60408486031215613f67575f80fd5b83356001600160401b0380821115613f7d575f80fd5b908501906101808288031215613f91575f80fd5b90935060208501359080821115613fa6575f80fd5b50613fb386828701613eda565b9497909650939450505050565b5f805f60608486031215613fd2575f80fd5b83359250613fe260208501613a05565b9150604084013590509250925092565b80151581146118f8575f80fd5b5f8060408385031215614010575f80fd5b61401983613a05565b9150602083013561402981613ff2565b809150509250929050565b5f8060208385031215614045575f80fd5b82356001600160401b038082111561405b575f80fd5b818501915085601f83011261406e575f80fd5b81358181111561407c575f80fd5b8660208260051b8501011115614090575f80fd5b60209290920196919550909350505050565b5f602080830181845280855180835260408601915060408160051b87010192508387015f5b828110156140f557603f198886030184526140e3858351613a9a565b945092850192908501906001016140c7565b5092979650505050505050565b5f805f805f60808688031215614116575f80fd5b61411f86613a05565b94506020860135935060408601356001600160401b03811115614140575f80fd5b61414c88828901613eda565b96999598509660600135949350505050565b80356001600160801b0381168114613a1b575f80fd5b5f805f805f805f805f806101408b8d03121561418e575f80fd5b6141978b613a05565b995060208b01356001600160401b03808211156141b2575f80fd5b6141be8e838f01613c1d565b9a5060408d01359150808211156141d3575f80fd5b6141df8e838f01613c1d565b995060608d01359150808211156141f4575f80fd5b6142008e838f01613c1d565b985060808d0135915080821115614215575f80fd5b506142228d828e01613d58565b96505061423160a08c01613a05565b945061423f60c08c01613a05565b935061424d60e08c0161415e565b925061425c6101008c0161415e565b915061426b6101208c01613a05565b90509295989b9194979a5092959850565b5f806040838503121561428d575f80fd5b61429683613a05565b9150613d4f60208401613a05565b5f805f805f60a086880312156142b8575f80fd5b6142c186613a05565b94506142cf60208701613a05565b9350604086013592506060860135915060808601356001600160401b038111156142f7575f80fd5b613d2188828901613c1d565b5f805f60608486031215614315575f80fd5b61431e84613a05565b95602085013595506040909401359392505050565b600181811c9082168061434757607f821691505b60208210810361436557634e487b7160e01b5f52602260045260245ffd5b50919050565b6020808252600f908201526e65786365656473204d41585f42505360881b604082015260600190565b634e487b7160e01b5f52601160045260245ffd5b80820281158282048414176108e2576108e2614394565b5f826143d957634e487b7160e01b5f52601260045260245ffd5b500490565b6020808252602f908201527f455243313135353a2063616c6c6572206973206e6f7420746f6b656e206f776e60408201526e195c881b9bdc88185c1c1c9bdd9959608a1b606082015260800190565b634e487b7160e01b5f52603260045260245ffd5b5f6001820161445257614452614394565b5060010190565b60208082526012908201527165786365656420726f79616c74792062707360701b604082015260600190565b6020808252602a908201527f455243313135353a2063616c6c6572206973206e6f74206f776e6572206e6f726040820152691030b8383937bb32b21760b11b606082015260800190565b601f821115610c7a575f81815260208120601f850160051c810160208610156144f55750805b601f850160051c820191505b81811015611a9d57828155600101614501565b5f19600383901b1c191660019190911b1790565b6001600160401b0383111561453f5761453f613b4d565b6145538361454d8354614333565b836144cf565b5f601f84116001811461457f575f851561456d5750838201355b6145778682614514565b845550610c57565b5f83815260209020601f19861690835b828110156145af578685013582556020948501946001909201910161458f565b50868210156145cb575f1960f88860031b161c19848701351681555b505060018560011b0183555050505050565b808201808211156108e2576108e2614394565b6020808252600a90820152691a5b9d985b1a59081a5960b21b604082015260600190565b5f808335601e19843603018112614629575f80fd5b8301803591506001600160401b03821115614642575f80fd5b602001915036819003821315613533575f80fd5b5f808335601e1984360301811261466b575f80fd5b83016020810192503590506001600160401b03811115614689575f80fd5b803603821315613533575f80fd5b81835281816020850137505f828201602090810191909152601f909101601f19169091010190565b6001600160801b03169052565b602081526146e5602082016146e084613a05565b613ad7565b5f6146f260208401613a05565b6146ff6040840182613ad7565b506040830135606083015261471660608401613a05565b6147236080840182613ad7565b50608083013560a083015261473b60a0840184614656565b6101808060c08601526147536101a086018385614697565b925060c086013560e0860152610100915060e086013582860152614778828701613a05565b915061012061478981870184613ad7565b61479481880161415e565b9250506101406147a6818701846146bf565b6147b181880161415e565b9250506101606147c3818701846146bf565b9590950135939094019290925250919050565b81516001600160401b038111156147ef576147ef613b4d565b614803816147fd8454614333565b846144cf565b602080601f831160018114614831575f841561481f5750858301515b6148298582614514565b865550611a9d565b5f85815260208120601f198616915b8281101561485f57888601518255948401946001909101908401614840565b508582101561487c57878501515f19600388901b60f8161c191681555b5050505050600190811b01905550565b60208082526028908201527f455243313135353a2069647320616e6420616d6f756e7473206c656e677468206040820152670dad2e6dac2e8c6d60c31b606082015260800190565b60208082526025908201527f455243313135353a207472616e7366657220746f20746865207a65726f206164604082015264647265737360d81b606082015260800190565b6020808252602a908201527f455243313135353a20696e73756666696369656e742062616c616e636520666f60408201526939103a3930b739b332b960b11b606082015260800190565b604081525f6149756040830185613e21565b82810360208401526122868185613e21565b60208082526023908201527f455243313135353a206275726e2066726f6d20746865207a65726f206164647260408201526265737360e81b606082015260800190565b60208082526024908201527f455243313135353a206275726e20616d6f756e7420657863656564732062616c604082015263616e636560e01b606082015260800190565b5f60208284031215614a1e575f80fd5b61104f8261415e565b604081525f808454614a3881614333565b806040860152606060018084165f8114614a595760018114614a7357614aa1565b60ff1985168884015283151560051b880183019550614aa1565b895f526020805f205f5b86811015614a985781548b8201870152908401908201614a7d565b8a018501975050505b50505050506020929092019290925292915050565b818103818111156108e2576108e2614394565b5f8251614ada818460208701613a78565b9190910192915050565b6020808252602b908201527f496e697469616c697a61626c653a20636f6e7472616374206973206e6f74206960408201526a6e697469616c697a696e6760a81b606082015260800190565b76020b1b1b2b9b9a1b7b73a3937b61d1030b1b1b7bab73a1604d1b81525f8351614b60816017850160208801613a78565b7001034b99036b4b9b9b4b733903937b6329607d1b6017918401918201528351614b91816028840160208801613a78565b01602801949350505050565b6001600160a01b0386811682528516602082015260a0604082018190525f90614bc890830186613e21565b8281036060840152614bda8186613e21565b90508281036080840152614bee8185613a9a565b98975050505050505050565b5f60208284031215614c0a575f80fd5b815161104f81613a48565b5f60033d11156126c15760045f803e505f5160e01c90565b5f60443d1015614c3a5790565b6040516003193d81016004833e81513d6001600160401b038083116024840183101715614c6957505050505090565b8285019150815181811115614c815750505050505090565b843d8701016020828501011115614c9b5750505050505090565b614caa60208286010187613b61565b509095945050505050565b60208082526028908201527f455243313135353a204552433131353552656365697665722072656a656374656040820152676420746f6b656e7360c01b606082015260800190565b818382375f9101908152919050565b8d81526001600160a01b038d811660208301528c81166040830152606082018c90528a8116608083015260a082018a905260c0820189905260e08201889052610100820187905285166101208201526001600160801b0384166101408201526101a08101614d7e6101608301856146bf565b826101808301529e9d5050505050505050505050505050565b6001600160a01b03868116825285166020820152604081018490526060810183905260a0608082018190525f906139fa90830184613a9a565b5f81614dde57614dde614394565b505f190190565b634e487b7160e01b5f52603160045260245ffd5b634e487b7160e01b5f52602160045260245ffd5b5f60208284031215614e1d575f80fd5b815161104f81613ff256fe4a39dc06d4c0dbc64b70af90fd698a233a518aa5d07e595d983b8c0526c8f7fb8502233096d909befbda0999bb8ea2f3a6be3c138b9fbf003752a4c8bce86f6cc3d58168c5ae7397731d063d5bbf3d657854427343f4c083240f7aacaa2d0f62416464726573733a206c6f772d6c6576656c2064656c65676174652063616c6c206661696c65649f2df0fed2c77648de5860a4cc508cd0818c85b8b8a1ab4ceeef8d981c8956a6a26469706673582212209e581f7cb5c6351715b3dd59aedd1de2c801720fdcc241a17062b9d297eab71b64736f6c63430008150033",
  "immutableReferences": {},
  "source": "// SPDX-License-Identifier: Apache-2.0\npragma solidity ^0.8.11;\n\n// Interface\nimport { ITokenERC1155 } from \"@thirdweb-dev/contracts/interfaces/token/ITokenERC1155.sol\";\n\nimport \"@thirdweb-dev/contracts/interfaces/IThirdwebContract.sol\";\nimport \"@thirdweb-dev/contracts/extension/interface/IPlatformFee.sol\";\nimport \"@thirdweb-dev/contracts/extension/interface/IPrimarySale.sol\";\nimport \"@thirdweb-dev/contracts/extension/interface/IRoyalty.sol\";\nimport \"@thirdweb-dev/contracts/extension/interface/IOwnable.sol\";\n\n// Token\nimport \"@openzeppelin/contracts-upgradeable/token/ERC1155/ERC1155Upgradeable.sol\";\n\n// Signature utils\nimport \"@openzeppelin/contracts-upgradeable/utils/cryptography/ECDSAUpgradeable.sol\";\nimport \"@openzeppelin/contracts-upgradeable/utils/cryptography/draft-EIP712Upgradeable.sol\";\n\n// Access Control + security\nimport \"@openzeppelin/contracts-upgradeable/access/AccessControlEnumerableUpgradeable.sol\";\nimport \"@openzeppelin/contracts-upgradeable/security/ReentrancyGuardUpgradeable.sol\";\n\n// Utils\nimport \"@openzeppelin/contracts-upgradeable/utils/StringsUpgradeable.sol\";\nimport \"@openzeppelin/contracts-upgradeable/utils/MulticallUpgradeable.sol\";\nimport \"@thirdweb-dev/contracts/lib/CurrencyTransferLib.sol\";\nimport \"@thirdweb-dev/contracts/lib/FeeType.sol\";\nimport \"@thirdweb-dev/contracts/openzeppelin-presets/metatx/ERC2771ContextUpgradeable.sol\";\n\n// Helper interfaces\nimport \"@openzeppelin/contracts-upgradeable/interfaces/IERC2981Upgradeable.sol\";\n\ncontract SpaceWarsNFT is\n    Initializable,\n    IThirdwebContract,\n    IOwnable,\n    IRoyalty,\n    IPrimarySale,\n    IPlatformFee,\n    EIP712Upgradeable,\n    ReentrancyGuardUpgradeable,\n    ERC2771ContextUpgradeable,\n    MulticallUpgradeable,\n    AccessControlEnumerableUpgradeable,\n    ERC1155Upgradeable,\n    ITokenERC1155\n{\n    using ECDSAUpgradeable for bytes32;\n    using StringsUpgradeable for uint256;\n\n    bytes32 private constant MODULE_TYPE = bytes32(\"SpaceWarsNFT\");\n    uint256 private constant VERSION = 1;\n\n    // Token name\n    string public name;\n\n    // Token symbol\n    string public symbol;\n\n    bytes32 private constant TYPEHASH =\n        keccak256(\n            \"MintRequest(address to,address royaltyRecipient,uint256 royaltyBps,address primarySaleRecipient,uint256 tokenId,string uri,uint256 quantity,uint256 pricePerToken,address currency,uint128 validityStartTimestamp,uint128 validityEndTimestamp,bytes32 uid)\"\n        );\n\n    /// @dev Only TRANSFER_ROLE holders can have tokens transferred from or to them, during restricted transfers.\n    bytes32 private constant TRANSFER_ROLE = keccak256(\"TRANSFER_ROLE\");\n    /// @dev Only MINTER_ROLE holders can sign off on `MintRequest`s.\n    bytes32 private constant MINTER_ROLE = keccak256(\"MINTER_ROLE\");\n\n    /// @dev Max bps in the thirdweb system\n    uint256 private constant MAX_BPS = 10_000;\n\n    /// @dev Owner of the contract (purpose: OpenSea compatibility, etc.)\n    address private _owner;\n\n    /// @dev The next token ID of the NFT to mint.\n    uint256 public nextTokenIdToMint;\n\n    /// @dev The adress that receives all primary sales value.\n    address public primarySaleRecipient;\n\n    /// @dev The adress that receives all primary sales value.\n    address public platformFeeRecipient;\n\n    /// @dev The recipient of who gets the royalty.\n    address private royaltyRecipient;\n\n    /// @dev The percentage of royalty how much royalty in basis points.\n    uint128 private royaltyBps;\n\n    /// @dev The % of primary sales collected by the contract as fees.\n    uint128 private platformFeeBps;\n\n    /// @dev Contract level metadata.\n    string public contractURI;\n\n    /// @dev Mapping from mint request UID => whether the mint request is processed.\n    mapping(bytes32 => bool) private minted;\n\n    mapping(uint256 => string) private _tokenURI;\n\n    /// @dev Token ID => total circulating supply of tokens with that ID.\n    mapping(uint256 => uint256) public totalSupply;\n\n    /// @dev Token ID => the address of the recipient of primary sales.\n    mapping(uint256 => address) public saleRecipientForToken;\n\n    /// @dev Token ID => royalty recipient and bps for token\n    mapping(uint256 => RoyaltyInfo) private royaltyInfoForToken;\n\n    /// @custom:oz-upgrades-unsafe-allow constructor\n    constructor() {\n        _disableInitializers();\n    }\n\n    /// @dev Initiliazes the contract, like a constructor.\n    function initialize(\n        address _defaultAdmin,\n        string memory _name,\n        string memory _symbol,\n        string memory _contractURI,\n        address[] memory _trustedForwarders,\n        address _primarySaleRecipient,\n        address _royaltyRecipient,\n        uint128 _royaltyBps,\n        uint128 _platformFeeBps,\n        address _platformFeeRecipient\n    ) external initializer {\n        // Initialize inherited contracts, most base-like -> most derived.\n        __ReentrancyGuard_init();\n        __EIP712_init(\"SpaceWarsNFT\", \"1\");\n        __ERC2771Context_init(_trustedForwarders);\n        __ERC1155_init(\"\");\n\n        // Initialize this contract's state.\n        name = _name;\n        symbol = _symbol;\n        royaltyRecipient = _royaltyRecipient;\n        royaltyBps = _royaltyBps;\n        platformFeeRecipient = _platformFeeRecipient;\n        primarySaleRecipient = _primarySaleRecipient;\n        contractURI = _contractURI;\n\n        require(_platformFeeBps <= MAX_BPS, \"exceeds MAX_BPS\");\n        platformFeeBps = _platformFeeBps;\n\n        _owner = _defaultAdmin;\n        _setupRole(DEFAULT_ADMIN_ROLE, _defaultAdmin);\n        _setupRole(MINTER_ROLE, _defaultAdmin);\n        _setupRole(TRANSFER_ROLE, _defaultAdmin);\n        _setupRole(TRANSFER_ROLE, address(0));\n    }\n\n    ///     =====   Public functions  =====\n\n    /// @dev Returns the module type of the contract.\n    function contractType() external pure returns (bytes32) {\n        return MODULE_TYPE;\n    }\n\n    /// @dev Returns the version of the contract.\n    function contractVersion() external pure returns (uint8) {\n        return uint8(VERSION);\n    }\n\n    /**\n     * @dev Returns the address of the current owner.\n     */\n    function owner() public view returns (address) {\n        return hasRole(DEFAULT_ADMIN_ROLE, _owner) ? _owner : address(0);\n    }\n\n    /// @dev Verifies that a mint request is signed by an account holding MINTER_ROLE (at the time of the function call).\n    function verify(MintRequest calldata _req, bytes calldata _signature) public view returns (bool, address) {\n        address signer = recoverAddress(_req, _signature);\n        return (!minted[_req.uid] && hasRole(MINTER_ROLE, signer), signer);\n    }\n\n    /// @dev Returns the URI for a tokenId\n    function uri(uint256 _tokenId) public view override returns (string memory) {\n        return _tokenURI[_tokenId];\n    }\n\n    /// @dev Lets an account with MINTER_ROLE mint an NFT.\n    function mintTo(\n        address _to,\n        uint256 _tokenId,\n        string calldata _uri,\n        uint256 _amount\n    ) external onlyRole(MINTER_ROLE) {\n        uint256 tokenIdToMint;\n        if (_tokenId == type(uint256).max) {\n            tokenIdToMint = nextTokenIdToMint;\n            nextTokenIdToMint += 1;\n        } else {\n            require(_tokenId < nextTokenIdToMint, \"invalid id\");\n            tokenIdToMint = _tokenId;\n        }\n\n        // `_mintTo` is re-used. `mintTo` just adds a minter role check.\n        _mintTo(_to, _uri, tokenIdToMint, _amount);\n    }\n\n    ///     =====   External functions  =====\n\n    /// @dev See EIP-2981\n    function royaltyInfo(uint256 tokenId, uint256 salePrice)\n        external\n        view\n        virtual\n        returns (address receiver, uint256 royaltyAmount)\n    {\n        (address recipient, uint256 bps) = getRoyaltyInfoForToken(tokenId);\n        receiver = recipient;\n        royaltyAmount = (salePrice * bps) / MAX_BPS;\n    }\n\n    /// @dev Mints an NFT according to the provided mint request.\n    function mintWithSignature(MintRequest calldata _req, bytes calldata _signature) external payable nonReentrant {\n        address signer = verifyRequest(_req, _signature);\n        address receiver = _req.to;\n\n        uint256 tokenIdToMint;\n        if (_req.tokenId == type(uint256).max) {\n            tokenIdToMint = nextTokenIdToMint;\n            nextTokenIdToMint += 1;\n        } else {\n            require(_req.tokenId < nextTokenIdToMint, \"invalid id\");\n            tokenIdToMint = _req.tokenId;\n        }\n\n        if (_req.royaltyRecipient != address(0)) {\n            royaltyInfoForToken[tokenIdToMint] = RoyaltyInfo({\n                recipient: _req.royaltyRecipient,\n                bps: _req.royaltyBps\n            });\n        }\n\n        _mintTo(receiver, _req.uri, tokenIdToMint, _req.quantity);\n\n        collectPrice(_req);\n\n        emit TokensMintedWithSignature(signer, receiver, tokenIdToMint, _req);\n    }\n\n    //      =====   Setter functions  =====\n\n    /// @dev Lets a module admin set the default recipient of all primary sales.\n    function setPrimarySaleRecipient(address _saleRecipient) external onlyRole(DEFAULT_ADMIN_ROLE) {\n        primarySaleRecipient = _saleRecipient;\n        emit PrimarySaleRecipientUpdated(_saleRecipient);\n    }\n\n    /// @dev Lets a module admin update the royalty bps and recipient.\n    function setDefaultRoyaltyInfo(address _royaltyRecipient, uint256 _royaltyBps)\n        external\n        onlyRole(DEFAULT_ADMIN_ROLE)\n    {\n        require(_royaltyBps <= MAX_BPS, \"exceed royalty bps\");\n\n        royaltyRecipient = _royaltyRecipient;\n        royaltyBps = uint128(_royaltyBps);\n\n        emit DefaultRoyalty(_royaltyRecipient, _royaltyBps);\n    }\n\n    /// @dev Lets a module admin set the royalty recipient for a particular token Id.\n    function setRoyaltyInfoForToken(\n        uint256 _tokenId,\n        address _recipient,\n        uint256 _bps\n    ) external onlyRole(DEFAULT_ADMIN_ROLE) {\n        require(_bps <= MAX_BPS, \"exceed royalty bps\");\n\n        royaltyInfoForToken[_tokenId] = RoyaltyInfo({ recipient: _recipient, bps: _bps });\n\n        emit RoyaltyForToken(_tokenId, _recipient, _bps);\n    }\n\n    /// @dev Lets a module admin update the fees on primary sales.\n    function setPlatformFeeInfo(address _platformFeeRecipient, uint256 _platformFeeBps)\n        external\n        onlyRole(DEFAULT_ADMIN_ROLE)\n    {\n        require(_platformFeeBps <= MAX_BPS, \"exceeds MAX_BPS\");\n\n        platformFeeBps = uint64(_platformFeeBps);\n        platformFeeRecipient = _platformFeeRecipient;\n\n        emit PlatformFeeInfoUpdated(_platformFeeRecipient, _platformFeeBps);\n    }\n\n    /// @dev Lets a module admin set a new owner for the contract. The new owner must be a module admin.\n    function setOwner(address _newOwner) external onlyRole(DEFAULT_ADMIN_ROLE) {\n        require(hasRole(DEFAULT_ADMIN_ROLE, _newOwner), \"new owner not module admin.\");\n        address _prevOwner = _owner;\n        _owner = _newOwner;\n\n        emit OwnerUpdated(_prevOwner, _newOwner);\n    }\n\n    /// @dev Lets a module admin set the URI for contract-level metadata.\n    function setContractURI(string calldata _uri) external onlyRole(DEFAULT_ADMIN_ROLE) {\n        contractURI = _uri;\n    }\n\n    ///     =====   Getter functions    =====\n\n    /// @dev Returns the platform fee bps and recipient.\n    function getPlatformFeeInfo() external view returns (address, uint16) {\n        return (platformFeeRecipient, uint16(platformFeeBps));\n    }\n\n    /// @dev Returns the platform fee bps and recipient.\n    function getDefaultRoyaltyInfo() external view returns (address, uint16) {\n        return (royaltyRecipient, uint16(royaltyBps));\n    }\n\n    /// @dev Returns the royalty recipient for a particular token Id.\n    function getRoyaltyInfoForToken(uint256 _tokenId) public view returns (address, uint16) {\n        RoyaltyInfo memory royaltyForToken = royaltyInfoForToken[_tokenId];\n\n        return\n            royaltyForToken.recipient == address(0)\n                ? (royaltyRecipient, uint16(royaltyBps))\n                : (royaltyForToken.recipient, uint16(royaltyForToken.bps));\n    }\n\n    ///     =====   Internal functions  =====\n\n    /// @dev Mints an NFT to `to`\n    function _mintTo(\n        address _to,\n        string calldata _uri,\n        uint256 _tokenId,\n        uint256 _amount\n    ) internal {\n        if (bytes(_tokenURI[_tokenId]).length == 0) {\n            require(bytes(_uri).length > 0, \"empty uri.\");\n            _tokenURI[_tokenId] = _uri;\n        }\n\n        _mint(_to, _tokenId, _amount, \"\");\n\n        emit TokensMinted(_to, _tokenId, _tokenURI[_tokenId], _amount);\n    }\n\n    /// @dev Returns the address of the signer of the mint request.\n    function recoverAddress(MintRequest calldata _req, bytes calldata _signature) internal view returns (address) {\n        return _hashTypedDataV4(keccak256(_encodeRequest(_req))).recover(_signature);\n    }\n\n    /// @dev Resolves 'stack too deep' error in `recoverAddress`.\n    function _encodeRequest(MintRequest calldata _req) internal pure returns (bytes memory) {\n        return\n            abi.encode(\n                TYPEHASH,\n                _req.to,\n                _req.royaltyRecipient,\n                _req.royaltyBps,\n                _req.primarySaleRecipient,\n                _req.tokenId,\n                keccak256(bytes(_req.uri)),\n                _req.quantity,\n                _req.pricePerToken,\n                _req.currency,\n                _req.validityStartTimestamp,\n                _req.validityEndTimestamp,\n                _req.uid\n            );\n    }\n\n    /// @dev Verifies that a mint request is valid.\n    function verifyRequest(MintRequest calldata _req, bytes calldata _signature) internal returns (address) {\n        (bool success, address signer) = verify(_req, _signature);\n        require(success, \"invalid signature\");\n\n        require(\n            _req.validityStartTimestamp <= block.timestamp && _req.validityEndTimestamp >= block.timestamp,\n            \"request expired\"\n        );\n        require(_req.to != address(0), \"recipient undefined\");\n        require(_req.quantity > 0, \"zero quantity\");\n\n        minted[_req.uid] = true;\n\n        return signer;\n    }\n\n    /// @dev Collects and distributes the primary sale value of tokens being claimed.\n    function collectPrice(MintRequest calldata _req) internal {\n        if (_req.pricePerToken == 0) {\n            return;\n        }\n\n        uint256 totalPrice = _req.pricePerToken * _req.quantity;\n        uint256 platformFees = (totalPrice * platformFeeBps) / MAX_BPS;\n\n        if (_req.currency == CurrencyTransferLib.NATIVE_TOKEN) {\n            require(msg.value == totalPrice, \"must send total price.\");\n        } else {\n            require(msg.value == 0, \"msg value not zero\");\n        }\n\n        address saleRecipient = _req.primarySaleRecipient == address(0)\n            ? primarySaleRecipient\n            : _req.primarySaleRecipient;\n\n        CurrencyTransferLib.transferCurrency(_req.currency, _msgSender(), platformFeeRecipient, platformFees);\n        CurrencyTransferLib.transferCurrency(_req.currency, _msgSender(), saleRecipient, totalPrice - platformFees);\n    }\n\n    ///     =====   Low-level overrides  =====\n\n    /// @dev Lets a token owner burn the tokens they own (i.e. destroy for good)\n    function burn(\n        address account,\n        uint256 id,\n        uint256 value\n    ) public virtual {\n        require(\n            account == _msgSender() || isApprovedForAll(account, _msgSender()),\n            \"ERC1155: caller is not owner nor approved.\"\n        );\n\n        _burn(account, id, value);\n    }\n\n    /// @dev Lets a token owner burn multiple tokens they own at once (i.e. destroy for good)\n    function burnBatch(\n        address account,\n        uint256[] memory ids,\n        uint256[] memory values\n    ) public virtual {\n        require(\n            account == _msgSender() || isApprovedForAll(account, _msgSender()),\n            \"ERC1155: caller is not owner nor approved.\"\n        );\n\n        _burnBatch(account, ids, values);\n    }\n\n    /**\n     * @dev See {ERC1155-_beforeTokenTransfer}.\n     */\n    function _beforeTokenTransfer(\n        address operator,\n        address from,\n        address to,\n        uint256[] memory ids,\n        uint256[] memory amounts,\n        bytes memory data\n    ) internal virtual override {\n        super._beforeTokenTransfer(operator, from, to, ids, amounts, data);\n\n        // if transfer is restricted on the contract, we still want to allow burning and minting\n        if (!hasRole(TRANSFER_ROLE, address(0)) && from != address(0) && to != address(0)) {\n            require(hasRole(TRANSFER_ROLE, from) || hasRole(TRANSFER_ROLE, to), \"restricted to TRANSFER_ROLE holders.\");\n        }\n\n        if (from == address(0)) {\n            for (uint256 i = 0; i < ids.length; ++i) {\n                totalSupply[ids[i]] += amounts[i];\n            }\n        }\n\n        if (to == address(0)) {\n            for (uint256 i = 0; i < ids.length; ++i) {\n                totalSupply[ids[i]] -= amounts[i];\n            }\n        }\n    }\n\n    function supportsInterface(bytes4 interfaceId)\n        public\n        view\n        virtual\n        override(AccessControlEnumerableUpgradeable, ERC1155Upgradeable, IERC165Upgradeable, IERC165)\n        returns (bool)\n    {\n        return\n            super.supportsInterface(interfaceId) ||\n            interfaceId == type(IERC1155Upgradeable).interfaceId ||\n            interfaceId == type(IERC2981Upgradeable).interfaceId;\n    }\n\n    function _msgSender()\n        internal\n        view\n        virtual\n        override(ContextUpgradeable, ERC2771ContextUpgradeable)\n        returns (address sender)\n    {\n        return ERC2771ContextUpgradeable._msgSender();\n    }\n\n    function _msgData()\n        internal\n        view\n        virtual\n        override(ContextUpgradeable, ERC2771ContextUpgradeable)\n        returns (bytes calldata)\n    {\n        return ERC2771ContextUpgradeable._msgData();\n    }\n}",
  "sourcePath": "c:\\Projects\\AyazDuru.Blockchain.Samples.MarketplaceNFTAndToken\\source\\contracts\\SpaceWarsNFT.sol",
  "compiler": {
    "name": "solc",
    "version": "0.8.21+commit.d9974bed.Emscripten.clang"
  },
  "schemaVersion": "3.4.15",
  "updatedAt": "2023-08-15T23:19:36.746Z",
  "devdoc": {
    "events": {
      "ApprovalForAll(address,address,bool)": {
        "details": "Emitted when `account` grants or revokes permission to `operator` to transfer their tokens, according to `approved`."
      },
      "DefaultRoyalty(address,uint256)": {
        "details": "Emitted when royalty info is updated."
      },
      "FlatPlatformFeeUpdated(address,uint256)": {
        "details": "Emitted when the flat platform fee is updated."
      },
      "Initialized(uint8)": {
        "details": "Triggered when the contract has been initialized or reinitialized."
      },
      "OwnerUpdated(address,address)": {
        "details": "Emitted when a new Owner is set."
      },
      "PlatformFeeInfoUpdated(address,uint256)": {
        "details": "Emitted when fee on primary sales is updated."
      },
      "PlatformFeeTypeUpdated(uint8)": {
        "details": "Emitted when the platform fee type is updated."
      },
      "PrimarySaleRecipientUpdated(address)": {
        "details": "Emitted when a new sale recipient is set."
      },
      "RoleAdminChanged(bytes32,bytes32,bytes32)": {
        "details": "Emitted when `newAdminRole` is set as ``role``'s admin role, replacing `previousAdminRole` `DEFAULT_ADMIN_ROLE` is the starting admin for all roles, despite {RoleAdminChanged} not being emitted signaling this. _Available since v3.1._"
      },
      "RoleGranted(bytes32,address,address)": {
        "details": "Emitted when `account` is granted `role`. `sender` is the account that originated the contract call, an admin role bearer except when using {AccessControl-_setupRole}."
      },
      "RoleRevoked(bytes32,address,address)": {
        "details": "Emitted when `account` is revoked `role`. `sender` is the account that originated the contract call:   - if using `revokeRole`, it is the admin role bearer   - if using `renounceRole`, it is the role bearer (i.e. `account`)"
      },
      "RoyaltyForToken(uint256,address,uint256)": {
        "details": "Emitted when royalty recipient for tokenId is set"
      },
      "TokensMinted(address,uint256,string,uint256)": {
        "details": "Emitted when an account with MINTER_ROLE mints an NFT."
      },
      "TokensMintedWithSignature(address,address,uint256,(address,address,uint256,address,uint256,string,uint256,uint256,address,uint128,uint128,bytes32))": {
        "details": "Emitted when tokens are minted."
      },
      "TransferBatch(address,address,address,uint256[],uint256[])": {
        "details": "Equivalent to multiple {TransferSingle} events, where `operator`, `from` and `to` are the same for all transfers."
      },
      "TransferSingle(address,address,address,uint256,uint256)": {
        "details": "Emitted when `value` tokens of token type `id` are transferred from `from` to `to` by `operator`."
      },
      "URI(string,uint256)": {
        "details": "Emitted when the URI for token type `id` changes to `value`, if it is a non-programmatic URI. If an {URI} event was emitted for `id`, the standard https://eips.ethereum.org/EIPS/eip-1155#metadata-extensions[guarantees] that `value` will equal the value returned by {IERC1155MetadataURI-uri}."
      }
    },
    "kind": "dev",
    "methods": {
      "balanceOf(address,uint256)": {
        "details": "See {IERC1155-balanceOf}. Requirements: - `account` cannot be the zero address."
      },
      "balanceOfBatch(address[],uint256[])": {
        "details": "See {IERC1155-balanceOfBatch}. Requirements: - `accounts` and `ids` must have the same length."
      },
      "burn(address,uint256,uint256)": {
        "details": "Lets a token owner burn the tokens they own (i.e. destroy for good)"
      },
      "burnBatch(address,uint256[],uint256[])": {
        "details": "Lets a token owner burn multiple tokens they own at once (i.e. destroy for good)"
      },
      "constructor": {
        "custom:oz-upgrades-unsafe-allow": "constructor"
      },
      "contractType()": {
        "details": "Returns the module type of the contract."
      },
      "contractVersion()": {
        "details": "Returns the version of the contract."
      },
      "getDefaultRoyaltyInfo()": {
        "details": "Returns the platform fee bps and recipient."
      },
      "getPlatformFeeInfo()": {
        "details": "Returns the platform fee bps and recipient."
      },
      "getRoleAdmin(bytes32)": {
        "details": "Returns the admin role that controls `role`. See {grantRole} and {revokeRole}. To change a role's admin, use {_setRoleAdmin}."
      },
      "getRoleMember(bytes32,uint256)": {
        "details": "Returns one of the accounts that have `role`. `index` must be a value between 0 and {getRoleMemberCount}, non-inclusive. Role bearers are not sorted in any particular way, and their ordering may change at any point. WARNING: When using {getRoleMember} and {getRoleMemberCount}, make sure you perform all queries on the same block. See the following https://forum.openzeppelin.com/t/iterating-over-elements-on-enumerableset-in-openzeppelin-contracts/2296[forum post] for more information."
      },
      "getRoleMemberCount(bytes32)": {
        "details": "Returns the number of accounts that have `role`. Can be used together with {getRoleMember} to enumerate all bearers of a role."
      },
      "getRoyaltyInfoForToken(uint256)": {
        "details": "Returns the royalty recipient for a particular token Id."
      },
      "grantRole(bytes32,address)": {
        "details": "Grants `role` to `account`. If `account` had not been already granted `role`, emits a {RoleGranted} event. Requirements: - the caller must have ``role``'s admin role. May emit a {RoleGranted} event."
      },
      "hasRole(bytes32,address)": {
        "details": "Returns `true` if `account` has been granted `role`."
      },
      "initialize(address,string,string,string,address[],address,address,uint128,uint128,address)": {
        "details": "Initiliazes the contract, like a constructor."
      },
      "isApprovedForAll(address,address)": {
        "details": "See {IERC1155-isApprovedForAll}."
      },
      "mintTo(address,uint256,string,uint256)": {
        "details": "Lets an account with MINTER_ROLE mint an NFT."
      },
      "mintWithSignature((address,address,uint256,address,uint256,string,uint256,uint256,address,uint128,uint128,bytes32),bytes)": {
        "details": "Mints an NFT according to the provided mint request."
      },
      "multicall(bytes[])": {
        "details": "Receives and executes a batch of function calls on this contract."
      },
      "owner()": {
        "details": "Returns the address of the current owner."
      },
      "renounceRole(bytes32,address)": {
        "details": "Revokes `role` from the calling account. Roles are often managed via {grantRole} and {revokeRole}: this function's purpose is to provide a mechanism for accounts to lose their privileges if they are compromised (such as when a trusted device is misplaced). If the calling account had been revoked `role`, emits a {RoleRevoked} event. Requirements: - the caller must be `account`. May emit a {RoleRevoked} event."
      },
      "revokeRole(bytes32,address)": {
        "details": "Revokes `role` from `account`. If `account` had been granted `role`, emits a {RoleRevoked} event. Requirements: - the caller must have ``role``'s admin role. May emit a {RoleRevoked} event."
      },
      "royaltyInfo(uint256,uint256)": {
        "details": "See EIP-2981"
      },
      "safeBatchTransferFrom(address,address,uint256[],uint256[],bytes)": {
        "details": "See {IERC1155-safeBatchTransferFrom}."
      },
      "safeTransferFrom(address,address,uint256,uint256,bytes)": {
        "details": "See {IERC1155-safeTransferFrom}."
      },
      "setApprovalForAll(address,bool)": {
        "details": "See {IERC1155-setApprovalForAll}."
      },
      "setContractURI(string)": {
        "details": "Lets a module admin set the URI for contract-level metadata."
      },
      "setDefaultRoyaltyInfo(address,uint256)": {
        "details": "Lets a module admin update the royalty bps and recipient."
      },
      "setOwner(address)": {
        "details": "Lets a module admin set a new owner for the contract. The new owner must be a module admin."
      },
      "setPlatformFeeInfo(address,uint256)": {
        "details": "Lets a module admin update the fees on primary sales."
      },
      "setPrimarySaleRecipient(address)": {
        "details": "Lets a module admin set the default recipient of all primary sales."
      },
      "setRoyaltyInfoForToken(uint256,address,uint256)": {
        "details": "Lets a module admin set the royalty recipient for a particular token Id."
      },
      "uri(uint256)": {
        "details": "Returns the URI for a tokenId"
      },
      "verify((address,address,uint256,address,uint256,string,uint256,uint256,address,uint128,uint128,bytes32),bytes)": {
        "details": "Verifies that a mint request is signed by an account holding MINTER_ROLE (at the time of the function call)."
      }
    },
    "stateVariables": {
      "MAX_BPS": {
        "details": "Max bps in the thirdweb system"
      },
      "MINTER_ROLE": {
        "details": "Only MINTER_ROLE holders can sign off on `MintRequest`s."
      },
      "TRANSFER_ROLE": {
        "details": "Only TRANSFER_ROLE holders can have tokens transferred from or to them, during restricted transfers."
      },
      "_owner": {
        "details": "Owner of the contract (purpose: OpenSea compatibility, etc.)"
      },
      "contractURI": {
        "details": "Contract level metadata."
      },
      "minted": {
        "details": "Mapping from mint request UID => whether the mint request is processed."
      },
      "nextTokenIdToMint": {
        "details": "The next token ID of the NFT to mint."
      },
      "platformFeeBps": {
        "details": "The % of primary sales collected by the contract as fees."
      },
      "platformFeeRecipient": {
        "details": "The adress that receives all primary sales value."
      },
      "primarySaleRecipient": {
        "details": "The adress that receives all primary sales value."
      },
      "royaltyBps": {
        "details": "The percentage of royalty how much royalty in basis points."
      },
      "royaltyInfoForToken": {
        "details": "Token ID => royalty recipient and bps for token"
      },
      "royaltyRecipient": {
        "details": "The recipient of who gets the royalty."
      },
      "saleRecipientForToken": {
        "details": "Token ID => the address of the recipient of primary sales."
      },
      "totalSupply": {
        "details": "Token ID => total circulating supply of tokens with that ID."
      }
    },
    "version": 1
  },
  "userdoc": {
    "kind": "user",
    "methods": {},
    "version": 1
  }
}