{
  "contractName": "SpaceWarsMarketplace",
  "abi": [
    {
      "inputs": [],
      "stateMutability": "nonpayable",
      "type": "constructor"
    },
    {
      "anonymous": false,
      "inputs": [
        {
          "indexed": false,
          "internalType": "uint256",
          "name": "timeBuffer",
          "type": "uint256"
        },
        {
          "indexed": false,
          "internalType": "uint256",
          "name": "bidBufferBps",
          "type": "uint256"
        }
      ],
      "name": "AuctionBuffersUpdated",
      "type": "event"
    },
    {
      "anonymous": false,
      "inputs": [
        {
          "indexed": true,
          "internalType": "uint256",
          "name": "listingId",
          "type": "uint256"
        },
        {
          "indexed": true,
          "internalType": "address",
          "name": "closer",
          "type": "address"
        },
        {
          "indexed": true,
          "internalType": "bool",
          "name": "cancelled",
          "type": "bool"
        },
        {
          "indexed": false,
          "internalType": "address",
          "name": "auctionCreator",
          "type": "address"
        },
        {
          "indexed": false,
          "internalType": "address",
          "name": "winningBidder",
          "type": "address"
        }
      ],
      "name": "AuctionClosed",
      "type": "event"
    },
    {
      "anonymous": false,
      "inputs": [
        {
          "indexed": false,
          "internalType": "address",
          "name": "platformFeeRecipient",
          "type": "address"
        },
        {
          "indexed": false,
          "internalType": "uint256",
          "name": "flatFee",
          "type": "uint256"
        }
      ],
      "name": "FlatPlatformFeeUpdated",
      "type": "event"
    },
    {
      "anonymous": false,
      "inputs": [
        {
          "indexed": false,
          "internalType": "uint8",
          "name": "version",
          "type": "uint8"
        }
      ],
      "name": "Initialized",
      "type": "event"
    },
    {
      "anonymous": false,
      "inputs": [
        {
          "indexed": true,
          "internalType": "uint256",
          "name": "listingId",
          "type": "uint256"
        },
        {
          "indexed": true,
          "internalType": "address",
          "name": "assetContract",
          "type": "address"
        },
        {
          "indexed": true,
          "internalType": "address",
          "name": "lister",
          "type": "address"
        },
        {
          "components": [
            {
              "internalType": "uint256",
              "name": "listingId",
              "type": "uint256"
            },
            {
              "internalType": "address",
              "name": "tokenOwner",
              "type": "address"
            },
            {
              "internalType": "address",
              "name": "assetContract",
              "type": "address"
            },
            {
              "internalType": "uint256",
              "name": "tokenId",
              "type": "uint256"
            },
            {
              "internalType": "uint256",
              "name": "startTime",
              "type": "uint256"
            },
            {
              "internalType": "uint256",
              "name": "endTime",
              "type": "uint256"
            },
            {
              "internalType": "uint256",
              "name": "quantity",
              "type": "uint256"
            },
            {
              "internalType": "address",
              "name": "currency",
              "type": "address"
            },
            {
              "internalType": "uint256",
              "name": "reservePricePerToken",
              "type": "uint256"
            },
            {
              "internalType": "uint256",
              "name": "buyoutPricePerToken",
              "type": "uint256"
            },
            {
              "internalType": "enum IMarketplace.TokenType",
              "name": "tokenType",
              "type": "uint8"
            },
            {
              "internalType": "enum IMarketplace.ListingType",
              "name": "listingType",
              "type": "uint8"
            }
          ],
          "indexed": false,
          "internalType": "struct IMarketplace.Listing",
          "name": "listing",
          "type": "tuple"
        }
      ],
      "name": "ListingAdded",
      "type": "event"
    },
    {
      "anonymous": false,
      "inputs": [
        {
          "indexed": true,
          "internalType": "uint256",
          "name": "listingId",
          "type": "uint256"
        },
        {
          "indexed": true,
          "internalType": "address",
          "name": "listingCreator",
          "type": "address"
        }
      ],
      "name": "ListingRemoved",
      "type": "event"
    },
    {
      "anonymous": false,
      "inputs": [
        {
          "indexed": true,
          "internalType": "uint256",
          "name": "listingId",
          "type": "uint256"
        },
        {
          "indexed": true,
          "internalType": "address",
          "name": "listingCreator",
          "type": "address"
        }
      ],
      "name": "ListingUpdated",
      "type": "event"
    },
    {
      "anonymous": false,
      "inputs": [
        {
          "indexed": true,
          "internalType": "uint256",
          "name": "listingId",
          "type": "uint256"
        },
        {
          "indexed": true,
          "internalType": "address",
          "name": "offeror",
          "type": "address"
        },
        {
          "indexed": true,
          "internalType": "enum IMarketplace.ListingType",
          "name": "listingType",
          "type": "uint8"
        },
        {
          "indexed": false,
          "internalType": "uint256",
          "name": "quantityWanted",
          "type": "uint256"
        },
        {
          "indexed": false,
          "internalType": "uint256",
          "name": "totalOfferAmount",
          "type": "uint256"
        },
        {
          "indexed": false,
          "internalType": "address",
          "name": "currency",
          "type": "address"
        }
      ],
      "name": "NewOffer",
      "type": "event"
    },
    {
      "anonymous": false,
      "inputs": [
        {
          "indexed": true,
          "internalType": "uint256",
          "name": "listingId",
          "type": "uint256"
        },
        {
          "indexed": true,
          "internalType": "address",
          "name": "assetContract",
          "type": "address"
        },
        {
          "indexed": true,
          "internalType": "address",
          "name": "lister",
          "type": "address"
        },
        {
          "indexed": false,
          "internalType": "address",
          "name": "buyer",
          "type": "address"
        },
        {
          "indexed": false,
          "internalType": "uint256",
          "name": "quantityBought",
          "type": "uint256"
        },
        {
          "indexed": false,
          "internalType": "uint256",
          "name": "totalPricePaid",
          "type": "uint256"
        }
      ],
      "name": "NewSale",
      "type": "event"
    },
    {
      "anonymous": false,
      "inputs": [
        {
          "indexed": true,
          "internalType": "address",
          "name": "platformFeeRecipient",
          "type": "address"
        },
        {
          "indexed": false,
          "internalType": "uint256",
          "name": "platformFeeBps",
          "type": "uint256"
        }
      ],
      "name": "PlatformFeeInfoUpdated",
      "type": "event"
    },
    {
      "anonymous": false,
      "inputs": [
        {
          "indexed": false,
          "internalType": "enum IPlatformFee.PlatformFeeType",
          "name": "feeType",
          "type": "uint8"
        }
      ],
      "name": "PlatformFeeTypeUpdated",
      "type": "event"
    },
    {
      "anonymous": false,
      "inputs": [
        {
          "indexed": true,
          "internalType": "bytes32",
          "name": "role",
          "type": "bytes32"
        },
        {
          "indexed": true,
          "internalType": "bytes32",
          "name": "previousAdminRole",
          "type": "bytes32"
        },
        {
          "indexed": true,
          "internalType": "bytes32",
          "name": "newAdminRole",
          "type": "bytes32"
        }
      ],
      "name": "RoleAdminChanged",
      "type": "event"
    },
    {
      "anonymous": false,
      "inputs": [
        {
          "indexed": true,
          "internalType": "bytes32",
          "name": "role",
          "type": "bytes32"
        },
        {
          "indexed": true,
          "internalType": "address",
          "name": "account",
          "type": "address"
        },
        {
          "indexed": true,
          "internalType": "address",
          "name": "sender",
          "type": "address"
        }
      ],
      "name": "RoleGranted",
      "type": "event"
    },
    {
      "anonymous": false,
      "inputs": [
        {
          "indexed": true,
          "internalType": "bytes32",
          "name": "role",
          "type": "bytes32"
        },
        {
          "indexed": true,
          "internalType": "address",
          "name": "account",
          "type": "address"
        },
        {
          "indexed": true,
          "internalType": "address",
          "name": "sender",
          "type": "address"
        }
      ],
      "name": "RoleRevoked",
      "type": "event"
    },
    {
      "inputs": [],
      "name": "DEFAULT_ADMIN_ROLE",
      "outputs": [
        {
          "internalType": "bytes32",
          "name": "",
          "type": "bytes32"
        }
      ],
      "stateMutability": "view",
      "type": "function"
    },
    {
      "inputs": [],
      "name": "MAX_BPS",
      "outputs": [
        {
          "internalType": "uint64",
          "name": "",
          "type": "uint64"
        }
      ],
      "stateMutability": "view",
      "type": "function"
    },
    {
      "inputs": [],
      "name": "bidBufferBps",
      "outputs": [
        {
          "internalType": "uint64",
          "name": "",
          "type": "uint64"
        }
      ],
      "stateMutability": "view",
      "type": "function"
    },
    {
      "inputs": [],
      "name": "contractURI",
      "outputs": [
        {
          "internalType": "string",
          "name": "",
          "type": "string"
        }
      ],
      "stateMutability": "view",
      "type": "function"
    },
    {
      "inputs": [
        {
          "internalType": "bytes32",
          "name": "role",
          "type": "bytes32"
        }
      ],
      "name": "getRoleAdmin",
      "outputs": [
        {
          "internalType": "bytes32",
          "name": "",
          "type": "bytes32"
        }
      ],
      "stateMutability": "view",
      "type": "function"
    },
    {
      "inputs": [
        {
          "internalType": "bytes32",
          "name": "role",
          "type": "bytes32"
        },
        {
          "internalType": "uint256",
          "name": "index",
          "type": "uint256"
        }
      ],
      "name": "getRoleMember",
      "outputs": [
        {
          "internalType": "address",
          "name": "",
          "type": "address"
        }
      ],
      "stateMutability": "view",
      "type": "function"
    },
    {
      "inputs": [
        {
          "internalType": "bytes32",
          "name": "role",
          "type": "bytes32"
        }
      ],
      "name": "getRoleMemberCount",
      "outputs": [
        {
          "internalType": "uint256",
          "name": "",
          "type": "uint256"
        }
      ],
      "stateMutability": "view",
      "type": "function"
    },
    {
      "inputs": [
        {
          "internalType": "bytes32",
          "name": "role",
          "type": "bytes32"
        },
        {
          "internalType": "address",
          "name": "account",
          "type": "address"
        }
      ],
      "name": "grantRole",
      "outputs": [],
      "stateMutability": "nonpayable",
      "type": "function"
    },
    {
      "inputs": [
        {
          "internalType": "bytes32",
          "name": "role",
          "type": "bytes32"
        },
        {
          "internalType": "address",
          "name": "account",
          "type": "address"
        }
      ],
      "name": "hasRole",
      "outputs": [
        {
          "internalType": "bool",
          "name": "",
          "type": "bool"
        }
      ],
      "stateMutability": "view",
      "type": "function"
    },
    {
      "inputs": [
        {
          "internalType": "address",
          "name": "forwarder",
          "type": "address"
        }
      ],
      "name": "isTrustedForwarder",
      "outputs": [
        {
          "internalType": "bool",
          "name": "",
          "type": "bool"
        }
      ],
      "stateMutability": "view",
      "type": "function"
    },
    {
      "inputs": [
        {
          "internalType": "uint256",
          "name": "",
          "type": "uint256"
        }
      ],
      "name": "listings",
      "outputs": [
        {
          "internalType": "uint256",
          "name": "listingId",
          "type": "uint256"
        },
        {
          "internalType": "address",
          "name": "tokenOwner",
          "type": "address"
        },
        {
          "internalType": "address",
          "name": "assetContract",
          "type": "address"
        },
        {
          "internalType": "uint256",
          "name": "tokenId",
          "type": "uint256"
        },
        {
          "internalType": "uint256",
          "name": "startTime",
          "type": "uint256"
        },
        {
          "internalType": "uint256",
          "name": "endTime",
          "type": "uint256"
        },
        {
          "internalType": "uint256",
          "name": "quantity",
          "type": "uint256"
        },
        {
          "internalType": "address",
          "name": "currency",
          "type": "address"
        },
        {
          "internalType": "uint256",
          "name": "reservePricePerToken",
          "type": "uint256"
        },
        {
          "internalType": "uint256",
          "name": "buyoutPricePerToken",
          "type": "uint256"
        },
        {
          "internalType": "enum IMarketplace.TokenType",
          "name": "tokenType",
          "type": "uint8"
        },
        {
          "internalType": "enum IMarketplace.ListingType",
          "name": "listingType",
          "type": "uint8"
        }
      ],
      "stateMutability": "view",
      "type": "function"
    },
    {
      "inputs": [
        {
          "internalType": "bytes[]",
          "name": "data",
          "type": "bytes[]"
        }
      ],
      "name": "multicall",
      "outputs": [
        {
          "internalType": "bytes[]",
          "name": "results",
          "type": "bytes[]"
        }
      ],
      "stateMutability": "nonpayable",
      "type": "function"
    },
    {
      "inputs": [
        {
          "internalType": "uint256",
          "name": "",
          "type": "uint256"
        },
        {
          "internalType": "address",
          "name": "",
          "type": "address"
        }
      ],
      "name": "offers",
      "outputs": [
        {
          "internalType": "uint256",
          "name": "listingId",
          "type": "uint256"
        },
        {
          "internalType": "address",
          "name": "offeror",
          "type": "address"
        },
        {
          "internalType": "uint256",
          "name": "quantityWanted",
          "type": "uint256"
        },
        {
          "internalType": "address",
          "name": "currency",
          "type": "address"
        },
        {
          "internalType": "uint256",
          "name": "pricePerToken",
          "type": "uint256"
        },
        {
          "internalType": "uint256",
          "name": "expirationTimestamp",
          "type": "uint256"
        }
      ],
      "stateMutability": "view",
      "type": "function"
    },
    {
      "inputs": [
        {
          "internalType": "bytes32",
          "name": "role",
          "type": "bytes32"
        },
        {
          "internalType": "address",
          "name": "account",
          "type": "address"
        }
      ],
      "name": "renounceRole",
      "outputs": [],
      "stateMutability": "nonpayable",
      "type": "function"
    },
    {
      "inputs": [
        {
          "internalType": "bytes32",
          "name": "role",
          "type": "bytes32"
        },
        {
          "internalType": "address",
          "name": "account",
          "type": "address"
        }
      ],
      "name": "revokeRole",
      "outputs": [],
      "stateMutability": "nonpayable",
      "type": "function"
    },
    {
      "inputs": [],
      "name": "timeBuffer",
      "outputs": [
        {
          "internalType": "uint64",
          "name": "",
          "type": "uint64"
        }
      ],
      "stateMutability": "view",
      "type": "function"
    },
    {
      "inputs": [],
      "name": "totalListings",
      "outputs": [
        {
          "internalType": "uint256",
          "name": "",
          "type": "uint256"
        }
      ],
      "stateMutability": "view",
      "type": "function"
    },
    {
      "inputs": [
        {
          "internalType": "uint256",
          "name": "",
          "type": "uint256"
        }
      ],
      "name": "winningBid",
      "outputs": [
        {
          "internalType": "uint256",
          "name": "listingId",
          "type": "uint256"
        },
        {
          "internalType": "address",
          "name": "offeror",
          "type": "address"
        },
        {
          "internalType": "uint256",
          "name": "quantityWanted",
          "type": "uint256"
        },
        {
          "internalType": "address",
          "name": "currency",
          "type": "address"
        },
        {
          "internalType": "uint256",
          "name": "pricePerToken",
          "type": "uint256"
        },
        {
          "internalType": "uint256",
          "name": "expirationTimestamp",
          "type": "uint256"
        }
      ],
      "stateMutability": "view",
      "type": "function"
    },
    {
      "stateMutability": "payable",
      "type": "receive"
    },
    {
      "inputs": [
        {
          "internalType": "string",
          "name": "_contractURI",
          "type": "string"
        },
        {
          "internalType": "address[]",
          "name": "_trustedForwarders",
          "type": "address[]"
        },
        {
          "internalType": "address[]",
          "name": "_whitelistedAssetContractAddresses",
          "type": "address[]"
        },
        {
          "internalType": "address",
          "name": "_platformFeeRecipient",
          "type": "address"
        },
        {
          "internalType": "uint256",
          "name": "_platformFeeBps",
          "type": "uint256"
        },
        {
          "internalType": "address",
          "name": "_nativeTokenWrapper",
          "type": "address"
        }
      ],
      "name": "initialize",
      "outputs": [],
      "stateMutability": "nonpayable",
      "type": "function"
    },
    {
      "inputs": [],
      "name": "contractType",
      "outputs": [
        {
          "internalType": "bytes32",
          "name": "",
          "type": "bytes32"
        }
      ],
      "stateMutability": "pure",
      "type": "function"
    },
    {
      "inputs": [],
      "name": "contractVersion",
      "outputs": [
        {
          "internalType": "uint8",
          "name": "",
          "type": "uint8"
        }
      ],
      "stateMutability": "pure",
      "type": "function"
    },
    {
      "inputs": [
        {
          "internalType": "address",
          "name": "",
          "type": "address"
        },
        {
          "internalType": "address",
          "name": "",
          "type": "address"
        },
        {
          "internalType": "uint256",
          "name": "",
          "type": "uint256"
        },
        {
          "internalType": "uint256",
          "name": "",
          "type": "uint256"
        },
        {
          "internalType": "bytes",
          "name": "",
          "type": "bytes"
        }
      ],
      "name": "onERC1155Received",
      "outputs": [
        {
          "internalType": "bytes4",
          "name": "",
          "type": "bytes4"
        }
      ],
      "stateMutability": "nonpayable",
      "type": "function"
    },
    {
      "inputs": [
        {
          "internalType": "address",
          "name": "",
          "type": "address"
        },
        {
          "internalType": "address",
          "name": "",
          "type": "address"
        },
        {
          "internalType": "uint256[]",
          "name": "",
          "type": "uint256[]"
        },
        {
          "internalType": "uint256[]",
          "name": "",
          "type": "uint256[]"
        },
        {
          "internalType": "bytes",
          "name": "",
          "type": "bytes"
        }
      ],
      "name": "onERC1155BatchReceived",
      "outputs": [
        {
          "internalType": "bytes4",
          "name": "",
          "type": "bytes4"
        }
      ],
      "stateMutability": "nonpayable",
      "type": "function"
    },
    {
      "inputs": [
        {
          "internalType": "address",
          "name": "",
          "type": "address"
        },
        {
          "internalType": "address",
          "name": "",
          "type": "address"
        },
        {
          "internalType": "uint256",
          "name": "",
          "type": "uint256"
        },
        {
          "internalType": "bytes",
          "name": "",
          "type": "bytes"
        }
      ],
      "name": "onERC721Received",
      "outputs": [
        {
          "internalType": "bytes4",
          "name": "",
          "type": "bytes4"
        }
      ],
      "stateMutability": "pure",
      "type": "function"
    },
    {
      "inputs": [
        {
          "internalType": "bytes4",
          "name": "interfaceId",
          "type": "bytes4"
        }
      ],
      "name": "supportsInterface",
      "outputs": [
        {
          "internalType": "bool",
          "name": "",
          "type": "bool"
        }
      ],
      "stateMutability": "view",
      "type": "function"
    },
    {
      "inputs": [
        {
          "components": [
            {
              "internalType": "address",
              "name": "assetContract",
              "type": "address"
            },
            {
              "internalType": "uint256",
              "name": "tokenId",
              "type": "uint256"
            },
            {
              "internalType": "uint256",
              "name": "startTime",
              "type": "uint256"
            },
            {
              "internalType": "uint256",
              "name": "secondsUntilEndTime",
              "type": "uint256"
            },
            {
              "internalType": "uint256",
              "name": "quantityToList",
              "type": "uint256"
            },
            {
              "internalType": "address",
              "name": "currencyToAccept",
              "type": "address"
            },
            {
              "internalType": "uint256",
              "name": "reservePricePerToken",
              "type": "uint256"
            },
            {
              "internalType": "uint256",
              "name": "buyoutPricePerToken",
              "type": "uint256"
            },
            {
              "internalType": "enum IMarketplace.ListingType",
              "name": "listingType",
              "type": "uint8"
            }
          ],
          "internalType": "struct IMarketplace.ListingParameters",
          "name": "_params",
          "type": "tuple"
        }
      ],
      "name": "createListing",
      "outputs": [],
      "stateMutability": "nonpayable",
      "type": "function"
    },
    {
      "inputs": [
        {
          "internalType": "uint256",
          "name": "_listingId",
          "type": "uint256"
        },
        {
          "internalType": "uint256",
          "name": "_quantityToList",
          "type": "uint256"
        },
        {
          "internalType": "uint256",
          "name": "_reservePricePerToken",
          "type": "uint256"
        },
        {
          "internalType": "uint256",
          "name": "_buyoutPricePerToken",
          "type": "uint256"
        },
        {
          "internalType": "address",
          "name": "_currencyToAccept",
          "type": "address"
        },
        {
          "internalType": "uint256",
          "name": "_startTime",
          "type": "uint256"
        },
        {
          "internalType": "uint256",
          "name": "_secondsUntilEndTime",
          "type": "uint256"
        }
      ],
      "name": "updateListing",
      "outputs": [],
      "stateMutability": "nonpayable",
      "type": "function"
    },
    {
      "inputs": [
        {
          "internalType": "uint256",
          "name": "_listingId",
          "type": "uint256"
        }
      ],
      "name": "cancelDirectListing",
      "outputs": [],
      "stateMutability": "nonpayable",
      "type": "function"
    },
    {
      "inputs": [
        {
          "internalType": "uint256",
          "name": "_listingId",
          "type": "uint256"
        },
        {
          "internalType": "address",
          "name": "_buyFor",
          "type": "address"
        },
        {
          "internalType": "uint256",
          "name": "_quantityToBuy",
          "type": "uint256"
        },
        {
          "internalType": "address",
          "name": "_currency",
          "type": "address"
        },
        {
          "internalType": "uint256",
          "name": "_totalPrice",
          "type": "uint256"
        }
      ],
      "name": "buy",
      "outputs": [],
      "stateMutability": "payable",
      "type": "function"
    },
    {
      "inputs": [
        {
          "internalType": "uint256",
          "name": "_listingId",
          "type": "uint256"
        },
        {
          "internalType": "address",
          "name": "_offeror",
          "type": "address"
        },
        {
          "internalType": "address",
          "name": "_currency",
          "type": "address"
        },
        {
          "internalType": "uint256",
          "name": "_pricePerToken",
          "type": "uint256"
        }
      ],
      "name": "acceptOffer",
      "outputs": [],
      "stateMutability": "nonpayable",
      "type": "function"
    },
    {
      "inputs": [
        {
          "internalType": "uint256",
          "name": "_listingId",
          "type": "uint256"
        },
        {
          "internalType": "uint256",
          "name": "_quantityWanted",
          "type": "uint256"
        },
        {
          "internalType": "address",
          "name": "_currency",
          "type": "address"
        },
        {
          "internalType": "uint256",
          "name": "_pricePerToken",
          "type": "uint256"
        },
        {
          "internalType": "uint256",
          "name": "_expirationTimestamp",
          "type": "uint256"
        }
      ],
      "name": "offer",
      "outputs": [],
      "stateMutability": "payable",
      "type": "function"
    },
    {
      "inputs": [
        {
          "internalType": "uint256",
          "name": "_listingId",
          "type": "uint256"
        },
        {
          "internalType": "address",
          "name": "_closeFor",
          "type": "address"
        }
      ],
      "name": "closeAuction",
      "outputs": [],
      "stateMutability": "nonpayable",
      "type": "function"
    },
    {
      "inputs": [
        {
          "internalType": "address",
          "name": "_whitelistedAssetContractAddress",
          "type": "address"
        }
      ],
      "name": "verifyWhitelistedAssetContractAddress",
      "outputs": [
        {
          "internalType": "bool",
          "name": "",
          "type": "bool"
        }
      ],
      "stateMutability": "view",
      "type": "function"
    },
    {
      "inputs": [],
      "name": "getPlatformFeeInfo",
      "outputs": [
        {
          "internalType": "address",
          "name": "",
          "type": "address"
        },
        {
          "internalType": "uint16",
          "name": "",
          "type": "uint16"
        }
      ],
      "stateMutability": "view",
      "type": "function"
    },
    {
      "inputs": [
        {
          "internalType": "address",
          "name": "_whitelistedContractAssetAddress",
          "type": "address"
        }
      ],
      "name": "addWhitelistedAssetContractAddress",
      "outputs": [],
      "stateMutability": "nonpayable",
      "type": "function"
    },
    {
      "inputs": [
        {
          "internalType": "address",
          "name": "_whitelistedContractAssetAddress",
          "type": "address"
        }
      ],
      "name": "removeWhitelistedAssetContractAddress",
      "outputs": [],
      "stateMutability": "nonpayable",
      "type": "function"
    },
    {
      "inputs": [
        {
          "internalType": "address",
          "name": "_platformFeeRecipient",
          "type": "address"
        },
        {
          "internalType": "uint256",
          "name": "_platformFeeBps",
          "type": "uint256"
        }
      ],
      "name": "setPlatformFeeInfo",
      "outputs": [],
      "stateMutability": "nonpayable",
      "type": "function"
    },
    {
      "inputs": [
        {
          "internalType": "uint256",
          "name": "_timeBuffer",
          "type": "uint256"
        },
        {
          "internalType": "uint256",
          "name": "_bidBufferBps",
          "type": "uint256"
        }
      ],
      "name": "setAuctionBuffers",
      "outputs": [],
      "stateMutability": "nonpayable",
      "type": "function"
    },
    {
      "inputs": [
        {
          "internalType": "string",
          "name": "_uri",
          "type": "string"
        }
      ],
      "name": "setContractURI",
      "outputs": [],
      "stateMutability": "nonpayable",
      "type": "function"
    }
  ],
  "bytecode": "0x608060405234801562000010575f80fd5b506200001b62000021565b620000e0565b5f54610100900460ff16156200008d5760405162461bcd60e51b815260206004820152602760248201527f496e697469616c697a61626c653a20636f6e747261637420697320696e697469604482015266616c697a696e6760c81b606482015260840160405180910390fd5b5f5460ff9081161015620000de575f805460ff191660ff9081179091556040519081527f7f26b83ff96e1f2b6a682f133852f6798a09c465da95921460cefb38474024989060200160405180910390a15b565b615aca80620000ee5f395ff3fe6080604052600436106101c2575f3560e01c806301ffc9a7146101cd578063150b7a02146102015780631e7ac48814610239578063248a9ca31461025a578063296f4e16146102875780632f2ff15d146102a657806336568abe146102c55780634e03f28d146102e4578063572b6c05146103235780635b446a37146103425780635fef45e71461037a5780636737b2fa1461038d5780636bab66ae146103ac5780637506c84a146103cb5780637687ab02146103ea5780639010d07c146103fd57806391d1485414610429578063938e3d7b14610448578063a0a8e46014610467578063a217fddf14610482578063ac9650d814610495578063b13c0e63146104c1578063b2ef5c55146104e0578063bc197c81146104ff578063c4b5b15f1461052a578063c78b616c14610549578063ca15c8731461055f578063cb2ef6f71461057e578063d45573f6146105a7578063d4ac9b8c146105de578063d547741f14610672578063de74e57b14610691578063e0d41ebf14610736578063e8a3d48514610755578063ea0e024114610776578063ebdfbce514610795578063ec91f2a4146107fb578063f23a6e611461081b578063fd967f4714610846575f80fd5b366101c957005b5f80fd5b3480156101d8575f80fd5b506101ec6101e7366004614a3b565b61085b565b60405190151581526020015b60405180910390f35b34801561020c575f80fd5b5061022c61021b366004614ac5565b630a85bd0160e11b95945050505050565b6040516101f89190614b32565b348015610244575f80fd5b50610258610253366004614b47565b6108a0565b005b348015610265575f80fd5b50610279610274366004614b71565b610963565b6040519081526020016101f8565b348015610292575f80fd5b506102586102a1366004614c03565b610977565b3480156102b1575f80fd5b506102586102c0366004614c8d565b610e01565b3480156102d0575f80fd5b506102586102df366004614c8d565b610e22565b3480156102ef575f80fd5b506101635461030b90600160401b90046001600160401b031681565b6040516001600160401b0390911681526020016101f8565b34801561032e575f80fd5b506101ec61033d366004614cbb565b610eb0565b34801561034d575f80fd5b506101ec61035c366004614cbb565b6001600160a01b03165f908152610167602052604090205460ff1690565b610258610388366004614cd6565b610ecd565b348015610398575f80fd5b506102586103a7366004614cbb565b61124e565b3480156103b7575f80fd5b506102586103c6366004614c8d565b6112e2565b3480156103d6575f80fd5b506102586103e5366004614b71565b6115f2565b6102586103f8366004614d1b565b611835565b348015610408575f80fd5b5061041c610417366004614d69565b611a10565b6040516101f89190614d96565b348015610434575f80fd5b506101ec610443366004614c8d565b611a2f565b348015610453575f80fd5b50610258610462366004614daa565b611a59565b348015610472575f80fd5b50604051600281526020016101f8565b34801561048d575f80fd5b506102795f81565b3480156104a0575f80fd5b506104b46104af366004614de8565b611a77565b6040516101f89190614ea3565b3480156104cc575f80fd5b506102586104db366004614f03565b611b69565b3480156104eb575f80fd5b506102586104fa36600461502f565b611f3b565b34801561050a575f80fd5b5061022c610519366004615165565b63bc197c8160e01b95945050505050565b348015610535575f80fd5b5061025861054436600461520b565b612175565b348015610554575f80fd5b506102796101605481565b34801561056a575f80fd5b50610279610579366004614b71565b61261b565b348015610589575f80fd5b50735370616365576172734d61726b6574706c61636560601b610279565b3480156105b2575f80fd5b5061016254604080516001600160a01b0383168152600160a01b90920461ffff166020830152016101f8565b3480156105e9575f80fd5b506106396105f8366004614b71565b6101666020525f908152604090208054600182015460028301546003840154600485015460059095015493946001600160a01b039384169492939091169186565b604080519687526001600160a01b03958616602088015286019390935292166060840152608083019190915260a082015260c0016101f8565b34801561067d575f80fd5b5061025861068c366004614c8d565b612632565b34801561069c575f80fd5b5061071e6106ab366004614b71565b6101646020525f9081526040902080546001820154600283015460038401546004850154600586015460068701546007880154600889015460098a0154600a909a015498996001600160a01b03988916999789169896979596949593949092169290919060ff808216916101009004168c565b6040516101f89c9b9a999897969594939291906152a2565b348015610741575f80fd5b50610258610750366004614cbb565b61264e565b348015610760575f80fd5b5061076961267d565b6040516101f89190615326565b348015610781575f80fd5b50610258610790366004614d69565b61270a565b3480156107a0575f80fd5b506106396107af366004614c8d565b61016560209081525f928352604080842090915290825290208054600182015460028301546003840154600485015460059095015493946001600160a01b039384169492939091169186565b348015610806575f80fd5b506101635461030b906001600160401b031681565b348015610826575f80fd5b5061022c610835366004615338565b63f23a6e6160e01b95945050505050565b348015610851575f80fd5b5061030b61271081565b5f6001600160e01b03198216630271189760e51b148061088b57506001600160e01b03198216630a85bd0160e11b145b8061089a575061089a826127c5565b92915050565b5f6108aa816127e9565b6127108211156108f15760405162461bcd60e51b815260206004820152600d60248201526c313839901e1e9018981818181760991b60448201526064015b60405180910390fd5b61016280546001600160e01b031916600160a01b6001600160401b038516026001600160a01b031916176001600160a01b0385169081179091556040518381527fe2497bd806ec41a6e0dd992c29a72efc0ef8fec9092d1978fd4a1e00b2f183049060200160405180910390a2505050565b5f90815260fb602052604090206001015490565b80516001600160a01b0381165f908152610167602052604090205460ff16610a065760405162461bcd60e51b815260206004820152603c60248201527f57686974656c6973743a20596f75206e65656420746f2062652077686974656c60448201527b697374656420617373657420636f6e7472616374206164647265737360201b60648201526084016108e8565b6101608054906001905f610a1a83856153af565b909155505f9050610a296127fd565b90505f610a38855f015161280b565b90505f610a49828760800151612957565b90505f8111610a6a5760405162461bcd60e51b81526004016108e8906153c2565b610a815f80516020615a2e8339815191525f611a2f565b80610aa05750610aa05f80516020615a2e8339815191526104436127fd565b610ad65760405162461bcd60e51b815260206004820152600760248201526610a624a9aa22a960c91b60448201526064016108e8565b610aed5f805160206159ee8339815191525f611a2f565b80610b0d5750610b0d5f805160206159ee833981519152875f0151611a2f565b610b425760405162461bcd60e51b8152602060048201526006602482015265085054d4d15560d21b60448201526064016108e8565b604086015142811015610b7c57610e10610b5c82426153e4565b10610b795760405162461bcd60e51b81526004016108e8906153f7565b50425b610b9084885f01518960200151858761298e565b5f604051806101800160405280878152602001866001600160a01b03168152602001895f01516001600160a01b0316815260200189602001518152602001838152602001896060015184610be491906153af565b81526020018481526020018960a001516001600160a01b031681526020018960c0015181526020018960e001518152602001856001811115610c2857610c28615265565b81526020018961010001516001811115610c4457610c44615265565b90525f87815261016460209081526040918290208351815590830151600180830180546001600160a01b03199081166001600160a01b0394851617909155938501516002840180548616918416919091179055606085015160038401556080850151600484015560a0850151600584015560c0850151600684015560e085015160078401805490951692169190911790925561010083015160088201556101208301516009820155610140830151600a82018054949550859492939192909160ff19909116908381811115610d1b57610d1b615265565b0217905550610160820151600a8201805461ff001916610100836001811115610d4657610d46615265565b021790555060019150610d569050565b8161016001516001811115610d6d57610d6d615265565b03610da8578061010001518161012001511015610d9c5760405162461bcd60e51b81526004016108e890615413565b610da885308584612c4b565b846001600160a01b0316885f01516001600160a01b0316877f0c5bc74ccdf848b38eb526a154b85085e1d61addf1d100cba2074e039c0b634084604051610def9190615434565b60405180910390a45050505050505050565b610e0a82610963565b610e13816127e9565b610e1d8383612d92565b505050565b610e2a6127fd565b6001600160a01b0316816001600160a01b031614610ea25760405162461bcd60e51b815260206004820152602f60248201527f416363657373436f6e74726f6c3a2063616e206f6e6c792072656e6f756e636560448201526e103937b632b9903337b91039b2b63360891b60648201526084016108e8565b610eac8282612db4565b5050565b6001600160a01b03165f9081526065602052604090205460ff1690565b600260015403610eef5760405162461bcd60e51b81526004016108e8906154e5565b600260018190555f86815261016460205260409020015485906001600160a01b0316610f2d5760405162461bcd60e51b81526004016108e89061551c565b5f86815261016460209081526040808320815161018081018352815481526001808301546001600160a01b039081169583019590955260028301548516938201939093526003820154606082015260048201546080820152600582015460a0820152600682015460c0820152600782015490931660e084015260088101546101008401526009810154610120840152600a810154909161014084019160ff1690811115610fdc57610fdc615265565b6001811115610fed57610fed615265565b8152602001600a820160019054906101000a900460ff16600181111561101557611015615265565b600181111561102657611026615265565b815250509050428160a001511180156110425750428160800151105b6110825760405162461bcd60e51b815260206004820152601160248201527034b730b1ba34bb32903634b9ba34b7339760791b60448201526064016108e8565b5f6040518060c0016040528089815260200161109c6127fd565b6001600160a01b039081168252602082018a905288166040820152606081018790526080018590529050600182610160015160018111156110df576110df615265565b0361117e578160e001516001600160a01b031681606001516001600160a01b0316146111575760405162461bcd60e51b815260206004820152602160248201527f6d7573742075736520617070726f7665642063757272656e637920746f2062696044820152601960fa1b60648201526084016108e8565b61116a8261014001518360c00151612957565b60408201526111798282612dd6565b611240565b5f826101600151600181111561119657611196615265565b036112405734156111db5760405162461bcd60e51b815260206004820152600f60248201526e1b9bc81d985b1d59481b9959591959608a1b60448201526064016108e8565b6001600160a01b03861673eeeeeeeeeeeeeeeeeeeeeeeeeeeeeeeeeeeeeeee146112055785611213565b61015f546001600160a01b03165b6001600160a01b031660608201526101408201516112319088612957565b60408201526112408282613184565b505060018055505050505050565b5f611258816127e9565b6001600160a01b0382165f908152610167602052604090205460ff166112c05760405162461bcd60e51b815260206004820181905260248201527f4572726f723a2053656e646572206973206e6f742077686974656c697374656460448201526064016108e8565b506001600160a01b03165f90815261016760205260409020805460ff19169055565b6002600154036113045760405162461bcd60e51b81526004016108e8906154e5565b600260018190555f83815261016460205260409020015482906001600160a01b03166113425760405162461bcd60e51b81526004016108e89061551c565b5f83815261016460209081526040808320815161018081018352815481526001808301546001600160a01b039081169583019590955260028301548516938201939093526003820154606082015260048201546080820152600582015460a0820152600682015460c0820152600782015490931660e084015260088101546101008401526009810154610120840152600a810154909161014084019160ff16908111156113f1576113f1615265565b600181111561140257611402615265565b8152602001600a820160019054906101000a900460ff16600181111561142a5761142a615265565b600181111561143b5761143b615265565b90525090506001816101600151600181111561145957611459615265565b146114985760405162461bcd60e51b815260206004820152600f60248201526e3737ba1030b71030bab1ba34b7b71760891b60448201526064016108e8565b5f84815261016660209081526040808320815160c0810183528154815260018201546001600160a01b039081169482019490945260028201549281019290925260038101549092166060820152600482015460808083019190915260059092015460a08201529083015190919042108061151d575060208201516001600160a01b0316155b905080156115335761152e836132ff565b6115e6565b428360a00151106115985760405162461bcd60e51b815260206004820152602960248201527f63616e6e6f7420636c6f73652061756374696f6e206265666f7265206974206860448201526830b99032b73232b21760b91b60648201526084016108e8565b82602001516001600160a01b0316856001600160a01b0316036115bf576115bf8383613450565b81602001516001600160a01b0316856001600160a01b0316036115e6576115e68383613648565b50506001805550505050565b806115fb6127fd565b5f82815261016460205260409020600101546001600160a01b039081169116146116375760405162461bcd60e51b81526004016108e890615539565b5f82815261016460209081526040808320815161018081018352815481526001808301546001600160a01b039081169583019590955260028301548516938201939093526003820154606082015260048201546080820152600582015460a0820152600682015460c0820152600782015490931660e084015260088101546101008401526009810154610120840152600a810154909161014084019160ff16908111156116e6576116e6615265565b60018111156116f7576116f7615265565b8152602001600a820160019054906101000a900460ff16600181111561171f5761171f615265565b600181111561173057611730615265565b90525090505f816101600151600181111561174d5761174d615265565b146117845760405162461bcd60e51b8152602060048201526007602482015266085112549150d560ca1b60448201526064016108e8565b5f838152610164602090815260408083208381556001810180546001600160a01b0319908116909155600282018054821690556003820185905560048201859055600582018590556006820185905560078201805490911690556008810184905560098101849055600a01805461ffff191690559083015190516001600160a01b039091169185917f58b0852506006c4be6c7ae72afcd195d9e64d7f5d8947905e914b778e47b7cf39190a3505050565b6002600154036118575760405162461bcd60e51b81526004016108e8906154e5565b600260018190555f86815261016460205260409020015485906001600160a01b03166118955760405162461bcd60e51b81526004016108e89061551c565b5f86815261016460209081526040808320815161018081018352815481526001808301546001600160a01b039081169583019590955260028301548516938201939093526003820154606082015260048201546080820152600582015460a0820152600682015460c0820152600782015490931660e084015260088101546101008401526009810154610120840152600a810154909161014084019160ff169081111561194457611944615265565b600181111561195557611955615265565b8152602001600a820160019054906101000a900460ff16600181111561197d5761197d615265565b600181111561198e5761198e615265565b90525090505f61199c6127fd565b90508160e001516001600160a01b0316856001600160a01b03161480156119d25750858261012001516119cf9190615559565b84145b6119ee5760405162461bcd60e51b81526004016108e890615570565b6112408282898560e001518a876101200151611a0a9190615559565b8b6137c8565b5f82815261012d60205260408120611a289083613966565b9392505050565b5f91825260fb602090815260408084206001600160a01b0393909316845291905290205460ff1690565b5f611a63816127e9565b610161611a71838583615629565b50505050565b6060816001600160401b03811115611a9157611a91614b88565b604051908082528060200260200182016040528015611ac457816020015b6060815260200190600190039081611aaf5790505b5090505f5b82811015611b6257611b3230858584818110611ae757611ae76156de565b9050602002810190611af991906156f2565b8080601f0160208091040260200160405190810160405280939291908181526020018383808284375f9201919091525061397192505050565b828281518110611b4457611b446156de565b60200260200101819052508080611b5a90615734565b915050611ac9565b5092915050565b600260015403611b8b5760405162461bcd60e51b81526004016108e8906154e5565b600260015583611b996127fd565b5f82815261016460205260409020600101546001600160a01b03908116911614611bd55760405162461bcd60e51b81526004016108e890615539565b5f858152610164602052604090206002015485906001600160a01b0316611c0e5760405162461bcd60e51b81526004016108e89061551c565b5f6101655f8881526020019081526020015f205f876001600160a01b03166001600160a01b031681526020019081526020015f206040518060c00160405290815f8201548152602001600182015f9054906101000a90046001600160a01b03166001600160a01b03166001600160a01b0316815260200160028201548152602001600382015f9054906101000a90046001600160a01b03166001600160a01b03166001600160a01b031681526020016004820154815260200160058201548152505090505f6101645f8981526020019081526020015f20604051806101800160405290815f8201548152602001600182015f9054906101000a90046001600160a01b03166001600160a01b03166001600160a01b03168152602001600282015f9054906101000a90046001600160a01b03166001600160a01b03166001600160a01b0316815260200160038201548152602001600482015481526020016005820154815260200160068201548152602001600782015f9054906101000a90046001600160a01b03166001600160a01b03166001600160a01b031681526020016008820154815260200160098201548152602001600a82015f9054906101000a900460ff166001811115611de357611de3615265565b6001811115611df457611df4615265565b8152602001600a820160019054906101000a900460ff166001811115611e1c57611e1c615265565b6001811115611e2d57611e2d615265565b81525050905081606001516001600160a01b0316866001600160a01b0316148015611e5b5750816080015185145b611e775760405162461bcd60e51b81526004016108e890615570565b428260a0015111611eb45760405162461bcd60e51b81526020600482015260076024820152661156141254915160ca1b60448201526064016108e8565b5f888152610165602090815260408083206001600160a01b038b1684529091528082208281556001810180546001600160a01b0319908116909155600282018490556003820180549091169055600481018390556005019190915560608301519083015160808401516112409284928b92839291611f3191615559565b87604001516137c8565b5f54610100900460ff1615808015611f5957505f54600160ff909116105b80611f795750611f6830613a5f565b158015611f7957505f5460ff166001145b611fdc5760405162461bcd60e51b815260206004820152602e60248201527f496e697469616c697a61626c653a20636f6e747261637420697320616c72656160448201526d191e481a5b9a5d1a585b1a5e995960921b60648201526084016108e8565b5f805460ff191660011790558015611ffd575f805461ff0019166101001790555b612005613a6e565b61200e86613a9e565b61016380546001600160801b031916610384607d60421b01179055610161612036888261574c565b5061016280546001600160a01b038087166001600160a01b03196001600160401b038816600160a01b0281166001600160e01b0319909416939093171790925561015f8054928516929091169190911790556120925f33613ad5565b6120a95f80516020615a2e8339815191525f613ad5565b6120c05f805160206159ee8339815191525f613ad5565b5f5b85518110156121265760016101675f8884815181106120e3576120e36156de565b6020908102919091018101516001600160a01b031682528101919091526040015f20805460ff19169115159190911790558061211e81615734565b9150506120c2565b50801561216c575f805461ff0019169055604051600181527f7f26b83ff96e1f2b6a682f133852f6798a09c465da95921460cefb38474024989060200160405180910390a15b50505050505050565b8661217e6127fd565b5f82815261016460205260409020600101546001600160a01b039081169116146121ba5760405162461bcd60e51b81526004016108e890615539565b5f88815261016460209081526040808320815161018081018352815481526001808301546001600160a01b039081169583019590955260028301548516938201939093526003820154606082015260048201546080820152600582015460a0820152600682015460c0820152600782015490931660e084015260088101546101008401526009810154610120840152600a810154909161014084019160ff169081111561226957612269615265565b600181111561227a5761227a615265565b8152602001600a820160019054906101000a900460ff1660018111156122a2576122a2615265565b60018111156122b3576122b3615265565b8152505090505f6122c98261014001518a612957565b90505f600183610160015160018111156122e5576122e5615265565b149050815f036123075760405162461bcd60e51b81526004016108e8906153c2565b801561236a578260800151421061234a5760405162461bcd60e51b815260206004820152600760248201526614d5105495115160ca1b60448201526064016108e8565b8888101561236a5760405162461bcd60e51b81526004016108e890615413565b428610156123a057610e1061237f87426153e4565b1061239c5760405162461bcd60e51b81526004016108e8906153f7565b4295505b5f86156123ad57866123b3565b83608001515b90506040518061018001604052808d81526020016123cf6127fd565b6001600160a01b0316815260200185604001516001600160a01b0316815260200185606001518152602001828152602001875f146124165761241188846153af565b61241c565b8560a001515b8152602001848152602001896001600160a01b031681526020018b81526020018a8152602001856101400151600181111561245957612459615265565b8152602001856101600151600181111561247557612475615265565b90525f8d815261016460209081526040918290208351815590830151600180830180546001600160a01b03199081166001600160a01b0394851617909155938501516002840180548616918416919091179055606085015160038401556080850151600484015560a0850151600584015560c0850151600684015560e085015160078401805490951692169190911790925561010083015160088201556101208301516009820155610140830151600a8201805492939192909160ff1990911690838181111561254757612547615265565b0217905550610160820151600a8201805461ff00191661010083600181111561257257612572615265565b0217905550505060c084015183146125d257811561259e5761259e3085602001518660c0015187612c4b565b6125bc8460200151856040015186606001518688610140015161298e565b81156125d2576125d28460200151308587612c4b565b83602001516001600160a01b03168c7fbbea26162edf2bc6a0255bf144ec4dd044302a301ef7d32daa835a2ddacfdef060405160405180910390a3505050505050505050505050565b5f81815261012d6020526040812061089a90613adf565b61263b82610963565b612644816127e9565b610e1d8383612db4565b5f612658816127e9565b506001600160a01b03165f90815261016760205260409020805460ff19166001179055565b610161805461268b90615590565b80601f01602080910402602001604051908101604052809291908181526020018280546126b790615590565b80156127025780601f106126d957610100808354040283529160200191612702565b820191905f5260205f20905b8154815290600101906020018083116126e557829003601f168201915b505050505081565b5f612714816127e9565b61271082106127545760405162461bcd60e51b815260206004820152600c60248201526b34b73b30b634b2102128299760a11b60448201526064016108e8565b61016380546001600160401b03848116600160401b026001600160801b0319909216908616171790556040517f441ed6470e96704c3f8c9e70c209107078aab3f17311385e886081b91aa75088906127b89085908590918252602082015260400190565b60405180910390a1505050565b5f6001600160e01b03198216635a05180f60e01b148061089a575061089a82613ae8565b6127fa816127f56127fd565b613b1c565b50565b5f612806613b80565b905090565b6040516301ffc9a760e01b81525f906001600160a01b038316906301ffc9a79061284090636cdb3d1360e11b90600401614b32565b602060405180830381865afa15801561285b573d5f803e3d5ffd5b505050506040513d601f19601f8201168201806040525081019061287f9190615802565b1561288b57505f919050565b6040516301ffc9a760e01b81526001600160a01b038316906301ffc9a7906128be906380ac58cd60e01b90600401614b32565b602060405180830381865afa1580156128d9573d5f803e3d5ffd5b505050506040513d601f19601f820116820180604052508101906128fd9190615802565b1561290a57506001919050565b60405162461bcd60e51b815260206004820181905260248201527f746f6b656e206d7573742062652045524331313535206f72204552433732312e60448201526064016108e8565b919050565b5f815f0361296657505f61089a565b600183600181111561297a5761297a615265565b146129855781611a28565b50600192915050565b305f808360018111156129a3576129a3615265565b03612a9257604051627eeac760e11b815284906001600160a01b0388169062fdd58e906129d6908b908a90600401615821565b602060405180830381865afa1580156129f1573d5f803e3d5ffd5b505050506040513d601f19601f82011682018060405250810190612a15919061583a565b10158015612a8b575060405163e985e9c560e01b81526001600160a01b0387169063e985e9c590612a4c908a908690600401615851565b602060405180830381865afa158015612a67573d5f803e3d5ffd5b505050506040513d601f19601f82011682018060405250810190612a8b9190615802565b9050612c14565b6001836001811115612aa657612aa6615265565b03612c14576040516331a9108f60e11b8152600481018690526001600160a01b038089169190881690636352211e90602401602060405180830381865afa158015612af3573d5f803e3d5ffd5b505050506040513d601f19601f82011682018060405250810190612b17919061586b565b6001600160a01b0316148015612c11575060405163020604bf60e21b8152600481018690526001600160a01b03808416919088169063081812fc90602401602060405180830381865afa158015612b70573d5f803e3d5ffd5b505050506040513d601f19601f82011682018060405250810190612b94919061586b565b6001600160a01b03161480612c11575060405163e985e9c560e01b81526001600160a01b0387169063e985e9c590612bd2908a908690600401615851565b602060405180830381865afa158015612bed573d5f803e3d5ffd5b505050506040513d601f19601f82011682018060405250810190612c119190615802565b90505b8061216c5760405162461bcd60e51b81526020600482015260076024820152660850905313919560ca1b60448201526064016108e8565b5f8161014001516001811115612c6357612c63615265565b03612cf15760408082015160608301519151637921219560e11b81526001600160a01b038781166004830152868116602483015260448201939093526064810185905260a060848201525f60a482015291169063f242432a9060c4015f604051808303815f87803b158015612cd6575f80fd5b505af1158015612ce8573d5f803e3d5ffd5b50505050611a71565b60018161014001516001811115612d0a57612d0a615265565b03611a715760408082015160608301519151635c46a7ef60e11b81526001600160a01b03878116600483015286811660248301526044820193909352608060648201525f608482015291169063b88d4fde9060a4015f604051808303815f87803b158015612d76575f80fd5b505af1158015612d88573d5f803e3d5ffd5b5050505050505050565b612d9c8282613ba1565b5f82815261012d60205260409020610e1d9082613c27565b612dbe8282613c3b565b5f82815261012d60205260409020610e1d9082613cbf565b81515f90815261016660209081526040808320815160c0810183528154815260018201546001600160a01b039081169482019490945260028201549281018390526003820154909316606084015260048101546080840181905260059091015460a0840152919291612e489190615559565b90505f83604001518460800151612e5f9190615559565b61015f546101208701519192506001600160a01b03169015801590612e9857508560c00151866101200151612e949190615559565b8210155b15612eac57612ea78686613648565b6130c6565b612ecb8660c00151876101000151612ec49190615559565b8484613cd3565b612f0a5760405162461bcd60e51b815260206004820152601060248201526f3737ba103bb4b73734b733903134b21760811b60448201526064016108e8565b85515f908152610166602090815260409182902087518155908701516001820180546001600160a01b03199081166001600160a01b039384161790915592880151600283015560608801516003830180549094169116179091556080860151600482015560a08087015160059092019190915561016354908701516001600160401b0390911690612f9c9042906153e4565b116130c6576101635460a0870180516001600160401b0390921691612fc29083906153af565b90525085515f90815261016460209081526040918290208851815590880151600180830180546001600160a01b03199081166001600160a01b0394851617909155938a0151600284018054861691841691909117905560608a0151600384015560808a0151600484015560a08a0151600584015560c08a0151600684015560e08a015160078401805490951692169190911790925561010088015160088201556101208801516009820155610140880151600a820180548a9460ff1990911690838181111561309357613093615265565b0217905550610160820151600a8201805461ff0019166101008360018111156130be576130be615265565b021790555050505b60208401516001600160a01b0316158015906130e157505f83115b156130fb576130fb8660e001513086602001518685613d30565b6131108660e001518660200151308585613d30565b856101600151600181111561312757613127615265565b85602001516001600160a01b0316875f01515f80516020615a75833981519152886040015189604001518a608001516131609190615559565b8a6060015160405161317493929190615886565b60405180910390a4505050505050565b8160c0015181604001511115801561319f57505f8260c00151115b6131eb5760405162461bcd60e51b815260206004820152601f60248201527f696e73756666696369656e7420746f6b656e7320696e206c697374696e672e0060448201526064016108e8565b613211816020015182606001518360400151846080015161320c9190615559565b613e98565b81515f9081526101656020908152604080832082850180516001600160a01b0390811686529190935292819020845181559151600180840180549286166001600160a01b03199384161790559185015160028401556060850151600384018054919095169116179092556080830151600482015560a0830151600590910155610160830151908111156132a6576132a6615265565b81602001516001600160a01b0316835f01515f80516020615a758339815191528460400151856040015186608001516132df9190615559565b86606001516040516132f393929190615886565b60405180910390a45050565b6133076127fd565b81515f90815261016460205260409020600101546001600160a01b039081169116146133805760405162461bcd60e51b815260206004820152602260248201527f63616c6c6572206973206e6f7420746865206c697374696e672063726561746f604482015261391760f11b60648201526084016108e8565b80515f9081526101646020908152604082208281556001810180546001600160a01b031990811690915560028201805482169055600382018490556004820184905560058201849055600682018490556007820180549091169055600881018390556009810192909255600a909101805461ffff1916905581015160c082015161340c91309184612c4b565b60016134166127fd565b6001600160a01b0316825f01515f80516020615a0e83398151915284602001515f604051613445929190615851565b60405180910390a450565b5f8260c0015182608001516134659190615559565b5f60c085018181524260a087019081528651835261016460209081526040938490208851815590880151600180830180546001600160a01b039384166001600160a01b031991821617909155958a015160028401805491841691881691909117905560608a0151600384015560808a01516004840155925160058301559251600682015560e08801516007820180549190941694169390931790915561010086015160088301556101208601516009830155610140860151600a8301805494955087949192909160ff191690838181111561354257613542615265565b0217905550610160820151600a8201805461ff00191661010083600181111561356d5761356d615265565b0217905550505f6080840181815285518252610166602090815260409283902086518155818701516001820180546001600160a01b03199081166001600160a01b039384161790915594880151600283015560608801516003830180549096169116179093559051600483015560a085015160059092019190915584015160e08501516135ff92503091908487613fb5565b5f6136086127fd565b6001600160a01b0316845f01515f80516020615a0e8339815191528660200151866020015160405161363b929190615851565b60405180910390a4505050565b604081810180514260a08681019182525f8085528751815261016660209081528682208851815581890151600180830180546001600160a01b03199081166001600160a01b039485161790915598516002808501919091556060808d0151600380870180548e16928716929092179091556080808f0151600480890191909155998f01516005978801558f5189526101648852978d90208f518155968f015187850180548e169187169190911790559b8e015191860180548c16928516929092179091558c015199840199909955928a01519382019390935592519183019190915560c0870151600683015560e087015160078301805490951691161790925561010085015160088301556101208501516009830155610140850151600a83018054929487949360ff191690838181111561378557613785615265565b0217905550610160820151600a8201805461ff0019166101008360018111156137b0576137b0615265565b02179055509050506135ff3083602001518386612c4b565b6137d58686838686614136565b808660c0018181516137e791906153e4565b90525085515f90815261016460209081526040918290208851815590880151600180830180546001600160a01b03199081166001600160a01b0394851617909155938a0151600284018054861691841691909117905560608a0151600384015560808a0151600484015560a08a0151600584015560c08a0151600684015560e08a015160078401805490951692169190911790925561010088015160088201556101208801516009820155610140880151600a820180548a9460ff199091169083818111156138b8576138b8615265565b0217905550610160820151600a8201805461ff0019166101008360018111156138e3576138e3615265565b02179055509050506138fc85876020015185858a613fb5565b61390c8660200151858389612c4b565b602080870151604080890151895182516001600160a01b038a81168252958101879052928301879052928416931691907f306e6cde5eb293794d557a3a6c844de939e6206b05e6910451c512852bf654a590606001613174565b5f611a2883836142f3565b606061397c83613a5f565b6139d75760405162461bcd60e51b815260206004820152602660248201527f416464726573733a2064656c65676174652063616c6c20746f206e6f6e2d636f6044820152651b9d1c9858dd60d21b60648201526084016108e8565b5f80846001600160a01b0316846040516139f191906158a5565b5f60405180830381855af49150503d805f8114613a29576040519150601f19603f3d011682016040523d82523d5f602084013e613a2e565b606091505b5091509150613a568282604051806060016040528060278152602001615a4e60279139614319565b95945050505050565b6001600160a01b03163b151590565b5f54610100900460ff16613a945760405162461bcd60e51b81526004016108e8906158c0565b613a9c614352565b565b5f54610100900460ff16613ac45760405162461bcd60e51b81526004016108e8906158c0565b613acc61437e565b6127fa816143a4565b610eac8282612d92565b5f61089a825490565b5f6001600160e01b03198216637965db0b60e01b148061089a57506301ffc9a760e01b6001600160e01b031983161461089a565b613b268282611a2f565b610eac57613b3e816001600160a01b0316601461442f565b613b4983602061442f565b604051602001613b5a92919061590b565b60408051601f198184030181529082905262461bcd60e51b82526108e891600401615326565b5f613b8a33610eb0565b15613b9c575060131936013560601c90565b503390565b613bab8282611a2f565b610eac575f82815260fb602090815260408083206001600160a01b03851684529091529020805460ff19166001179055613be36127fd565b6001600160a01b0316816001600160a01b0316837f2f8788117e7eff1d82e926ec794901d17c78024a50270940304540a733656f0d60405160405180910390a45050565b5f611a28836001600160a01b0384166145c4565b613c458282611a2f565b15610eac575f82815260fb602090815260408083206001600160a01b03851684529091529020805460ff19169055613c7b6127fd565b6001600160a01b0316816001600160a01b0316837ff6391f5c32d9c69d2a47ea670b442974b53935d1edc7fd64eb21e047a839171b60405160405180910390a45050565b5f611a28836001600160a01b038416614610565b5f825f03613ce5575082811015611a28565b8282118015613d28575061016354600160401b90046001600160401b031683612710613d1182866153e4565b613d1b9190615559565b613d259190615979565b10155b949350505050565b8115613e915773eeeeeeeeeeeeeeeeeeeeeeeeeeeeeeeeeeeeeeed196001600160a01b03861601613e8557306001600160a01b03851603613dd057604051632e1a7d4d60e01b8152600481018390526001600160a01b03821690632e1a7d4d906024015f604051808303815f87803b158015613daa575f80fd5b505af1158015613dbc573d5f803e3d5ffd5b50505050613dcb8383836146f3565b613e91565b306001600160a01b03841603613e7a57348214613e255760405162461bcd60e51b81526020600482015260136024820152721b5cd9cb9d985b1d5948084f48185b5bdd5b9d606a1b60448201526064016108e8565b806001600160a01b031663d0e30db0836040518263ffffffff1660e01b81526004015f604051808303818588803b158015613e5e575f80fd5b505af1158015613e70573d5f803e3d5ffd5b5050505050613e91565b613dcb8383836146f3565b613e91858585856147b0565b5050505050565b6040516370a0823160e01b815281906001600160a01b038416906370a0823190613ec6908790600401614d96565b602060405180830381865afa158015613ee1573d5f803e3d5ffd5b505050506040513d601f19601f82011682018060405250810190613f05919061583a565b10158015613f805750604051636eb1769f60e11b815281906001600160a01b0384169063dd62ed3e90613f3e9087903090600401615851565b602060405180830381865afa158015613f59573d5f803e3d5ffd5b505050506040513d601f19601f82011682018060405250810190613f7d919061583a565b10155b610e1d5760405162461bcd60e51b815260206004820152600660248201526502142414c32360d41b60448201526064016108e8565b610162545f9061271090613fd990600160a01b90046001600160401b031685615559565b613fe39190615979565b90505f8083604001516001600160a01b0316632a55205a8560600151876040518363ffffffff1660e01b8152600401614026929190918252602082015260400190565b6040805180830381865afa92505050801561405e575060408051601f3d908101601f1916820190925261405b91810190615998565b60015b156140da576001600160a01b0382161580159061407a57505f81115b156140d7578661408a86836153af565b11156140d05760405162461bcd60e51b815260206004820152601560248201527466656573206578636565642074686520707269636560581b60448201526064016108e8565b8192508093505b50505b61015f54610162546001600160a01b03918216916140fe9189918c91168785613d30565b61410b878a848685613d30565b61412b878a8a61411b87896153af565b614125908b6153e4565b85613d30565b505050505050505050565b5f856101600151600181111561414e5761414e615265565b146141965760405162461bcd60e51b815260206004820152601860248201527731b0b73737ba10313abc90333937b6903634b9ba34b7339760411b60448201526064016108e8565b5f8560c001511180156141a857505f83115b80156141b857508460c001518311155b6142005760405162461bcd60e51b815260206004820152601960248201527834b73b30b634b21030b6b7bab73a1037b3103a37b5b2b7399760391b60448201526064016108e8565b8460a00151421080156142165750846080015142115b61425c5760405162461bcd60e51b81526020600482015260176024820152763737ba103bb4ba3434b71039b0b632903bb4b73237bb9760491b60448201526064016108e8565b73eeeeeeeeeeeeeeeeeeeeeeeeeeeeeeeeeeeeeeed196001600160a01b038316016142ca578034146142c55760405162461bcd60e51b81526020600482015260126024820152716d73672e76616c756520213d20707269636560701b60448201526064016108e8565b6142d5565b6142d5848383613e98565b613e918560200151866040015187606001518689610140015161298e565b5f825f018281548110614308576143086156de565b905f5260205f200154905092915050565b60608315614328575081611a28565b8251156143385782518084602001fd5b8160405162461bcd60e51b81526004016108e89190615326565b5f54610100900460ff166143785760405162461bcd60e51b81526004016108e8906158c0565b60018055565b5f54610100900460ff16613a9c5760405162461bcd60e51b81526004016108e8906158c0565b5f54610100900460ff166143ca5760405162461bcd60e51b81526004016108e8906158c0565b5f5b8151811015610eac57600160655f8484815181106143ec576143ec6156de565b6020908102919091018101516001600160a01b031682528101919091526040015f20805460ff19169115159190911790558061442781615734565b9150506143cc565b60605f61443d836002615559565b6144489060026153af565b6001600160401b0381111561445f5761445f614b88565b6040519080825280601f01601f191660200182016040528015614489576020820181803683370190505b509050600360fc1b815f815181106144a3576144a36156de565b60200101906001600160f81b03191690815f1a905350600f60fb1b816001815181106144d1576144d16156de565b60200101906001600160f81b03191690815f1a9053505f6144f3846002615559565b6144fe9060016153af565b90505b6001811115614575576f181899199a1a9b1b9c1cb0b131b232b360811b85600f1660108110614532576145326156de565b1a60f81b828281518110614548576145486156de565b60200101906001600160f81b03191690815f1a90535060049490941c9361456e816159c4565b9050614501565b508315611a285760405162461bcd60e51b815260206004820181905260248201527f537472696e67733a20686578206c656e67746820696e73756666696369656e7460448201526064016108e8565b5f81815260018301602052604081205461460957508154600181810184555f84815260208082209093018490558454848252828601909352604090209190915561089a565b505f61089a565b5f81815260018301602052604081205480156146ea575f6146326001836153e4565b85549091505f90614645906001906153e4565b90508181146146a4575f865f018281548110614663576146636156de565b905f5260205f200154905080875f018481548110614683576146836156de565b5f918252602080832090910192909255918252600188019052604090208390555b85548690806146b5576146b56159d9565b600190038181905f5260205f20015f90559055856001015f8681526020019081526020015f205f90556001935050505061089a565b5f91505061089a565b5f836001600160a01b0316836040515f6040518083038185875af1925050503d805f811461473c576040519150601f19603f3d011682016040523d82523d5f602084013e614741565b606091505b5050905080611a7157816001600160a01b031663d0e30db0846040518263ffffffff1660e01b81526004015f604051808303818588803b158015614783575f80fd5b505af1158015614795573d5f803e3d5ffd5b50611a71935050506001600160a01b03841690508585614808565b816001600160a01b0316836001600160a01b03160315611a7157306001600160a01b038416036147f3576147ee6001600160a01b0385168383614808565b611a71565b611a716001600160a01b03851684848461485e565b610e1d8363a9059cbb60e01b8484604051602401614827929190615821565b60408051601f198184030181529190526020810180516001600160e01b03166001600160e01b031990931692909217909152614896565b6040516001600160a01b0380851660248301528316604482015260648101829052611a719085906323b872dd60e01b90608401614827565b5f6148ea826040518060400160405280602081526020017f5361666545524332303a206c6f772d6c6576656c2063616c6c206661696c6564815250856001600160a01b03166149679092919063ffffffff16565b805190915015610e1d57808060200190518101906149089190615802565b610e1d5760405162461bcd60e51b815260206004820152602a60248201527f5361666545524332303a204552433230206f7065726174696f6e20646964206e6044820152691bdd081cdd58d8d9595960b21b60648201526084016108e8565b6060613d2884845f858561497a85613a5f565b6149c65760405162461bcd60e51b815260206004820152601d60248201527f416464726573733a2063616c6c20746f206e6f6e2d636f6e747261637400000060448201526064016108e8565b5f80866001600160a01b031685876040516149e191906158a5565b5f6040518083038185875af1925050503d805f8114614a1b576040519150601f19603f3d011682016040523d82523d5f602084013e614a20565b606091505b5091509150614a30828286614319565b979650505050505050565b5f60208284031215614a4b575f80fd5b81356001600160e01b031981168114611a28575f80fd5b6001600160a01b03811681146127fa575f80fd5b803561295281614a62565b5f8083601f840112614a91575f80fd5b5081356001600160401b03811115614aa7575f80fd5b602083019150836020828501011115614abe575f80fd5b9250929050565b5f805f805f60808688031215614ad9575f80fd5b8535614ae481614a62565b94506020860135614af481614a62565b93506040860135925060608601356001600160401b03811115614b15575f80fd5b614b2188828901614a81565b969995985093965092949392505050565b6001600160e01b031991909116815260200190565b5f8060408385031215614b58575f80fd5b8235614b6381614a62565b946020939093013593505050565b5f60208284031215614b81575f80fd5b5035919050565b634e487b7160e01b5f52604160045260245ffd5b60405161012081016001600160401b0381118282101715614bbf57614bbf614b88565b60405290565b604051601f8201601f191681016001600160401b0381118282101715614bed57614bed614b88565b604052919050565b803560028110612952575f80fd5b5f6101208284031215614c14575f80fd5b614c1c614b9c565b614c2583614a76565b815260208301356020820152604083013560408201526060830135606082015260808301356080820152614c5b60a08401614a76565b60a082015260c083013560c082015260e083013560e0820152610100614c82818501614bf5565b908201529392505050565b5f8060408385031215614c9e575f80fd5b823591506020830135614cb081614a62565b809150509250929050565b5f60208284031215614ccb575f80fd5b8135611a2881614a62565b5f805f805f60a08688031215614cea575f80fd5b85359450602086013593506040860135614d0381614a62565b94979396509394606081013594506080013592915050565b5f805f805f60a08688031215614d2f575f80fd5b853594506020860135614d4181614a62565b9350604086013592506060860135614d5881614a62565b949793965091946080013592915050565b5f8060408385031215614d7a575f80fd5b50508035926020909101359150565b6001600160a01b03169052565b6001600160a01b0391909116815260200190565b5f8060208385031215614dbb575f80fd5b82356001600160401b03811115614dd0575f80fd5b614ddc85828601614a81565b90969095509350505050565b5f8060208385031215614df9575f80fd5b82356001600160401b0380821115614e0f575f80fd5b818501915085601f830112614e22575f80fd5b813581811115614e30575f80fd5b8660208260051b8501011115614e44575f80fd5b60209290920196919550909350505050565b5f5b83811015614e70578181015183820152602001614e58565b50505f910152565b5f8151808452614e8f816020860160208601614e56565b601f01601f19169290920160200192915050565b5f602080830181845280855180835260408601915060408160051b87010192508387015f5b82811015614ef657603f19888603018452614ee4858351614e78565b94509285019290850190600101614ec8565b5092979650505050505050565b5f805f8060808587031215614f16575f80fd5b843593506020850135614f2881614a62565b92506040850135614f3881614a62565b9396929550929360600135925050565b5f6001600160401b03831115614f6057614f60614b88565b614f73601f8401601f1916602001614bc5565b9050828152838383011115614f86575f80fd5b828260208301375f602084830101529392505050565b5f6001600160401b03821115614fb457614fb4614b88565b5060051b60200190565b5f82601f830112614fcd575f80fd5b81356020614fe2614fdd83614f9c565b614bc5565b82815260059290921b84018101918181019086841115615000575f80fd5b8286015b8481101561502457803561501781614a62565b8352918301918301615004565b509695505050505050565b5f805f805f8060c08789031215615044575f80fd5b86356001600160401b038082111561505a575f80fd5b818901915089601f83011261506d575f80fd5b61507c8a833560208501614f48565b97506020890135915080821115615091575f80fd5b61509d8a838b01614fbe565b965060408901359150808211156150b2575f80fd5b506150bf89828a01614fbe565b9450506150ce60608801614a76565b9250608087013591506150e360a08801614a76565b90509295509295509295565b5f82601f8301126150fe575f80fd5b8135602061510e614fdd83614f9c565b82815260059290921b8401810191818101908684111561512c575f80fd5b8286015b848110156150245780358352918301918301615130565b5f82601f830112615156575f80fd5b611a2883833560208501614f48565b5f805f805f60a08688031215615179575f80fd5b853561518481614a62565b9450602086013561519481614a62565b935060408601356001600160401b03808211156151af575f80fd5b6151bb89838a016150ef565b945060608801359150808211156151d0575f80fd5b6151dc89838a016150ef565b935060808801359150808211156151f1575f80fd5b506151fe88828901615147565b9150509295509295909350565b5f805f805f805f60e0888a031215615221575f80fd5b87359650602088013595506040880135945060608801359350608088013561524881614a62565b9699959850939692959460a0840135945060c09093013592915050565b634e487b7160e01b5f52602160045260245ffd5b600281106127fa57634e487b7160e01b5f52602160045260245ffd5b61529e81615279565b9052565b8c81526001600160a01b038c811660208301528b81166040830152606082018b9052608082018a905260a0820189905260c08201889052861660e08201526101008101859052610120810184905261018081016152fe84615279565b8361014083015261530e83615279565b826101608301529d9c50505050505050505050505050565b602081525f611a286020830184614e78565b5f805f805f60a0868803121561534c575f80fd5b853561535781614a62565b9450602086013561536781614a62565b9350604086013592506060860135915060808601356001600160401b0381111561538f575f80fd5b6151fe88828901615147565b634e487b7160e01b5f52601160045260245ffd5b8082018082111561089a5761089a61539b565b6020808252600890820152675155414e5449545960c01b604082015260600190565b8181038181111561089a5761089a61539b565b60208082526002908201526114d560f21b604082015260600190565b6020808252600790820152665245534552564560c81b604082015260600190565b8151815260208083015161018083019161545090840182614d89565b5060408301516154636040840182614d89565b50606083015160608301526080830151608083015260a083015160a083015260c083015160c083015260e083015161549e60e0840182614d89565b5061010083810151908301526101208084015190830152610140808401516154c882850182615295565b5050610160808401516154dd82850182615295565b505092915050565b6020808252601f908201527f5265656e7472616e637947756172643a207265656e7472616e742063616c6c00604082015260600190565b602080825260039082015262444e4560e81b604082015260600190565b60208082526006908201526510a7aba722a960d11b604082015260600190565b808202811582820484141761089a5761089a61539b565b60208082526006908201526521505249434560d01b604082015260600190565b600181811c908216806155a457607f821691505b6020821081036155c257634e487b7160e01b5f52602260045260245ffd5b50919050565b601f821115610e1d575f81815260208120601f850160051c810160208610156155ee5750805b601f850160051c820191505b8181101561560d578281556001016155fa565b505050505050565b5f19600383901b1c191660019190911b1790565b6001600160401b0383111561564057615640614b88565b6156548361564e8354615590565b836155c8565b5f601f841160018114615680575f851561566e5750838201355b6156788682615615565b845550613e91565b5f83815260209020601f19861690835b828110156156b05786850135825560209485019460019092019101615690565b50868210156156cc575f1960f88860031b161c19848701351681555b505060018560011b0183555050505050565b634e487b7160e01b5f52603260045260245ffd5b5f808335601e19843603018112615707575f80fd5b8301803591506001600160401b03821115615720575f80fd5b602001915036819003821315614abe575f80fd5b5f600182016157455761574561539b565b5060010190565b81516001600160401b0381111561576557615765614b88565b615779816157738454615590565b846155c8565b602080601f8311600181146157a7575f84156157955750858301515b61579f8582615615565b86555061560d565b5f85815260208120601f198616915b828110156157d5578886015182559484019460019091019084016157b6565b50858210156157f257878501515f19600388901b60f8161c191681555b5050505050600190811b01905550565b5f60208284031215615812575f80fd5b81518015158114611a28575f80fd5b6001600160a01b03929092168252602082015260400190565b5f6020828403121561584a575f80fd5b5051919050565b6001600160a01b0392831681529116602082015260400190565b5f6020828403121561587b575f80fd5b8151611a2881614a62565b92835260208301919091526001600160a01b0316604082015260600190565b5f82516158b6818460208701614e56565b9190910192915050565b6020808252602b908201527f496e697469616c697a61626c653a20636f6e7472616374206973206e6f74206960408201526a6e697469616c697a696e6760a81b606082015260800190565b76020b1b1b2b9b9a1b7b73a3937b61d1030b1b1b7bab73a1604d1b81525f835161593c816017850160208801614e56565b7001034b99036b4b9b9b4b733903937b6329607d1b601791840191820152835161596d816028840160208801614e56565b01602801949350505050565b5f8261599357634e487b7160e01b5f52601260045260245ffd5b500490565b5f80604083850312156159a9575f80fd5b82516159b481614a62565b6020939093015192949293505050565b5f816159d2576159d261539b565b505f190190565b634e487b7160e01b5f52603160045260245ffdfe86d5cf0a6bdc8d859ba3bdc97043337c82a0e609035f378e419298b6a3e00ae6572cdc5ca5e918473319d0f4737494e4709ac879a7d0bcd11ce1bef24b24e81df94103142c1baabe9ac2b5d1487bf783de9e69cfeea9a72f5c9c94afd7877b8c416464726573733a206c6f772d6c6576656c2064656c65676174652063616c6c206661696c65648a412352601a288b3de40254a9de2ab14a497aa3638a7e558480680a56e2705da264697066735822122045f4b1e5143a172a568c12b53dd806ea468666adc52705b7489c25611e8785b064736f6c63430008150033",
  "immutableReferences": {},
  "source": "// SPDX-License-Identifier: Apache-2.0\npragma solidity ^0.8.11;\n\n//  ==========  External imports    ==========\n\nimport \"@openzeppelin/contracts-upgradeable/token/ERC20/IERC20Upgradeable.sol\";\nimport \"@openzeppelin/contracts-upgradeable/token/ERC1155/IERC1155Upgradeable.sol\";\nimport \"@openzeppelin/contracts-upgradeable/token/ERC721/IERC721Upgradeable.sol\";\n\nimport \"@openzeppelin/contracts-upgradeable/token/ERC1155/IERC1155ReceiverUpgradeable.sol\";\nimport \"@openzeppelin/contracts-upgradeable/token/ERC721/IERC721ReceiverUpgradeable.sol\";\n\nimport \"@openzeppelin/contracts-upgradeable/utils/introspection/IERC165Upgradeable.sol\";\nimport \"@openzeppelin/contracts-upgradeable/interfaces/IERC2981Upgradeable.sol\";\n\nimport \"@openzeppelin/contracts-upgradeable/access/AccessControlEnumerableUpgradeable.sol\";\nimport \"@openzeppelin/contracts-upgradeable/security/ReentrancyGuardUpgradeable.sol\";\nimport \"@openzeppelin/contracts-upgradeable/utils/MulticallUpgradeable.sol\";\n\n//  ==========  Internal imports    ==========\n\nimport { IMarketplace } from \"@thirdweb-dev/contracts/interfaces/marketplace/IMarketplace.sol\";\n\nimport \"@thirdweb-dev/contracts/openzeppelin-presets/metatx/ERC2771ContextUpgradeable.sol\";\n\nimport \"@thirdweb-dev/contracts/lib/CurrencyTransferLib.sol\";\nimport \"@thirdweb-dev/contracts/lib/FeeType.sol\";\n\ncontract SpaceWarsMarketplace is\n    Initializable,\n    IMarketplace,\n    ReentrancyGuardUpgradeable,\n    ERC2771ContextUpgradeable,\n    MulticallUpgradeable,\n    AccessControlEnumerableUpgradeable,\n    IERC721ReceiverUpgradeable,\n    IERC1155ReceiverUpgradeable\n{\n    /*///////////////////////////////////////////////////////////////\n                            State variables\n    //////////////////////////////////////////////////////////////*/\n\n    bytes32 private constant MODULE_TYPE = bytes32(\"SpaceWarsMarketplace\");\n    uint256 private constant VERSION = 2;\n\n    /// @dev Only lister role holders can create listings, when listings are restricted by lister address.\n    bytes32 private constant LISTER_ROLE = keccak256(\"LISTER_ROLE\");\n    /// @dev Only assets from NFT contracts with asset role can be listed, when listings are restricted by asset address.\n    bytes32 private constant ASSET_ROLE = keccak256(\"ASSET_ROLE\");\n\n    /// @dev The address of the native token wrapper contract.\n    address private nativeTokenWrapper;\n\n    /// @dev Total number of listings ever created in the marketplace.\n    uint256 public totalListings;\n\n    /// @dev Contract level metadata.\n    string public contractURI;\n\n    /// @dev The address that receives all platform fees from all sales.\n    address private platformFeeRecipient;\n\n    /// @dev The max bps of the contract. So, 10_000 == 100 %\n    uint64 public constant MAX_BPS = 10_000;\n\n    /// @dev The % of primary sales collected as platform fees.\n    uint64 private platformFeeBps;\n\n    /// @dev\n    /**\n     *  @dev The amount of time added to an auction's 'endTime', if a bid is made within `timeBuffer`\n     *       seconds of the existing `endTime`. Default: 15 minutes.\n     */\n    uint64 public timeBuffer;\n\n    /// @dev The minimum % increase required from the previous winning bid. Default: 5%.\n    uint64 public bidBufferBps;\n\n    /*///////////////////////////////////////////////////////////////\n                                Mappings\n    //////////////////////////////////////////////////////////////*/\n\n    /// @dev Mapping from uid of listing => listing info.\n    mapping(uint256 => Listing) public listings;\n\n    /// @dev Mapping from uid of a direct listing => offeror address => offer made to the direct listing by the respective offeror.\n    mapping(uint256 => mapping(address => Offer)) public offers;\n\n    /// @dev Mapping from uid of an auction listing => current winning bid in an auction.\n    mapping(uint256 => Offer) public winningBid;\n\n    mapping(address => bool) whitelistedAssetContractAddresses;\n\n    /*///////////////////////////////////////////////////////////////\n                                Modifiers\n    //////////////////////////////////////////////////////////////*/\n\n     modifier isWhitelistedAssetContractAddress(address _assetContractAddress) {\n      require(whitelistedAssetContractAddresses[_assetContractAddress], \"Whitelist: You need to be whitelisted asset contract address\");\n      _;\n    }\n\n    /// @dev Checks whether caller is a listing creator.\n    modifier onlyListingCreator(uint256 _listingId) {\n        require(listings[_listingId].tokenOwner == _msgSender(), \"!OWNER\");\n        _;\n    }\n\n    /// @dev Checks whether a listing exists.\n    modifier onlyExistingListing(uint256 _listingId) {\n        require(listings[_listingId].assetContract != address(0), \"DNE\");\n        _;\n    }\n\n    /*///////////////////////////////////////////////////////////////\n                    Constructor + initializer logic\n    //////////////////////////////////////////////////////////////*/\n    \n    /// @custom:oz-upgrades-unsafe-allow constructor\n    constructor() {\n        _disableInitializers();\n    }\n\n    /// @dev Initiliazes the contract, like a constructor.\n    function initialize(        \n        string memory _contractURI,\n        address[] memory _trustedForwarders,\n        address[] memory _whitelistedAssetContractAddresses,\n        address _platformFeeRecipient,\n        uint256 _platformFeeBps,\n        address _nativeTokenWrapper\n    ) external initializer {\n        // Initialize inherited contracts, most base-like -> most derived.\n        __ReentrancyGuard_init();\n        __ERC2771Context_init(_trustedForwarders);\n\n        // Initialize this contract's state.\n        timeBuffer = 15 minutes;\n        bidBufferBps = 500;\n\n        contractURI = _contractURI;\n        platformFeeBps = uint64(_platformFeeBps);\n        platformFeeRecipient = _platformFeeRecipient;\n        nativeTokenWrapper = _nativeTokenWrapper;\n\n        _setupRole(DEFAULT_ADMIN_ROLE, msg.sender);\n        _setupRole(LISTER_ROLE, address(0));\n        _setupRole(ASSET_ROLE, address(0));\n\n         for (uint256 i = 0; i < _whitelistedAssetContractAddresses.length; i++) {\n            whitelistedAssetContractAddresses[_whitelistedAssetContractAddresses[i]] = true;\n        }\n    }\n\n    /*///////////////////////////////////////////////////////////////\n                        Generic contract logic\n    //////////////////////////////////////////////////////////////*/\n\n    /// @dev Lets the contract receives native tokens from `nativeTokenWrapper` withdraw.\n    receive() external payable {}\n\n    /// @dev Returns the type of the contract.\n    function contractType() external pure returns (bytes32) {\n        return MODULE_TYPE;\n    }\n\n    /// @dev Returns the version of the contract.\n    function contractVersion() external pure returns (uint8) {\n        return uint8(VERSION);\n    }\n\n    /*///////////////////////////////////////////////////////////////\n                        ERC 165 / 721 / 1155 logic\n    //////////////////////////////////////////////////////////////*/\n\n    function onERC1155Received(\n        address,\n        address,\n        uint256,\n        uint256,\n        bytes memory\n    ) public virtual override returns (bytes4) {\n        return this.onERC1155Received.selector;\n    }\n\n    function onERC1155BatchReceived(\n        address,\n        address,\n        uint256[] memory,\n        uint256[] memory,\n        bytes memory\n    ) public virtual override returns (bytes4) {\n        return this.onERC1155BatchReceived.selector;\n    }\n\n    function onERC721Received(\n        address,\n        address,\n        uint256,\n        bytes calldata\n    ) external pure override returns (bytes4) {\n        return this.onERC721Received.selector;\n    }\n\n    function supportsInterface(bytes4 interfaceId)\n        public\n        view\n        virtual\n        override(AccessControlEnumerableUpgradeable, IERC165Upgradeable)\n        returns (bool)\n    {\n        return\n            interfaceId == type(IERC1155ReceiverUpgradeable).interfaceId ||\n            interfaceId == type(IERC721ReceiverUpgradeable).interfaceId ||\n            super.supportsInterface(interfaceId);\n    }\n\n    /*///////////////////////////////////////////////////////////////\n                Listing (create-update-delete) logic\n    //////////////////////////////////////////////////////////////*/\n\n    /// @dev Lets a token owner list tokens for sale: Direct Listing or Auction.\n    function createListing(ListingParameters memory _params) external override isWhitelistedAssetContractAddress(_params.assetContract) {\n        // Get values to populate `Listing`.\n        uint256 listingId = totalListings;\n        totalListings += 1;\n\n        address tokenOwner = _msgSender();\n        TokenType tokenTypeOfListing = getTokenType(_params.assetContract);\n        uint256 tokenAmountToList = getSafeQuantity(tokenTypeOfListing, _params.quantityToList);\n\n        require(tokenAmountToList > 0, \"QUANTITY\");\n        require(hasRole(LISTER_ROLE, address(0)) || hasRole(LISTER_ROLE, _msgSender()), \"!LISTER\");\n        require(hasRole(ASSET_ROLE, address(0)) || hasRole(ASSET_ROLE, _params.assetContract), \"!ASSET\");\n\n        uint256 startTime = _params.startTime;\n        if (startTime < block.timestamp) {\n            // do not allow listing to start in the past (1 hour buffer)\n            require(block.timestamp - startTime < 1 hours, \"ST\");\n            startTime = block.timestamp;\n        }\n\n        validateOwnershipAndApproval(\n            tokenOwner,\n            _params.assetContract,\n            _params.tokenId,\n            tokenAmountToList,\n            tokenTypeOfListing\n        );\n\n        Listing memory newListing = Listing({\n            listingId: listingId,\n            tokenOwner: tokenOwner,\n            assetContract: _params.assetContract,\n            tokenId: _params.tokenId,\n            startTime: startTime,\n            endTime: startTime + _params.secondsUntilEndTime,\n            quantity: tokenAmountToList,\n            currency: _params.currencyToAccept,\n            reservePricePerToken: _params.reservePricePerToken,\n            buyoutPricePerToken: _params.buyoutPricePerToken,\n            tokenType: tokenTypeOfListing,\n            listingType: _params.listingType\n        });\n\n        listings[listingId] = newListing;\n\n        // Tokens listed for sale in an auction are escrowed in Marketplace.\n        if (newListing.listingType == ListingType.Auction) {\n            require(newListing.buyoutPricePerToken >= newListing.reservePricePerToken, \"RESERVE\");\n            transferListingTokens(tokenOwner, address(this), tokenAmountToList, newListing);\n        }\n\n        emit ListingAdded(listingId, _params.assetContract, tokenOwner, newListing);\n    }\n\n    /// @dev Lets a listing's creator edit the listing's parameters.\n    function updateListing(\n        uint256 _listingId,\n        uint256 _quantityToList,\n        uint256 _reservePricePerToken,\n        uint256 _buyoutPricePerToken,\n        address _currencyToAccept,\n        uint256 _startTime,\n        uint256 _secondsUntilEndTime\n    ) external override onlyListingCreator(_listingId) {\n        Listing memory targetListing = listings[_listingId];\n        uint256 safeNewQuantity = getSafeQuantity(targetListing.tokenType, _quantityToList);\n        bool isAuction = targetListing.listingType == ListingType.Auction;\n\n        require(safeNewQuantity != 0, \"QUANTITY\");\n\n        // Can only edit auction listing before it starts.\n        if (isAuction) {\n            require(block.timestamp < targetListing.startTime, \"STARTED\");\n            require(_buyoutPricePerToken >= _reservePricePerToken, \"RESERVE\");\n        }\n\n        if (_startTime < block.timestamp) {\n            // do not allow listing to start in the past (1 hour buffer)\n            require(block.timestamp - _startTime < 1 hours, \"ST\");\n            _startTime = block.timestamp;\n        }\n\n        uint256 newStartTime = _startTime == 0 ? targetListing.startTime : _startTime;\n        listings[_listingId] = Listing({\n            listingId: _listingId,\n            tokenOwner: _msgSender(),\n            assetContract: targetListing.assetContract,\n            tokenId: targetListing.tokenId,\n            startTime: newStartTime,\n            endTime: _secondsUntilEndTime == 0 ? targetListing.endTime : newStartTime + _secondsUntilEndTime,\n            quantity: safeNewQuantity,\n            currency: _currencyToAccept,\n            reservePricePerToken: _reservePricePerToken,\n            buyoutPricePerToken: _buyoutPricePerToken,\n            tokenType: targetListing.tokenType,\n            listingType: targetListing.listingType\n        });\n\n        // Must validate ownership and approval of the new quantity of tokens for diret listing.\n        if (targetListing.quantity != safeNewQuantity) {\n            // Transfer all escrowed tokens back to the lister, to be reflected in the lister's\n            // balance for the upcoming ownership and approval check.\n            if (isAuction) {\n                transferListingTokens(address(this), targetListing.tokenOwner, targetListing.quantity, targetListing);\n            }\n\n            validateOwnershipAndApproval(\n                targetListing.tokenOwner,\n                targetListing.assetContract,\n                targetListing.tokenId,\n                safeNewQuantity,\n                targetListing.tokenType\n            );\n\n            // Escrow the new quantity of tokens to list in the auction.\n            if (isAuction) {\n                transferListingTokens(targetListing.tokenOwner, address(this), safeNewQuantity, targetListing);\n            }\n        }\n\n        emit ListingUpdated(_listingId, targetListing.tokenOwner);\n    }\n\n    /// @dev Lets a direct listing creator cancel their listing.\n    function cancelDirectListing(uint256 _listingId) external onlyListingCreator(_listingId) {\n        Listing memory targetListing = listings[_listingId];\n\n        require(targetListing.listingType == ListingType.Direct, \"!DIRECT\");\n\n        delete listings[_listingId];\n\n        emit ListingRemoved(_listingId, targetListing.tokenOwner);\n    }\n\n    /*///////////////////////////////////////////////////////////////\n                    Direct lisitngs sales logic\n    //////////////////////////////////////////////////////////////*/\n\n    /// @dev Lets an account buy a given quantity of tokens from a listing.\n    function buy(\n        uint256 _listingId,\n        address _buyFor,\n        uint256 _quantityToBuy,\n        address _currency,\n        uint256 _totalPrice\n    ) external payable override nonReentrant onlyExistingListing(_listingId) {\n        Listing memory targetListing = listings[_listingId];\n        address payer = _msgSender();\n\n        // Check whether the settled total price and currency to use are correct.\n        require(\n            _currency == targetListing.currency && _totalPrice == (targetListing.buyoutPricePerToken * _quantityToBuy),\n            \"!PRICE\"\n        );\n\n        executeSale(\n            targetListing,\n            payer,\n            _buyFor,\n            targetListing.currency,\n            targetListing.buyoutPricePerToken * _quantityToBuy,\n            _quantityToBuy\n        );\n    }\n\n    /// @dev Lets a listing's creator accept an offer for their direct listing.\n    function acceptOffer(\n        uint256 _listingId,\n        address _offeror,\n        address _currency,\n        uint256 _pricePerToken\n    ) external override nonReentrant onlyListingCreator(_listingId) onlyExistingListing(_listingId) {\n        Offer memory targetOffer = offers[_listingId][_offeror];\n        Listing memory targetListing = listings[_listingId];\n\n        require(_currency == targetOffer.currency && _pricePerToken == targetOffer.pricePerToken, \"!PRICE\");\n        require(targetOffer.expirationTimestamp > block.timestamp, \"EXPIRED\");\n\n        delete offers[_listingId][_offeror];\n\n        executeSale(\n            targetListing,\n            _offeror,\n            _offeror,\n            targetOffer.currency,\n            targetOffer.pricePerToken * targetOffer.quantityWanted,\n            targetOffer.quantityWanted\n        );\n    }\n\n    /// @dev Performs a direct listing sale.\n    function executeSale(\n        Listing memory _targetListing,\n        address _payer,\n        address _receiver,\n        address _currency,\n        uint256 _currencyAmountToTransfer,\n        uint256 _listingTokenAmountToTransfer\n    ) internal {\n        validateDirectListingSale(\n            _targetListing,\n            _payer,\n            _listingTokenAmountToTransfer,\n            _currency,\n            _currencyAmountToTransfer\n        );\n\n        _targetListing.quantity -= _listingTokenAmountToTransfer;\n        listings[_targetListing.listingId] = _targetListing;\n\n        payout(_payer, _targetListing.tokenOwner, _currency, _currencyAmountToTransfer, _targetListing);\n        transferListingTokens(_targetListing.tokenOwner, _receiver, _listingTokenAmountToTransfer, _targetListing);\n\n        emit NewSale(\n            _targetListing.listingId,\n            _targetListing.assetContract,\n            _targetListing.tokenOwner,\n            _receiver,\n            _listingTokenAmountToTransfer,\n            _currencyAmountToTransfer\n        );\n    }\n\n    /*///////////////////////////////////////////////////////////////\n                        Offer/bid logic\n    //////////////////////////////////////////////////////////////*/\n\n    /// @dev Lets an account (1) make an offer to a direct listing, or (2) make a bid in an auction.\n    function offer(\n        uint256 _listingId,\n        uint256 _quantityWanted,\n        address _currency,\n        uint256 _pricePerToken,\n        uint256 _expirationTimestamp\n    ) external payable override nonReentrant onlyExistingListing(_listingId) {\n        Listing memory targetListing = listings[_listingId];\n\n        require(\n            targetListing.endTime > block.timestamp && targetListing.startTime < block.timestamp,\n            \"inactive listing.\"\n        );\n\n        // Both - (1) offers to direct listings, and (2) bids to auctions - share the same structure.\n        Offer memory newOffer = Offer({\n            listingId: _listingId,\n            offeror: _msgSender(),\n            quantityWanted: _quantityWanted,\n            currency: _currency,\n            pricePerToken: _pricePerToken,\n            expirationTimestamp: _expirationTimestamp\n        });\n\n        if (targetListing.listingType == ListingType.Auction) {\n            // A bid to an auction must be made in the auction's desired currency.\n            require(newOffer.currency == targetListing.currency, \"must use approved currency to bid\");\n\n            // A bid must be made for all auction items.\n            newOffer.quantityWanted = getSafeQuantity(targetListing.tokenType, targetListing.quantity);\n\n            handleBid(targetListing, newOffer);\n        } else if (targetListing.listingType == ListingType.Direct) {\n            // Prevent potentially lost/locked native token.\n            require(msg.value == 0, \"no value needed\");\n\n            // Offers to direct listings cannot be made directly in native tokens.\n            newOffer.currency = _currency == CurrencyTransferLib.NATIVE_TOKEN ? nativeTokenWrapper : _currency;\n            newOffer.quantityWanted = getSafeQuantity(targetListing.tokenType, _quantityWanted);\n\n            handleOffer(targetListing, newOffer);\n        }\n    }\n\n    /// @dev Processes a new offer to a direct listing.\n    function handleOffer(Listing memory _targetListing, Offer memory _newOffer) internal {\n        require(\n            _newOffer.quantityWanted <= _targetListing.quantity && _targetListing.quantity > 0,\n            \"insufficient tokens in listing.\"\n        );\n\n        validateERC20BalAndAllowance(\n            _newOffer.offeror,\n            _newOffer.currency,\n            _newOffer.pricePerToken * _newOffer.quantityWanted\n        );\n\n        offers[_targetListing.listingId][_newOffer.offeror] = _newOffer;\n\n        emit NewOffer(\n            _targetListing.listingId,\n            _newOffer.offeror,\n            _targetListing.listingType,\n            _newOffer.quantityWanted,\n            _newOffer.pricePerToken * _newOffer.quantityWanted,\n            _newOffer.currency\n        );\n    }\n\n    /// @dev Processes an incoming bid in an auction.\n    function handleBid(Listing memory _targetListing, Offer memory _incomingBid) internal {\n        Offer memory currentWinningBid = winningBid[_targetListing.listingId];\n        uint256 currentOfferAmount = currentWinningBid.pricePerToken * currentWinningBid.quantityWanted;\n        uint256 incomingOfferAmount = _incomingBid.pricePerToken * _incomingBid.quantityWanted;\n        address _nativeTokenWrapper = nativeTokenWrapper;\n\n        // Close auction and execute sale if there's a buyout price and incoming offer amount is buyout price.\n        if (\n            _targetListing.buyoutPricePerToken > 0 &&\n            incomingOfferAmount >= _targetListing.buyoutPricePerToken * _targetListing.quantity\n        ) {\n            _closeAuctionForBidder(_targetListing, _incomingBid);\n        } else {\n            /**\n             *      If there's an exisitng winning bid, incoming bid amount must be bid buffer % greater.\n             *      Else, bid amount must be at least as great as reserve price\n             */\n            require(\n                isNewWinningBid(\n                    _targetListing.reservePricePerToken * _targetListing.quantity,\n                    currentOfferAmount,\n                    incomingOfferAmount\n                ),\n                \"not winning bid.\"\n            );\n\n            // Update the winning bid and listing's end time before external contract calls.\n            winningBid[_targetListing.listingId] = _incomingBid;\n\n            if (_targetListing.endTime - block.timestamp <= timeBuffer) {\n                _targetListing.endTime += timeBuffer;\n                listings[_targetListing.listingId] = _targetListing;\n            }\n        }\n\n        // Payout previous highest bid.\n        if (currentWinningBid.offeror != address(0) && currentOfferAmount > 0) {\n            CurrencyTransferLib.transferCurrencyWithWrapper(\n                _targetListing.currency,\n                address(this),\n                currentWinningBid.offeror,\n                currentOfferAmount,\n                _nativeTokenWrapper\n            );\n        }\n\n        // Collect incoming bid\n        CurrencyTransferLib.transferCurrencyWithWrapper(\n            _targetListing.currency,\n            _incomingBid.offeror,\n            address(this),\n            incomingOfferAmount,\n            _nativeTokenWrapper\n        );\n\n        emit NewOffer(\n            _targetListing.listingId,\n            _incomingBid.offeror,\n            _targetListing.listingType,\n            _incomingBid.quantityWanted,\n            _incomingBid.pricePerToken * _incomingBid.quantityWanted,\n            _incomingBid.currency\n        );\n    }\n\n    /// @dev Checks whether an incoming bid is the new current highest bid.\n    function isNewWinningBid(\n        uint256 _reserveAmount,\n        uint256 _currentWinningBidAmount,\n        uint256 _incomingBidAmount\n    ) internal view returns (bool isValidNewBid) {\n        if (_currentWinningBidAmount == 0) {\n            isValidNewBid = _incomingBidAmount >= _reserveAmount;\n        } else {\n            isValidNewBid = (_incomingBidAmount > _currentWinningBidAmount &&\n                ((_incomingBidAmount - _currentWinningBidAmount) * MAX_BPS) / _currentWinningBidAmount >= bidBufferBps);\n        }\n    }\n\n    /*///////////////////////////////////////////////////////////////\n                    Auction lisitngs sales logic\n    //////////////////////////////////////////////////////////////*/\n\n    /// @dev Lets an account close an auction for either the (1) winning bidder, or (2) auction creator.\n    function closeAuction(uint256 _listingId, address _closeFor)\n        external\n        override\n        nonReentrant\n        onlyExistingListing(_listingId)\n    {\n        Listing memory targetListing = listings[_listingId];\n\n        require(targetListing.listingType == ListingType.Auction, \"not an auction.\");\n\n        Offer memory targetBid = winningBid[_listingId];\n\n        // Cancel auction if (1) auction hasn't started, or (2) auction doesn't have any bids.\n        bool toCancel = targetListing.startTime > block.timestamp || targetBid.offeror == address(0);\n\n        if (toCancel) {\n            // cancel auction listing owner check\n            _cancelAuction(targetListing);\n        } else {\n            require(targetListing.endTime < block.timestamp, \"cannot close auction before it has ended.\");\n\n            // No `else if` to let auction close in 1 tx when targetListing.tokenOwner == targetBid.offeror.\n            if (_closeFor == targetListing.tokenOwner) {\n                _closeAuctionForAuctionCreator(targetListing, targetBid);\n            }\n\n            if (_closeFor == targetBid.offeror) {\n                _closeAuctionForBidder(targetListing, targetBid);\n            }\n        }\n    }\n\n    /// @dev Cancels an auction.\n    function _cancelAuction(Listing memory _targetListing) internal {\n        require(listings[_targetListing.listingId].tokenOwner == _msgSender(), \"caller is not the listing creator.\");\n\n        delete listings[_targetListing.listingId];\n\n        transferListingTokens(address(this), _targetListing.tokenOwner, _targetListing.quantity, _targetListing);\n\n        emit AuctionClosed(_targetListing.listingId, _msgSender(), true, _targetListing.tokenOwner, address(0));\n    }\n\n    /// @dev Closes an auction for an auction creator; distributes winning bid amount to auction creator.\n    function _closeAuctionForAuctionCreator(Listing memory _targetListing, Offer memory _winningBid) internal {\n        uint256 payoutAmount = _winningBid.pricePerToken * _targetListing.quantity;\n\n        _targetListing.quantity = 0;\n        _targetListing.endTime = block.timestamp;\n        listings[_targetListing.listingId] = _targetListing;\n\n        _winningBid.pricePerToken = 0;\n        winningBid[_targetListing.listingId] = _winningBid;\n\n        payout(address(this), _targetListing.tokenOwner, _targetListing.currency, payoutAmount, _targetListing);\n\n        emit AuctionClosed(\n            _targetListing.listingId,\n            _msgSender(),\n            false,\n            _targetListing.tokenOwner,\n            _winningBid.offeror\n        );\n    }\n\n    /// @dev Closes an auction for the winning bidder; distributes auction items to the winning bidder.\n    function _closeAuctionForBidder(Listing memory _targetListing, Offer memory _winningBid) internal {\n        uint256 quantityToSend = _winningBid.quantityWanted;\n\n        _targetListing.endTime = block.timestamp;\n        _winningBid.quantityWanted = 0;\n\n        winningBid[_targetListing.listingId] = _winningBid;\n        listings[_targetListing.listingId] = _targetListing;\n\n        transferListingTokens(address(this), _winningBid.offeror, quantityToSend, _targetListing);\n\n        emit AuctionClosed(\n            _targetListing.listingId,\n            _msgSender(),\n            false,\n            _targetListing.tokenOwner,\n            _winningBid.offeror\n        );\n    }\n\n    /*///////////////////////////////////////////////////////////////\n            Shared (direct+auction listings) internal functions\n    //////////////////////////////////////////////////////////////*/\n\n    /// @dev Transfers tokens listed for sale in a direct or auction listing.\n    function transferListingTokens(\n        address _from,\n        address _to,\n        uint256 _quantity,\n        Listing memory _listing\n    ) internal {\n        if (_listing.tokenType == TokenType.ERC1155) {\n            IERC1155Upgradeable(_listing.assetContract).safeTransferFrom(_from, _to, _listing.tokenId, _quantity, \"\");\n        } else if (_listing.tokenType == TokenType.ERC721) {\n            IERC721Upgradeable(_listing.assetContract).safeTransferFrom(_from, _to, _listing.tokenId, \"\");\n        }\n    }\n\n    /// @dev Pays out stakeholders in a sale.\n    function payout(\n        address _payer,\n        address _payee,\n        address _currencyToUse,\n        uint256 _totalPayoutAmount,\n        Listing memory _listing\n    ) internal {\n        uint256 platformFeeCut = (_totalPayoutAmount * platformFeeBps) / MAX_BPS;\n\n        uint256 royaltyCut;\n        address royaltyRecipient;\n\n        // Distribute royalties. See Sushiswap's https://github.com/sushiswap/shoyu/blob/master/contracts/base/BaseExchange.sol#L296\n        try IERC2981Upgradeable(_listing.assetContract).royaltyInfo(_listing.tokenId, _totalPayoutAmount) returns (\n            address royaltyFeeRecipient,\n            uint256 royaltyFeeAmount\n        ) {\n            if (royaltyFeeRecipient != address(0) && royaltyFeeAmount > 0) {\n                require(royaltyFeeAmount + platformFeeCut <= _totalPayoutAmount, \"fees exceed the price\");\n                royaltyRecipient = royaltyFeeRecipient;\n                royaltyCut = royaltyFeeAmount;\n            }\n        } catch {}\n\n        // Distribute price to token owner\n        address _nativeTokenWrapper = nativeTokenWrapper;\n\n        CurrencyTransferLib.transferCurrencyWithWrapper(\n            _currencyToUse,\n            _payer,\n            platformFeeRecipient,\n            platformFeeCut,\n            _nativeTokenWrapper\n        );\n        CurrencyTransferLib.transferCurrencyWithWrapper(\n            _currencyToUse,\n            _payer,\n            royaltyRecipient,\n            royaltyCut,\n            _nativeTokenWrapper\n        );       \n        CurrencyTransferLib.transferCurrencyWithWrapper(\n            _currencyToUse,\n            _payer,\n            _payee,\n            _totalPayoutAmount - (platformFeeCut + royaltyCut),\n            _nativeTokenWrapper\n        );\n    }\n\n    /// @dev Validates that `_addrToCheck` owns and has approved markeplace to transfer the appropriate amount of currency\n    function validateERC20BalAndAllowance(\n        address _addrToCheck,\n        address _currency,\n        uint256 _currencyAmountToCheckAgainst\n    ) internal view {\n        require(\n            IERC20Upgradeable(_currency).balanceOf(_addrToCheck) >= _currencyAmountToCheckAgainst &&\n                IERC20Upgradeable(_currency).allowance(_addrToCheck, address(this)) >= _currencyAmountToCheckAgainst,\n            \"!BAL20\"\n        );\n    }\n\n    /// @dev Validates that `_tokenOwner` owns and has approved Market to transfer NFTs.\n    function validateOwnershipAndApproval(\n        address _tokenOwner,\n        address _assetContract,\n        uint256 _tokenId,\n        uint256 _quantity,\n        TokenType _tokenType\n    ) internal view {\n        address market = address(this);\n        bool isValid;\n\n        if (_tokenType == TokenType.ERC1155) {\n            isValid =\n                IERC1155Upgradeable(_assetContract).balanceOf(_tokenOwner, _tokenId) >= _quantity &&\n                IERC1155Upgradeable(_assetContract).isApprovedForAll(_tokenOwner, market);\n        } else if (_tokenType == TokenType.ERC721) {\n            isValid =\n                IERC721Upgradeable(_assetContract).ownerOf(_tokenId) == _tokenOwner &&\n                (IERC721Upgradeable(_assetContract).getApproved(_tokenId) == market ||\n                    IERC721Upgradeable(_assetContract).isApprovedForAll(_tokenOwner, market));\n        }\n\n        require(isValid, \"!BALNFT\");\n    }\n\n    /// @dev Validates conditions of a direct listing sale.\n    function validateDirectListingSale(\n        Listing memory _listing,\n        address _payer,\n        uint256 _quantityToBuy,\n        address _currency,\n        uint256 settledTotalPrice\n    ) internal {\n        require(_listing.listingType == ListingType.Direct, \"cannot buy from listing.\");\n\n        // Check whether a valid quantity of listed tokens is being bought.\n        require(\n            _listing.quantity > 0 && _quantityToBuy > 0 && _quantityToBuy <= _listing.quantity,\n            \"invalid amount of tokens.\"\n        );\n\n        // Check if sale is made within the listing window.\n        require(block.timestamp < _listing.endTime && block.timestamp > _listing.startTime, \"not within sale window.\");\n\n        // Check: buyer owns and has approved sufficient currency for sale.\n        if (_currency == CurrencyTransferLib.NATIVE_TOKEN) {\n            require(msg.value == settledTotalPrice, \"msg.value != price\");\n        } else {\n            validateERC20BalAndAllowance(_payer, _currency, settledTotalPrice);\n        }\n\n        // Check whether token owner owns and has approved `quantityToBuy` amount of listing tokens from the listing.\n        validateOwnershipAndApproval(\n            _listing.tokenOwner,\n            _listing.assetContract,\n            _listing.tokenId,\n            _quantityToBuy,\n            _listing.tokenType\n        );\n    }\n\n    /*///////////////////////////////////////////////////////////////\n                            Getter functions\n    //////////////////////////////////////////////////////////////*/\n\n     function verifyWhitelistedAssetContractAddress(address _whitelistedAssetContractAddress) public view returns(bool) {\n      bool userIsWhitelisted = whitelistedAssetContractAddresses[_whitelistedAssetContractAddress];\n      return userIsWhitelisted;\n    }\n\n    /// @dev Enforces quantity == 1 if tokenType is TokenType.ERC721.\n    function getSafeQuantity(TokenType _tokenType, uint256 _quantityToCheck)\n        internal\n        pure\n        returns (uint256 safeQuantity)\n    {\n        if (_quantityToCheck == 0) {\n            safeQuantity = 0;\n        } else {\n            safeQuantity = _tokenType == TokenType.ERC721 ? 1 : _quantityToCheck;\n        }\n    }\n\n    /// @dev Returns the interface supported by a contract.\n    function getTokenType(address _assetContract) internal view returns (TokenType tokenType) {\n        if (IERC165Upgradeable(_assetContract).supportsInterface(type(IERC1155Upgradeable).interfaceId)) {\n            tokenType = TokenType.ERC1155;\n        } else if (IERC165Upgradeable(_assetContract).supportsInterface(type(IERC721Upgradeable).interfaceId)) {\n            tokenType = TokenType.ERC721;\n        } else {\n            revert(\"token must be ERC1155 or ERC721.\");\n        }\n    }\n\n    /// @dev Returns the platform fee recipient and bps.\n    function getPlatformFeeInfo() external view returns (address, uint16) {\n        return (platformFeeRecipient, uint16(platformFeeBps));\n    }\n\n    /*///////////////////////////////////////////////////////////////\n                            Setter functions\n    //////////////////////////////////////////////////////////////*/\n\n    function addWhitelistedAssetContractAddress(address _whitelistedContractAssetAddress) public onlyRole(DEFAULT_ADMIN_ROLE) {\n      whitelistedAssetContractAddresses[_whitelistedContractAssetAddress] = true;\n    }\n\n    function removeWhitelistedAssetContractAddress(address _whitelistedContractAssetAddress)\n        public\n        onlyRole(DEFAULT_ADMIN_ROLE)\n    {\n        \n        require(\n            whitelistedAssetContractAddresses[_whitelistedContractAssetAddress],\n            \"Error: Sender is not whitelisted\"\n        );\n        \n       delete whitelistedAssetContractAddresses[_whitelistedContractAssetAddress];\n    }\n\n    /// @dev Lets a contract admin update platform fee recipient and bps.\n    function setPlatformFeeInfo(address _platformFeeRecipient, uint256 _platformFeeBps)\n        external\n        onlyRole(DEFAULT_ADMIN_ROLE)\n    {\n        require(_platformFeeBps <= MAX_BPS, \"bps <= 10000.\");\n\n        platformFeeBps = uint64(_platformFeeBps);\n        platformFeeRecipient = _platformFeeRecipient;\n\n        emit PlatformFeeInfoUpdated(_platformFeeRecipient, _platformFeeBps);\n    }\n\n    /// @dev Lets a contract admin set auction buffers.\n    function setAuctionBuffers(uint256 _timeBuffer, uint256 _bidBufferBps) external onlyRole(DEFAULT_ADMIN_ROLE) {\n        require(_bidBufferBps < MAX_BPS, \"invalid BPS.\");\n\n        timeBuffer = uint64(_timeBuffer);\n        bidBufferBps = uint64(_bidBufferBps);\n\n        emit AuctionBuffersUpdated(_timeBuffer, _bidBufferBps);\n    }\n\n    /// @dev Lets a contract admin set the URI for the contract-level metadata.\n    function setContractURI(string calldata _uri) external onlyRole(DEFAULT_ADMIN_ROLE) {\n        contractURI = _uri;\n    }\n\n    /*///////////////////////////////////////////////////////////////\n                            Miscellaneous\n    //////////////////////////////////////////////////////////////*/\n\n    function _msgSender()\n        internal\n        view\n        virtual\n        override(ContextUpgradeable, ERC2771ContextUpgradeable)\n        returns (address sender)\n    {\n        return ERC2771ContextUpgradeable._msgSender();\n    }\n\n    function _msgData()\n        internal\n        view\n        virtual\n        override(ContextUpgradeable, ERC2771ContextUpgradeable)\n        returns (bytes calldata)\n    {\n        return ERC2771ContextUpgradeable._msgData();\n    }\n}",
  "sourcePath": "c:\\Projects\\AyazDuru.Blockchain.Samples.MarketplaceNFTAndToken\\source\\contracts\\SpaceWarsMarketplace.sol",
  "compiler": {
    "name": "solc",
    "version": "0.8.21+commit.d9974bed.Emscripten.clang"
  },
  "schemaVersion": "3.4.15",
  "updatedAt": "2023-08-15T23:19:36.701Z",
  "devdoc": {
    "events": {
      "AuctionBuffersUpdated(uint256,uint256)": {
        "details": "Emitted when auction buffers are updated."
      },
      "AuctionClosed(uint256,address,bool,address,address)": {
        "details": "Emitted when an auction is closed."
      },
      "FlatPlatformFeeUpdated(address,uint256)": {
        "details": "Emitted when the flat platform fee is updated."
      },
      "Initialized(uint8)": {
        "details": "Triggered when the contract has been initialized or reinitialized."
      },
      "ListingAdded(uint256,address,address,(uint256,address,address,uint256,uint256,uint256,uint256,address,uint256,uint256,uint8,uint8))": {
        "details": "Emitted when a new listing is created."
      },
      "ListingRemoved(uint256,address)": {
        "details": "Emitted when a listing is cancelled."
      },
      "ListingUpdated(uint256,address)": {
        "details": "Emitted when the parameters of a listing are updated."
      },
      "NewOffer(uint256,address,uint8,uint256,uint256,address)": {
        "details": "Emitted when (1) a new offer is made to a direct listing, or (2) when a new bid is made in an auction."
      },
      "NewSale(uint256,address,address,address,uint256,uint256)": {
        "details": "Emitted when a buyer buys from a direct listing, or a lister accepts some      buyer's offer to their direct listing."
      },
      "PlatformFeeInfoUpdated(address,uint256)": {
        "details": "Emitted when fee on primary sales is updated."
      },
      "PlatformFeeTypeUpdated(uint8)": {
        "details": "Emitted when the platform fee type is updated."
      },
      "RoleAdminChanged(bytes32,bytes32,bytes32)": {
        "details": "Emitted when `newAdminRole` is set as ``role``'s admin role, replacing `previousAdminRole` `DEFAULT_ADMIN_ROLE` is the starting admin for all roles, despite {RoleAdminChanged} not being emitted signaling this. _Available since v3.1._"
      },
      "RoleGranted(bytes32,address,address)": {
        "details": "Emitted when `account` is granted `role`. `sender` is the account that originated the contract call, an admin role bearer except when using {AccessControl-_setupRole}."
      },
      "RoleRevoked(bytes32,address,address)": {
        "details": "Emitted when `account` is revoked `role`. `sender` is the account that originated the contract call:   - if using `revokeRole`, it is the admin role bearer   - if using `renounceRole`, it is the role bearer (i.e. `account`)"
      }
    },
    "kind": "dev",
    "methods": {
      "acceptOffer(uint256,address,address,uint256)": {
        "details": "Lets a listing's creator accept an offer for their direct listing."
      },
      "buy(uint256,address,uint256,address,uint256)": {
        "details": "Lets an account buy a given quantity of tokens from a listing."
      },
      "cancelDirectListing(uint256)": {
        "details": "Lets a direct listing creator cancel their listing."
      },
      "closeAuction(uint256,address)": {
        "details": "Lets an account close an auction for either the (1) winning bidder, or (2) auction creator."
      },
      "constructor": {
        "custom:oz-upgrades-unsafe-allow": "constructor"
      },
      "contractType()": {
        "details": "Returns the type of the contract."
      },
      "contractVersion()": {
        "details": "Returns the version of the contract."
      },
      "createListing((address,uint256,uint256,uint256,uint256,address,uint256,uint256,uint8))": {
        "details": "Lets a token owner list tokens for sale: Direct Listing or Auction."
      },
      "getPlatformFeeInfo()": {
        "details": "Returns the platform fee recipient and bps."
      },
      "getRoleAdmin(bytes32)": {
        "details": "Returns the admin role that controls `role`. See {grantRole} and {revokeRole}. To change a role's admin, use {_setRoleAdmin}."
      },
      "getRoleMember(bytes32,uint256)": {
        "details": "Returns one of the accounts that have `role`. `index` must be a value between 0 and {getRoleMemberCount}, non-inclusive. Role bearers are not sorted in any particular way, and their ordering may change at any point. WARNING: When using {getRoleMember} and {getRoleMemberCount}, make sure you perform all queries on the same block. See the following https://forum.openzeppelin.com/t/iterating-over-elements-on-enumerableset-in-openzeppelin-contracts/2296[forum post] for more information."
      },
      "getRoleMemberCount(bytes32)": {
        "details": "Returns the number of accounts that have `role`. Can be used together with {getRoleMember} to enumerate all bearers of a role."
      },
      "grantRole(bytes32,address)": {
        "details": "Grants `role` to `account`. If `account` had not been already granted `role`, emits a {RoleGranted} event. Requirements: - the caller must have ``role``'s admin role. May emit a {RoleGranted} event."
      },
      "hasRole(bytes32,address)": {
        "details": "Returns `true` if `account` has been granted `role`."
      },
      "initialize(string,address[],address[],address,uint256,address)": {
        "details": "Initiliazes the contract, like a constructor."
      },
      "multicall(bytes[])": {
        "details": "Receives and executes a batch of function calls on this contract."
      },
      "offer(uint256,uint256,address,uint256,uint256)": {
        "details": "Lets an account (1) make an offer to a direct listing, or (2) make a bid in an auction."
      },
      "renounceRole(bytes32,address)": {
        "details": "Revokes `role` from the calling account. Roles are often managed via {grantRole} and {revokeRole}: this function's purpose is to provide a mechanism for accounts to lose their privileges if they are compromised (such as when a trusted device is misplaced). If the calling account had been revoked `role`, emits a {RoleRevoked} event. Requirements: - the caller must be `account`. May emit a {RoleRevoked} event."
      },
      "revokeRole(bytes32,address)": {
        "details": "Revokes `role` from `account`. If `account` had been granted `role`, emits a {RoleRevoked} event. Requirements: - the caller must have ``role``'s admin role. May emit a {RoleRevoked} event."
      },
      "setAuctionBuffers(uint256,uint256)": {
        "details": "Lets a contract admin set auction buffers."
      },
      "setContractURI(string)": {
        "details": "Lets a contract admin set the URI for the contract-level metadata."
      },
      "setPlatformFeeInfo(address,uint256)": {
        "details": "Lets a contract admin update platform fee recipient and bps."
      },
      "updateListing(uint256,uint256,uint256,uint256,address,uint256,uint256)": {
        "details": "Lets a listing's creator edit the listing's parameters."
      }
    },
    "stateVariables": {
      "ASSET_ROLE": {
        "details": "Only assets from NFT contracts with asset role can be listed, when listings are restricted by asset address."
      },
      "LISTER_ROLE": {
        "details": "Only lister role holders can create listings, when listings are restricted by lister address."
      },
      "MAX_BPS": {
        "details": "The max bps of the contract. So, 10_000 == 100 %"
      },
      "bidBufferBps": {
        "details": "The minimum % increase required from the previous winning bid. Default: 5%."
      },
      "contractURI": {
        "details": "Contract level metadata."
      },
      "listings": {
        "details": "Mapping from uid of listing => listing info."
      },
      "nativeTokenWrapper": {
        "details": "The address of the native token wrapper contract."
      },
      "offers": {
        "details": "Mapping from uid of a direct listing => offeror address => offer made to the direct listing by the respective offeror."
      },
      "platformFeeBps": {
        "details": "The % of primary sales collected as platform fees."
      },
      "platformFeeRecipient": {
        "details": "The address that receives all platform fees from all sales."
      },
      "timeBuffer": {
        "details": "The amount of time added to an auction's 'endTime', if a bid is made within `timeBuffer`       seconds of the existing `endTime`. Default: 15 minutes."
      },
      "totalListings": {
        "details": "Total number of listings ever created in the marketplace."
      },
      "winningBid": {
        "details": "Mapping from uid of an auction listing => current winning bid in an auction."
      }
    },
    "version": 1
  },
  "userdoc": {
    "kind": "user",
    "methods": {},
    "version": 1
  }
}