{
  "contractName": "SpaceWarsPack",
  "abi": [
    {
      "inputs": [],
      "stateMutability": "nonpayable",
      "type": "constructor"
    },
    {
      "anonymous": false,
      "inputs": [
        {
          "indexed": true,
          "internalType": "address",
          "name": "account",
          "type": "address"
        },
        {
          "indexed": true,
          "internalType": "address",
          "name": "operator",
          "type": "address"
        },
        {
          "indexed": false,
          "internalType": "bool",
          "name": "approved",
          "type": "bool"
        }
      ],
      "name": "ApprovalForAll",
      "type": "event"
    },
    {
      "anonymous": false,
      "inputs": [
        {
          "indexed": false,
          "internalType": "string",
          "name": "prevURI",
          "type": "string"
        },
        {
          "indexed": false,
          "internalType": "string",
          "name": "newURI",
          "type": "string"
        }
      ],
      "name": "ContractURIUpdated",
      "type": "event"
    },
    {
      "anonymous": false,
      "inputs": [
        {
          "indexed": true,
          "internalType": "address",
          "name": "newRoyaltyRecipient",
          "type": "address"
        },
        {
          "indexed": false,
          "internalType": "uint256",
          "name": "newRoyaltyBps",
          "type": "uint256"
        }
      ],
      "name": "DefaultRoyalty",
      "type": "event"
    },
    {
      "anonymous": false,
      "inputs": [
        {
          "indexed": false,
          "internalType": "uint8",
          "name": "version",
          "type": "uint8"
        }
      ],
      "name": "Initialized",
      "type": "event"
    },
    {
      "anonymous": false,
      "inputs": [
        {
          "indexed": true,
          "internalType": "address",
          "name": "prevOwner",
          "type": "address"
        },
        {
          "indexed": true,
          "internalType": "address",
          "name": "newOwner",
          "type": "address"
        }
      ],
      "name": "OwnerUpdated",
      "type": "event"
    },
    {
      "anonymous": false,
      "inputs": [
        {
          "indexed": true,
          "internalType": "uint256",
          "name": "packId",
          "type": "uint256"
        },
        {
          "indexed": false,
          "internalType": "address",
          "name": "recipient",
          "type": "address"
        },
        {
          "indexed": false,
          "internalType": "uint256",
          "name": "totalPacksCreated",
          "type": "uint256"
        }
      ],
      "name": "PackCreated",
      "type": "event"
    },
    {
      "anonymous": false,
      "inputs": [
        {
          "indexed": true,
          "internalType": "uint256",
          "name": "packId",
          "type": "uint256"
        },
        {
          "indexed": true,
          "internalType": "address",
          "name": "opener",
          "type": "address"
        },
        {
          "indexed": false,
          "internalType": "uint256",
          "name": "numOfPacksOpened",
          "type": "uint256"
        },
        {
          "components": [
            {
              "internalType": "address",
              "name": "assetContract",
              "type": "address"
            },
            {
              "internalType": "enum ITokenBundle.TokenType",
              "name": "tokenType",
              "type": "uint8"
            },
            {
              "internalType": "uint256",
              "name": "tokenId",
              "type": "uint256"
            },
            {
              "internalType": "uint256",
              "name": "totalAmount",
              "type": "uint256"
            }
          ],
          "indexed": false,
          "internalType": "struct ITokenBundle.Token[]",
          "name": "rewardUnitsDistributed",
          "type": "tuple[]"
        }
      ],
      "name": "PackOpened",
      "type": "event"
    },
    {
      "anonymous": false,
      "inputs": [
        {
          "indexed": true,
          "internalType": "uint256",
          "name": "packId",
          "type": "uint256"
        },
        {
          "indexed": false,
          "internalType": "address",
          "name": "recipient",
          "type": "address"
        },
        {
          "indexed": false,
          "internalType": "uint256",
          "name": "totalPacksCreated",
          "type": "uint256"
        }
      ],
      "name": "PackUpdated",
      "type": "event"
    },
    {
      "anonymous": false,
      "inputs": [
        {
          "indexed": true,
          "internalType": "bytes32",
          "name": "role",
          "type": "bytes32"
        },
        {
          "indexed": true,
          "internalType": "bytes32",
          "name": "previousAdminRole",
          "type": "bytes32"
        },
        {
          "indexed": true,
          "internalType": "bytes32",
          "name": "newAdminRole",
          "type": "bytes32"
        }
      ],
      "name": "RoleAdminChanged",
      "type": "event"
    },
    {
      "anonymous": false,
      "inputs": [
        {
          "indexed": true,
          "internalType": "bytes32",
          "name": "role",
          "type": "bytes32"
        },
        {
          "indexed": true,
          "internalType": "address",
          "name": "account",
          "type": "address"
        },
        {
          "indexed": true,
          "internalType": "address",
          "name": "sender",
          "type": "address"
        }
      ],
      "name": "RoleGranted",
      "type": "event"
    },
    {
      "anonymous": false,
      "inputs": [
        {
          "indexed": true,
          "internalType": "bytes32",
          "name": "role",
          "type": "bytes32"
        },
        {
          "indexed": true,
          "internalType": "address",
          "name": "account",
          "type": "address"
        },
        {
          "indexed": true,
          "internalType": "address",
          "name": "sender",
          "type": "address"
        }
      ],
      "name": "RoleRevoked",
      "type": "event"
    },
    {
      "anonymous": false,
      "inputs": [
        {
          "indexed": true,
          "internalType": "uint256",
          "name": "tokenId",
          "type": "uint256"
        },
        {
          "indexed": true,
          "internalType": "address",
          "name": "royaltyRecipient",
          "type": "address"
        },
        {
          "indexed": false,
          "internalType": "uint256",
          "name": "royaltyBps",
          "type": "uint256"
        }
      ],
      "name": "RoyaltyForToken",
      "type": "event"
    },
    {
      "anonymous": false,
      "inputs": [
        {
          "indexed": true,
          "internalType": "address",
          "name": "operator",
          "type": "address"
        },
        {
          "indexed": true,
          "internalType": "address",
          "name": "from",
          "type": "address"
        },
        {
          "indexed": true,
          "internalType": "address",
          "name": "to",
          "type": "address"
        },
        {
          "indexed": false,
          "internalType": "uint256[]",
          "name": "ids",
          "type": "uint256[]"
        },
        {
          "indexed": false,
          "internalType": "uint256[]",
          "name": "values",
          "type": "uint256[]"
        }
      ],
      "name": "TransferBatch",
      "type": "event"
    },
    {
      "anonymous": false,
      "inputs": [
        {
          "indexed": true,
          "internalType": "address",
          "name": "operator",
          "type": "address"
        },
        {
          "indexed": true,
          "internalType": "address",
          "name": "from",
          "type": "address"
        },
        {
          "indexed": true,
          "internalType": "address",
          "name": "to",
          "type": "address"
        },
        {
          "indexed": false,
          "internalType": "uint256",
          "name": "id",
          "type": "uint256"
        },
        {
          "indexed": false,
          "internalType": "uint256",
          "name": "value",
          "type": "uint256"
        }
      ],
      "name": "TransferSingle",
      "type": "event"
    },
    {
      "anonymous": false,
      "inputs": [
        {
          "indexed": false,
          "internalType": "string",
          "name": "value",
          "type": "string"
        },
        {
          "indexed": true,
          "internalType": "uint256",
          "name": "id",
          "type": "uint256"
        }
      ],
      "name": "URI",
      "type": "event"
    },
    {
      "inputs": [],
      "name": "DEFAULT_ADMIN_ROLE",
      "outputs": [
        {
          "internalType": "bytes32",
          "name": "",
          "type": "bytes32"
        }
      ],
      "stateMutability": "view",
      "type": "function"
    },
    {
      "inputs": [
        {
          "internalType": "address",
          "name": "account",
          "type": "address"
        },
        {
          "internalType": "uint256",
          "name": "id",
          "type": "uint256"
        }
      ],
      "name": "balanceOf",
      "outputs": [
        {
          "internalType": "uint256",
          "name": "",
          "type": "uint256"
        }
      ],
      "stateMutability": "view",
      "type": "function"
    },
    {
      "inputs": [
        {
          "internalType": "address[]",
          "name": "accounts",
          "type": "address[]"
        },
        {
          "internalType": "uint256[]",
          "name": "ids",
          "type": "uint256[]"
        }
      ],
      "name": "balanceOfBatch",
      "outputs": [
        {
          "internalType": "uint256[]",
          "name": "",
          "type": "uint256[]"
        }
      ],
      "stateMutability": "view",
      "type": "function"
    },
    {
      "inputs": [
        {
          "internalType": "uint256",
          "name": "",
          "type": "uint256"
        }
      ],
      "name": "canUpdatePack",
      "outputs": [
        {
          "internalType": "bool",
          "name": "",
          "type": "bool"
        }
      ],
      "stateMutability": "view",
      "type": "function"
    },
    {
      "inputs": [],
      "name": "contractURI",
      "outputs": [
        {
          "internalType": "string",
          "name": "",
          "type": "string"
        }
      ],
      "stateMutability": "view",
      "type": "function"
    },
    {
      "inputs": [],
      "name": "getDefaultRoyaltyInfo",
      "outputs": [
        {
          "internalType": "address",
          "name": "",
          "type": "address"
        },
        {
          "internalType": "uint16",
          "name": "",
          "type": "uint16"
        }
      ],
      "stateMutability": "view",
      "type": "function"
    },
    {
      "inputs": [
        {
          "internalType": "bytes32",
          "name": "role",
          "type": "bytes32"
        }
      ],
      "name": "getRoleAdmin",
      "outputs": [
        {
          "internalType": "bytes32",
          "name": "",
          "type": "bytes32"
        }
      ],
      "stateMutability": "view",
      "type": "function"
    },
    {
      "inputs": [
        {
          "internalType": "bytes32",
          "name": "role",
          "type": "bytes32"
        },
        {
          "internalType": "uint256",
          "name": "index",
          "type": "uint256"
        }
      ],
      "name": "getRoleMember",
      "outputs": [
        {
          "internalType": "address",
          "name": "member",
          "type": "address"
        }
      ],
      "stateMutability": "view",
      "type": "function"
    },
    {
      "inputs": [
        {
          "internalType": "bytes32",
          "name": "role",
          "type": "bytes32"
        }
      ],
      "name": "getRoleMemberCount",
      "outputs": [
        {
          "internalType": "uint256",
          "name": "count",
          "type": "uint256"
        }
      ],
      "stateMutability": "view",
      "type": "function"
    },
    {
      "inputs": [
        {
          "internalType": "uint256",
          "name": "_tokenId",
          "type": "uint256"
        }
      ],
      "name": "getRoyaltyInfoForToken",
      "outputs": [
        {
          "internalType": "address",
          "name": "",
          "type": "address"
        },
        {
          "internalType": "uint16",
          "name": "",
          "type": "uint16"
        }
      ],
      "stateMutability": "view",
      "type": "function"
    },
    {
      "inputs": [
        {
          "internalType": "uint256",
          "name": "_bundleId",
          "type": "uint256"
        }
      ],
      "name": "getTokenCountOfBundle",
      "outputs": [
        {
          "internalType": "uint256",
          "name": "",
          "type": "uint256"
        }
      ],
      "stateMutability": "view",
      "type": "function"
    },
    {
      "inputs": [
        {
          "internalType": "uint256",
          "name": "_bundleId",
          "type": "uint256"
        },
        {
          "internalType": "uint256",
          "name": "index",
          "type": "uint256"
        }
      ],
      "name": "getTokenOfBundle",
      "outputs": [
        {
          "components": [
            {
              "internalType": "address",
              "name": "assetContract",
              "type": "address"
            },
            {
              "internalType": "enum ITokenBundle.TokenType",
              "name": "tokenType",
              "type": "uint8"
            },
            {
              "internalType": "uint256",
              "name": "tokenId",
              "type": "uint256"
            },
            {
              "internalType": "uint256",
              "name": "totalAmount",
              "type": "uint256"
            }
          ],
          "internalType": "struct ITokenBundle.Token",
          "name": "",
          "type": "tuple"
        }
      ],
      "stateMutability": "view",
      "type": "function"
    },
    {
      "inputs": [
        {
          "internalType": "uint256",
          "name": "_bundleId",
          "type": "uint256"
        }
      ],
      "name": "getUriOfBundle",
      "outputs": [
        {
          "internalType": "string",
          "name": "",
          "type": "string"
        }
      ],
      "stateMutability": "view",
      "type": "function"
    },
    {
      "inputs": [
        {
          "internalType": "bytes32",
          "name": "role",
          "type": "bytes32"
        },
        {
          "internalType": "address",
          "name": "account",
          "type": "address"
        }
      ],
      "name": "grantRole",
      "outputs": [],
      "stateMutability": "nonpayable",
      "type": "function"
    },
    {
      "inputs": [
        {
          "internalType": "bytes32",
          "name": "role",
          "type": "bytes32"
        },
        {
          "internalType": "address",
          "name": "account",
          "type": "address"
        }
      ],
      "name": "hasRole",
      "outputs": [
        {
          "internalType": "bool",
          "name": "",
          "type": "bool"
        }
      ],
      "stateMutability": "view",
      "type": "function"
    },
    {
      "inputs": [
        {
          "internalType": "bytes32",
          "name": "role",
          "type": "bytes32"
        },
        {
          "internalType": "address",
          "name": "account",
          "type": "address"
        }
      ],
      "name": "hasRoleWithSwitch",
      "outputs": [
        {
          "internalType": "bool",
          "name": "",
          "type": "bool"
        }
      ],
      "stateMutability": "view",
      "type": "function"
    },
    {
      "inputs": [
        {
          "internalType": "address",
          "name": "account",
          "type": "address"
        },
        {
          "internalType": "address",
          "name": "operator",
          "type": "address"
        }
      ],
      "name": "isApprovedForAll",
      "outputs": [
        {
          "internalType": "bool",
          "name": "",
          "type": "bool"
        }
      ],
      "stateMutability": "view",
      "type": "function"
    },
    {
      "inputs": [
        {
          "internalType": "address",
          "name": "forwarder",
          "type": "address"
        }
      ],
      "name": "isTrustedForwarder",
      "outputs": [
        {
          "internalType": "bool",
          "name": "",
          "type": "bool"
        }
      ],
      "stateMutability": "view",
      "type": "function"
    },
    {
      "inputs": [
        {
          "internalType": "bytes[]",
          "name": "data",
          "type": "bytes[]"
        }
      ],
      "name": "multicall",
      "outputs": [
        {
          "internalType": "bytes[]",
          "name": "results",
          "type": "bytes[]"
        }
      ],
      "stateMutability": "nonpayable",
      "type": "function"
    },
    {
      "inputs": [],
      "name": "name",
      "outputs": [
        {
          "internalType": "string",
          "name": "",
          "type": "string"
        }
      ],
      "stateMutability": "view",
      "type": "function"
    },
    {
      "inputs": [],
      "name": "nextTokenIdToMint",
      "outputs": [
        {
          "internalType": "uint256",
          "name": "",
          "type": "uint256"
        }
      ],
      "stateMutability": "view",
      "type": "function"
    },
    {
      "inputs": [
        {
          "internalType": "address",
          "name": "",
          "type": "address"
        },
        {
          "internalType": "address",
          "name": "",
          "type": "address"
        },
        {
          "internalType": "uint256[]",
          "name": "",
          "type": "uint256[]"
        },
        {
          "internalType": "uint256[]",
          "name": "",
          "type": "uint256[]"
        },
        {
          "internalType": "bytes",
          "name": "",
          "type": "bytes"
        }
      ],
      "name": "onERC1155BatchReceived",
      "outputs": [
        {
          "internalType": "bytes4",
          "name": "",
          "type": "bytes4"
        }
      ],
      "stateMutability": "nonpayable",
      "type": "function"
    },
    {
      "inputs": [
        {
          "internalType": "address",
          "name": "",
          "type": "address"
        },
        {
          "internalType": "address",
          "name": "",
          "type": "address"
        },
        {
          "internalType": "uint256",
          "name": "",
          "type": "uint256"
        },
        {
          "internalType": "uint256",
          "name": "",
          "type": "uint256"
        },
        {
          "internalType": "bytes",
          "name": "",
          "type": "bytes"
        }
      ],
      "name": "onERC1155Received",
      "outputs": [
        {
          "internalType": "bytes4",
          "name": "",
          "type": "bytes4"
        }
      ],
      "stateMutability": "nonpayable",
      "type": "function"
    },
    {
      "inputs": [
        {
          "internalType": "address",
          "name": "",
          "type": "address"
        },
        {
          "internalType": "address",
          "name": "",
          "type": "address"
        },
        {
          "internalType": "uint256",
          "name": "",
          "type": "uint256"
        },
        {
          "internalType": "bytes",
          "name": "",
          "type": "bytes"
        }
      ],
      "name": "onERC721Received",
      "outputs": [
        {
          "internalType": "bytes4",
          "name": "",
          "type": "bytes4"
        }
      ],
      "stateMutability": "nonpayable",
      "type": "function"
    },
    {
      "inputs": [],
      "name": "owner",
      "outputs": [
        {
          "internalType": "address",
          "name": "",
          "type": "address"
        }
      ],
      "stateMutability": "view",
      "type": "function"
    },
    {
      "inputs": [
        {
          "internalType": "bytes32",
          "name": "role",
          "type": "bytes32"
        },
        {
          "internalType": "address",
          "name": "account",
          "type": "address"
        }
      ],
      "name": "renounceRole",
      "outputs": [],
      "stateMutability": "nonpayable",
      "type": "function"
    },
    {
      "inputs": [
        {
          "internalType": "bytes32",
          "name": "role",
          "type": "bytes32"
        },
        {
          "internalType": "address",
          "name": "account",
          "type": "address"
        }
      ],
      "name": "revokeRole",
      "outputs": [],
      "stateMutability": "nonpayable",
      "type": "function"
    },
    {
      "inputs": [
        {
          "internalType": "uint256",
          "name": "tokenId",
          "type": "uint256"
        },
        {
          "internalType": "uint256",
          "name": "salePrice",
          "type": "uint256"
        }
      ],
      "name": "royaltyInfo",
      "outputs": [
        {
          "internalType": "address",
          "name": "receiver",
          "type": "address"
        },
        {
          "internalType": "uint256",
          "name": "royaltyAmount",
          "type": "uint256"
        }
      ],
      "stateMutability": "view",
      "type": "function"
    },
    {
      "inputs": [
        {
          "internalType": "address",
          "name": "from",
          "type": "address"
        },
        {
          "internalType": "address",
          "name": "to",
          "type": "address"
        },
        {
          "internalType": "uint256[]",
          "name": "ids",
          "type": "uint256[]"
        },
        {
          "internalType": "uint256[]",
          "name": "amounts",
          "type": "uint256[]"
        },
        {
          "internalType": "bytes",
          "name": "data",
          "type": "bytes"
        }
      ],
      "name": "safeBatchTransferFrom",
      "outputs": [],
      "stateMutability": "nonpayable",
      "type": "function"
    },
    {
      "inputs": [
        {
          "internalType": "address",
          "name": "from",
          "type": "address"
        },
        {
          "internalType": "address",
          "name": "to",
          "type": "address"
        },
        {
          "internalType": "uint256",
          "name": "id",
          "type": "uint256"
        },
        {
          "internalType": "uint256",
          "name": "amount",
          "type": "uint256"
        },
        {
          "internalType": "bytes",
          "name": "data",
          "type": "bytes"
        }
      ],
      "name": "safeTransferFrom",
      "outputs": [],
      "stateMutability": "nonpayable",
      "type": "function"
    },
    {
      "inputs": [
        {
          "internalType": "address",
          "name": "operator",
          "type": "address"
        },
        {
          "internalType": "bool",
          "name": "approved",
          "type": "bool"
        }
      ],
      "name": "setApprovalForAll",
      "outputs": [],
      "stateMutability": "nonpayable",
      "type": "function"
    },
    {
      "inputs": [
        {
          "internalType": "string",
          "name": "_uri",
          "type": "string"
        }
      ],
      "name": "setContractURI",
      "outputs": [],
      "stateMutability": "nonpayable",
      "type": "function"
    },
    {
      "inputs": [
        {
          "internalType": "address",
          "name": "_royaltyRecipient",
          "type": "address"
        },
        {
          "internalType": "uint256",
          "name": "_royaltyBps",
          "type": "uint256"
        }
      ],
      "name": "setDefaultRoyaltyInfo",
      "outputs": [],
      "stateMutability": "nonpayable",
      "type": "function"
    },
    {
      "inputs": [
        {
          "internalType": "address",
          "name": "_newOwner",
          "type": "address"
        }
      ],
      "name": "setOwner",
      "outputs": [],
      "stateMutability": "nonpayable",
      "type": "function"
    },
    {
      "inputs": [
        {
          "internalType": "uint256",
          "name": "_tokenId",
          "type": "uint256"
        },
        {
          "internalType": "address",
          "name": "_recipient",
          "type": "address"
        },
        {
          "internalType": "uint256",
          "name": "_bps",
          "type": "uint256"
        }
      ],
      "name": "setRoyaltyInfoForToken",
      "outputs": [],
      "stateMutability": "nonpayable",
      "type": "function"
    },
    {
      "inputs": [],
      "name": "symbol",
      "outputs": [
        {
          "internalType": "string",
          "name": "",
          "type": "string"
        }
      ],
      "stateMutability": "view",
      "type": "function"
    },
    {
      "inputs": [
        {
          "internalType": "uint256",
          "name": "",
          "type": "uint256"
        }
      ],
      "name": "totalSupply",
      "outputs": [
        {
          "internalType": "uint256",
          "name": "",
          "type": "uint256"
        }
      ],
      "stateMutability": "view",
      "type": "function"
    },
    {
      "stateMutability": "payable",
      "type": "receive"
    },
    {
      "inputs": [
        {
          "internalType": "string",
          "name": "_name",
          "type": "string"
        },
        {
          "internalType": "string",
          "name": "_symbol",
          "type": "string"
        },
        {
          "internalType": "string",
          "name": "_contractURI",
          "type": "string"
        },
        {
          "internalType": "address[]",
          "name": "_trustedForwarders",
          "type": "address[]"
        },
        {
          "internalType": "address",
          "name": "_royaltyRecipient",
          "type": "address"
        },
        {
          "internalType": "uint256",
          "name": "_royaltyBps",
          "type": "uint256"
        },
        {
          "internalType": "address",
          "name": "_nativeTokenWrapperAddress",
          "type": "address"
        }
      ],
      "name": "initialize",
      "outputs": [],
      "stateMutability": "nonpayable",
      "type": "function"
    },
    {
      "inputs": [],
      "name": "contractType",
      "outputs": [
        {
          "internalType": "bytes32",
          "name": "",
          "type": "bytes32"
        }
      ],
      "stateMutability": "pure",
      "type": "function"
    },
    {
      "inputs": [],
      "name": "contractVersion",
      "outputs": [
        {
          "internalType": "uint8",
          "name": "",
          "type": "uint8"
        }
      ],
      "stateMutability": "pure",
      "type": "function"
    },
    {
      "inputs": [
        {
          "internalType": "uint256",
          "name": "_tokenId",
          "type": "uint256"
        }
      ],
      "name": "uri",
      "outputs": [
        {
          "internalType": "string",
          "name": "",
          "type": "string"
        }
      ],
      "stateMutability": "view",
      "type": "function"
    },
    {
      "inputs": [
        {
          "internalType": "bytes4",
          "name": "interfaceId",
          "type": "bytes4"
        }
      ],
      "name": "supportsInterface",
      "outputs": [
        {
          "internalType": "bool",
          "name": "",
          "type": "bool"
        }
      ],
      "stateMutability": "view",
      "type": "function"
    },
    {
      "inputs": [
        {
          "components": [
            {
              "internalType": "address",
              "name": "assetContract",
              "type": "address"
            },
            {
              "internalType": "enum ITokenBundle.TokenType",
              "name": "tokenType",
              "type": "uint8"
            },
            {
              "internalType": "uint256",
              "name": "tokenId",
              "type": "uint256"
            },
            {
              "internalType": "uint256",
              "name": "totalAmount",
              "type": "uint256"
            }
          ],
          "internalType": "struct ITokenBundle.Token[]",
          "name": "_contents",
          "type": "tuple[]"
        },
        {
          "internalType": "uint256[]",
          "name": "_numOfRewardUnits",
          "type": "uint256[]"
        },
        {
          "internalType": "string",
          "name": "_packUri",
          "type": "string"
        },
        {
          "internalType": "uint128",
          "name": "_openStartTimestamp",
          "type": "uint128"
        },
        {
          "internalType": "uint128",
          "name": "_amountDistributedPerOpen",
          "type": "uint128"
        },
        {
          "internalType": "address",
          "name": "_recipient",
          "type": "address"
        }
      ],
      "name": "createPack",
      "outputs": [
        {
          "internalType": "uint256",
          "name": "packId",
          "type": "uint256"
        },
        {
          "internalType": "uint256",
          "name": "packTotalSupply",
          "type": "uint256"
        }
      ],
      "stateMutability": "payable",
      "type": "function"
    },
    {
      "inputs": [
        {
          "internalType": "uint256",
          "name": "_packId",
          "type": "uint256"
        },
        {
          "components": [
            {
              "internalType": "address",
              "name": "assetContract",
              "type": "address"
            },
            {
              "internalType": "enum ITokenBundle.TokenType",
              "name": "tokenType",
              "type": "uint8"
            },
            {
              "internalType": "uint256",
              "name": "tokenId",
              "type": "uint256"
            },
            {
              "internalType": "uint256",
              "name": "totalAmount",
              "type": "uint256"
            }
          ],
          "internalType": "struct ITokenBundle.Token[]",
          "name": "_contents",
          "type": "tuple[]"
        },
        {
          "internalType": "uint256[]",
          "name": "_numOfRewardUnits",
          "type": "uint256[]"
        },
        {
          "internalType": "address",
          "name": "_recipient",
          "type": "address"
        }
      ],
      "name": "addPackContents",
      "outputs": [
        {
          "internalType": "uint256",
          "name": "packTotalSupply",
          "type": "uint256"
        },
        {
          "internalType": "uint256",
          "name": "newSupplyAdded",
          "type": "uint256"
        }
      ],
      "stateMutability": "payable",
      "type": "function"
    },
    {
      "inputs": [
        {
          "internalType": "uint256",
          "name": "_packId",
          "type": "uint256"
        },
        {
          "internalType": "uint256",
          "name": "_amountToOpen",
          "type": "uint256"
        }
      ],
      "name": "openPack",
      "outputs": [
        {
          "components": [
            {
              "internalType": "address",
              "name": "assetContract",
              "type": "address"
            },
            {
              "internalType": "enum ITokenBundle.TokenType",
              "name": "tokenType",
              "type": "uint8"
            },
            {
              "internalType": "uint256",
              "name": "tokenId",
              "type": "uint256"
            },
            {
              "internalType": "uint256",
              "name": "totalAmount",
              "type": "uint256"
            }
          ],
          "internalType": "struct ITokenBundle.Token[]",
          "name": "",
          "type": "tuple[]"
        }
      ],
      "stateMutability": "nonpayable",
      "type": "function"
    },
    {
      "inputs": [
        {
          "internalType": "uint256",
          "name": "_packId",
          "type": "uint256"
        }
      ],
      "name": "getPackContents",
      "outputs": [
        {
          "components": [
            {
              "internalType": "address",
              "name": "assetContract",
              "type": "address"
            },
            {
              "internalType": "enum ITokenBundle.TokenType",
              "name": "tokenType",
              "type": "uint8"
            },
            {
              "internalType": "uint256",
              "name": "tokenId",
              "type": "uint256"
            },
            {
              "internalType": "uint256",
              "name": "totalAmount",
              "type": "uint256"
            }
          ],
          "internalType": "struct ITokenBundle.Token[]",
          "name": "contents",
          "type": "tuple[]"
        },
        {
          "internalType": "uint256[]",
          "name": "perUnitAmounts",
          "type": "uint256[]"
        }
      ],
      "stateMutability": "view",
      "type": "function"
    }
  ],
  "bytecode": "0x608060405234801562000010575f80fd5b506200001b62000021565b620000e0565b5f54610100900460ff16156200008d5760405162461bcd60e51b815260206004820152602760248201527f496e697469616c697a61626c653a20636f6e747261637420697320696e697469604482015266616c697a696e6760c81b606482015260840160405180910390fd5b5f5460ff9081161015620000de575f805460ff191660ff9081179091556040519081527f7f26b83ff96e1f2b6a682f133852f6798a09c465da95921460cefb38474024989060200160405180910390a15b565b61596480620000ee5f395ff3fe60806040526004361061020e575f3560e01c8062fdd58e1461027057806301ffc9a7146102a257806306fdde03146102d1578063092e6075146102f25780630e89341c1461031357806313af403514610332578063150b7a02146103515780631da799c914610394578063248a9ca3146103c05780632a55205a146103eb5780632eb2c2d6146104185780632f2ff15d1461043757806336568abe146104565780633b1475a7146104755780634cc157df1461048b5780634e1273f4146104cc578063572b6c05146104f8578063600dd5ea1461051757806361195e941461053657806369cb4b2d146105555780638d4c446a146105745780638da5cb5b146105a15780639010d07c146105d2578063914e126a146105f157806391d148541461061d578063938e3d7b1461063c57806395d89b411461065b5780639bcf7a151461066f578063a0a8e4601461068e578063a217fddf146106a9578063a22cb465146106bc578063a32fa5b3146106db578063a96b1438146106fa578063ac9650d81461070d578063b0381b0814610739578063b24f2d3914610768578063bc197c8114610792578063bd85b039146107bd578063ca15c873146107e9578063cb2ef6f714610808578063d0d2fe2514610821578063d547741f14610840578063e8a3d4851461085f578063e985e9c514610873578063f23a6e61146108bb578063f242432a146108e6575f80fd5b3661026c5761013b546001600160a01b0316331461026a5760405162461bcd60e51b815260206004820152601460248201527310b730ba34bb32aa37b5b2b72bb930b83832b91760611b60448201526064015b60405180910390fd5b005b5f80fd5b34801561027b575f80fd5b5061028f61028a36600461461c565b610905565b6040519081526020015b60405180910390f35b3480156102ad575f80fd5b506102c16102bc36600461465b565b61099a565b6040519015158152602001610299565b3480156102dc575f80fd5b506102e56109f7565b60405161029991906146c3565b610305610300366004614821565b610a84565b6040516102999291906148e1565b34801561031e575f80fd5b506102e561032d3660046148ef565b610c4b565b34801561033d575f80fd5b5061026a61034c366004614906565b610c56565b34801561035c575f80fd5b5061037b61036b366004614921565b630a85bd0160e11b949350505050565b6040516001600160e01b03199091168152602001610299565b34801561039f575f80fd5b506103b36103ae366004614988565b610c86565b6040516102999190614a04565b3480156103cb575f80fd5b5061028f6103da3660046148ef565b5f9081526007602052604090205490565b3480156103f6575f80fd5b5061040a610405366004614988565b610d14565b604051610299929190614a12565b348015610423575f80fd5b5061026a610432366004614abb565b610d4f565b348015610442575f80fd5b5061026a610451366004614b61565b610dad565b348015610461575f80fd5b5061026a610470366004614b61565b610e45565b348015610480575f80fd5b5061028f6101375481565b348015610496575f80fd5b506104aa6104a53660046148ef565b610ea4565b604080516001600160a01b03909316835261ffff909116602083015201610299565b3480156104d7575f80fd5b506104eb6104e6366004614bfb565b610f0e565b6040516102999190614c93565b348015610503575f80fd5b506102c1610512366004614906565b611035565b348015610522575f80fd5b5061026a61053136600461461c565b611052565b348015610541575f80fd5b506102e56105503660046148ef565b611080565b348015610560575f80fd5b5061026a61056f366004614ca5565b611122565b34801561057f575f80fd5b5061059361058e3660046148ef565b6112ff565b604051610299929190614dab565b3480156105ac575f80fd5b506002546001600160a01b03165b6040516001600160a01b039091168152602001610299565b3480156105dd575f80fd5b506105ba6105ec366004614988565b611486565b3480156105fc575f80fd5b5061061061060b366004614988565b61156f565b6040516102999190614dcf565b348015610628575f80fd5b506102c1610637366004614b61565b61174c565b348015610647575f80fd5b5061026a610656366004614de1565b611776565b348015610666575f80fd5b506102e56117a3565b34801561067a575f80fd5b5061026a610689366004614e12565b6117b1565b348015610699575f80fd5b5060405160028152602001610299565b3480156106b4575f80fd5b5061028f5f81565b3480156106c7575f80fd5b5061026a6106d6366004614e54565b6117e5565b3480156106e6575f80fd5b506102c16106f5366004614b61565b6117f7565b610305610708366004614e80565b61184b565b348015610718575f80fd5b5061072c610727366004614f05565b611a60565b6040516102999190614f43565b348015610744575f80fd5b506102c16107533660046148ef565b61013a6020525f908152604090205460ff1681565b348015610773575f80fd5b506004546001600160a01b03811690600160a01b900461ffff166104aa565b34801561079d575f80fd5b5061037b6107ac366004614abb565b63bc197c8160e01b95945050505050565b3480156107c8575f80fd5b5061028f6107d73660046148ef565b6101386020525f908152604090205481565b3480156107f4575f80fd5b5061028f6108033660046148ef565b611b52565b348015610813575f80fd5b50635061636b60e01b61028f565b34801561082c575f80fd5b5061028f61083b3660046148ef565b611bd8565b34801561084b575f80fd5b5061026a61085a366004614b61565b611be9565b34801561086a575f80fd5b506102e5611c01565b34801561087e575f80fd5b506102c161088d366004614fa3565b6001600160a01b039182165f9081526101046020908152604080832093909416825291909152205460ff1690565b3480156108c6575f80fd5b5061037b6108d5366004614fcf565b63f23a6e6160e01b95945050505050565b3480156108f1575f80fd5b5061026a610900366004614fcf565b611c0e565b5f6001600160a01b03831661096f5760405162461bcd60e51b815260206004820152602a60248201527f455243313135353a2061646472657373207a65726f206973206e6f742061207660448201526930b634b21037bbb732b960b11b6064820152608401610261565b505f818152610103602090815260408083206001600160a01b03861684529091529020545b92915050565b5f6109a482611c65565b806109bf575063152a902d60e11b6001600160e01b03198316145b806109da5750630a85bd0160e11b6001600160e01b03198316145b806109945750506001600160e01b031916630271189760e51b1490565b6101358054610a0590615032565b80601f0160208091040260200160405190810160405280929190818152602001828054610a3190615032565b8015610a7c5780601f10610a5357610100808354040283529160200191610a7c565b820191905f5260205f20905b815481529060010190602001808311610a5f57829003601f168201915b505050505081565b5f805f8051602061590f833981519152610aa581610aa0611cb4565b611cc2565b600260095403610ac75760405162461bcd60e51b815260040161026190615064565b60026009558915801590610ada57508988145b610af65760405162461bcd60e51b81526004016102619061509b565b610b0d5f805160206158c88339815191525f61174c565b610b6d575f5b8a811015610b6b57610b595f805160206158c88339815191528d8d84818110610b3e57610b3e6150b9565b610b549260206080909202019081019150614906565b611d26565b610b646001826150e1565b9050610b13565b505b610137805493506001905f610b8283876150e1565b90915550610ba190508b8b8b8b8b886001600160801b038c165f611d63565b5f848152610139602090815260408083206001600160801b038a8116600160801b02908c161760019182015561013a8352818420805460ff1916909117905580519182019052908152909250610bfc90859085908590612061565b827f529034575398e71312a0b7b951d8ca42dce1529d774f4a255a587f64f649fff88584604051610c2e929190614a12565b60405180910390a250600160095590999098509650505050505050565b606061099482611080565b610c5e612186565b610c7a5760405162461bcd60e51b8152600401610261906150f4565b610c8381612193565b50565b610c8e6145d2565b5f838152600360209081526040808320858452600290810183529281902081516080810190925280546001600160a01b038116835291939092840191600160a01b900460ff1690811115610ce457610ce46149a8565b6002811115610cf557610cf56149a8565b8152600182015460208201526002909101546040909101529392505050565b5f805f80610d2186610ea4565b90945084925061ffff169050612710610d3a828761511c565b610d449190615147565b925050509250929050565b610d57611cb4565b6001600160a01b0316856001600160a01b03161480610d7d5750610d7d8561088d611cb4565b610d995760405162461bcd60e51b81526004016102619061515a565b610da685858585856121e4565b5050505050565b5f82815260076020526040902054610dc59033611d26565b5f8281526006602090815260408083206001600160a01b038516845290915290205460ff1615610e375760405162461bcd60e51b815260206004820152601d60248201527f43616e206f6e6c79206772616e7420746f206e6f6e20686f6c646572730000006044820152606401610261565b610e4182826123d9565b5050565b336001600160a01b03821614610e9a5760405162461bcd60e51b815260206004820152601a60248201527921b0b71037b7363c903932b737bab731b2903337b91039b2b63360311b6044820152606401610261565b610e4182826123ed565b5f818152600560209081526040808320815180830190925280546001600160a01b031680835260019091015492820192909252829115610eea5780516020820151610f04565b6004546001600160a01b03811690600160a01b900461ffff165b9250925050915091565b60608151835114610f735760405162461bcd60e51b815260206004820152602960248201527f455243313135353a206163636f756e747320616e6420696473206c656e677468604482015268040dad2e6dac2e8c6d60bb1b6064820152608401610261565b5f83516001600160401b03811115610f8d57610f8d61475c565b604051908082528060200260200182016040528015610fb6578160200160208202803683370190505b5090505f5b845181101561102d57611000858281518110610fd957610fd96150b9565b6020026020010151858381518110610ff357610ff36150b9565b6020026020010151610905565b828281518110611012576110126150b9565b6020908102919091010152611026816151a9565b9050610fbb565b509392505050565b6001600160a01b03165f908152606d602052604090205460ff1690565b61105a612186565b6110765760405162461bcd60e51b8152600401610261906150f4565b610e418282612443565b5f81815260036020526040902060010180546060919061109f90615032565b80601f01602080910402602001604051908101604052809291908181526020018280546110cb90615032565b80156111165780601f106110ed57610100808354040283529160200191611116565b820191905f5260205f20905b8154815290600101906020018083116110f957829003601f168201915b50505050509050919050565b5f54610100900460ff161580801561114057505f54600160ff909116105b80611160575061114f306124c7565b15801561116057505f5460ff166001145b6111c35760405162461bcd60e51b815260206004820152602e60248201527f496e697469616c697a61626c653a20636f6e747261637420697320616c72656160448201526d191e481a5b9a5d1a585b1a5e995960921b6064820152608401610261565b5f805460ff1916600117905580156111e4575f805461ff0019166101001790555b6111ed856124d6565b6111f68661250d565b6101356112038982615206565b506101366112118882615206565b5061121b8661253c565b61122433612193565b61122e5f336123d9565b6112455f80516020615888833981519152336123d9565b61125c5f805160206158888339815191525f6123d9565b6112735f8051602061590f833981519152336123d9565b61128a5f805160206158c88339815191525f6123d9565b6112948484612443565b61013b80546001600160a01b0319166001600160a01b03841617905580156112f5575f805461ff0019169055604051600181527f7f26b83ff96e1f2b6a682f133852f6798a09c465da95921460cefb38474024989060200160405180910390a15b5050505050505050565b5f8181526101396020908152604080832081518154608094810282018501909352606081810184815290958695909492939284929184919084018282801561136457602002820191905f5260205f20905b815481526020019060010190808311611350575b5050509183525050600191909101546001600160801b038082166020840152600160801b9091041660409091015290505f61139e85611bd8565b9050806001600160401b038111156113b8576113b861475c565b6040519080825280602002602001820160405280156113f157816020015b6113de6145d2565b8152602001906001900390816113d65790505b509350806001600160401b0381111561140c5761140c61475c565b604051908082528060200260200182016040528015611435578160200160208202803683370190505b5092505f5b8181101561147b5761144c8682610c86565b85828151811061145e5761145e6150b9565b60209081029190910101526114746001826150e1565b905061143a565b505051919391925050565b5f8281526008602052604081205481805b82811015611566575f8681526008602090815260408083208484526001019091529020546001600160a01b031615611511578482036114ff575f8681526008602090815260408083209383526001909301905220546001600160a01b03169250610994915050565b61150a6001836150e1565b9150611554565b61151b865f61174c565b801561154157505f86815260086020908152604080832083805260020190915290205481145b15611554576115516001836150e1565b91505b61155f6001826150e1565b9050611497565b50505092915050565b60605f61157a611cb4565b905061158533611035565b8061159857506001600160a01b03811632145b6115cd5760405162461bcd60e51b81526004016102619060208082526004908201526321454f4160e01b604082015260600190565b826115d88286610905565b10156115f65760405162461bcd60e51b8152600401610261906152c1565b5f84815261013960209081526040808320815181546080948102820185019093526060810183815290939192849284919084018282801561165457602002820191905f5260205f20905b815481526020019060010190808311611640575b5050509183525050600191909101546001600160801b03808216602080850191909152600160801b909204811660409093019290925282015191925042911611156116cd5760405162461bcd60e51b815260206004820152600960248201526831b0b73a1037b832b760b91b6044820152606401610261565b5f6116e7868684604001516001600160801b031685612615565b90506116f48387876129fc565b6116ff308483612b85565b826001600160a01b0316867f58bbfaa763248693d05ac650926341943af86affd998d80e41dbcc9adfdae607878460405161173b9291906152df565b60405180910390a395945050505050565b5f9182526006602090815260408084206001600160a01b0393909316845291905290205460ff1690565b61177e612186565b61179a5760405162461bcd60e51b8152600401610261906150f4565b610c838161253c565b6101368054610a0590615032565b6117b9612186565b6117d55760405162461bcd60e51b8152600401610261906150f4565b6117e0838383612ca4565b505050565b610e416117f0611cb4565b8383612d4b565b5f82815260066020908152604080832083805290915281205460ff1661184257505f8281526006602090815260408083206001600160a01b038516845290915290205460ff16610994565b50600192915050565b5f805f8051602061590f83398151915261186781610aa0611cb4565b6002600954036118895760405162461bcd60e51b815260040161026190615064565b60026009555f89815261013a602052604090205460ff166118d75760405162461bcd60e51b815260206004820152600860248201526708505b1b1bddd95960c21b6044820152606401610261565b86158015906118e557508685145b6119015760405162461bcd60e51b81526004016102619061509b565b61190b848a610905565b5f036119295760405162461bcd60e51b8152600401610261906152c1565b6119405f805160206158c88339815191525f61174c565b611985575f5b87811015611983576119715f805160206158c88339815191528a8a84818110610b3e57610b3e6150b9565b61197c6001826150e1565b9050611946565b505b5f6101395f8b81526020019081526020015f2060010160109054906101000a90046001600160801b03166001600160801b031690506119d98989898960405180602001604052805f8152508f876001611d63565b5f8b815261013860205260409020549093506119f69084906150e1565b9350611a12858b8560405180602001604052805f815250612061565b897fdf54045461e7fa6cda88afd9b979d29bb9ef67b8271562cec9a7a95ddc3afe728685604051611a44929190614a12565b60405180910390a2505060016009559097909650945050505050565b6060816001600160401b03811115611a7a57611a7a61475c565b604051908082528060200260200182016040528015611aad57816020015b6060815260200190600190039081611a985790505b5090505f5b82811015611b4b57611b1b30858584818110611ad057611ad06150b9565b9050602002810190611ae291906152f7565b8080601f0160208091040260200160405190810160405280939291908181526020018383808284375f92019190915250612e2392505050565b828281518110611b2d57611b2d6150b9565b60200260200101819052508080611b43906151a9565b915050611ab2565b5092915050565b5f81815260086020526040812054815b81811015611bb4575f8481526008602090815260408083208484526001019091529020546001600160a01b031615611ba257611b9f6001846150e1565b92505b611bad6001826150e1565b9050611b62565b50611bbf835f61174c565b15611bd257611bcf6001836150e1565b91505b50919050565b5f9081526003602052604090205490565b5f82815260076020526040902054610e9a9033611d26565b60018054610a0590615032565b611c16611cb4565b6001600160a01b0316856001600160a01b03161480611c3c5750611c3c8561088d611cb4565b611c585760405162461bcd60e51b81526004016102619061515a565b610da68585858585612f11565b5f6001600160e01b03198216636cdb3d1360e11b1480611c9557506001600160e01b031982166303a24d0760e21b145b8061099457506301ffc9a760e01b6001600160e01b0319831614610994565b5f611cbd61304e565b905090565b611ccc82826117f7565b610e4157611ce4816001600160a01b03166014613072565b611cef836020613072565b604051602001611d00929190615339565b60408051601f198184030181529082905262461bcd60e51b8252610261916004016146c3565b5f8281526006602090815260408083206001600160a01b038516845290915290205460ff16610e4157611ce4816001600160a01b03166014613072565b5f805f5b89811015611f37578a8a82818110611d8157611d816150b9565b905060800201606001355f03611dc15760405162461bcd60e51b81526020600482015260056024820152640c08185b5d60da1b6044820152606401610261565b888882818110611dd357611dd36150b9565b905060200201358b8b83818110611dec57611dec6150b9565b90506080020160600135611e0091906153a5565b15611e1d5760405162461bcd60e51b8152600401610261906153b8565b60018b8b83818110611e3157611e316150b9565b9050608002016020016020810190611e4991906153e0565b6002811115611e5a57611e5a6149a8565b141580611e8257508a8a82818110611e7457611e746150b9565b905060800201606001356001145b611e9e5760405162461bcd60e51b8152600401610261906153b8565b888882818110611eb057611eb06150b9565b9050602002013582611ec291906150e1565b5f87815261013960205260409020909250898983818110611ee557611ee56150b9565b905060200201358c8c84818110611efe57611efe6150b9565b90506080020160600135611f129190615147565b8154600181810184555f93845260209093200155611f3090826150e1565b9050611d67565b50611f4284826153a5565b15611f785760405162461bcd60e51b81526004016102619060208082526004908201526308505b5d60e21b604082015260600190565b611f828482615147565b91508215612040575f5b89811015611fd757611fc58b8b83818110611fa957611fa96150b9565b905060800201803603810190611fbf91906153fb565b8761320e565b611fd06001826150e1565b9050611f8c565b5061203b611fe3611cb4565b308c8c808060200260200160405190810160405280939291908181526020015f905b8282101561203157612022608083028601368190038101906153fb565b81526020019060010190612005565b5050505050612b85565b612054565b61205461204b611cb4565b8b8b89896132ce565b5098975050505050505050565b6001600160a01b0384166120c15760405162461bcd60e51b815260206004820152602160248201527f455243313135353a206d696e7420746f20746865207a65726f206164647265736044820152607360f81b6064820152608401610261565b5f6120ca611cb4565b90505f6120d685613335565b90505f6120e285613335565b90506120f2835f8985858961337e565b5f868152610103602090815260408083206001600160a01b038b168452909152812080548792906121249084906150e1565b92505081905550866001600160a01b03165f6001600160a01b0316846001600160a01b03165f805160206158a883398151915289896040516121679291906148e1565b60405180910390a461217d835f898989896135fb565b50505050505050565b5f611cbd81610637611cb4565b600280546001600160a01b038381166001600160a01b0319831681179093556040519116919082907f8292fce18fa69edf4db7b94ea2e58241df0ae57f97e0a6c9b29067028bf92d76905f90a35050565b81518351146122465760405162461bcd60e51b815260206004820152602860248201527f455243313135353a2069647320616e6420616d6f756e7473206c656e677468206044820152670dad2e6dac2e8c6d60c31b6064820152608401610261565b6001600160a01b03841661226c5760405162461bcd60e51b81526004016102619061546d565b5f612275611cb4565b905061228581878787878761337e565b5f5b845181101561236b575f8582815181106122a3576122a36150b9565b602002602001015190505f8583815181106122c0576122c06150b9565b6020908102919091018101515f848152610103835260408082206001600160a01b038e1683529093529190912054909150818110156123115760405162461bcd60e51b8152600401610261906154b2565b5f838152610103602090815260408083206001600160a01b038e8116855292528083208585039055908b168252812080548492906123509084906150e1565b9250508190555050505080612364906151a9565b9050612287565b50846001600160a01b0316866001600160a01b0316826001600160a01b03167f4a39dc06d4c0dbc64b70af90fd698a233a518aa5d07e595d983b8c0526c8f7fb87876040516123bb9291906154fc565b60405180910390a46123d181878787878761375c565b505050505050565b6123e3828261381d565b610e418282613877565b6123f782826138e2565b5f8281526008602090815260408083206001600160a01b03851680855260028201808552838620805487526001909301855292852080546001600160a01b031916905584529152555050565b6127108111156124655760405162461bcd60e51b81526004016102619061550e565b600480546001600160a01b0384166001600160b01b03199091168117600160a01b61ffff851602179091556040518281527f90d7ec04bcb8978719414f82e52e4cb651db41d0e6f8cea6118c2191e6183adb9060200160405180910390a25050565b6001600160a01b03163b151590565b5f54610100900460ff166124fc5760405162461bcd60e51b815260040161026190615537565b612504613943565b610c838161396b565b5f54610100900460ff166125335760405162461bcd60e51b815260040161026190615537565b610c83816139f6565b5f6001805461254a90615032565b80601f016020809104026020016040519081016040528092919081815260200182805461257690615032565b80156125c15780601f10612598576101008083540402835291602001916125c1565b820191905f5260205f20905b8154815290600101906020018083116125a457829003601f168201915b5050505050905081600190816125d79190615206565b507fc9c7c3fe08b88b4df9d4d47ef47d2c43d55c025a0ba88ca442580ed9e7348a168183604051612609929190615582565b60405180910390a15050565b60605f612622848661511c565b9050806001600160401b0381111561263c5761263c61475c565b60405190808252806020026020018201604052801561267557816020015b6126626145d2565b81526020019060019003908161265a5790505b505f87815261013860205260408120549193509061269490869061511c565b90505f6126a088611bd8565b90505f6126ab613a25565b90505f6126b78a6112ff565b5090505f836001600160401b038111156126d3576126d361475c565b6040519080825280602002602001820160405280156126fc578160200160208202803683370190505b5090505f5b8681101561298d575f848260405160200161271d9291906148e1565b60408051601f19818403018152919052805160209091012090505f61274288836153a5565b90505f805b88811015612975575f8d5f01518281518110612765576127656150b9565b602002602001015188838151811061277f5761277f6150b9565b6020026020010151606001516127959190615147565b90506127a181846150e1565b841015612956578d518051839081106127bc576127bc6150b9565b60200260200101518883815181106127d6576127d66150b9565b60200260200101516060018181516127ee91906155a6565b9052508651600190889084908110612808576128086150b9565b60200260200101901515908115158152505087828151811061282c5761282c6150b9565b60200260200101515f01518d8781518110612849576128496150b9565b60209081029190910101516001600160a01b0390911690528751889083908110612875576128756150b9565b6020026020010151602001518d8781518110612893576128936150b9565b60200260200101516020019060028111156128b0576128b06149a8565b908160028111156128c3576128c36149a8565b815250508782815181106128d9576128d96150b9565b6020026020010151604001518d87815181106128f7576128f76150b9565b6020908102919091010151604001528d5180518390811061291a5761291a6150b9565b60200260200101518d8781518110612934576129346150b9565b60209081029190910101516060015261294e60018c6155a6565b9a5050612975565b61296081846150e1565b92505061296e6001826150e1565b9050612747565b5050505060018161298691906150e1565b9050612701565b505f5b848110156129ed578181815181106129aa576129aa6150b9565b6020026020010151156129db576129db8382815181106129cc576129cc6150b9565b60200260200101518d83613a7d565b6129e66001826150e1565b9050612990565b50505050505050949350505050565b6001600160a01b038316612a5e5760405162461bcd60e51b815260206004820152602360248201527f455243313135353a206275726e2066726f6d20746865207a65726f206164647260448201526265737360e81b6064820152608401610261565b5f612a67611cb4565b90505f612a7384613335565b90505f612a7f84613335565b9050612a9d83875f858560405180602001604052805f81525061337e565b5f858152610103602090815260408083206001600160a01b038a16845290915290205484811015612b1c5760405162461bcd60e51b8152602060048201526024808201527f455243313135353a206275726e20616d6f756e7420657863656564732062616c604482015263616e636560e01b6064820152608401610261565b5f868152610103602090815260408083206001600160a01b03808c16808652919093528184208986039055905190918716905f805160206158a883398151915290612b6a908b908b906148e1565b60405180910390a460408051602081019091525f905261217d565b5f805b8251811015612c555773eeeeeeeeeeeeeeeeeeeeeeeeeeeeeeeeeeeeeeee6001600160a01b0316838281518110612bc157612bc16150b9565b60200260200101515f01516001600160a01b0316148015612bea57506001600160a01b03841630145b15612c1f57828181518110612c0157612c016150b9565b60200260200101516060015182612c1891906150e1565b9150612c43565b612c438585858481518110612c3657612c366150b9565b6020026020010151613b59565b612c4e6001826150e1565b9050612b88565b508015612c9e576040805160808101825273eeeeeeeeeeeeeeeeeeeeeeeeeeeeeeeeeeeeeeee81525f602082018190529181019190915260608101829052610da6858583613b59565b50505050565b612710811115612cc65760405162461bcd60e51b81526004016102619061550e565b6040805180820182526001600160a01b0384811680835260208084018681525f89815260058352869020945185546001600160a01b031916941693909317845591516001909301929092559151838152909185917f7365cf4122f072a3365c20d54eff9b38d73c096c28e1892ec8f5b0e403a0f12d91015b60405180910390a3505050565b816001600160a01b0316836001600160a01b031603612dbe5760405162461bcd60e51b815260206004820152602960248201527f455243313135353a2073657474696e6720617070726f76616c20737461747573604482015268103337b91039b2b63360b91b6064820152608401610261565b6001600160a01b038381165f8181526101046020908152604080832094871680845294825291829020805460ff191686151590811790915591519182527f17307eab39ab6107e8899845ad3d59bd9653f200f220920489ca2b5937696c319101612d3e565b6060612e2e836124c7565b612e895760405162461bcd60e51b815260206004820152602660248201527f416464726573733a2064656c65676174652063616c6c20746f206e6f6e2d636f6044820152651b9d1c9858dd60d21b6064820152608401610261565b5f80846001600160a01b031684604051612ea391906155b9565b5f60405180830381855af49150503d805f8114612edb576040519150601f19603f3d011682016040523d82523d5f602084013e612ee0565b606091505b5091509150612f0882826040518060600160405280602781526020016158e860279139613c94565b95945050505050565b6001600160a01b038416612f375760405162461bcd60e51b81526004016102619061546d565b5f612f40611cb4565b90505f612f4c85613335565b90505f612f5885613335565b9050612f6883898985858961337e565b5f868152610103602090815260408083206001600160a01b038c16845290915290205485811015612fab5760405162461bcd60e51b8152600401610261906154b2565b5f878152610103602090815260408083206001600160a01b038d8116855292528083208985039055908a16825281208054889290612fea9084906150e1565b92505081905550876001600160a01b0316896001600160a01b0316856001600160a01b03165f805160206158a88339815191528a8a60405161302d9291906148e1565b60405180910390a4613043848a8a8a8a8a6135fb565b505050505050505050565b5f61305833611035565b1561306a575060131936013560601c90565b503390565b90565b60605f61308083600261511c565b61308b9060026150e1565b6001600160401b038111156130a2576130a261475c565b6040519080825280601f01601f1916602001820160405280156130cc576020820181803683370190505b509050600360fc1b815f815181106130e6576130e66150b9565b60200101906001600160f81b03191690815f1a905350600f60fb1b81600181518110613114576131146150b9565b60200101906001600160f81b03191690815f1a9053505f61313684600261511c565b6131419060016150e1565b90505b60018111156131b8576f181899199a1a9b1b9c1cb0b131b232b360811b85600f1660108110613175576131756150b9565b1a60f81b82828151811061318b5761318b6150b9565b60200101906001600160f81b03191690815f1a90535060049490941c936131b1816155d4565b9050613144565b5083156132075760405162461bcd60e51b815260206004820181905260248201527f537472696e67733a20686578206c656e67746820696e73756666696369656e746044820152606401610261565b9392505050565b61321782613ccd565b5f81815260036020908152604080832080548085526002918201845291909320855181546001600160a01b039091166001600160a01b0319821681178355938701519294879492939284926001600160a81b0319161790600160a01b908490811115613285576132856149a8565b02179055506040820151816001015560608201518160020155905050600160035f8481526020019081526020015f205f015f8282546132c491906150e1565b9091555050505050565b6132d9848483613f87565b6132e382826140ac565b610da685308686808060200260200160405190810160405280939291908181526020015f905b8282101561203157613326608083028601368190038101906153fb565b81526020019060010190613309565b6040805160018082528183019092526060915f91906020808301908036833701905050905082815f8151811061336d5761336d6150b9565b602090810291909101015292915050565b6133955f805160206158888339815191525f61174c565b1580156133aa57506001600160a01b03851615155b80156133be57506001600160a01b03841615155b15613434576133da5f805160206158888339815191528661174c565b806133f757506133f75f805160206158888339815191528561174c565b6134345760405162461bcd60e51b815260206004820152600e60248201526d215452414e534645525f524f4c4560901b6044820152606401610261565b6001600160a01b0385166134bc575f5b83518110156134b65782818151811061345f5761345f6150b9565b60200260200101516101385f86848151811061347d5761347d6150b9565b602002602001015181526020019081526020015f205f8282546134a091906150e1565b909155506134af9050816151a9565b9050613444565b50613579565b5f5b83518110156135775761013a5f8583815181106134dd576134dd6150b9565b60209081029190910181015182528101919091526040015f205460ff16801561351f5750828181518110613513576135136150b9565b60200260200101515f14155b15613567575f61013a5f86848151811061353b5761353b6150b9565b602002602001015181526020019081526020015f205f6101000a81548160ff0219169083151502179055505b613570816151a9565b90506134be565b505b6001600160a01b0384166123d1575f5b835181101561217d578281815181106135a4576135a46150b9565b60200260200101516101385f8684815181106135c2576135c26150b9565b602002602001015181526020019081526020015f205f8282546135e591906155a6565b909155506135f49050816151a9565b9050613589565b61360d846001600160a01b03166124c7565b156123d15760405163f23a6e6160e01b81526001600160a01b0385169063f23a6e619061364690899089908890889088906004016155e9565b6020604051808303815f875af1925050508015613680575060408051601f3d908101601f1916820190925261367d91810190615622565b60015b61372c5761368c61563d565b806308c379a0036136c557506136a0615655565b806136ab57506136c7565b8060405162461bcd60e51b815260040161026191906146c3565b505b60405162461bcd60e51b815260206004820152603460248201527f455243313135353a207472616e7366657220746f206e6f6e20455243313135356044820152732932b1b2b4bb32b91034b6b83632b6b2b73a32b960611b6064820152608401610261565b6001600160e01b0319811663f23a6e6160e01b1461217d5760405162461bcd60e51b8152600401610261906156dd565b61376e846001600160a01b03166124c7565b156123d15760405163bc197c8160e01b81526001600160a01b0385169063bc197c81906137a79089908990889088908890600401615725565b6020604051808303815f875af19250505080156137e1575060408051601f3d908101601f191682019092526137de91810190615622565b60015b6137ed5761368c61563d565b6001600160e01b0319811663bc197c8160e01b1461217d5760405162461bcd60e51b8152600401610261906156dd565b5f8281526006602090815260408083206001600160a01b0385168085529252808320805460ff1916600117905551339285917f2f8788117e7eff1d82e926ec794901d17c78024a50270940304540a733656f0d9190a45050565b5f8281526008602052604081208054916001919061389583856150e1565b90915550505f92835260086020908152604080852083865260018101835281862080546001600160a01b039096166001600160a01b03199096168617905593855260029093019052912055565b6138ec8282611d26565b5f8281526006602090815260408083206001600160a01b0385168085529252808320805460ff1916905551339285917ff6391f5c32d9c69d2a47ea670b442974b53935d1edc7fd64eb21e047a839171b9190a45050565b5f54610100900460ff166139695760405162461bcd60e51b815260040161026190615537565b565b5f54610100900460ff166139915760405162461bcd60e51b815260040161026190615537565b5f5b8151811015610e41576001606d5f8484815181106139b3576139b36150b9565b6020908102919091018101516001600160a01b031682528101919091526040015f20805460ff1916911515919091179055806139ee816151a9565b915050613993565b5f54610100900460ff16613a1c5760405162461bcd60e51b815260040161026190615537565b610c83816140c6565b5f613a2e611cb4565b613a396001436155a6565b60405160609290921b6001600160601b0319166020830152406034820152446054820152607401604051602081830303815290604052805190602001205f1c905090565b5f828152600360205260409020548110613ac55760405162461bcd60e51b8152602060048201526009602482015268696e64657820444e4560b81b6044820152606401610261565b613ace83613ccd565b5f828152600360209081526040808320848452600290810183529220855181546001600160a01b039091166001600160a01b03198216811783559287015187949293909284926001600160a81b03191690911790600160a01b908490811115613b3957613b396149a8565b021790555060408201516001820155606090910151600290910155505050565b5f81602001516002811115613b7057613b706149a8565b03613b9b576117e0815f015184848460600151613b9661013b546001600160a01b031690565b6140d3565b600181602001516002811115613bb357613bb36149a8565b03613c175780516040808301519051632142170760e11b81526001600160a01b03909216916342842e0e91613bee9187918791600401615782565b5f604051808303815f87803b158015613c05575f80fd5b505af115801561217d573d5f803e3d5ffd5b600281602001516002811115613c2f57613c2f6149a8565b036117e057805160408083015160608401519151637921219560e11b81526001600160a01b03878116600483015286811660248301526044820192909252606481019290925260a060848301525f60a48301529091169063f242432a9060c401613bee565b60608315613ca3575081613207565b825115613cb35782518084602001fd5b8160405162461bcd60e51b815260040161026191906146c3565b600181602001516002811115613ce557613ce56149a8565b03613d8f5780516040516301ffc9a760e01b81526001600160a01b03909116906301ffc9a790613d1d906380ac58cd906004016157a6565b602060405180830381865afa925050508015613d56575060408051601f3d908101601f19168201909252613d53918101906157be565b60015b613d725760405162461bcd60e51b8152600401610261906157d9565b80610e415760405162461bcd60e51b8152600401610261906157d9565b600281602001516002811115613da757613da76149a8565b03613ddf5780516040516301ffc9a760e01b81526001600160a01b03909116906301ffc9a790613d1d9063d9b67a26906004016157a6565b5f81602001516002811115613df657613df66149a8565b03610c835780516001600160a01b031673eeeeeeeeeeeeeeeeeeeeeeeeeeeeeeeeeeeeeeee14610c835780516040516301ffc9a760e01b81526001600160a01b03909116906301ffc9a790613e53906380ac58cd906004016157a6565b602060405180830381865afa925050508015613e8c575060408051601f3d908101601f19168201909252613e89918101906157be565b60015b613eb557613e9861563d565b806308c379a003610e415750613eac615655565b80610e41575050565b8015613ed35760405162461bcd60e51b8152600401610261906157d9565b81516040516301ffc9a760e01b81526001600160a01b03909116906301ffc9a790613f069063d9b67a26906004016157a6565b602060405180830381865afa925050508015613f3f575060408051601f3d908101601f19168201909252613f3c918101906157be565b60015b613f6957613f4b61563d565b806308c379a0036117e05750613f5f615655565b806117e057505050565b80156117e05760405162461bcd60e51b8152600401610261906157d9565b8180613fbf5760405162461bcd60e51b815260206004820152600760248201526621546f6b656e7360c81b6044820152606401610261565b5f82815260036020526040902054156140065760405162461bcd60e51b815260206004820152600960248201526869642065786973747360b81b6044820152606401610261565b5f5b8181101561409857614040858583818110614025576140256150b9565b90506080020180360381019061403b91906153fb565b613ccd565b848482818110614052576140526150b9565b5f868152600360209081526040808320878452600201909152902060809091029290920191905061408382826157fd565b5061409190506001826150e1565b9050614008565b505f91825260036020526040909120555050565b5f8181526003602052604090206001016117e08382615206565b610105610e418282615206565b8115610da65773eeeeeeeeeeeeeeeeeeeeeeeeeeeeeeeeeeeeeeed196001600160a01b0386160161422857306001600160a01b0385160361417357604051632e1a7d4d60e01b8152600481018390526001600160a01b03821690632e1a7d4d906024015f604051808303815f87803b15801561414d575f80fd5b505af115801561415f573d5f803e3d5ffd5b5050505061416e838383614234565b610da6565b306001600160a01b0384160361421d573482146141c85760405162461bcd60e51b81526020600482015260136024820152721b5cd9cb9d985b1d5948084f48185b5bdd5b9d606a1b6044820152606401610261565b806001600160a01b031663d0e30db0836040518263ffffffff1660e01b81526004015f604051808303818588803b158015614201575f80fd5b505af1158015614213573d5f803e3d5ffd5b5050505050610da6565b61416e838383614234565b610da6858585856142f1565b5f836001600160a01b0316836040515f6040518083038185875af1925050503d805f811461427d576040519150601f19603f3d011682016040523d82523d5f602084013e614282565b606091505b5050905080612c9e57816001600160a01b031663d0e30db0846040518263ffffffff1660e01b81526004015f604051808303818588803b1580156142c4575f80fd5b505af11580156142d6573d5f803e3d5ffd5b50612c9e935050506001600160a01b03841690508585614349565b816001600160a01b0316836001600160a01b03160315612c9e57306001600160a01b038416036143345761432f6001600160a01b0385168383614349565b612c9e565b612c9e6001600160a01b03851684848461439f565b6117e08363a9059cbb60e01b8484604051602401614368929190614a12565b60408051601f198184030181529190526020810180516001600160e01b03166001600160e01b0319909316929092179091526143c0565b612c9e846323b872dd60e01b85858560405160240161436893929190615782565b5f614414826040518060400160405280602081526020017f5361666545524332303a206c6f772d6c6576656c2063616c6c206661696c6564815250856001600160a01b03166144919092919063ffffffff16565b8051909150156117e0578080602001905181019061443291906157be565b6117e05760405162461bcd60e51b815260206004820152602a60248201527f5361666545524332303a204552433230206f7065726174696f6e20646964206e6044820152691bdd081cdd58d8d9595960b21b6064820152608401610261565b606061449f84845f856144a7565b949350505050565b6060824710156145085760405162461bcd60e51b815260206004820152602660248201527f416464726573733a20696e73756666696369656e742062616c616e636520666f6044820152651c8818d85b1b60d21b6064820152608401610261565b614511856124c7565b61455d5760405162461bcd60e51b815260206004820152601d60248201527f416464726573733a2063616c6c20746f206e6f6e2d636f6e74726163740000006044820152606401610261565b5f80866001600160a01b0316858760405161457891906155b9565b5f6040518083038185875af1925050503d805f81146145b2576040519150601f19603f3d011682016040523d82523d5f602084013e6145b7565b606091505b50915091506145c7828286613c94565b979650505050505050565b60408051608081019091525f808252602082019081526020015f81526020015f81525090565b6001600160a01b0381168114610c83575f80fd5b8035614617816145f8565b919050565b5f806040838503121561462d575f80fd5b8235614638816145f8565b946020939093013593505050565b6001600160e01b031981168114610c83575f80fd5b5f6020828403121561466b575f80fd5b813561320781614646565b5f5b83811015614690578181015183820152602001614678565b50505f910152565b5f81518084526146af816020860160208601614676565b601f01601f19169290920160200192915050565b602081525f6132076020830184614698565b5f8083601f8401126146e5575f80fd5b5081356001600160401b038111156146fb575f80fd5b6020830191508360208260071b8501011115614715575f80fd5b9250929050565b5f8083601f84011261472c575f80fd5b5081356001600160401b03811115614742575f80fd5b6020830191508360208260051b8501011115614715575f80fd5b634e487b7160e01b5f52604160045260245ffd5b601f8201601f191681016001600160401b03811182821017156147955761479561475c565b6040525050565b5f82601f8301126147ab575f80fd5b81356001600160401b038111156147c4576147c461475c565b6040516147db601f8301601f191660200182614770565b8181528460208386010111156147ef575f80fd5b816020850160208301375f918101602001919091529392505050565b80356001600160801b0381168114614617575f80fd5b5f805f805f805f8060c0898b031215614838575f80fd5b88356001600160401b038082111561484e575f80fd5b61485a8c838d016146d5565b909a50985060208b0135915080821115614872575f80fd5b61487e8c838d0161471c565b909850965060408b0135915080821115614896575f80fd5b506148a38b828c0161479c565b9450506148b260608a0161480b565b92506148c060808a0161480b565b915060a08901356148d0816145f8565b809150509295985092959890939650565b918252602082015260400190565b5f602082840312156148ff575f80fd5b5035919050565b5f60208284031215614916575f80fd5b8135613207816145f8565b5f805f8060808587031215614934575f80fd5b843561493f816145f8565b9350602085013561494f816145f8565b92506040850135915060608501356001600160401b03811115614970575f80fd5b61497c8782880161479c565b91505092959194509250565b5f8060408385031215614999575f80fd5b50508035926020909101359150565b634e487b7160e01b5f52602160045260245ffd5b80516001600160a01b031682526020810151600381106149ea57634e487b7160e01b5f52602160045260245ffd5b602083015260408181015190830152606090810151910152565b6080810161099482846149bc565b6001600160a01b03929092168252602082015260400190565b5f6001600160401b03821115614a4357614a4361475c565b5060051b60200190565b5f82601f830112614a5c575f80fd5b81356020614a6982614a2b565b604051614a768282614770565b83815260059390931b8501820192828101915086841115614a95575f80fd5b8286015b84811015614ab05780358352918301918301614a99565b509695505050505050565b5f805f805f60a08688031215614acf575f80fd5b8535614ada816145f8565b94506020860135614aea816145f8565b935060408601356001600160401b0380821115614b05575f80fd5b614b1189838a01614a4d565b94506060880135915080821115614b26575f80fd5b614b3289838a01614a4d565b93506080880135915080821115614b47575f80fd5b50614b548882890161479c565b9150509295509295909350565b5f8060408385031215614b72575f80fd5b823591506020830135614b84816145f8565b809150509250929050565b5f82601f830112614b9e575f80fd5b81356020614bab82614a2b565b604051614bb88282614770565b83815260059390931b8501820192828101915086841115614bd7575f80fd5b8286015b84811015614ab0578035614bee816145f8565b8352918301918301614bdb565b5f8060408385031215614c0c575f80fd5b82356001600160401b0380821115614c22575f80fd5b614c2e86838701614b8f565b93506020850135915080821115614c43575f80fd5b50614c5085828601614a4d565b9150509250929050565b5f8151808452602080850194508084015f5b83811015614c8857815187529582019590820190600101614c6c565b509495945050505050565b602081525f6132076020830184614c5a565b5f805f805f805f60e0888a031215614cbb575f80fd5b87356001600160401b0380821115614cd1575f80fd5b614cdd8b838c0161479c565b985060208a0135915080821115614cf2575f80fd5b614cfe8b838c0161479c565b975060408a0135915080821115614d13575f80fd5b614d1f8b838c0161479c565b965060608a0135915080821115614d34575f80fd5b50614d418a828b01614b8f565b945050614d506080890161460c565b925060a08801359150614d6560c0890161460c565b905092959891949750929550565b5f8151808452602080850194508084015f5b83811015614c8857614d988783516149bc565b6080969096019590820190600101614d85565b604081525f614dbd6040830185614d73565b8281036020840152612f088185614c5a565b602081525f6132076020830184614d73565b5f60208284031215614df1575f80fd5b81356001600160401b03811115614e06575f80fd5b61449f8482850161479c565b5f805f60608486031215614e24575f80fd5b833592506020840135614e36816145f8565b929592945050506040919091013590565b8015158114610c83575f80fd5b5f8060408385031215614e65575f80fd5b8235614e70816145f8565b91506020830135614b8481614e47565b5f805f805f8060808789031215614e95575f80fd5b8635955060208701356001600160401b0380821115614eb2575f80fd5b614ebe8a838b016146d5565b90975095506040890135915080821115614ed6575f80fd5b50614ee389828a0161471c565b9094509250506060870135614ef7816145f8565b809150509295509295509295565b5f8060208385031215614f16575f80fd5b82356001600160401b03811115614f2b575f80fd5b614f378582860161471c565b90969095509350505050565b5f602080830181845280855180835260408601915060408160051b87010192508387015f5b82811015614f9657603f19888603018452614f84858351614698565b94509285019290850190600101614f68565b5092979650505050505050565b5f8060408385031215614fb4575f80fd5b8235614fbf816145f8565b91506020830135614b84816145f8565b5f805f805f60a08688031215614fe3575f80fd5b8535614fee816145f8565b94506020860135614ffe816145f8565b9350604086013592506060860135915060808601356001600160401b03811115615026575f80fd5b614b548882890161479c565b600181811c9082168061504657607f821691505b602082108103611bd257634e487b7160e01b5f52602260045260245ffd5b6020808252601f908201527f5265656e7472616e637947756172643a207265656e7472616e742063616c6c00604082015260600190565b60208082526004908201526310a632b760e11b604082015260600190565b634e487b7160e01b5f52603260045260245ffd5b634e487b7160e01b5f52601160045260245ffd5b80820180821115610994576109946150cd565b6020808252600e908201526d139bdd08185d5d1a1bdc9a5e995960921b604082015260600190565b8082028115828204841417610994576109946150cd565b634e487b7160e01b5f52601260045260245ffd5b5f8261515557615155615133565b500490565b6020808252602f908201527f455243313135353a2063616c6c6572206973206e6f7420746f6b656e206f776e60408201526e195c881b9bdc88185c1c1c9bdd9959608a1b606082015260800190565b5f600182016151ba576151ba6150cd565b5060010190565b601f8211156117e0575f81815260208120601f850160051c810160208610156151e75750805b601f850160051c820191505b818110156123d1578281556001016151f3565b81516001600160401b0381111561521f5761521f61475c565b6152338161522d8454615032565b846151c1565b602080601f831160018114615266575f841561524f5750858301515b5f19600386901b1c1916600185901b1785556123d1565b5f85815260208120601f198616915b8281101561529457888601518255948401946001909101908401615275565b50858210156152b157878501515f19600388901b60f8161c191681555b5050505050600190811b01905550565b6020808252600490820152630850985b60e21b604082015260600190565b828152604060208201525f61449f6040830184614d73565b5f808335601e1984360301811261530c575f80fd5b8301803591506001600160401b03821115615325575f80fd5b602001915036819003821315614715575f80fd5b7402832b936b4b9b9b4b7b7399d1030b1b1b7bab73a1605d1b81525f8351615368816015850160208801614676565b7001034b99036b4b9b9b4b733903937b6329607d1b6015918401918201528351615399816026840160208801614676565b01602601949350505050565b5f826153b3576153b3615133565b500690565b60208082526002908201526110a960f11b604082015260600190565b60038110610c83575f80fd5b5f602082840312156153f0575f80fd5b8135613207816153d4565b5f6080828403121561540b575f80fd5b604051608081016001600160401b038111828210171561542d5761542d61475c565b604052823561543b816145f8565b8152602083013561544b816153d4565b6020820152604083810135908201526060928301359281019290925250919050565b60208082526025908201527f455243313135353a207472616e7366657220746f20746865207a65726f206164604082015264647265737360d81b606082015260800190565b6020808252602a908201527f455243313135353a20696e73756666696369656e742062616c616e636520666f60408201526939103a3930b739b332b960b11b606082015260800190565b604081525f614dbd6040830185614c5a565b6020808252600f908201526e45786365656473206d61782062707360881b604082015260600190565b6020808252602b908201527f496e697469616c697a61626c653a20636f6e7472616374206973206e6f74206960408201526a6e697469616c697a696e6760a81b606082015260800190565b604081525f6155946040830185614698565b8281036020840152612f088185614698565b81810381811115610994576109946150cd565b5f82516155ca818460208701614676565b9190910192915050565b5f816155e2576155e26150cd565b505f190190565b6001600160a01b03868116825285166020820152604081018490526060810183905260a0608082018190525f906145c790830184614698565b5f60208284031215615632575f80fd5b815161320781614646565b5f60033d111561306f5760045f803e505f5160e01c90565b5f60443d10156156625790565b6040516003193d81016004833e81513d6001600160401b03808311602484018310171561569157505050505090565b82850191508151818111156156a95750505050505090565b843d87010160208285010111156156c35750505050505090565b6156d260208286010187614770565b509095945050505050565b60208082526028908201527f455243313135353a204552433131353552656365697665722072656a656374656040820152676420746f6b656e7360c01b606082015260800190565b6001600160a01b0386811682528516602082015260a0604082018190525f9061575090830186614c5a565b82810360608401526157628186614c5a565b905082810360808401526157768185614698565b98975050505050505050565b6001600160a01b039384168152919092166020820152604081019190915260600190565b60e09190911b6001600160e01b031916815260200190565b5f602082840312156157ce575f80fd5b815161320781614e47565b6020808252600a908201526921546f6b656e5479706560b01b604082015260600190565b8135615808816145f8565b81546001600160a01b031981166001600160a01b039290921691821783556020840135615834816153d4565b6003811061585057634e487b7160e01b5f52602160045260245ffd5b6001600160a81b03199190911690911760a09190911b60ff60a01b161781556040820135600182015560609091013560029091015556fe8502233096d909befbda0999bb8ea2f3a6be3c138b9fbf003752a4c8bce86f6cc3d58168c5ae7397731d063d5bbf3d657854427343f4c083240f7aacaa2d0f6286d5cf0a6bdc8d859ba3bdc97043337c82a0e609035f378e419298b6a3e00ae6416464726573733a206c6f772d6c6576656c2064656c65676174652063616c6c206661696c65649f2df0fed2c77648de5860a4cc508cd0818c85b8b8a1ab4ceeef8d981c8956a6a2646970667358221220938fb33d2bc2a220263307f364dcab5a26574bba0f4f9ea27caf0d7818f2aeff64736f6c63430008150033",
  "immutableReferences": {},
  "source": "// SPDX-License-Identifier: Apache-2.0\npragma solidity ^0.8.11;\n\n//  ==========  External imports    ==========\n\nimport \"@openzeppelin/contracts-upgradeable/token/ERC1155/ERC1155Upgradeable.sol\";\n\nimport \"@openzeppelin/contracts-upgradeable/proxy/utils/Initializable.sol\";\nimport \"@openzeppelin/contracts-upgradeable/utils/MulticallUpgradeable.sol\";\nimport \"@openzeppelin/contracts-upgradeable/security/ReentrancyGuardUpgradeable.sol\";\nimport \"@openzeppelin/contracts-upgradeable/interfaces/IERC2981Upgradeable.sol\";\nimport \"@openzeppelin/contracts-upgradeable/interfaces/IERC721ReceiverUpgradeable.sol\";\nimport { IERC1155ReceiverUpgradeable } from \"@openzeppelin/contracts-upgradeable/interfaces/IERC1155ReceiverUpgradeable.sol\";\n\n//  ==========  Internal imports    ==========\n\nimport \"@thirdweb-dev/contracts/interfaces/IPack.sol\";\nimport \"@thirdweb-dev/contracts/openzeppelin-presets/metatx/ERC2771ContextUpgradeable.sol\";\n\n//  ==========  Features    ==========\n\nimport \"@thirdweb-dev/contracts/extension/ContractMetadata.sol\";\nimport \"@thirdweb-dev/contracts/extension/Royalty.sol\";\nimport \"@thirdweb-dev/contracts/extension/Ownable.sol\";\nimport \"@thirdweb-dev/contracts/extension/PermissionsEnumerable.sol\";\nimport { TokenStore, ERC1155Receiver } from \"./TokenStore.sol\";\n\ncontract SpaceWarsPack is\n    Initializable,\n    ContractMetadata,\n    Ownable,\n    Royalty,\n    PermissionsEnumerable,\n    TokenStore,\n    ReentrancyGuardUpgradeable,\n    ERC2771ContextUpgradeable,\n    MulticallUpgradeable,\n    ERC1155Upgradeable,\n    IPack\n{\n    /*///////////////////////////////////////////////////////////////\n                            State variables\n    //////////////////////////////////////////////////////////////*/\n\n    bytes32 private constant MODULE_TYPE = bytes32(\"Pack\");\n    uint256 private constant VERSION = 2;\n\n    // Token name\n    string public name;\n\n    // Token symbol\n    string public symbol;\n\n    /// @dev Only transfers to or from TRANSFER_ROLE holders are valid, when transfers are restricted.\n    bytes32 private constant TRANSFER_ROLE = keccak256(\"TRANSFER_ROLE\");\n    /// @dev Only MINTER_ROLE holders can wrap tokens, when wrapping is restricted.\n    bytes32 private constant MINTER_ROLE = keccak256(\"MINTER_ROLE\");   \n    /// @dev Only assets with ASSET_ROLE can be wrapped, when wrapping is restricted to particular assets.\n    bytes32 private constant ASSET_ROLE = keccak256(\"ASSET_ROLE\");\n\n    /// @dev The token Id of the next set of packs to be minted.\n    uint256 public nextTokenIdToMint;\n\n    /*///////////////////////////////////////////////////////////////\n                             Mappings\n    //////////////////////////////////////////////////////////////*/\n\n    /// @dev Mapping from token ID => total circulating supply of token with that ID.\n    mapping(uint256 => uint256) public totalSupply;\n\n    /// @dev Mapping from pack ID => The state of that set of packs.\n    mapping(uint256 => PackInfo) private packInfo;\n\n    /// @dev Checks if pack-creator allowed to add more tokens to a packId; set to false after first transfer\n    mapping(uint256 => bool) public canUpdatePack;\n\n    address private nativeTokenWrapperAddress;\n\n    /*///////////////////////////////////////////////////////////////\n                    Constructor + initializer logic\n    //////////////////////////////////////////////////////////////*/\n\n    /// @custom:oz-upgrades-unsafe-allow constructor\n    constructor() {\n        _disableInitializers();\n    }\n\n    /// @dev Initiliazes the contract, like a constructor.\n    function initialize(        \n        string memory _name,\n        string memory _symbol,\n        string memory _contractURI,\n        address[] memory _trustedForwarders,\n        address _royaltyRecipient,\n        uint256 _royaltyBps,\n        address _nativeTokenWrapperAddress\n    ) external initializer {      \n\n        __ERC2771Context_init(_trustedForwarders);\n        __ERC1155_init(_contractURI);\n\n        name = _name;\n        symbol = _symbol;\n\n        _setupContractURI(_contractURI);\n        _setupOwner(msg.sender);\n        _setupRole(DEFAULT_ADMIN_ROLE, msg.sender);\n        _setupRole(TRANSFER_ROLE, msg.sender);\n        _setupRole(TRANSFER_ROLE, address(0));\n        _setupRole(MINTER_ROLE, msg.sender);        \n\n        // note: see `onlyRoleWithSwitch` for ASSET_ROLE behaviour.\n        _setupRole(ASSET_ROLE, address(0));\n\n        _setupDefaultRoyaltyInfo(_royaltyRecipient, _royaltyBps);       \n\n        nativeTokenWrapperAddress = _nativeTokenWrapperAddress;\n    }\n\n    receive() external payable {\n        require(msg.sender == nativeTokenWrapperAddress, \"!nativeTokenWrapper.\");\n    }\n\n    function _nativeTokenWrapper()  internal view virtual override returns (address) {\n        return nativeTokenWrapperAddress;\n    }\n\n    /*///////////////////////////////////////////////////////////////\n                            Modifiers\n    //////////////////////////////////////////////////////////////*/\n\n    modifier onlyRoleWithSwitch(bytes32 role) {\n        _checkRoleWithSwitch(role, _msgSender());\n        _;\n    }\n\n    /*///////////////////////////////////////////////////////////////\n                        Generic contract logic\n    //////////////////////////////////////////////////////////////*/\n\n    /// @dev Returns the type of the contract.\n    function contractType() external pure returns (bytes32) {\n        return MODULE_TYPE;\n    }\n\n    /// @dev Returns the version of the contract.\n    function contractVersion() external pure returns (uint8) {\n        return uint8(VERSION);\n    }\n\n    /*///////////////////////////////////////////////////////////////\n                        ERC 165 / 1155 / 2981 logic\n    //////////////////////////////////////////////////////////////*/\n\n    /// @dev Returns the URI for a given tokenId.\n    function uri(uint256 _tokenId) public view override returns (string memory) {\n        return getUriOfBundle(_tokenId);\n    }\n\n    /// @dev See ERC 165\n    function supportsInterface(bytes4 interfaceId)\n        public\n        view\n        virtual\n        override(ERC1155Receiver, ERC1155Upgradeable, IERC165)\n        returns (bool)\n    {\n        return\n            super.supportsInterface(interfaceId) ||\n            type(IERC2981Upgradeable).interfaceId == interfaceId ||\n            type(IERC721ReceiverUpgradeable).interfaceId == interfaceId ||\n            type(IERC1155ReceiverUpgradeable).interfaceId == interfaceId;\n    }\n\n    /*///////////////////////////////////////////////////////////////\n                    Pack logic: create | open packs.\n    //////////////////////////////////////////////////////////////*/\n\n    /// @dev Creates a pack with the stated contents.\n    function createPack(\n        Token[] calldata _contents,\n        uint256[] calldata _numOfRewardUnits,\n        string memory _packUri,\n        uint128 _openStartTimestamp,\n        uint128 _amountDistributedPerOpen,\n        address _recipient\n    ) external payable onlyRoleWithSwitch(MINTER_ROLE) nonReentrant returns (uint256 packId, uint256 packTotalSupply) {\n        require(_contents.length > 0 && _contents.length == _numOfRewardUnits.length, \"!Len\");\n\n        if (!hasRole(ASSET_ROLE, address(0))) {\n            for (uint256 i = 0; i < _contents.length; i += 1) {\n                _checkRole(ASSET_ROLE, _contents[i].assetContract);\n            }\n        }\n\n        packId = nextTokenIdToMint;\n        nextTokenIdToMint += 1;\n\n        packTotalSupply = escrowPackContents(\n            _contents,\n            _numOfRewardUnits,\n            _packUri,\n            packId,\n            _amountDistributedPerOpen,\n            false\n        );\n\n        packInfo[packId].openStartTimestamp = _openStartTimestamp;\n        packInfo[packId].amountDistributedPerOpen = _amountDistributedPerOpen;\n\n        canUpdatePack[packId] = true;\n\n        _mint(_recipient, packId, packTotalSupply, \"\");\n\n        emit PackCreated(packId, _recipient, packTotalSupply);\n    }\n\n    /// @dev Add contents to an existing packId.\n    function addPackContents(\n        uint256 _packId,\n        Token[] calldata _contents,\n        uint256[] calldata _numOfRewardUnits,\n        address _recipient\n    )\n        external\n        payable\n        onlyRoleWithSwitch(MINTER_ROLE)\n        nonReentrant\n        returns (uint256 packTotalSupply, uint256 newSupplyAdded)\n    {\n        require(canUpdatePack[_packId], \"!Allowed\");\n        require(_contents.length > 0 && _contents.length == _numOfRewardUnits.length, \"!Len\");\n        require(balanceOf(_recipient, _packId) != 0, \"!Bal\");\n\n        if (!hasRole(ASSET_ROLE, address(0))) {\n            for (uint256 i = 0; i < _contents.length; i += 1) {\n                _checkRole(ASSET_ROLE, _contents[i].assetContract);\n            }\n        }\n\n        uint256 amountPerOpen = packInfo[_packId].amountDistributedPerOpen;\n\n        newSupplyAdded = escrowPackContents(_contents, _numOfRewardUnits, \"\", _packId, amountPerOpen, true);\n        packTotalSupply = totalSupply[_packId] + newSupplyAdded;\n\n        _mint(_recipient, _packId, newSupplyAdded, \"\");\n\n        emit PackUpdated(_packId, _recipient, newSupplyAdded);\n    }\n\n    /// @notice Lets a pack owner open packs and receive the packs' reward units.\n    function openPack(uint256 _packId, uint256 _amountToOpen) external returns (Token[] memory) {\n        address opener = _msgSender();\n\n        require(isTrustedForwarder(msg.sender) || opener == tx.origin, \"!EOA\");\n        require(balanceOf(opener, _packId) >= _amountToOpen, \"!Bal\");\n\n        PackInfo memory pack = packInfo[_packId];\n        require(pack.openStartTimestamp <= block.timestamp, \"cant open\");\n\n        Token[] memory rewardUnits = getRewardUnits(_packId, _amountToOpen, pack.amountDistributedPerOpen, pack);\n\n        _burn(opener, _packId, _amountToOpen);\n\n        _transferTokenBatch(address(this), opener, rewardUnits);\n\n        emit PackOpened(_packId, opener, _amountToOpen, rewardUnits);\n\n        return rewardUnits;\n    }\n\n    /// @dev Stores assets within the contract.\n    function escrowPackContents(\n        Token[] calldata _contents,\n        uint256[] calldata _numOfRewardUnits,\n        string memory _packUri,\n        uint256 packId,\n        uint256 amountPerOpen,\n        bool isUpdate\n    ) internal returns (uint256 supplyToMint) {\n        uint256 sumOfRewardUnits;\n\n        for (uint256 i = 0; i < _contents.length; i += 1) {\n            require(_contents[i].totalAmount != 0, \"0 amt\");\n            require(_contents[i].totalAmount % _numOfRewardUnits[i] == 0, \"!R\");\n            require(_contents[i].tokenType != TokenType.ERC721 || _contents[i].totalAmount == 1, \"!R\");\n\n            sumOfRewardUnits += _numOfRewardUnits[i];\n\n            packInfo[packId].perUnitAmounts.push(_contents[i].totalAmount / _numOfRewardUnits[i]);\n        }\n\n        require(sumOfRewardUnits % amountPerOpen == 0, \"!Amt\");\n        supplyToMint = sumOfRewardUnits / amountPerOpen;\n\n        if (isUpdate) {\n            for (uint256 i = 0; i < _contents.length; i += 1) {\n                _addTokenInBundle(_contents[i], packId);\n            }\n            _transferTokenBatch(_msgSender(), address(this), _contents);\n        } else {\n            _storeTokens(_msgSender(), _contents, _packUri, packId);\n        }\n    }\n\n    /// @dev Returns the reward units to distribute.\n    function getRewardUnits(\n        uint256 _packId,\n        uint256 _numOfPacksToOpen,\n        uint256 _rewardUnitsPerOpen,\n        PackInfo memory pack\n    ) internal returns (Token[] memory rewardUnits) {\n        uint256 numOfRewardUnitsToDistribute = _numOfPacksToOpen * _rewardUnitsPerOpen;\n        rewardUnits = new Token[](numOfRewardUnitsToDistribute);\n        uint256 totalRewardUnits = totalSupply[_packId] * _rewardUnitsPerOpen;\n        uint256 totalRewardKinds = getTokenCountOfBundle(_packId);\n\n        uint256 random = generateRandomValue();\n\n        (Token[] memory _token, ) = getPackContents(_packId);\n        bool[] memory _isUpdated = new bool[](totalRewardKinds);\n        for (uint256 i = 0; i < numOfRewardUnitsToDistribute; i += 1) {\n            uint256 randomVal = uint256(keccak256(abi.encode(random, i)));\n            uint256 target = randomVal % totalRewardUnits;\n            uint256 step;\n\n            for (uint256 j = 0; j < totalRewardKinds; j += 1) {\n                uint256 totalRewardUnitsOfKind = _token[j].totalAmount / pack.perUnitAmounts[j];\n\n                if (target < step + totalRewardUnitsOfKind) {\n                    _token[j].totalAmount -= pack.perUnitAmounts[j];\n                    _isUpdated[j] = true;\n\n                    rewardUnits[i].assetContract = _token[j].assetContract;\n                    rewardUnits[i].tokenType = _token[j].tokenType;\n                    rewardUnits[i].tokenId = _token[j].tokenId;\n                    rewardUnits[i].totalAmount = pack.perUnitAmounts[j];\n\n                    totalRewardUnits -= 1;\n\n                    break;\n                } else {\n                    step += totalRewardUnitsOfKind;\n                }\n            }\n        }\n\n        for (uint256 i = 0; i < totalRewardKinds; i += 1) {\n            if (_isUpdated[i]) {\n                _updateTokenInBundle(_token[i], _packId, i);\n            }\n        }\n    }\n\n    /*///////////////////////////////////////////////////////////////\n                        Getter functions\n    //////////////////////////////////////////////////////////////*/\n\n    /// @dev Returns the underlying contents of a pack.\n    function getPackContents(uint256 _packId)\n        public\n        view\n        returns (Token[] memory contents, uint256[] memory perUnitAmounts)\n    {\n        PackInfo memory pack = packInfo[_packId];\n        uint256 total = getTokenCountOfBundle(_packId);\n        contents = new Token[](total);\n        perUnitAmounts = new uint256[](total);\n\n        for (uint256 i = 0; i < total; i += 1) {\n            contents[i] = getTokenOfBundle(_packId, i);\n        }\n        perUnitAmounts = pack.perUnitAmounts;\n    }\n\n    /*///////////////////////////////////////////////////////////////\n                        Internal functions\n    //////////////////////////////////////////////////////////////*/\n\n    /// @dev Returns whether owner can be set in the given execution context.\n    function _canSetOwner() internal view override returns (bool) {\n        return hasRole(DEFAULT_ADMIN_ROLE, _msgSender());\n    }\n\n    /// @dev Returns whether royalty info can be set in the given execution context.\n    function _canSetRoyaltyInfo() internal view override returns (bool) {\n        return hasRole(DEFAULT_ADMIN_ROLE, _msgSender());\n    }\n\n    /// @dev Returns whether contract metadata can be set in the given execution context.\n    function _canSetContractURI() internal view override returns (bool) {\n        return hasRole(DEFAULT_ADMIN_ROLE, _msgSender());\n    }\n\n    /*///////////////////////////////////////////////////////////////\n                        Miscellaneous\n    //////////////////////////////////////////////////////////////*/\n\n    function generateRandomValue() internal view returns (uint256 random) {\n        random = uint256(keccak256(abi.encodePacked(_msgSender(), blockhash(block.number - 1), block.prevrandao)));\n    }\n\n    /**\n     * @dev See {ERC1155-_beforeTokenTransfer}.\n     */\n    function _beforeTokenTransfer(\n        address operator,\n        address from,\n        address to,\n        uint256[] memory ids,\n        uint256[] memory amounts,\n        bytes memory data\n    ) internal virtual override {\n        super._beforeTokenTransfer(operator, from, to, ids, amounts, data);\n\n        // if transfer is restricted on the contract, we still want to allow burning and minting\n        if (!hasRole(TRANSFER_ROLE, address(0)) && from != address(0) && to != address(0)) {\n            require(hasRole(TRANSFER_ROLE, from) || hasRole(TRANSFER_ROLE, to), \"!TRANSFER_ROLE\");\n        }\n\n        if (from == address(0)) {\n            for (uint256 i = 0; i < ids.length; ++i) {\n                totalSupply[ids[i]] += amounts[i];\n            }\n        } else {\n            for (uint256 i = 0; i < ids.length; ++i) {\n                // pack can no longer be updated after first transfer to non-zero address\n                if (canUpdatePack[ids[i]] && amounts[i] != 0) {\n                    canUpdatePack[ids[i]] = false;\n                }\n            }\n        }\n\n        if (to == address(0)) {\n            for (uint256 i = 0; i < ids.length; ++i) {\n                totalSupply[ids[i]] -= amounts[i];\n            }\n        }\n    }\n\n    /// @dev See EIP-2771\n    function _msgSender()\n        internal\n        view\n        virtual\n        override(ContextUpgradeable, ERC2771ContextUpgradeable)\n        returns (address sender)\n    {\n        return ERC2771ContextUpgradeable._msgSender();\n    }\n\n    /// @dev See EIP-2771\n    function _msgData()\n        internal\n        view\n        virtual\n        override(ContextUpgradeable, ERC2771ContextUpgradeable)\n        returns (bytes calldata)\n    {\n        return ERC2771ContextUpgradeable._msgData();\n    }\n}",
  "sourcePath": "c:\\Projects\\AyazDuru.Blockchain.Samples.MarketplaceNFTAndToken\\source\\contracts\\SpaceWarsPack.sol",
  "compiler": {
    "name": "solc",
    "version": "0.8.21+commit.d9974bed.Emscripten.clang"
  },
  "schemaVersion": "3.4.15",
  "updatedAt": "2023-08-15T23:19:36.769Z",
  "devdoc": {
    "events": {
      "ApprovalForAll(address,address,bool)": {
        "details": "Emitted when `account` grants or revokes permission to `operator` to transfer their tokens, according to `approved`."
      },
      "ContractURIUpdated(string,string)": {
        "details": "Emitted when the contract URI is updated."
      },
      "DefaultRoyalty(address,uint256)": {
        "details": "Emitted when royalty info is updated."
      },
      "Initialized(uint8)": {
        "details": "Triggered when the contract has been initialized or reinitialized."
      },
      "OwnerUpdated(address,address)": {
        "details": "Emitted when a new Owner is set."
      },
      "RoleAdminChanged(bytes32,bytes32,bytes32)": {
        "details": "Emitted when `newAdminRole` is set as ``role``'s admin role, replacing `previousAdminRole` `DEFAULT_ADMIN_ROLE` is the starting admin for all roles, despite {RoleAdminChanged} not being emitted signaling this. _Available since v3.1._"
      },
      "RoleGranted(bytes32,address,address)": {
        "details": "Emitted when `account` is granted `role`. `sender` is the account that originated the contract call, an admin role bearer except when using {AccessControl-_setupRole}."
      },
      "RoleRevoked(bytes32,address,address)": {
        "details": "Emitted when `account` is revoked `role`. `sender` is the account that originated the contract call:   - if using `revokeRole`, it is the admin role bearer   - if using `renounceRole`, it is the role bearer (i.e. `account`)"
      },
      "RoyaltyForToken(uint256,address,uint256)": {
        "details": "Emitted when royalty recipient for tokenId is set"
      },
      "TransferBatch(address,address,address,uint256[],uint256[])": {
        "details": "Equivalent to multiple {TransferSingle} events, where `operator`, `from` and `to` are the same for all transfers."
      },
      "TransferSingle(address,address,address,uint256,uint256)": {
        "details": "Emitted when `value` tokens of token type `id` are transferred from `from` to `to` by `operator`."
      },
      "URI(string,uint256)": {
        "details": "Emitted when the URI for token type `id` changes to `value`, if it is a non-programmatic URI. If an {URI} event was emitted for `id`, the standard https://eips.ethereum.org/EIPS/eip-1155#metadata-extensions[guarantees] that `value` will equal the value returned by {IERC1155MetadataURI-uri}."
      }
    },
    "kind": "dev",
    "methods": {
      "addPackContents(uint256,(address,uint8,uint256,uint256)[],uint256[],address)": {
        "details": "Add contents to an existing packId."
      },
      "balanceOf(address,uint256)": {
        "details": "See {IERC1155-balanceOf}. Requirements: - `account` cannot be the zero address."
      },
      "balanceOfBatch(address[],uint256[])": {
        "details": "See {IERC1155-balanceOfBatch}. Requirements: - `accounts` and `ids` must have the same length."
      },
      "constructor": {
        "custom:oz-upgrades-unsafe-allow": "constructor"
      },
      "contractType()": {
        "details": "Returns the type of the contract."
      },
      "contractVersion()": {
        "details": "Returns the version of the contract."
      },
      "createPack((address,uint8,uint256,uint256)[],uint256[],string,uint128,uint128,address)": {
        "details": "Creates a pack with the stated contents."
      },
      "getPackContents(uint256)": {
        "details": "Returns the underlying contents of a pack."
      },
      "getRoleAdmin(bytes32)": {
        "details": "See {grantRole} and {revokeRole}.                  To change a role's admin, use {_setRoleAdmin}.",
        "params": {
          "role": "keccak256 hash of the role. e.g. keccak256(\"TRANSFER_ROLE\")"
        }
      },
      "getRoleMember(bytes32,uint256)": {
        "details": "Returns `member` who has `role`, at `index` of role-members list.                  See struct {RoleMembers}, and mapping {roleMembers}",
        "params": {
          "index": "Index in list of current members for the role.",
          "role": "keccak256 hash of the role. e.g. keccak256(\"TRANSFER_ROLE\")"
        },
        "returns": {
          "member": " Address of account that has `role`"
        }
      },
      "getRoleMemberCount(bytes32)": {
        "details": "Returns `count` of accounts that have `role`.                  See struct {RoleMembers}, and mapping {roleMembers}",
        "params": {
          "role": "keccak256 hash of the role. e.g. keccak256(\"TRANSFER_ROLE\")"
        },
        "returns": {
          "count": "  Total number of accounts that have `role`"
        }
      },
      "getRoyaltyInfoForToken(uint256)": {
        "details": "Returns royalty recipient and bps for `_tokenId`.",
        "params": {
          "_tokenId": "The tokenID of the NFT for which to query royalty info."
        }
      },
      "getTokenCountOfBundle(uint256)": {
        "details": "Returns the total number of assets in a particular bundle."
      },
      "getTokenOfBundle(uint256,uint256)": {
        "details": "Returns an asset contained in a particular bundle, at a particular index."
      },
      "getUriOfBundle(uint256)": {
        "details": "Returns the uri of a particular bundle."
      },
      "grantRole(bytes32,address)": {
        "details": "Caller must have admin role for the `role`.                  Emits {RoleGranted Event}.",
        "params": {
          "account": "Address of the account to which the role is being granted.",
          "role": "keccak256 hash of the role. e.g. keccak256(\"TRANSFER_ROLE\")"
        }
      },
      "hasRole(bytes32,address)": {
        "details": "Returns `true` if `account` has been granted `role`.",
        "params": {
          "account": "Address of the account for which the role is being checked.",
          "role": "keccak256 hash of the role. e.g. keccak256(\"TRANSFER_ROLE\")"
        }
      },
      "hasRoleWithSwitch(bytes32,address)": {
        "details": "Returns `true` if `account` has been granted `role`.                  Role restrictions can be swtiched on and off:                      - If address(0) has ROLE, then the ROLE restrictions                        don't apply.                      - If address(0) does not have ROLE, then the ROLE                        restrictions will apply.",
        "params": {
          "account": "Address of the account for which the role is being checked.",
          "role": "keccak256 hash of the role. e.g. keccak256(\"TRANSFER_ROLE\")"
        }
      },
      "initialize(string,string,string,address[],address,uint256,address)": {
        "details": "Initiliazes the contract, like a constructor."
      },
      "isApprovedForAll(address,address)": {
        "details": "See {IERC1155-isApprovedForAll}."
      },
      "multicall(bytes[])": {
        "details": "Receives and executes a batch of function calls on this contract."
      },
      "onERC721Received(address,address,uint256,bytes)": {
        "details": "See {IERC721Receiver-onERC721Received}. Always returns `IERC721Receiver.onERC721Received.selector`."
      },
      "renounceRole(bytes32,address)": {
        "details": "Caller must have the `role`, with caller being the same as `account`.                  Emits {RoleRevoked Event}.",
        "params": {
          "account": "Address of the account from which the role is being revoked.",
          "role": "keccak256 hash of the role. e.g. keccak256(\"TRANSFER_ROLE\")"
        }
      },
      "revokeRole(bytes32,address)": {
        "details": "Caller must have admin role for the `role`.                  Emits {RoleRevoked Event}.",
        "params": {
          "account": "Address of the account from which the role is being revoked.",
          "role": "keccak256 hash of the role. e.g. keccak256(\"TRANSFER_ROLE\")"
        }
      },
      "royaltyInfo(uint256,uint256)": {
        "details": "Returns royalty amount and recipient for `tokenId` and `salePrice`.",
        "params": {
          "salePrice": "Sale price of the token.",
          "tokenId": "The tokenID of the NFT for which to query royalty info."
        },
        "returns": {
          "receiver": "       Address of royalty recipient account.",
          "royaltyAmount": "  Royalty amount calculated at current royaltyBps value."
        }
      },
      "safeBatchTransferFrom(address,address,uint256[],uint256[],bytes)": {
        "details": "See {IERC1155-safeBatchTransferFrom}."
      },
      "safeTransferFrom(address,address,uint256,uint256,bytes)": {
        "details": "See {IERC1155-safeTransferFrom}."
      },
      "setApprovalForAll(address,bool)": {
        "details": "See {IERC1155-setApprovalForAll}."
      },
      "setContractURI(string)": {
        "details": "Caller should be authorized to setup contractURI, e.g. contract admin.                  See {_canSetContractURI}.                  Emits {ContractURIUpdated Event}.",
        "params": {
          "_uri": "keccak256 hash of the role. e.g. keccak256(\"TRANSFER_ROLE\")"
        }
      },
      "setDefaultRoyaltyInfo(address,uint256)": {
        "details": "Caller should be authorized to set royalty info.                  See {_canSetRoyaltyInfo}.                  Emits {DefaultRoyalty Event}; See {_setupDefaultRoyaltyInfo}.",
        "params": {
          "_royaltyBps": "Updated royalty bps.",
          "_royaltyRecipient": "Address to be set as default royalty recipient."
        }
      },
      "setOwner(address)": {
        "params": {
          "_newOwner": "The address to set as the new owner of the contract."
        }
      },
      "setRoyaltyInfoForToken(uint256,address,uint256)": {
        "details": "Sets royalty info for `_tokenId`. Caller should be authorized to set royalty info.                  See {_canSetRoyaltyInfo}.                  Emits {RoyaltyForToken Event}; See {_setupRoyaltyInfoForToken}.",
        "params": {
          "_bps": "Updated royalty bps for the token Id.",
          "_recipient": "Address to be set as royalty recipient for given token Id."
        }
      },
      "supportsInterface(bytes4)": {
        "details": "See ERC 165"
      },
      "uri(uint256)": {
        "details": "Returns the URI for a given tokenId."
      }
    },
    "stateVariables": {
      "ASSET_ROLE": {
        "details": "Only assets with ASSET_ROLE can be wrapped, when wrapping is restricted to particular assets."
      },
      "MINTER_ROLE": {
        "details": "Only MINTER_ROLE holders can wrap tokens, when wrapping is restricted."
      },
      "TRANSFER_ROLE": {
        "details": "Only transfers to or from TRANSFER_ROLE holders are valid, when transfers are restricted."
      },
      "canUpdatePack": {
        "details": "Checks if pack-creator allowed to add more tokens to a packId; set to false after first transfer"
      },
      "nextTokenIdToMint": {
        "details": "The token Id of the next set of packs to be minted."
      },
      "packInfo": {
        "details": "Mapping from pack ID => The state of that set of packs."
      },
      "totalSupply": {
        "details": "Mapping from token ID => total circulating supply of token with that ID."
      }
    },
    "version": 1
  },
  "userdoc": {
    "events": {
      "PackCreated(uint256,address,uint256)": {
        "notice": "Emitted when a set of packs is created."
      },
      "PackOpened(uint256,address,uint256,(address,uint8,uint256,uint256)[])": {
        "notice": "Emitted when a pack is opened."
      },
      "PackUpdated(uint256,address,uint256)": {
        "notice": "Emitted when more packs are minted for a packId."
      }
    },
    "kind": "user",
    "methods": {
      "contractURI()": {
        "notice": "Returns the contract metadata URI."
      },
      "getDefaultRoyaltyInfo()": {
        "notice": "Returns the defualt royalty recipient and BPS for this contract's NFTs."
      },
      "getRoleAdmin(bytes32)": {
        "notice": "Returns the admin role that controls the specified role."
      },
      "getRoleMember(bytes32,uint256)": {
        "notice": "Returns the role-member from a list of members for a role,                  at a given index."
      },
      "getRoleMemberCount(bytes32)": {
        "notice": "Returns total number of accounts that have a role."
      },
      "getRoyaltyInfoForToken(uint256)": {
        "notice": "View royalty info for a given token."
      },
      "grantRole(bytes32,address)": {
        "notice": "Grants a role to an account, if not previously granted."
      },
      "hasRole(bytes32,address)": {
        "notice": "Checks whether an account has a particular role."
      },
      "hasRoleWithSwitch(bytes32,address)": {
        "notice": "Checks whether an account has a particular role;                  role restrictions can be swtiched on and off."
      },
      "openPack(uint256,uint256)": {
        "notice": "Lets a pack owner open packs and receive the packs' reward units."
      },
      "owner()": {
        "notice": "Returns the owner of the contract."
      },
      "renounceRole(bytes32,address)": {
        "notice": "Revokes role from the account."
      },
      "revokeRole(bytes32,address)": {
        "notice": "Revokes role from an account."
      },
      "royaltyInfo(uint256,uint256)": {
        "notice": "View royalty info for a given token and sale price."
      },
      "setContractURI(string)": {
        "notice": "Lets a contract admin set the URI for contract-level metadata."
      },
      "setDefaultRoyaltyInfo(address,uint256)": {
        "notice": "Updates default royalty recipient and bps."
      },
      "setOwner(address)": {
        "notice": "Lets an authorized wallet set a new owner for the contract."
      },
      "setRoyaltyInfoForToken(uint256,address,uint256)": {
        "notice": "Updates default royalty recipient and bps for a particular token."
      }
    },
    "version": 1
  }
}