{
  "contractName": "SpaceWarsMultiwrap",
  "abi": [
    {
      "inputs": [],
      "stateMutability": "nonpayable",
      "type": "constructor"
    },
    {
      "anonymous": false,
      "inputs": [
        {
          "indexed": true,
          "internalType": "address",
          "name": "owner",
          "type": "address"
        },
        {
          "indexed": true,
          "internalType": "address",
          "name": "approved",
          "type": "address"
        },
        {
          "indexed": true,
          "internalType": "uint256",
          "name": "tokenId",
          "type": "uint256"
        }
      ],
      "name": "Approval",
      "type": "event"
    },
    {
      "anonymous": false,
      "inputs": [
        {
          "indexed": true,
          "internalType": "address",
          "name": "owner",
          "type": "address"
        },
        {
          "indexed": true,
          "internalType": "address",
          "name": "operator",
          "type": "address"
        },
        {
          "indexed": false,
          "internalType": "bool",
          "name": "approved",
          "type": "bool"
        }
      ],
      "name": "ApprovalForAll",
      "type": "event"
    },
    {
      "anonymous": false,
      "inputs": [
        {
          "indexed": false,
          "internalType": "string",
          "name": "prevURI",
          "type": "string"
        },
        {
          "indexed": false,
          "internalType": "string",
          "name": "newURI",
          "type": "string"
        }
      ],
      "name": "ContractURIUpdated",
      "type": "event"
    },
    {
      "anonymous": false,
      "inputs": [
        {
          "indexed": true,
          "internalType": "address",
          "name": "newRoyaltyRecipient",
          "type": "address"
        },
        {
          "indexed": false,
          "internalType": "uint256",
          "name": "newRoyaltyBps",
          "type": "uint256"
        }
      ],
      "name": "DefaultRoyalty",
      "type": "event"
    },
    {
      "anonymous": false,
      "inputs": [
        {
          "indexed": false,
          "internalType": "uint8",
          "name": "version",
          "type": "uint8"
        }
      ],
      "name": "Initialized",
      "type": "event"
    },
    {
      "anonymous": false,
      "inputs": [
        {
          "indexed": true,
          "internalType": "address",
          "name": "prevOwner",
          "type": "address"
        },
        {
          "indexed": true,
          "internalType": "address",
          "name": "newOwner",
          "type": "address"
        }
      ],
      "name": "OwnerUpdated",
      "type": "event"
    },
    {
      "anonymous": false,
      "inputs": [
        {
          "indexed": true,
          "internalType": "bytes32",
          "name": "role",
          "type": "bytes32"
        },
        {
          "indexed": true,
          "internalType": "bytes32",
          "name": "previousAdminRole",
          "type": "bytes32"
        },
        {
          "indexed": true,
          "internalType": "bytes32",
          "name": "newAdminRole",
          "type": "bytes32"
        }
      ],
      "name": "RoleAdminChanged",
      "type": "event"
    },
    {
      "anonymous": false,
      "inputs": [
        {
          "indexed": true,
          "internalType": "bytes32",
          "name": "role",
          "type": "bytes32"
        },
        {
          "indexed": true,
          "internalType": "address",
          "name": "account",
          "type": "address"
        },
        {
          "indexed": true,
          "internalType": "address",
          "name": "sender",
          "type": "address"
        }
      ],
      "name": "RoleGranted",
      "type": "event"
    },
    {
      "anonymous": false,
      "inputs": [
        {
          "indexed": true,
          "internalType": "bytes32",
          "name": "role",
          "type": "bytes32"
        },
        {
          "indexed": true,
          "internalType": "address",
          "name": "account",
          "type": "address"
        },
        {
          "indexed": true,
          "internalType": "address",
          "name": "sender",
          "type": "address"
        }
      ],
      "name": "RoleRevoked",
      "type": "event"
    },
    {
      "anonymous": false,
      "inputs": [
        {
          "indexed": true,
          "internalType": "uint256",
          "name": "tokenId",
          "type": "uint256"
        },
        {
          "indexed": true,
          "internalType": "address",
          "name": "royaltyRecipient",
          "type": "address"
        },
        {
          "indexed": false,
          "internalType": "uint256",
          "name": "royaltyBps",
          "type": "uint256"
        }
      ],
      "name": "RoyaltyForToken",
      "type": "event"
    },
    {
      "anonymous": false,
      "inputs": [
        {
          "indexed": true,
          "internalType": "address",
          "name": "unwrapper",
          "type": "address"
        },
        {
          "indexed": true,
          "internalType": "address",
          "name": "recipientOfWrappedContents",
          "type": "address"
        },
        {
          "indexed": true,
          "internalType": "uint256",
          "name": "tokenIdOfWrappedToken",
          "type": "uint256"
        }
      ],
      "name": "TokensUnwrapped",
      "type": "event"
    },
    {
      "anonymous": false,
      "inputs": [
        {
          "indexed": true,
          "internalType": "address",
          "name": "wrapper",
          "type": "address"
        },
        {
          "indexed": true,
          "internalType": "address",
          "name": "recipientOfWrappedToken",
          "type": "address"
        },
        {
          "indexed": true,
          "internalType": "uint256",
          "name": "tokenIdOfWrappedToken",
          "type": "uint256"
        },
        {
          "components": [
            {
              "internalType": "address",
              "name": "assetContract",
              "type": "address"
            },
            {
              "internalType": "enum ITokenBundle.TokenType",
              "name": "tokenType",
              "type": "uint8"
            },
            {
              "internalType": "uint256",
              "name": "tokenId",
              "type": "uint256"
            },
            {
              "internalType": "uint256",
              "name": "totalAmount",
              "type": "uint256"
            }
          ],
          "indexed": false,
          "internalType": "struct ITokenBundle.Token[]",
          "name": "wrappedContents",
          "type": "tuple[]"
        }
      ],
      "name": "TokensWrapped",
      "type": "event"
    },
    {
      "anonymous": false,
      "inputs": [
        {
          "indexed": true,
          "internalType": "address",
          "name": "from",
          "type": "address"
        },
        {
          "indexed": true,
          "internalType": "address",
          "name": "to",
          "type": "address"
        },
        {
          "indexed": true,
          "internalType": "uint256",
          "name": "tokenId",
          "type": "uint256"
        }
      ],
      "name": "Transfer",
      "type": "event"
    },
    {
      "inputs": [],
      "name": "DEFAULT_ADMIN_ROLE",
      "outputs": [
        {
          "internalType": "bytes32",
          "name": "",
          "type": "bytes32"
        }
      ],
      "stateMutability": "view",
      "type": "function"
    },
    {
      "inputs": [
        {
          "internalType": "address",
          "name": "to",
          "type": "address"
        },
        {
          "internalType": "uint256",
          "name": "tokenId",
          "type": "uint256"
        }
      ],
      "name": "approve",
      "outputs": [],
      "stateMutability": "nonpayable",
      "type": "function"
    },
    {
      "inputs": [
        {
          "internalType": "address",
          "name": "owner",
          "type": "address"
        }
      ],
      "name": "balanceOf",
      "outputs": [
        {
          "internalType": "uint256",
          "name": "",
          "type": "uint256"
        }
      ],
      "stateMutability": "view",
      "type": "function"
    },
    {
      "inputs": [],
      "name": "contractURI",
      "outputs": [
        {
          "internalType": "string",
          "name": "",
          "type": "string"
        }
      ],
      "stateMutability": "view",
      "type": "function"
    },
    {
      "inputs": [
        {
          "internalType": "uint256",
          "name": "tokenId",
          "type": "uint256"
        }
      ],
      "name": "getApproved",
      "outputs": [
        {
          "internalType": "address",
          "name": "",
          "type": "address"
        }
      ],
      "stateMutability": "view",
      "type": "function"
    },
    {
      "inputs": [],
      "name": "getDefaultRoyaltyInfo",
      "outputs": [
        {
          "internalType": "address",
          "name": "",
          "type": "address"
        },
        {
          "internalType": "uint16",
          "name": "",
          "type": "uint16"
        }
      ],
      "stateMutability": "view",
      "type": "function"
    },
    {
      "inputs": [
        {
          "internalType": "bytes32",
          "name": "role",
          "type": "bytes32"
        }
      ],
      "name": "getRoleAdmin",
      "outputs": [
        {
          "internalType": "bytes32",
          "name": "",
          "type": "bytes32"
        }
      ],
      "stateMutability": "view",
      "type": "function"
    },
    {
      "inputs": [
        {
          "internalType": "bytes32",
          "name": "role",
          "type": "bytes32"
        },
        {
          "internalType": "uint256",
          "name": "index",
          "type": "uint256"
        }
      ],
      "name": "getRoleMember",
      "outputs": [
        {
          "internalType": "address",
          "name": "member",
          "type": "address"
        }
      ],
      "stateMutability": "view",
      "type": "function"
    },
    {
      "inputs": [
        {
          "internalType": "bytes32",
          "name": "role",
          "type": "bytes32"
        }
      ],
      "name": "getRoleMemberCount",
      "outputs": [
        {
          "internalType": "uint256",
          "name": "count",
          "type": "uint256"
        }
      ],
      "stateMutability": "view",
      "type": "function"
    },
    {
      "inputs": [
        {
          "internalType": "uint256",
          "name": "_tokenId",
          "type": "uint256"
        }
      ],
      "name": "getRoyaltyInfoForToken",
      "outputs": [
        {
          "internalType": "address",
          "name": "",
          "type": "address"
        },
        {
          "internalType": "uint16",
          "name": "",
          "type": "uint16"
        }
      ],
      "stateMutability": "view",
      "type": "function"
    },
    {
      "inputs": [
        {
          "internalType": "uint256",
          "name": "_bundleId",
          "type": "uint256"
        }
      ],
      "name": "getTokenCountOfBundle",
      "outputs": [
        {
          "internalType": "uint256",
          "name": "",
          "type": "uint256"
        }
      ],
      "stateMutability": "view",
      "type": "function"
    },
    {
      "inputs": [
        {
          "internalType": "uint256",
          "name": "_bundleId",
          "type": "uint256"
        },
        {
          "internalType": "uint256",
          "name": "index",
          "type": "uint256"
        }
      ],
      "name": "getTokenOfBundle",
      "outputs": [
        {
          "components": [
            {
              "internalType": "address",
              "name": "assetContract",
              "type": "address"
            },
            {
              "internalType": "enum ITokenBundle.TokenType",
              "name": "tokenType",
              "type": "uint8"
            },
            {
              "internalType": "uint256",
              "name": "tokenId",
              "type": "uint256"
            },
            {
              "internalType": "uint256",
              "name": "totalAmount",
              "type": "uint256"
            }
          ],
          "internalType": "struct ITokenBundle.Token",
          "name": "",
          "type": "tuple"
        }
      ],
      "stateMutability": "view",
      "type": "function"
    },
    {
      "inputs": [
        {
          "internalType": "uint256",
          "name": "_bundleId",
          "type": "uint256"
        }
      ],
      "name": "getUriOfBundle",
      "outputs": [
        {
          "internalType": "string",
          "name": "",
          "type": "string"
        }
      ],
      "stateMutability": "view",
      "type": "function"
    },
    {
      "inputs": [
        {
          "internalType": "bytes32",
          "name": "role",
          "type": "bytes32"
        },
        {
          "internalType": "address",
          "name": "account",
          "type": "address"
        }
      ],
      "name": "grantRole",
      "outputs": [],
      "stateMutability": "nonpayable",
      "type": "function"
    },
    {
      "inputs": [
        {
          "internalType": "bytes32",
          "name": "role",
          "type": "bytes32"
        },
        {
          "internalType": "address",
          "name": "account",
          "type": "address"
        }
      ],
      "name": "hasRole",
      "outputs": [
        {
          "internalType": "bool",
          "name": "",
          "type": "bool"
        }
      ],
      "stateMutability": "view",
      "type": "function"
    },
    {
      "inputs": [
        {
          "internalType": "bytes32",
          "name": "role",
          "type": "bytes32"
        },
        {
          "internalType": "address",
          "name": "account",
          "type": "address"
        }
      ],
      "name": "hasRoleWithSwitch",
      "outputs": [
        {
          "internalType": "bool",
          "name": "",
          "type": "bool"
        }
      ],
      "stateMutability": "view",
      "type": "function"
    },
    {
      "inputs": [
        {
          "internalType": "address",
          "name": "owner",
          "type": "address"
        },
        {
          "internalType": "address",
          "name": "operator",
          "type": "address"
        }
      ],
      "name": "isApprovedForAll",
      "outputs": [
        {
          "internalType": "bool",
          "name": "",
          "type": "bool"
        }
      ],
      "stateMutability": "view",
      "type": "function"
    },
    {
      "inputs": [
        {
          "internalType": "address",
          "name": "forwarder",
          "type": "address"
        }
      ],
      "name": "isTrustedForwarder",
      "outputs": [
        {
          "internalType": "bool",
          "name": "",
          "type": "bool"
        }
      ],
      "stateMutability": "view",
      "type": "function"
    },
    {
      "inputs": [
        {
          "internalType": "bytes[]",
          "name": "data",
          "type": "bytes[]"
        }
      ],
      "name": "multicall",
      "outputs": [
        {
          "internalType": "bytes[]",
          "name": "results",
          "type": "bytes[]"
        }
      ],
      "stateMutability": "nonpayable",
      "type": "function"
    },
    {
      "inputs": [],
      "name": "name",
      "outputs": [
        {
          "internalType": "string",
          "name": "",
          "type": "string"
        }
      ],
      "stateMutability": "view",
      "type": "function"
    },
    {
      "inputs": [],
      "name": "nextTokenIdToMint",
      "outputs": [
        {
          "internalType": "uint256",
          "name": "",
          "type": "uint256"
        }
      ],
      "stateMutability": "view",
      "type": "function"
    },
    {
      "inputs": [
        {
          "internalType": "address",
          "name": "",
          "type": "address"
        },
        {
          "internalType": "address",
          "name": "",
          "type": "address"
        },
        {
          "internalType": "uint256[]",
          "name": "",
          "type": "uint256[]"
        },
        {
          "internalType": "uint256[]",
          "name": "",
          "type": "uint256[]"
        },
        {
          "internalType": "bytes",
          "name": "",
          "type": "bytes"
        }
      ],
      "name": "onERC1155BatchReceived",
      "outputs": [
        {
          "internalType": "bytes4",
          "name": "",
          "type": "bytes4"
        }
      ],
      "stateMutability": "nonpayable",
      "type": "function"
    },
    {
      "inputs": [
        {
          "internalType": "address",
          "name": "",
          "type": "address"
        },
        {
          "internalType": "address",
          "name": "",
          "type": "address"
        },
        {
          "internalType": "uint256",
          "name": "",
          "type": "uint256"
        },
        {
          "internalType": "uint256",
          "name": "",
          "type": "uint256"
        },
        {
          "internalType": "bytes",
          "name": "",
          "type": "bytes"
        }
      ],
      "name": "onERC1155Received",
      "outputs": [
        {
          "internalType": "bytes4",
          "name": "",
          "type": "bytes4"
        }
      ],
      "stateMutability": "nonpayable",
      "type": "function"
    },
    {
      "inputs": [
        {
          "internalType": "address",
          "name": "",
          "type": "address"
        },
        {
          "internalType": "address",
          "name": "",
          "type": "address"
        },
        {
          "internalType": "uint256",
          "name": "",
          "type": "uint256"
        },
        {
          "internalType": "bytes",
          "name": "",
          "type": "bytes"
        }
      ],
      "name": "onERC721Received",
      "outputs": [
        {
          "internalType": "bytes4",
          "name": "",
          "type": "bytes4"
        }
      ],
      "stateMutability": "nonpayable",
      "type": "function"
    },
    {
      "inputs": [],
      "name": "owner",
      "outputs": [
        {
          "internalType": "address",
          "name": "",
          "type": "address"
        }
      ],
      "stateMutability": "view",
      "type": "function"
    },
    {
      "inputs": [
        {
          "internalType": "uint256",
          "name": "tokenId",
          "type": "uint256"
        }
      ],
      "name": "ownerOf",
      "outputs": [
        {
          "internalType": "address",
          "name": "",
          "type": "address"
        }
      ],
      "stateMutability": "view",
      "type": "function"
    },
    {
      "inputs": [
        {
          "internalType": "bytes32",
          "name": "role",
          "type": "bytes32"
        },
        {
          "internalType": "address",
          "name": "account",
          "type": "address"
        }
      ],
      "name": "renounceRole",
      "outputs": [],
      "stateMutability": "nonpayable",
      "type": "function"
    },
    {
      "inputs": [
        {
          "internalType": "bytes32",
          "name": "role",
          "type": "bytes32"
        },
        {
          "internalType": "address",
          "name": "account",
          "type": "address"
        }
      ],
      "name": "revokeRole",
      "outputs": [],
      "stateMutability": "nonpayable",
      "type": "function"
    },
    {
      "inputs": [
        {
          "internalType": "uint256",
          "name": "tokenId",
          "type": "uint256"
        },
        {
          "internalType": "uint256",
          "name": "salePrice",
          "type": "uint256"
        }
      ],
      "name": "royaltyInfo",
      "outputs": [
        {
          "internalType": "address",
          "name": "receiver",
          "type": "address"
        },
        {
          "internalType": "uint256",
          "name": "royaltyAmount",
          "type": "uint256"
        }
      ],
      "stateMutability": "view",
      "type": "function"
    },
    {
      "inputs": [
        {
          "internalType": "address",
          "name": "from",
          "type": "address"
        },
        {
          "internalType": "address",
          "name": "to",
          "type": "address"
        },
        {
          "internalType": "uint256",
          "name": "tokenId",
          "type": "uint256"
        }
      ],
      "name": "safeTransferFrom",
      "outputs": [],
      "stateMutability": "nonpayable",
      "type": "function"
    },
    {
      "inputs": [
        {
          "internalType": "address",
          "name": "from",
          "type": "address"
        },
        {
          "internalType": "address",
          "name": "to",
          "type": "address"
        },
        {
          "internalType": "uint256",
          "name": "tokenId",
          "type": "uint256"
        },
        {
          "internalType": "bytes",
          "name": "data",
          "type": "bytes"
        }
      ],
      "name": "safeTransferFrom",
      "outputs": [],
      "stateMutability": "nonpayable",
      "type": "function"
    },
    {
      "inputs": [
        {
          "internalType": "address",
          "name": "operator",
          "type": "address"
        },
        {
          "internalType": "bool",
          "name": "approved",
          "type": "bool"
        }
      ],
      "name": "setApprovalForAll",
      "outputs": [],
      "stateMutability": "nonpayable",
      "type": "function"
    },
    {
      "inputs": [
        {
          "internalType": "string",
          "name": "_uri",
          "type": "string"
        }
      ],
      "name": "setContractURI",
      "outputs": [],
      "stateMutability": "nonpayable",
      "type": "function"
    },
    {
      "inputs": [
        {
          "internalType": "address",
          "name": "_royaltyRecipient",
          "type": "address"
        },
        {
          "internalType": "uint256",
          "name": "_royaltyBps",
          "type": "uint256"
        }
      ],
      "name": "setDefaultRoyaltyInfo",
      "outputs": [],
      "stateMutability": "nonpayable",
      "type": "function"
    },
    {
      "inputs": [
        {
          "internalType": "address",
          "name": "_newOwner",
          "type": "address"
        }
      ],
      "name": "setOwner",
      "outputs": [],
      "stateMutability": "nonpayable",
      "type": "function"
    },
    {
      "inputs": [
        {
          "internalType": "uint256",
          "name": "_tokenId",
          "type": "uint256"
        },
        {
          "internalType": "address",
          "name": "_recipient",
          "type": "address"
        },
        {
          "internalType": "uint256",
          "name": "_bps",
          "type": "uint256"
        }
      ],
      "name": "setRoyaltyInfoForToken",
      "outputs": [],
      "stateMutability": "nonpayable",
      "type": "function"
    },
    {
      "inputs": [],
      "name": "symbol",
      "outputs": [
        {
          "internalType": "string",
          "name": "",
          "type": "string"
        }
      ],
      "stateMutability": "view",
      "type": "function"
    },
    {
      "inputs": [
        {
          "internalType": "address",
          "name": "from",
          "type": "address"
        },
        {
          "internalType": "address",
          "name": "to",
          "type": "address"
        },
        {
          "internalType": "uint256",
          "name": "tokenId",
          "type": "uint256"
        }
      ],
      "name": "transferFrom",
      "outputs": [],
      "stateMutability": "nonpayable",
      "type": "function"
    },
    {
      "stateMutability": "payable",
      "type": "receive"
    },
    {
      "inputs": [
        {
          "internalType": "string",
          "name": "_name",
          "type": "string"
        },
        {
          "internalType": "string",
          "name": "_symbol",
          "type": "string"
        },
        {
          "internalType": "string",
          "name": "_contractURI",
          "type": "string"
        },
        {
          "internalType": "address[]",
          "name": "_trustedForwarders",
          "type": "address[]"
        },
        {
          "internalType": "address",
          "name": "_royaltyRecipient",
          "type": "address"
        },
        {
          "internalType": "uint256",
          "name": "_royaltyBps",
          "type": "uint256"
        },
        {
          "internalType": "address",
          "name": "_nativeTokenWrapperAddress",
          "type": "address"
        }
      ],
      "name": "initialize",
      "outputs": [],
      "stateMutability": "nonpayable",
      "type": "function"
    },
    {
      "inputs": [],
      "name": "contractType",
      "outputs": [
        {
          "internalType": "bytes32",
          "name": "",
          "type": "bytes32"
        }
      ],
      "stateMutability": "pure",
      "type": "function"
    },
    {
      "inputs": [],
      "name": "contractVersion",
      "outputs": [
        {
          "internalType": "uint8",
          "name": "",
          "type": "uint8"
        }
      ],
      "stateMutability": "pure",
      "type": "function"
    },
    {
      "inputs": [
        {
          "internalType": "uint256",
          "name": "_tokenId",
          "type": "uint256"
        }
      ],
      "name": "tokenURI",
      "outputs": [
        {
          "internalType": "string",
          "name": "",
          "type": "string"
        }
      ],
      "stateMutability": "view",
      "type": "function"
    },
    {
      "inputs": [
        {
          "internalType": "bytes4",
          "name": "interfaceId",
          "type": "bytes4"
        }
      ],
      "name": "supportsInterface",
      "outputs": [
        {
          "internalType": "bool",
          "name": "",
          "type": "bool"
        }
      ],
      "stateMutability": "view",
      "type": "function"
    },
    {
      "inputs": [
        {
          "components": [
            {
              "internalType": "address",
              "name": "assetContract",
              "type": "address"
            },
            {
              "internalType": "enum ITokenBundle.TokenType",
              "name": "tokenType",
              "type": "uint8"
            },
            {
              "internalType": "uint256",
              "name": "tokenId",
              "type": "uint256"
            },
            {
              "internalType": "uint256",
              "name": "totalAmount",
              "type": "uint256"
            }
          ],
          "internalType": "struct ITokenBundle.Token[]",
          "name": "_tokensToWrap",
          "type": "tuple[]"
        },
        {
          "internalType": "string",
          "name": "_uriForWrappedToken",
          "type": "string"
        },
        {
          "internalType": "address",
          "name": "_recipient",
          "type": "address"
        }
      ],
      "name": "wrap",
      "outputs": [
        {
          "internalType": "uint256",
          "name": "tokenId",
          "type": "uint256"
        }
      ],
      "stateMutability": "payable",
      "type": "function"
    },
    {
      "inputs": [
        {
          "internalType": "uint256",
          "name": "_tokenId",
          "type": "uint256"
        },
        {
          "internalType": "address",
          "name": "_recipient",
          "type": "address"
        }
      ],
      "name": "unwrap",
      "outputs": [],
      "stateMutability": "nonpayable",
      "type": "function"
    },
    {
      "inputs": [
        {
          "internalType": "uint256",
          "name": "_tokenId",
          "type": "uint256"
        }
      ],
      "name": "getWrappedContents",
      "outputs": [
        {
          "components": [
            {
              "internalType": "address",
              "name": "assetContract",
              "type": "address"
            },
            {
              "internalType": "enum ITokenBundle.TokenType",
              "name": "tokenType",
              "type": "uint8"
            },
            {
              "internalType": "uint256",
              "name": "tokenId",
              "type": "uint256"
            },
            {
              "internalType": "uint256",
              "name": "totalAmount",
              "type": "uint256"
            }
          ],
          "internalType": "struct ITokenBundle.Token[]",
          "name": "contents",
          "type": "tuple[]"
        }
      ],
      "stateMutability": "view",
      "type": "function"
    }
  ],
  "bytecode": "0x608060405234801562000010575f80fd5b506200001b62000021565b620000e0565b5f54610100900460ff16156200008d5760405162461bcd60e51b815260206004820152602760248201527f496e697469616c697a61626c653a20636f6e747261637420697320696e697469604482015266616c697a696e6760c81b606482015260840160405180910390fd5b5f5460ff9081161015620000de575f805460ff191660ff9081179091556040519081527f7f26b83ff96e1f2b6a682f133852f6798a09c465da95921460cefb38474024989060200160405180910390a15b565b61483580620000ee5f395ff3fe60806040526004361061020f575f3560e01c806301ffc9a71461027a57806306fdde03146102ae578063081812fc146102cf578063095ea7b31461030657806313af403514610325578063150b7a02146103445780631da799c91461037c57806323b872dd146103a8578063248a9ca3146103c757806329e471dd146104005780632a55205a146104135780632f2ff15d1461044057806336568abe1461045f5780633b1475a71461047e57806342842e0e146104945780634cc157df146104b3578063572b6c05146104f4578063600dd5ea1461051357806361195e94146105325780636352211e1461055157806369cb4b2d1461057057806370a082311461058f5780637647691d146105ae5780638da5cb5b146105cd5780639010d07c146105ea57806391d1485414610609578063938e3d7b1461062857806395d89b41146106475780639bcf7a151461065b578063a0a8e4601461067a578063a217fddf14610695578063a22cb465146106a8578063a32fa5b3146106c7578063ac9650d8146106e6578063b24f2d3914610712578063b88d4fde1461073c578063bc197c811461075b578063c87b56dd14610786578063ca15c873146107a5578063cb2ef6f7146107c4578063d0d2fe25146107eb578063d547741f1461080a578063d5576d2614610829578063e8a3d48514610855578063e985e9c514610869578063f23a6e6114610888575f80fd5b3661027657610136546001600160a01b031633146102745760405162461bcd60e51b815260206004820181905260248201527f63616c6c6572206e6f74206e617469766520746f6b656e20777261707065722e60448201526064015b60405180910390fd5b005b5f80fd5b348015610285575f80fd5b50610299610294366004613705565b6108b3565b60405190151581526020015b60405180910390f35b3480156102b9575f80fd5b506102c2610914565b6040516102a5919061376d565b3480156102da575f80fd5b506102ee6102e936600461377f565b6109a5565b6040516001600160a01b0390911681526020016102a5565b348015610311575f80fd5b506102746103203660046137ba565b6109cb565b348015610330575f80fd5b5061027461033f3660046137e4565b610af1565b34801561034f575f80fd5b5061036361035e3660046138ae565b610b21565b6040516001600160e01b031990911681526020016102a5565b348015610387575f80fd5b5061039b610396366004613915565b610b32565b6040516102a5919061399f565b3480156103b3575f80fd5b506102746103c23660046139ad565b610bbd565b3480156103d2575f80fd5b506103f26103e136600461377f565b5f9081526007602052604090205490565b6040519081526020016102a5565b6103f261040e366004613a2f565b610bf5565b34801561041e575f80fd5b5061043261042d366004613915565b610d86565b6040516102a5929190613ad4565b34801561044b575f80fd5b5061027461045a366004613aed565b610dc1565b34801561046a575f80fd5b50610274610479366004613aed565b610e59565b348015610489575f80fd5b506103f26101355481565b34801561049f575f80fd5b506102746104ae3660046139ad565b610eb8565b3480156104be575f80fd5b506104d26104cd36600461377f565b610ed2565b604080516001600160a01b03909316835261ffff9091166020830152016102a5565b3480156104ff575f80fd5b5061029961050e3660046137e4565b610f3c565b34801561051e575f80fd5b5061027461052d3660046137ba565b610f59565b34801561053d575f80fd5b506102c261054c36600461377f565b610f87565b34801561055c575f80fd5b506102ee61056b36600461377f565b611029565b34801561057b575f80fd5b5061027461058a366004613bb4565b61105e565b34801561059a575f80fd5b506103f26105a93660046137e4565b61123f565b3480156105b9575f80fd5b506102746105c8366004613aed565b6112c4565b3480156105d8575f80fd5b506005546001600160a01b03166102ee565b3480156105f5575f80fd5b506102ee610604366004613915565b611418565b348015610614575f80fd5b50610299610623366004613aed565b611501565b348015610633575f80fd5b50610274610642366004613c82565b61152b565b348015610652575f80fd5b506102c2611558565b348015610666575f80fd5b50610274610675366004613cb3565b611568565b348015610685575f80fd5b50604051600181526020016102a5565b3480156106a0575f80fd5b506103f25f81565b3480156106b3575f80fd5b506102746106c2366004613ce4565b611597565b3480156106d2575f80fd5b506102996106e1366004613aed565b6115a9565b3480156106f1575f80fd5b50610705610700366004613d10565b6115fd565b6040516102a59190613d7e565b34801561071d575f80fd5b506003546001600160a01b03811690600160a01b900461ffff166104d2565b348015610747575f80fd5b506102746107563660046138ae565b6116ef565b348015610766575f80fd5b50610363610775366004613e41565b63bc197c8160e01b95945050505050565b348015610791575f80fd5b506102c26107a036600461377f565b61172e565b3480156107b0575f80fd5b506103f26107bf36600461377f565b611739565b3480156107cf575f80fd5b507105370616365576172734d756c7469777261760741b6103f2565b3480156107f6575f80fd5b506103f261080536600461377f565b6117bf565b348015610815575f80fd5b50610274610824366004613aed565b6117d0565b348015610834575f80fd5b5061084861084336600461377f565b6117e8565b6040516102a59190613ee7565b348015610860575f80fd5b506102c2611894565b348015610874575f80fd5b50610299610883366004613f34565b611920565b348015610893575f80fd5b506103636108a2366004613f60565b63f23a6e6160e01b95945050505050565b5f6108bd8261194e565b806108d857506001600160e01b031982166380ac58cd60e01b145b806108f357506001600160e01b03198216630271189760e51b145b8061090e57506001600160e01b0319821663152a902d60e11b145b92915050565b6060610103805461092490613fc3565b80601f016020809104026020016040519081016040528092919081815260200182805461095090613fc3565b801561099b5780601f106109725761010080835404028352916020019161099b565b820191905f5260205f20905b81548152906001019060200180831161097e57829003601f168201915b5050505050905090565b5f6109af8261199d565b505f90815261010760205260409020546001600160a01b031690565b5f6109d582611029565b9050806001600160a01b0316836001600160a01b031603610a425760405162461bcd60e51b815260206004820152602160248201527f4552433732313a20617070726f76616c20746f2063757272656e74206f776e656044820152603960f91b606482015260840161026b565b806001600160a01b0316610a546119c2565b6001600160a01b03161480610a705750610a70816108836119c2565b610ae25760405162461bcd60e51b815260206004820152603e60248201527f4552433732313a20617070726f76652063616c6c6572206973206e6f7420746f60448201527f6b656e206f776e6572206e6f7220617070726f76656420666f7220616c6c0000606482015260840161026b565b610aec83836119d0565b505050565b610af9611a3e565b610b155760405162461bcd60e51b815260040161026b90613ff5565b610b1e81611a4b565b50565b630a85bd0160e11b5b949350505050565b610b3a6136ca565b5f838152600260208181526040808420868552830182529283902083516080810190945280546001600160a01b0381168552909291840191600160a01b90910460ff1690811115610b8d57610b8d613935565b6002811115610b9e57610b9e613935565b8152600182015460208201526002909101546040909101529392505050565b610bce610bc86119c2565b82611a9c565b610bea5760405162461bcd60e51b815260040161026b9061401d565b610aec838383611af9565b5f600260095403610c185760405162461bcd60e51b815260040161026b9061406b565b60026009555f805160206147a0833981519152610c3c81610c376119c2565b611c8c565b610c535f805160206147598339815191525f611501565b610cb3575f5b86811015610cb157610c9f5f80516020614759833981519152898984818110610c8457610c846140a2565b610c9a92602060809092020190810191506137e4565b611cf0565b610caa6001826140ca565b9050610c59565b505b610135805492506001905f610cc883866140ca565b90915550610d189050610cd96119c2565b888888888080601f0160208091040260200160405190810160405280939291908181526020018383808284375f92019190915250899250611d2d915050565b610d228383611da5565b81836001600160a01b0316610d356119c2565b6001600160a01b03167fd37c0c0e6fd9c0d30d0b9fba1aa4f1123dedc7e681bb5b2c2d96298650032d4c8a8a604051610d6f9291906140e9565b60405180910390a450600160095595945050505050565b5f805f80610d9386610ed2565b90945084925061ffff169050612710610dac8287614167565b610db6919061417e565b925050509250929050565b5f82815260076020526040902054610dd99033611cf0565b5f8281526006602090815260408083206001600160a01b038516845290915290205460ff1615610e4b5760405162461bcd60e51b815260206004820152601d60248201527f43616e206f6e6c79206772616e7420746f206e6f6e20686f6c64657273000000604482015260640161026b565b610e558282611dbe565b5050565b336001600160a01b03821614610eae5760405162461bcd60e51b815260206004820152601a60248201527921b0b71037b7363c903932b737bab731b2903337b91039b2b63360311b604482015260640161026b565b610e558282611dd2565b610aec83838360405180602001604052805f8152506116ef565b5f818152600460209081526040808320815180830190925280546001600160a01b031680835260019091015492820192909252829115610f185780516020820151610f32565b6003546001600160a01b03811690600160a01b900461ffff165b9250925050915091565b6001600160a01b03165f908152606d602052604090205460ff1690565b610f61611a3e565b610f7d5760405162461bcd60e51b815260040161026b90613ff5565b610e558282611e28565b5f818152600260205260409020600101805460609190610fa690613fc3565b80601f0160208091040260200160405190810160405280929190818152602001828054610fd290613fc3565b801561101d5780601f10610ff45761010080835404028352916020019161101d565b820191905f5260205f20905b81548152906001019060200180831161100057829003601f168201915b50505050509050919050565b5f81815261010560205260408120546001600160a01b03168061090e5760405162461bcd60e51b815260040161026b9061419d565b5f54610100900460ff161580801561107c57505f54600160ff909116105b8061109c575061108b30611eac565b15801561109c57505f5460ff166001145b6110ff5760405162461bcd60e51b815260206004820152602e60248201527f496e697469616c697a61626c653a20636f6e747261637420697320616c72656160448201526d191e481a5b9a5d1a585b1a5e995960921b606482015260840161026b565b5f805460ff191660011790558015611120575f805461ff0019166101001790555b611128611ebb565b61113185611eeb565b61113b8888611f22565b6111458484611e28565b61114e33611a4b565b61115786611f52565b6111615f33611dbe565b6111785f805160206147a083398151915233611dbe565b61118f5f8051602061473983398151915233611dbe565b6111a65f805160206147398339815191525f611dbe565b6111bd5f805160206147e08339815191525f611dbe565b6111d45f805160206147598339815191525f611dbe565b61013680546001600160a01b0319166001600160a01b0384161790558015611235575f805461ff0019169055604051600181527f7f26b83ff96e1f2b6a682f133852f6798a09c465da95921460cefb38474024989060200160405180910390a15b5050505050505050565b5f6001600160a01b0382166112a85760405162461bcd60e51b815260206004820152602960248201527f4552433732313a2061646472657373207a65726f206973206e6f7420612076616044820152683634b21037bbb732b960b91b606482015260840161026b565b506001600160a01b03165f908152610106602052604090205490565b6002600954036112e65760405162461bcd60e51b815260040161026b9061406b565b60026009555f805160206147e083398151915261130581610c376119c2565b61013554831061134a5760405162461bcd60e51b815260206004820152601060248201526f3bb930b83832b21027232a102227229760811b604482015260640161026b565b61135b6113556119c2565b84611a9c565b6113b35760405162461bcd60e51b815260206004820152602360248201527f63616c6c6572206e6f7420617070726f76656420666f7220756e77726170706960448201526237339760e91b606482015260840161026b565b6113bc8361202b565b6113c682846120bc565b82826001600160a01b03166113d96119c2565b6001600160a01b03167fe9a1b206a63887b7a73ef37983c4105047ae75c9ac0920a1a256eea52f264a7360405160405180910390a45050600160095550565b5f8281526008602052604081205481805b828110156114f8575f8681526008602090815260408083208484526001019091529020546001600160a01b0316156114a357848203611491575f8681526008602090815260408083209383526001909301905220546001600160a01b0316925061090e915050565b61149c6001836140ca565b91506114e6565b6114ad865f611501565b80156114d357505f86815260086020908152604080832083805260020190915290205481145b156114e6576114e36001836140ca565b91505b6114f16001826140ca565b9050611429565b50505092915050565b5f9182526006602090815260408084206001600160a01b0393909316845291905290205460ff1690565b611533611a3e565b61154f5760405162461bcd60e51b815260040161026b90613ff5565b610b1e81611f52565b6060610104805461092490613fc3565b611570611a3e565b61158c5760405162461bcd60e51b815260040161026b90613ff5565b610aec838383612175565b610e556115a26119c2565b838361221c565b5f82815260066020908152604080832083805290915281205460ff166115f457505f8281526006602090815260408083206001600160a01b038516845290915290205460ff1661090e565b50600192915050565b6060816001600160401b03811115611617576116176137ff565b60405190808252806020026020018201604052801561164a57816020015b60608152602001906001900390816116355790505b5090505f5b828110156116e8576116b83085858481811061166d5761166d6140a2565b905060200281019061167f91906141cf565b8080601f0160208091040260200160405190810160405280939291908181526020018383808284375f920191909152506122de92505050565b8282815181106116ca576116ca6140a2565b602002602001018190525080806116e090614211565b91505061164f565b5092915050565b6117006116fa6119c2565b83611a9c565b61171c5760405162461bcd60e51b815260040161026b9061401d565b611728848484846123cc565b50505050565b606061090e82610f87565b5f81815260086020526040812054815b8181101561179b575f8481526008602090815260408083208484526001019091529020546001600160a01b031615611789576117866001846140ca565b92505b6117946001826140ca565b9050611749565b506117a6835f611501565b156117b9576117b66001836140ca565b91505b50919050565b5f9081526002602052604090205490565b5f82815260076020526040902054610eae9033611cf0565b60605f6117f4836117bf565b9050806001600160401b0381111561180e5761180e6137ff565b60405190808252806020026020018201604052801561184757816020015b6118346136ca565b81526020019060019003908161182c5790505b5091505f5b8181101561188d5761185e8482610b32565b838281518110611870576118706140a2565b60209081029190910101526118866001826140ca565b905061184c565b5050919050565b600180546118a190613fc3565b80601f01602080910402602001604051908101604052809291908181526020018280546118cd90613fc3565b80156119185780601f106118ef57610100808354040283529160200191611918565b820191905f5260205f20905b8154815290600101906020018083116118fb57829003601f168201915b505050505081565b6001600160a01b039182165f9081526101086020908152604080832093909416825291909152205460ff1690565b5f6001600160e01b031982166380ac58cd60e01b148061197e57506001600160e01b03198216635b5e139f60e01b145b8061090e57506301ffc9a760e01b6001600160e01b031983161461090e565b6119a6816123ff565b610b1e5760405162461bcd60e51b815260040161026b9061419d565b5f6119cb61241c565b905090565b5f8181526101076020526040902080546001600160a01b0319166001600160a01b0384169081179091558190611a0582611029565b6001600160a01b03167f8c5be1e5ebec7d5bd14f71427d1e84f3dd0314c0f7b2291e5b200ac8c7c3b92560405160405180910390a45050565b5f6119cb816106236119c2565b600580546001600160a01b038381166001600160a01b0319831681179093556040519116919082907f8292fce18fa69edf4db7b94ea2e58241df0ae57f97e0a6c9b29067028bf92d76905f90a35050565b5f80611aa783611029565b9050806001600160a01b0316846001600160a01b03161480611ace5750611ace8185611920565b80610b2a5750836001600160a01b0316611ae7846109a5565b6001600160a01b031614949350505050565b826001600160a01b0316611b0c82611029565b6001600160a01b031614611b705760405162461bcd60e51b815260206004820152602560248201527f4552433732313a207472616e736665722066726f6d20696e636f72726563742060448201526437bbb732b960d91b606482015260840161026b565b6001600160a01b038216611bd25760405162461bcd60e51b8152602060048201526024808201527f4552433732313a207472616e7366657220746f20746865207a65726f206164646044820152637265737360e01b606482015260840161026b565b611bdd838383612440565b611be75f826119d0565b6001600160a01b0383165f90815261010660205260408120805460019290611c10908490614229565b90915550506001600160a01b0382165f90815261010660205260408120805460019290611c3e9084906140ca565b90915550505f818152610105602052604080822080546001600160a01b0319166001600160a01b0386811691821790925591518493918716915f805160206147c083398151915291a4505050565b611c9682826115a9565b610e5557611cae816001600160a01b031660146124f6565b611cb98360206124f6565b604051602001611cca92919061423c565b60408051601f198184030181529082905262461bcd60e51b825261026b9160040161376d565b5f8281526006602090815260408083206001600160a01b038516845290915290205460ff16610e5557611cae816001600160a01b031660146124f6565b611d38848483612692565b611d4282826127b6565b611d9e85308686808060200260200160405190810160405280939291908181526020015f905b82821015611d9457611d85608083028601368190038101906142a8565b81526020019060010190611d68565b50505050506127d0565b5050505050565b610e55828260405180602001604052805f8152506128e9565b611dc8828261291b565b610e558282612975565b611ddc82826129e0565b5f8281526008602090815260408083206001600160a01b03851680855260028201808552838620805487526001909301855292852080546001600160a01b031916905584529152555050565b612710811115611e4a5760405162461bcd60e51b815260040161026b9061431a565b600380546001600160a01b0384166001600160b01b03199091168117600160a01b61ffff851602179091556040518281527f90d7ec04bcb8978719414f82e52e4cb651db41d0e6f8cea6118c2191e6183adb9060200160405180910390a25050565b6001600160a01b03163b151590565b5f54610100900460ff16611ee15760405162461bcd60e51b815260040161026b90614343565b611ee9612a41565b565b5f54610100900460ff16611f115760405162461bcd60e51b815260040161026b90614343565b611f19612a6e565b610b1e81612a94565b5f54610100900460ff16611f485760405162461bcd60e51b815260040161026b90614343565b610e558282612b1f565b5f60018054611f6090613fc3565b80601f0160208091040260200160405190810160405280929190818152602001828054611f8c90613fc3565b8015611fd75780601f10611fae57610100808354040283529160200191611fd7565b820191905f5260205f20905b815481529060010190602001808311611fba57829003601f168201915b505050505090508160019081611fed91906143db565b507fc9c7c3fe08b88b4df9d4d47ef47d2c43d55c025a0ba88ca442580ed9e7348a16818360405161201f929190614496565b60405180910390a15050565b5f61203582611029565b9050612042815f84612440565b61204c5f836119d0565b6001600160a01b0381165f90815261010660205260408120805460019290612075908490614229565b90915550505f828152610105602052604080822080546001600160a01b0319169055518391906001600160a01b038416905f805160206147c0833981519152908390a45050565b5f6120c6826117bf565b90505f816001600160401b038111156120e1576120e16137ff565b60405190808252806020026020018201604052801561211a57816020015b6121076136ca565b8152602001906001900390816120ff5790505b5090505f5b82811015612160576121318482610b32565b828281518110612143576121436140a2565b60209081029190910101526121596001826140ca565b905061211f565b5061216a83612b60565b6117283085836127d0565b6127108111156121975760405162461bcd60e51b815260040161026b9061431a565b6040805180820182526001600160a01b0384811680835260208084018681525f89815260048352869020945185546001600160a01b031916941693909317845591516001909301929092559151838152909185917f7365cf4122f072a3365c20d54eff9b38d73c096c28e1892ec8f5b0e403a0f12d91015b60405180910390a3505050565b816001600160a01b0316836001600160a01b0316036122795760405162461bcd60e51b815260206004820152601960248201527822a9219b99189d1030b8383937bb32903a379031b0b63632b960391b604482015260640161026b565b6001600160a01b038381165f8181526101086020908152604080832094871680845294825291829020805460ff191686151590811790915591519182527f17307eab39ab6107e8899845ad3d59bd9653f200f220920489ca2b5937696c31910161220f565b60606122e983611eac565b6123445760405162461bcd60e51b815260206004820152602660248201527f416464726573733a2064656c65676174652063616c6c20746f206e6f6e2d636f6044820152651b9d1c9858dd60d21b606482015260840161026b565b5f80846001600160a01b03168460405161235e91906144ba565b5f60405180830381855af49150503d805f8114612396576040519150601f19603f3d011682016040523d82523d5f602084013e61239b565b606091505b50915091506123c3828260405180606001604052806027815260200161477960279139612bcf565b95945050505050565b6123d7848484611af9565b6123e384848484612c08565b6117285760405162461bcd60e51b815260040161026b906144d5565b5f90815261010560205260409020546001600160a01b0316151590565b5f61242633610f3c565b15612438575060131936013560601c90565b503390565b90565b6124575f805160206147398339815191525f611501565b15801561246c57506001600160a01b03831615155b801561248057506001600160a01b03821615155b15610aec5761249c5f8051602061473983398151915284611501565b806124b957506124b95f8051602061473983398151915283611501565b610aec5760405162461bcd60e51b815260206004820152600e60248201526d215452414e534645525f524f4c4560901b604482015260640161026b565b60605f612504836002614167565b61250f9060026140ca565b6001600160401b03811115612526576125266137ff565b6040519080825280601f01601f191660200182016040528015612550576020820181803683370190505b509050600360fc1b815f8151811061256a5761256a6140a2565b60200101906001600160f81b03191690815f1a905350600f60fb1b81600181518110612598576125986140a2565b60200101906001600160f81b03191690815f1a9053505f6125ba846002614167565b6125c59060016140ca565b90505b600181111561263c576f181899199a1a9b1b9c1cb0b131b232b360811b85600f16601081106125f9576125f96140a2565b1a60f81b82828151811061260f5761260f6140a2565b60200101906001600160f81b03191690815f1a90535060049490941c9361263581614527565b90506125c8565b50831561268b5760405162461bcd60e51b815260206004820181905260248201527f537472696e67733a20686578206c656e67746820696e73756666696369656e74604482015260640161026b565b9392505050565b81806126ca5760405162461bcd60e51b815260206004820152600760248201526621546f6b656e7360c81b604482015260640161026b565b5f82815260026020526040902054156127115760405162461bcd60e51b815260206004820152600960248201526869642065786973747360b81b604482015260640161026b565b5f5b818110156127a25761274b858583818110612730576127306140a2565b90506080020180360381019061274691906142a8565b612d10565b84848281811061275d5761275d6140a2565b5f8681526002602081815260408084208885529092019052902060809091029290920191905061278d828261453c565b5061279b90506001826140ca565b9050612713565b505f91825260026020526040909120555050565b5f818152600260205260409020600101610aec83826143db565b5f805b82518110156128a05773eeeeeeeeeeeeeeeeeeeeeeeeeeeeeeeeeeeeeeee6001600160a01b031683828151811061280c5761280c6140a2565b60200260200101515f01516001600160a01b031614801561283557506001600160a01b03841630145b1561286a5782818151811061284c5761284c6140a2565b6020026020010151606001518261286391906140ca565b915061288e565b61288e8585858481518110612881576128816140a2565b6020026020010151612fca565b6128996001826140ca565b90506127d3565b508015611728576040805160808101825273eeeeeeeeeeeeeeeeeeeeeeeeeeeeeeeeeeeeeeee81525f602082018190529181019190915260608101829052611d9e858583612fca565b6128f3838361310e565b6128ff5f848484612c08565b610aec5760405162461bcd60e51b815260040161026b906144d5565b5f8281526006602090815260408083206001600160a01b0385168085529252808320805460ff1916600117905551339285917f2f8788117e7eff1d82e926ec794901d17c78024a50270940304540a733656f0d9190a45050565b5f8281526008602052604081208054916001919061299383856140ca565b90915550505f92835260086020908152604080852083865260018101835281862080546001600160a01b039096166001600160a01b03199096168617905593855260029093019052912055565b6129ea8282611cf0565b5f8281526006602090815260408083206001600160a01b0385168085529252808320805460ff1916905551339285917ff6391f5c32d9c69d2a47ea670b442974b53935d1edc7fd64eb21e047a839171b9190a45050565b5f54610100900460ff16612a675760405162461bcd60e51b815260040161026b90614343565b6001600955565b5f54610100900460ff16611ee95760405162461bcd60e51b815260040161026b90614343565b5f54610100900460ff16612aba5760405162461bcd60e51b815260040161026b90614343565b5f5b8151811015610e55576001606d5f848481518110612adc57612adc6140a2565b6020908102919091018101516001600160a01b031682528101919091526040015f20805460ff191691151591909117905580612b1781614211565b915050612abc565b5f54610100900460ff16612b455760405162461bcd60e51b815260040161026b90614343565b610103612b5283826143db565b50610104610aec82826143db565b5f5b5f82815260026020526040902054811015612bbe575f8281526002602081815260408084208585528301909152822080546001600160a81b03191681556001808201849055910191909155612bb790826140ca565b9050612b62565b505f90815260026020526040812055565b60608315612bde57508161268b565b825115612bee5782518084602001fd5b8160405162461bcd60e51b815260040161026b919061376d565b5f612c1b846001600160a01b0316611eac565b15612d0857836001600160a01b031663150b7a02612c376119c2565b8786866040518563ffffffff1660e01b8152600401612c5994939291906145c6565b6020604051808303815f875af1925050508015612c93575060408051601f3d908101601f19168201909252612c9091810190614602565b60015b612cee573d808015612cc0576040519150601f19603f3d011682016040523d82523d5f602084013e612cc5565b606091505b5080515f03612ce65760405162461bcd60e51b815260040161026b906144d5565b805181602001fd5b6001600160e01b031916630a85bd0160e11b149050610b2a565b506001610b2a565b600181602001516002811115612d2857612d28613935565b03612dd25780516040516301ffc9a760e01b81526001600160a01b03909116906301ffc9a790612d60906380ac58cd9060040161461d565b602060405180830381865afa925050508015612d99575060408051601f3d908101601f19168201909252612d9691810190614635565b60015b612db55760405162461bcd60e51b815260040161026b90614650565b80610e555760405162461bcd60e51b815260040161026b90614650565b600281602001516002811115612dea57612dea613935565b03612e225780516040516301ffc9a760e01b81526001600160a01b03909116906301ffc9a790612d609063d9b67a269060040161461d565b5f81602001516002811115612e3957612e39613935565b03610b1e5780516001600160a01b031673eeeeeeeeeeeeeeeeeeeeeeeeeeeeeeeeeeeeeeee14610b1e5780516040516301ffc9a760e01b81526001600160a01b03909116906301ffc9a790612e96906380ac58cd9060040161461d565b602060405180830381865afa925050508015612ecf575060408051601f3d908101601f19168201909252612ecc91810190614635565b60015b612ef857612edb614674565b806308c379a003610e555750612eef61468c565b80610e55575050565b8015612f165760405162461bcd60e51b815260040161026b90614650565b81516040516301ffc9a760e01b81526001600160a01b03909116906301ffc9a790612f499063d9b67a269060040161461d565b602060405180830381865afa925050508015612f82575060408051601f3d908101601f19168201909252612f7f91810190614635565b60015b612fac57612f8e614674565b806308c379a003610aec5750612fa261468c565b80610aec57505050565b8015610aec5760405162461bcd60e51b815260040161026b90614650565b5f81602001516002811115612fe157612fe1613935565b0361300c57610aec815f015184848460600151613007610136546001600160a01b031690565b613238565b60018160200151600281111561302457613024613935565b036130915780516040808301519051632142170760e11b81526001600160a01b03909216916342842e0e9161305f9187918791600401614714565b5f604051808303815f87803b158015613076575f80fd5b505af1158015613088573d5f803e3d5ffd5b50505050505050565b6002816020015160028111156130a9576130a9613935565b03610aec57805160408083015160608401519151637921219560e11b81526001600160a01b03878116600483015286811660248301526044820192909252606481019290925260a060848301525f60a48301529091169063f242432a9060c40161305f565b6001600160a01b0382166131645760405162461bcd60e51b815260206004820181905260248201527f4552433732313a206d696e7420746f20746865207a65726f2061646472657373604482015260640161026b565b61316d816123ff565b156131b95760405162461bcd60e51b815260206004820152601c60248201527b115490cdcc8c4e881d1bdad95b88185b1c9958591e481b5a5b9d195960221b604482015260640161026b565b6131c45f8383612440565b6001600160a01b0382165f908152610106602052604081208054600192906131ed9084906140ca565b90915550505f818152610105602052604080822080546001600160a01b0319166001600160a01b03861690811790915590518392905f805160206147c0833981519152908290a45050565b8115611d9e5773eeeeeeeeeeeeeeeeeeeeeeeeeeeeeeeeeeeeeeed196001600160a01b0386160161338d57306001600160a01b038516036132d857604051632e1a7d4d60e01b8152600481018390526001600160a01b03821690632e1a7d4d906024015f604051808303815f87803b1580156132b2575f80fd5b505af11580156132c4573d5f803e3d5ffd5b505050506132d3838383613399565b611d9e565b306001600160a01b038416036133825734821461332d5760405162461bcd60e51b81526020600482015260136024820152721b5cd9cb9d985b1d5948084f48185b5bdd5b9d606a1b604482015260640161026b565b806001600160a01b031663d0e30db0836040518263ffffffff1660e01b81526004015f604051808303818588803b158015613366575f80fd5b505af1158015613378573d5f803e3d5ffd5b5050505050611d9e565b6132d3838383613399565b611d9e85858585613456565b5f836001600160a01b0316836040515f6040518083038185875af1925050503d805f81146133e2576040519150601f19603f3d011682016040523d82523d5f602084013e6133e7565b606091505b505090508061172857816001600160a01b031663d0e30db0846040518263ffffffff1660e01b81526004015f604051808303818588803b158015613429575f80fd5b505af115801561343b573d5f803e3d5ffd5b50611728935050506001600160a01b038416905085856134ae565b816001600160a01b0316836001600160a01b0316031561172857306001600160a01b03841603613499576134946001600160a01b03851683836134ae565b611728565b6117286001600160a01b038516848484613504565b610aec8363a9059cbb60e01b84846040516024016134cd929190613ad4565b60408051601f198184030181529190526020810180516001600160e01b03166001600160e01b031990931692909217909152613525565b611728846323b872dd60e01b8585856040516024016134cd93929190614714565b5f613579826040518060400160405280602081526020017f5361666545524332303a206c6f772d6c6576656c2063616c6c206661696c6564815250856001600160a01b03166135f69092919063ffffffff16565b805190915015610aec57808060200190518101906135979190614635565b610aec5760405162461bcd60e51b815260206004820152602a60248201527f5361666545524332303a204552433230206f7065726174696f6e20646964206e6044820152691bdd081cdd58d8d9595960b21b606482015260840161026b565b6060610b2a84845f858561360985611eac565b6136555760405162461bcd60e51b815260206004820152601d60248201527f416464726573733a2063616c6c20746f206e6f6e2d636f6e7472616374000000604482015260640161026b565b5f80866001600160a01b0316858760405161367091906144ba565b5f6040518083038185875af1925050503d805f81146136aa576040519150601f19603f3d011682016040523d82523d5f602084013e6136af565b606091505b50915091506136bf828286612bcf565b979650505050505050565b60408051608081019091525f808252602082019081526020015f81526020015f81525090565b6001600160e01b031981168114610b1e575f80fd5b5f60208284031215613715575f80fd5b813561268b816136f0565b5f5b8381101561373a578181015183820152602001613722565b50505f910152565b5f8151808452613759816020860160208601613720565b601f01601f19169290920160200192915050565b602081525f61268b6020830184613742565b5f6020828403121561378f575f80fd5b5035919050565b6001600160a01b0381168114610b1e575f80fd5b80356137b581613796565b919050565b5f80604083850312156137cb575f80fd5b82356137d681613796565b946020939093013593505050565b5f602082840312156137f4575f80fd5b813561268b81613796565b634e487b7160e01b5f52604160045260245ffd5b601f8201601f191681016001600160401b0381118282101715613838576138386137ff565b6040525050565b5f82601f83011261384e575f80fd5b81356001600160401b03811115613867576138676137ff565b60405161387e601f8301601f191660200182613813565b818152846020838601011115613892575f80fd5b816020850160208301375f918101602001919091529392505050565b5f805f80608085870312156138c1575f80fd5b84356138cc81613796565b935060208501356138dc81613796565b92506040850135915060608501356001600160401b038111156138fd575f80fd5b6139098782880161383f565b91505092959194509250565b5f8060408385031215613926575f80fd5b50508035926020909101359150565b634e487b7160e01b5f52602160045260245ffd5b6003811061396557634e487b7160e01b5f52602160045260245ffd5b9052565b80516001600160a01b031682526020808201519061398990840182613949565b5060408181015190830152606090810151910152565b6080810161090e8284613969565b5f805f606084860312156139bf575f80fd5b83356139ca81613796565b925060208401356139da81613796565b929592945050506040919091013590565b5f8083601f8401126139fb575f80fd5b5081356001600160401b03811115613a11575f80fd5b602083019150836020828501011115613a28575f80fd5b9250929050565b5f805f805f60608688031215613a43575f80fd5b85356001600160401b0380821115613a59575f80fd5b818801915088601f830112613a6c575f80fd5b813581811115613a7a575f80fd5b8960208260071b8501011115613a8e575f80fd5b602092830197509550908701359080821115613aa8575f80fd5b50613ab5888289016139eb565b9094509250613ac89050604087016137aa565b90509295509295909350565b6001600160a01b03929092168252602082015260400190565b5f8060408385031215613afe575f80fd5b823591506020830135613b1081613796565b809150509250929050565b5f6001600160401b03821115613b3357613b336137ff565b5060051b60200190565b5f82601f830112613b4c575f80fd5b81356020613b5982613b1b565b604051613b668282613813565b83815260059390931b8501820192828101915086841115613b85575f80fd5b8286015b84811015613ba9578035613b9c81613796565b8352918301918301613b89565b509695505050505050565b5f805f805f805f60e0888a031215613bca575f80fd5b87356001600160401b0380821115613be0575f80fd5b613bec8b838c0161383f565b985060208a0135915080821115613c01575f80fd5b613c0d8b838c0161383f565b975060408a0135915080821115613c22575f80fd5b613c2e8b838c0161383f565b965060608a0135915080821115613c43575f80fd5b50613c508a828b01613b3d565b945050613c5f608089016137aa565b925060a08801359150613c7460c089016137aa565b905092959891949750929550565b5f60208284031215613c92575f80fd5b81356001600160401b03811115613ca7575f80fd5b610b2a8482850161383f565b5f805f60608486031215613cc5575f80fd5b8335925060208401356139da81613796565b8015158114610b1e575f80fd5b5f8060408385031215613cf5575f80fd5b8235613d0081613796565b91506020830135613b1081613cd7565b5f8060208385031215613d21575f80fd5b82356001600160401b0380821115613d37575f80fd5b818501915085601f830112613d4a575f80fd5b813581811115613d58575f80fd5b8660208260051b8501011115613d6c575f80fd5b60209290920196919550909350505050565b5f602080830181845280855180835260408601915060408160051b87010192508387015f5b82811015613dd157603f19888603018452613dbf858351613742565b94509285019290850190600101613da3565b5092979650505050505050565b5f82601f830112613ded575f80fd5b81356020613dfa82613b1b565b604051613e078282613813565b83815260059390931b8501820192828101915086841115613e26575f80fd5b8286015b84811015613ba95780358352918301918301613e2a565b5f805f805f60a08688031215613e55575f80fd5b8535613e6081613796565b94506020860135613e7081613796565b935060408601356001600160401b0380821115613e8b575f80fd5b613e9789838a01613dde565b94506060880135915080821115613eac575f80fd5b613eb889838a01613dde565b93506080880135915080821115613ecd575f80fd5b50613eda8882890161383f565b9150509295509295909350565b602080825282518282018190525f9190848201906040850190845b81811015613f2857613f15838551613969565b9284019260809290920191600101613f02565b50909695505050505050565b5f8060408385031215613f45575f80fd5b8235613f5081613796565b91506020830135613b1081613796565b5f805f805f60a08688031215613f74575f80fd5b8535613f7f81613796565b94506020860135613f8f81613796565b9350604086013592506060860135915060808601356001600160401b03811115613fb7575f80fd5b613eda8882890161383f565b600181811c90821680613fd757607f821691505b6020821081036117b957634e487b7160e01b5f52602260045260245ffd5b6020808252600e908201526d139bdd08185d5d1a1bdc9a5e995960921b604082015260600190565b6020808252602e908201527f4552433732313a2063616c6c6572206973206e6f7420746f6b656e206f776e6560408201526d1c881b9bdc88185c1c1c9bdd995960921b606082015260800190565b6020808252601f908201527f5265656e7472616e637947756172643a207265656e7472616e742063616c6c00604082015260600190565b634e487b7160e01b5f52603260045260245ffd5b634e487b7160e01b5f52601160045260245ffd5b8082018082111561090e5761090e6140b6565b60038110610b1e575f80fd5b60208082528181018390525f90604080840186845b8781101561415a57813561411181613796565b6001600160a01b0316835281850135614129816140dd565b61413586850182613949565b50818401358385015260608083013590840152608092830192909101906001016140fe565b5090979650505050505050565b808202811582820484141761090e5761090e6140b6565b5f8261419857634e487b7160e01b5f52601260045260245ffd5b500490565b602080825260189082015277115490cdcc8c4e881a5b9d985b1a59081d1bdad95b88125160421b604082015260600190565b5f808335601e198436030181126141e4575f80fd5b8301803591506001600160401b038211156141fd575f80fd5b602001915036819003821315613a28575f80fd5b5f60018201614222576142226140b6565b5060010190565b8181038181111561090e5761090e6140b6565b7402832b936b4b9b9b4b7b7399d1030b1b1b7bab73a1605d1b81525f835161426b816015850160208801613720565b7001034b99036b4b9b9b4b733903937b6329607d1b601591840191820152835161429c816026840160208801613720565b01602601949350505050565b5f608082840312156142b8575f80fd5b604051608081016001600160401b03811182821017156142da576142da6137ff565b60405282356142e881613796565b815260208301356142f8816140dd565b6020820152604083810135908201526060928301359281019290925250919050565b6020808252600f908201526e45786365656473206d61782062707360881b604082015260600190565b6020808252602b908201527f496e697469616c697a61626c653a20636f6e7472616374206973206e6f74206960408201526a6e697469616c697a696e6760a81b606082015260800190565b601f821115610aec575f81815260208120601f850160051c810160208610156143b45750805b601f850160051c820191505b818110156143d3578281556001016143c0565b505050505050565b81516001600160401b038111156143f4576143f46137ff565b614408816144028454613fc3565b8461438e565b602080601f83116001811461443b575f84156144245750858301515b5f19600386901b1c1916600185901b1785556143d3565b5f85815260208120601f198616915b828110156144695788860151825594840194600190910190840161444a565b508582101561448657878501515f19600388901b60f8161c191681555b5050505050600190811b01905550565b604081525f6144a86040830185613742565b82810360208401526123c38185613742565b5f82516144cb818460208701613720565b9190910192915050565b60208082526032908201527f4552433732313a207472616e7366657220746f206e6f6e20455243373231526560408201527131b2b4bb32b91034b6b83632b6b2b73a32b960711b606082015260800190565b5f81614535576145356140b6565b505f190190565b813561454781613796565b81546001600160a01b031981166001600160a01b039290921691821783556020840135614573816140dd565b6003811061458f57634e487b7160e01b5f52602160045260245ffd5b6001600160a81b03199190911690911760a09190911b60ff60a01b1617815560408201356001820155606090910135600290910155565b6001600160a01b03858116825284166020820152604081018390526080606082018190525f906145f890830184613742565b9695505050505050565b5f60208284031215614612575f80fd5b815161268b816136f0565b60e09190911b6001600160e01b031916815260200190565b5f60208284031215614645575f80fd5b815161268b81613cd7565b6020808252600a908201526921546f6b656e5479706560b01b604082015260600190565b5f60033d111561243d5760045f803e505f5160e01c90565b5f60443d10156146995790565b6040516003193d81016004833e81513d6001600160401b0380831160248401831017156146c857505050505090565b82850191508151818111156146e05750505050505090565b843d87010160208285010111156146fa5750505050505090565b61470960208286010187613813565b509095945050505050565b6001600160a01b03938416815291909216602082015260408101919091526060019056fe8502233096d909befbda0999bb8ea2f3a6be3c138b9fbf003752a4c8bce86f6c86d5cf0a6bdc8d859ba3bdc97043337c82a0e609035f378e419298b6a3e00ae6416464726573733a206c6f772d6c6576656c2064656c65676174652063616c6c206661696c65649f2df0fed2c77648de5860a4cc508cd0818c85b8b8a1ab4ceeef8d981c8956a6ddf252ad1be2c89b69c2b068fc378daa952ba7f163c4a11628f55a4df523b3efba050530e9007d7ef162f72906a6658584aefb35f0e9fefd3c413cec269f0543a2646970667358221220b2eb402ee489e9531c0a1054a543fb85e72c788d541da1ef83d78c65cefeabc164736f6c63430008150033",
  "immutableReferences": {},
  "source": "// SPDX-License-Identifier: Apache-2.0\npragma solidity ^0.8.11;\n\n//  ==========  External imports    ==========\nimport \"@openzeppelin/contracts-upgradeable/token/ERC721/ERC721Upgradeable.sol\";\n\nimport \"@openzeppelin/contracts-upgradeable/utils/MulticallUpgradeable.sol\";\nimport \"@openzeppelin/contracts-upgradeable/security/ReentrancyGuardUpgradeable.sol\";\nimport \"@openzeppelin/contracts-upgradeable/interfaces/IERC2981Upgradeable.sol\";\n\n//  ==========  Internal imports    ==========\n\nimport \"@thirdweb-dev/contracts/interfaces/IMultiwrap.sol\";\nimport \"@thirdweb-dev/contracts/openzeppelin-presets/metatx/ERC2771ContextUpgradeable.sol\";\n\n//  ==========  Features    ==========\n\nimport \"@thirdweb-dev/contracts/extension/ContractMetadata.sol\";\nimport \"@thirdweb-dev/contracts/extension/Royalty.sol\";\nimport \"@thirdweb-dev/contracts/extension/Ownable.sol\";\nimport \"@thirdweb-dev/contracts/extension/PermissionsEnumerable.sol\";\nimport { TokenStore, ERC1155Receiver, IERC1155Receiver } from \"./TokenStore.sol\";\n\ncontract SpaceWarsMultiwrap is\n    Initializable,\n    ContractMetadata,\n    Royalty,\n    Ownable,\n    PermissionsEnumerable,\n    TokenStore,\n    ReentrancyGuardUpgradeable,\n    ERC2771ContextUpgradeable,\n    MulticallUpgradeable,\n    ERC721Upgradeable,\n    IMultiwrap\n{\n    /*///////////////////////////////////////////////////////////////\n                            State variables\n    //////////////////////////////////////////////////////////////*/\n\n    bytes32 private constant MODULE_TYPE = bytes32(\"SpaceWarsMultiwrap\");\n    uint256 private constant VERSION = 1;\n\n    /// @dev Only transfers to or from TRANSFER_ROLE holders are valid, when transfers are restricted.\n    bytes32 private constant TRANSFER_ROLE = keccak256(\"TRANSFER_ROLE\");\n    /// @dev Only MINTER_ROLE holders can wrap tokens, when wrapping is restricted.\n    bytes32 private constant MINTER_ROLE = keccak256(\"MINTER_ROLE\");\n    /// @dev Only UNWRAP_ROLE holders can unwrap tokens, when unwrapping is restricted.\n    bytes32 private constant UNWRAP_ROLE = keccak256(\"UNWRAP_ROLE\");\n    /// @dev Only assets with ASSET_ROLE can be wrapped, when wrapping is restricted to particular assets.\n    bytes32 private constant ASSET_ROLE = keccak256(\"ASSET_ROLE\");\n\n    /// @dev The next token ID of the NFT to mint.\n    uint256 public nextTokenIdToMint;\n\n    address private nativeTokenWrapperAddress;\n\n    /*///////////////////////////////////////////////////////////////\n                    Constructor + initializer logic\n    //////////////////////////////////////////////////////////////*/\n\n    /// @custom:oz-upgrades-unsafe-allow constructor\n    constructor() {\n        _disableInitializers();\n    }\n\n    /// @dev Initiliazes the contract, like a constructor.\n    function initialize(        \n        string memory _name,\n        string memory _symbol,\n        string memory _contractURI,\n        address[] memory _trustedForwarders,\n        address _royaltyRecipient,\n        uint256 _royaltyBps,\n        address _nativeTokenWrapperAddress\n    ) external initializer {\n        // Initialize inherited contracts, most base-like -> most derived.\n        __ReentrancyGuard_init();\n        __ERC2771Context_init(_trustedForwarders);\n        __ERC721_init(_name, _symbol);\n\n        // Initialize this contract's state.\n        _setupDefaultRoyaltyInfo(_royaltyRecipient, _royaltyBps);\n        _setupOwner(msg.sender);\n        _setupContractURI(_contractURI);\n\n        _setupRole(DEFAULT_ADMIN_ROLE, msg.sender);\n        _setupRole(MINTER_ROLE, msg.sender);\n        _setupRole(TRANSFER_ROLE, msg.sender);\n\n        // note: see `_beforeTokenTransfer` for TRANSFER_ROLE behaviour.\n        _setupRole(TRANSFER_ROLE, address(0));\n\n        // note: see `onlyRoleWithSwitch` for UNWRAP_ROLE behaviour.\n        _setupRole(UNWRAP_ROLE, address(0));\n\n        // note: see `onlyRoleWithSwitch` for UNWRAP_ROLE behaviour.\n        _setupRole(ASSET_ROLE, address(0));\n        \n        nativeTokenWrapperAddress = _nativeTokenWrapperAddress;\n    }\n\n    function _nativeTokenWrapper()  internal view virtual override returns (address) {\n        return nativeTokenWrapperAddress;\n    }\n\n\n    /*///////////////////////////////////////////////////////////////\n                            Modifiers\n    //////////////////////////////////////////////////////////////*/\n\n    modifier onlyRoleWithSwitch(bytes32 role) {\n        _checkRoleWithSwitch(role, _msgSender());\n        _;\n    }\n\n    /*///////////////////////////////////////////////////////////////\n                        Generic contract logic\n    //////////////////////////////////////////////////////////////*/\n\n    /// @dev Returns the type of the contract.\n    function contractType() external pure returns (bytes32) {\n        return MODULE_TYPE;\n    }\n\n    /// @dev Returns the version of the contract.\n    function contractVersion() external pure returns (uint8) {\n        return uint8(VERSION);\n    }\n\n    /// @dev Lets the contract receive ether to unwrap native tokens.\n    receive() external payable {\n        require(msg.sender == nativeTokenWrapperAddress, \"caller not native token wrapper.\");\n    }\n\n    /*///////////////////////////////////////////////////////////////\n                        ERC 165 / 721 / 2981 logic\n    //////////////////////////////////////////////////////////////*/\n\n    /// @dev Returns the URI for a given tokenId.\n    function tokenURI(uint256 _tokenId) public view override returns (string memory) {\n        return getUriOfBundle(_tokenId);\n    }\n\n    /// @dev See ERC 165\n    function supportsInterface(bytes4 interfaceId)\n        public\n        view\n        virtual\n        override(ERC1155Receiver, ERC721Upgradeable, IERC165)\n        returns (bool)\n    {\n        return\n            super.supportsInterface(interfaceId) ||\n            interfaceId == type(IERC721Upgradeable).interfaceId ||\n            interfaceId == type(IERC1155Receiver).interfaceId ||\n            interfaceId == type(IERC2981Upgradeable).interfaceId;\n    }\n\n    /*///////////////////////////////////////////////////////////////\n                    Wrapping / Unwrapping logic\n    //////////////////////////////////////////////////////////////*/\n\n    /// @dev Wrap multiple ERC1155, ERC721, ERC20 tokens into a single wrapped NFT.\n    function wrap(\n        Token[] calldata _tokensToWrap,\n        string calldata _uriForWrappedToken,\n        address _recipient\n    ) external payable nonReentrant onlyRoleWithSwitch(MINTER_ROLE) returns (uint256 tokenId) {\n        if (!hasRole(ASSET_ROLE, address(0))) {\n            for (uint256 i = 0; i < _tokensToWrap.length; i += 1) {\n                _checkRole(ASSET_ROLE, _tokensToWrap[i].assetContract);\n            }\n        }\n\n        tokenId = nextTokenIdToMint;\n        nextTokenIdToMint += 1;\n\n        _storeTokens(_msgSender(), _tokensToWrap, _uriForWrappedToken, tokenId);\n\n        _safeMint(_recipient, tokenId);\n\n        emit TokensWrapped(_msgSender(), _recipient, tokenId, _tokensToWrap);\n    }\n\n    /// @dev Unwrap a wrapped NFT to retrieve underlying ERC1155, ERC721, ERC20 tokens.\n    function unwrap(uint256 _tokenId, address _recipient) external nonReentrant onlyRoleWithSwitch(UNWRAP_ROLE) {\n        require(_tokenId < nextTokenIdToMint, \"wrapped NFT DNE.\");\n        require(_isApprovedOrOwner(_msgSender(), _tokenId), \"caller not approved for unwrapping.\");\n\n        _burn(_tokenId);\n        _releaseTokens(_recipient, _tokenId);\n\n        emit TokensUnwrapped(_msgSender(), _recipient, _tokenId);\n    }\n\n    /*///////////////////////////////////////////////////////////////\n                        Getter functions\n    //////////////////////////////////////////////////////////////*/\n\n    /// @dev Returns the underlying contents of a wrapped NFT.\n    function getWrappedContents(uint256 _tokenId) external view returns (Token[] memory contents) {\n        uint256 total = getTokenCountOfBundle(_tokenId);\n        contents = new Token[](total);\n\n        for (uint256 i = 0; i < total; i += 1) {\n            contents[i] = getTokenOfBundle(_tokenId, i);\n        }\n    }\n\n    /*///////////////////////////////////////////////////////////////\n                        Internal functions\n    //////////////////////////////////////////////////////////////*/\n\n    /// @dev Returns whether owner can be set in the given execution context.\n    function _canSetOwner() internal view override returns (bool) {\n        return hasRole(DEFAULT_ADMIN_ROLE, _msgSender());\n    }\n\n    /// @dev Returns whether royalty info can be set in the given execution context.\n    function _canSetRoyaltyInfo() internal view override returns (bool) {\n        return hasRole(DEFAULT_ADMIN_ROLE, _msgSender());\n    }\n\n    /// @dev Returns whether contract metadata can be set in the given execution context.\n    function _canSetContractURI() internal view override returns (bool) {\n        return hasRole(DEFAULT_ADMIN_ROLE, _msgSender());\n    }\n\n    /*///////////////////////////////////////////////////////////////\n                        Miscellaneous\n    //////////////////////////////////////////////////////////////*/\n\n    /**\n     * @dev See {ERC721-_beforeTokenTransfer}.\n     */\n    function _beforeTokenTransfer(\n        address from,\n        address to,\n        uint256 tokenId\n    ) internal virtual override {\n        super._beforeTokenTransfer(from, to, tokenId);\n\n        // if transfer is restricted on the contract, we still want to allow burning and minting\n        if (!hasRole(TRANSFER_ROLE, address(0)) && from != address(0) && to != address(0)) {\n            require(hasRole(TRANSFER_ROLE, from) || hasRole(TRANSFER_ROLE, to), \"!TRANSFER_ROLE\");\n        }\n    }\n\n    function _msgSender()\n        internal\n        view\n        virtual\n        override(ContextUpgradeable, ERC2771ContextUpgradeable)\n        returns (address sender)\n    {\n        return ERC2771ContextUpgradeable._msgSender();\n    }\n\n    function _msgData()\n        internal\n        view\n        virtual\n        override(ContextUpgradeable, ERC2771ContextUpgradeable)\n        returns (bytes calldata)\n    {\n        return ERC2771ContextUpgradeable._msgData();\n    }\n}",
  "sourcePath": "c:\\Projects\\AyazDuru.Blockchain.Samples.MarketplaceNFTAndToken\\source\\contracts\\SpaceWarsMultiwrap.sol",
  "compiler": {
    "name": "solc",
    "version": "0.8.21+commit.d9974bed.Emscripten.clang"
  },
  "schemaVersion": "3.4.15",
  "updatedAt": "2023-08-15T23:19:36.726Z",
  "devdoc": {
    "events": {
      "Approval(address,address,uint256)": {
        "details": "Emitted when `owner` enables `approved` to manage the `tokenId` token."
      },
      "ApprovalForAll(address,address,bool)": {
        "details": "Emitted when `owner` enables or disables (`approved`) `operator` to manage all of its assets."
      },
      "ContractURIUpdated(string,string)": {
        "details": "Emitted when the contract URI is updated."
      },
      "DefaultRoyalty(address,uint256)": {
        "details": "Emitted when royalty info is updated."
      },
      "Initialized(uint8)": {
        "details": "Triggered when the contract has been initialized or reinitialized."
      },
      "OwnerUpdated(address,address)": {
        "details": "Emitted when a new Owner is set."
      },
      "RoleAdminChanged(bytes32,bytes32,bytes32)": {
        "details": "Emitted when `newAdminRole` is set as ``role``'s admin role, replacing `previousAdminRole` `DEFAULT_ADMIN_ROLE` is the starting admin for all roles, despite {RoleAdminChanged} not being emitted signaling this. _Available since v3.1._"
      },
      "RoleGranted(bytes32,address,address)": {
        "details": "Emitted when `account` is granted `role`. `sender` is the account that originated the contract call, an admin role bearer except when using {AccessControl-_setupRole}."
      },
      "RoleRevoked(bytes32,address,address)": {
        "details": "Emitted when `account` is revoked `role`. `sender` is the account that originated the contract call:   - if using `revokeRole`, it is the admin role bearer   - if using `renounceRole`, it is the role bearer (i.e. `account`)"
      },
      "RoyaltyForToken(uint256,address,uint256)": {
        "details": "Emitted when royalty recipient for tokenId is set"
      },
      "TokensUnwrapped(address,address,uint256)": {
        "details": "Emitted when tokens are unwrapped."
      },
      "TokensWrapped(address,address,uint256,(address,uint8,uint256,uint256)[])": {
        "details": "Emitted when tokens are wrapped."
      },
      "Transfer(address,address,uint256)": {
        "details": "Emitted when `tokenId` token is transferred from `from` to `to`."
      }
    },
    "kind": "dev",
    "methods": {
      "approve(address,uint256)": {
        "details": "See {IERC721-approve}."
      },
      "balanceOf(address)": {
        "details": "See {IERC721-balanceOf}."
      },
      "constructor": {
        "custom:oz-upgrades-unsafe-allow": "constructor"
      },
      "contractType()": {
        "details": "Returns the type of the contract."
      },
      "contractVersion()": {
        "details": "Returns the version of the contract."
      },
      "getApproved(uint256)": {
        "details": "See {IERC721-getApproved}."
      },
      "getRoleAdmin(bytes32)": {
        "details": "See {grantRole} and {revokeRole}.                  To change a role's admin, use {_setRoleAdmin}.",
        "params": {
          "role": "keccak256 hash of the role. e.g. keccak256(\"TRANSFER_ROLE\")"
        }
      },
      "getRoleMember(bytes32,uint256)": {
        "details": "Returns `member` who has `role`, at `index` of role-members list.                  See struct {RoleMembers}, and mapping {roleMembers}",
        "params": {
          "index": "Index in list of current members for the role.",
          "role": "keccak256 hash of the role. e.g. keccak256(\"TRANSFER_ROLE\")"
        },
        "returns": {
          "member": " Address of account that has `role`"
        }
      },
      "getRoleMemberCount(bytes32)": {
        "details": "Returns `count` of accounts that have `role`.                  See struct {RoleMembers}, and mapping {roleMembers}",
        "params": {
          "role": "keccak256 hash of the role. e.g. keccak256(\"TRANSFER_ROLE\")"
        },
        "returns": {
          "count": "  Total number of accounts that have `role`"
        }
      },
      "getRoyaltyInfoForToken(uint256)": {
        "details": "Returns royalty recipient and bps for `_tokenId`.",
        "params": {
          "_tokenId": "The tokenID of the NFT for which to query royalty info."
        }
      },
      "getTokenCountOfBundle(uint256)": {
        "details": "Returns the total number of assets in a particular bundle."
      },
      "getTokenOfBundle(uint256,uint256)": {
        "details": "Returns an asset contained in a particular bundle, at a particular index."
      },
      "getUriOfBundle(uint256)": {
        "details": "Returns the uri of a particular bundle."
      },
      "getWrappedContents(uint256)": {
        "details": "Returns the underlying contents of a wrapped NFT."
      },
      "grantRole(bytes32,address)": {
        "details": "Caller must have admin role for the `role`.                  Emits {RoleGranted Event}.",
        "params": {
          "account": "Address of the account to which the role is being granted.",
          "role": "keccak256 hash of the role. e.g. keccak256(\"TRANSFER_ROLE\")"
        }
      },
      "hasRole(bytes32,address)": {
        "details": "Returns `true` if `account` has been granted `role`.",
        "params": {
          "account": "Address of the account for which the role is being checked.",
          "role": "keccak256 hash of the role. e.g. keccak256(\"TRANSFER_ROLE\")"
        }
      },
      "hasRoleWithSwitch(bytes32,address)": {
        "details": "Returns `true` if `account` has been granted `role`.                  Role restrictions can be swtiched on and off:                      - If address(0) has ROLE, then the ROLE restrictions                        don't apply.                      - If address(0) does not have ROLE, then the ROLE                        restrictions will apply.",
        "params": {
          "account": "Address of the account for which the role is being checked.",
          "role": "keccak256 hash of the role. e.g. keccak256(\"TRANSFER_ROLE\")"
        }
      },
      "initialize(string,string,string,address[],address,uint256,address)": {
        "details": "Initiliazes the contract, like a constructor."
      },
      "isApprovedForAll(address,address)": {
        "details": "See {IERC721-isApprovedForAll}."
      },
      "multicall(bytes[])": {
        "details": "Receives and executes a batch of function calls on this contract."
      },
      "name()": {
        "details": "See {IERC721Metadata-name}."
      },
      "onERC721Received(address,address,uint256,bytes)": {
        "details": "See {IERC721Receiver-onERC721Received}. Always returns `IERC721Receiver.onERC721Received.selector`."
      },
      "ownerOf(uint256)": {
        "details": "See {IERC721-ownerOf}."
      },
      "renounceRole(bytes32,address)": {
        "details": "Caller must have the `role`, with caller being the same as `account`.                  Emits {RoleRevoked Event}.",
        "params": {
          "account": "Address of the account from which the role is being revoked.",
          "role": "keccak256 hash of the role. e.g. keccak256(\"TRANSFER_ROLE\")"
        }
      },
      "revokeRole(bytes32,address)": {
        "details": "Caller must have admin role for the `role`.                  Emits {RoleRevoked Event}.",
        "params": {
          "account": "Address of the account from which the role is being revoked.",
          "role": "keccak256 hash of the role. e.g. keccak256(\"TRANSFER_ROLE\")"
        }
      },
      "royaltyInfo(uint256,uint256)": {
        "details": "Returns royalty amount and recipient for `tokenId` and `salePrice`.",
        "params": {
          "salePrice": "Sale price of the token.",
          "tokenId": "The tokenID of the NFT for which to query royalty info."
        },
        "returns": {
          "receiver": "       Address of royalty recipient account.",
          "royaltyAmount": "  Royalty amount calculated at current royaltyBps value."
        }
      },
      "safeTransferFrom(address,address,uint256)": {
        "details": "See {IERC721-safeTransferFrom}."
      },
      "safeTransferFrom(address,address,uint256,bytes)": {
        "details": "See {IERC721-safeTransferFrom}."
      },
      "setApprovalForAll(address,bool)": {
        "details": "See {IERC721-setApprovalForAll}."
      },
      "setContractURI(string)": {
        "details": "Caller should be authorized to setup contractURI, e.g. contract admin.                  See {_canSetContractURI}.                  Emits {ContractURIUpdated Event}.",
        "params": {
          "_uri": "keccak256 hash of the role. e.g. keccak256(\"TRANSFER_ROLE\")"
        }
      },
      "setDefaultRoyaltyInfo(address,uint256)": {
        "details": "Caller should be authorized to set royalty info.                  See {_canSetRoyaltyInfo}.                  Emits {DefaultRoyalty Event}; See {_setupDefaultRoyaltyInfo}.",
        "params": {
          "_royaltyBps": "Updated royalty bps.",
          "_royaltyRecipient": "Address to be set as default royalty recipient."
        }
      },
      "setOwner(address)": {
        "params": {
          "_newOwner": "The address to set as the new owner of the contract."
        }
      },
      "setRoyaltyInfoForToken(uint256,address,uint256)": {
        "details": "Sets royalty info for `_tokenId`. Caller should be authorized to set royalty info.                  See {_canSetRoyaltyInfo}.                  Emits {RoyaltyForToken Event}; See {_setupRoyaltyInfoForToken}.",
        "params": {
          "_bps": "Updated royalty bps for the token Id.",
          "_recipient": "Address to be set as royalty recipient for given token Id."
        }
      },
      "supportsInterface(bytes4)": {
        "details": "See ERC 165"
      },
      "symbol()": {
        "details": "See {IERC721Metadata-symbol}."
      },
      "tokenURI(uint256)": {
        "details": "Returns the URI for a given tokenId."
      },
      "transferFrom(address,address,uint256)": {
        "details": "See {IERC721-transferFrom}."
      },
      "unwrap(uint256,address)": {
        "details": "Unwrap a wrapped NFT to retrieve underlying ERC1155, ERC721, ERC20 tokens."
      },
      "wrap((address,uint8,uint256,uint256)[],string,address)": {
        "details": "Wrap multiple ERC1155, ERC721, ERC20 tokens into a single wrapped NFT."
      }
    },
    "stateVariables": {
      "ASSET_ROLE": {
        "details": "Only assets with ASSET_ROLE can be wrapped, when wrapping is restricted to particular assets."
      },
      "MINTER_ROLE": {
        "details": "Only MINTER_ROLE holders can wrap tokens, when wrapping is restricted."
      },
      "TRANSFER_ROLE": {
        "details": "Only transfers to or from TRANSFER_ROLE holders are valid, when transfers are restricted."
      },
      "UNWRAP_ROLE": {
        "details": "Only UNWRAP_ROLE holders can unwrap tokens, when unwrapping is restricted."
      },
      "nextTokenIdToMint": {
        "details": "The next token ID of the NFT to mint."
      }
    },
    "version": 1
  },
  "userdoc": {
    "kind": "user",
    "methods": {
      "contractURI()": {
        "notice": "Returns the contract metadata URI."
      },
      "getDefaultRoyaltyInfo()": {
        "notice": "Returns the defualt royalty recipient and BPS for this contract's NFTs."
      },
      "getRoleAdmin(bytes32)": {
        "notice": "Returns the admin role that controls the specified role."
      },
      "getRoleMember(bytes32,uint256)": {
        "notice": "Returns the role-member from a list of members for a role,                  at a given index."
      },
      "getRoleMemberCount(bytes32)": {
        "notice": "Returns total number of accounts that have a role."
      },
      "getRoyaltyInfoForToken(uint256)": {
        "notice": "View royalty info for a given token."
      },
      "grantRole(bytes32,address)": {
        "notice": "Grants a role to an account, if not previously granted."
      },
      "hasRole(bytes32,address)": {
        "notice": "Checks whether an account has a particular role."
      },
      "hasRoleWithSwitch(bytes32,address)": {
        "notice": "Checks whether an account has a particular role;                  role restrictions can be swtiched on and off."
      },
      "owner()": {
        "notice": "Returns the owner of the contract."
      },
      "renounceRole(bytes32,address)": {
        "notice": "Revokes role from the account."
      },
      "revokeRole(bytes32,address)": {
        "notice": "Revokes role from an account."
      },
      "royaltyInfo(uint256,uint256)": {
        "notice": "View royalty info for a given token and sale price."
      },
      "setContractURI(string)": {
        "notice": "Lets a contract admin set the URI for contract-level metadata."
      },
      "setDefaultRoyaltyInfo(address,uint256)": {
        "notice": "Updates default royalty recipient and bps."
      },
      "setOwner(address)": {
        "notice": "Lets an authorized wallet set a new owner for the contract."
      },
      "setRoyaltyInfoForToken(uint256,address,uint256)": {
        "notice": "Updates default royalty recipient and bps for a particular token."
      }
    },
    "version": 1
  }
}