{
  "contractName": "SpaceWarsToken",
  "abi": [
    {
      "inputs": [],
      "stateMutability": "nonpayable",
      "type": "constructor"
    },
    {
      "anonymous": false,
      "inputs": [
        {
          "indexed": true,
          "internalType": "address",
          "name": "owner",
          "type": "address"
        },
        {
          "indexed": true,
          "internalType": "address",
          "name": "spender",
          "type": "address"
        },
        {
          "indexed": false,
          "internalType": "uint256",
          "name": "value",
          "type": "uint256"
        }
      ],
      "name": "Approval",
      "type": "event"
    },
    {
      "anonymous": false,
      "inputs": [
        {
          "indexed": true,
          "internalType": "address",
          "name": "delegator",
          "type": "address"
        },
        {
          "indexed": true,
          "internalType": "address",
          "name": "fromDelegate",
          "type": "address"
        },
        {
          "indexed": true,
          "internalType": "address",
          "name": "toDelegate",
          "type": "address"
        }
      ],
      "name": "DelegateChanged",
      "type": "event"
    },
    {
      "anonymous": false,
      "inputs": [
        {
          "indexed": true,
          "internalType": "address",
          "name": "delegate",
          "type": "address"
        },
        {
          "indexed": false,
          "internalType": "uint256",
          "name": "previousBalance",
          "type": "uint256"
        },
        {
          "indexed": false,
          "internalType": "uint256",
          "name": "newBalance",
          "type": "uint256"
        }
      ],
      "name": "DelegateVotesChanged",
      "type": "event"
    },
    {
      "anonymous": false,
      "inputs": [
        {
          "indexed": false,
          "internalType": "address",
          "name": "platformFeeRecipient",
          "type": "address"
        },
        {
          "indexed": false,
          "internalType": "uint256",
          "name": "flatFee",
          "type": "uint256"
        }
      ],
      "name": "FlatPlatformFeeUpdated",
      "type": "event"
    },
    {
      "anonymous": false,
      "inputs": [
        {
          "indexed": false,
          "internalType": "uint8",
          "name": "version",
          "type": "uint8"
        }
      ],
      "name": "Initialized",
      "type": "event"
    },
    {
      "anonymous": false,
      "inputs": [
        {
          "indexed": true,
          "internalType": "address",
          "name": "platformFeeRecipient",
          "type": "address"
        },
        {
          "indexed": false,
          "internalType": "uint256",
          "name": "platformFeeBps",
          "type": "uint256"
        }
      ],
      "name": "PlatformFeeInfoUpdated",
      "type": "event"
    },
    {
      "anonymous": false,
      "inputs": [
        {
          "indexed": false,
          "internalType": "enum IPlatformFee.PlatformFeeType",
          "name": "feeType",
          "type": "uint8"
        }
      ],
      "name": "PlatformFeeTypeUpdated",
      "type": "event"
    },
    {
      "anonymous": false,
      "inputs": [
        {
          "indexed": true,
          "internalType": "address",
          "name": "recipient",
          "type": "address"
        }
      ],
      "name": "PrimarySaleRecipientUpdated",
      "type": "event"
    },
    {
      "anonymous": false,
      "inputs": [
        {
          "indexed": true,
          "internalType": "bytes32",
          "name": "role",
          "type": "bytes32"
        },
        {
          "indexed": true,
          "internalType": "bytes32",
          "name": "previousAdminRole",
          "type": "bytes32"
        },
        {
          "indexed": true,
          "internalType": "bytes32",
          "name": "newAdminRole",
          "type": "bytes32"
        }
      ],
      "name": "RoleAdminChanged",
      "type": "event"
    },
    {
      "anonymous": false,
      "inputs": [
        {
          "indexed": true,
          "internalType": "bytes32",
          "name": "role",
          "type": "bytes32"
        },
        {
          "indexed": true,
          "internalType": "address",
          "name": "account",
          "type": "address"
        },
        {
          "indexed": true,
          "internalType": "address",
          "name": "sender",
          "type": "address"
        }
      ],
      "name": "RoleGranted",
      "type": "event"
    },
    {
      "anonymous": false,
      "inputs": [
        {
          "indexed": true,
          "internalType": "bytes32",
          "name": "role",
          "type": "bytes32"
        },
        {
          "indexed": true,
          "internalType": "address",
          "name": "account",
          "type": "address"
        },
        {
          "indexed": true,
          "internalType": "address",
          "name": "sender",
          "type": "address"
        }
      ],
      "name": "RoleRevoked",
      "type": "event"
    },
    {
      "anonymous": false,
      "inputs": [
        {
          "indexed": true,
          "internalType": "address",
          "name": "mintedTo",
          "type": "address"
        },
        {
          "indexed": false,
          "internalType": "uint256",
          "name": "quantityMinted",
          "type": "uint256"
        }
      ],
      "name": "TokensMinted",
      "type": "event"
    },
    {
      "anonymous": false,
      "inputs": [
        {
          "indexed": true,
          "internalType": "address",
          "name": "signer",
          "type": "address"
        },
        {
          "indexed": true,
          "internalType": "address",
          "name": "mintedTo",
          "type": "address"
        },
        {
          "components": [
            {
              "internalType": "address",
              "name": "to",
              "type": "address"
            },
            {
              "internalType": "address",
              "name": "primarySaleRecipient",
              "type": "address"
            },
            {
              "internalType": "uint256",
              "name": "quantity",
              "type": "uint256"
            },
            {
              "internalType": "uint256",
              "name": "price",
              "type": "uint256"
            },
            {
              "internalType": "address",
              "name": "currency",
              "type": "address"
            },
            {
              "internalType": "uint128",
              "name": "validityStartTimestamp",
              "type": "uint128"
            },
            {
              "internalType": "uint128",
              "name": "validityEndTimestamp",
              "type": "uint128"
            },
            {
              "internalType": "bytes32",
              "name": "uid",
              "type": "bytes32"
            }
          ],
          "indexed": false,
          "internalType": "struct ITokenERC20.MintRequest",
          "name": "mintRequest",
          "type": "tuple"
        }
      ],
      "name": "TokensMintedWithSignature",
      "type": "event"
    },
    {
      "anonymous": false,
      "inputs": [
        {
          "indexed": true,
          "internalType": "address",
          "name": "from",
          "type": "address"
        },
        {
          "indexed": true,
          "internalType": "address",
          "name": "to",
          "type": "address"
        },
        {
          "indexed": false,
          "internalType": "uint256",
          "name": "value",
          "type": "uint256"
        }
      ],
      "name": "Transfer",
      "type": "event"
    },
    {
      "inputs": [],
      "name": "DEFAULT_ADMIN_ROLE",
      "outputs": [
        {
          "internalType": "bytes32",
          "name": "",
          "type": "bytes32"
        }
      ],
      "stateMutability": "view",
      "type": "function"
    },
    {
      "inputs": [],
      "name": "DOMAIN_SEPARATOR",
      "outputs": [
        {
          "internalType": "bytes32",
          "name": "",
          "type": "bytes32"
        }
      ],
      "stateMutability": "view",
      "type": "function"
    },
    {
      "inputs": [
        {
          "internalType": "address",
          "name": "owner",
          "type": "address"
        },
        {
          "internalType": "address",
          "name": "spender",
          "type": "address"
        }
      ],
      "name": "allowance",
      "outputs": [
        {
          "internalType": "uint256",
          "name": "",
          "type": "uint256"
        }
      ],
      "stateMutability": "view",
      "type": "function"
    },
    {
      "inputs": [
        {
          "internalType": "address",
          "name": "spender",
          "type": "address"
        },
        {
          "internalType": "uint256",
          "name": "amount",
          "type": "uint256"
        }
      ],
      "name": "approve",
      "outputs": [
        {
          "internalType": "bool",
          "name": "",
          "type": "bool"
        }
      ],
      "stateMutability": "nonpayable",
      "type": "function"
    },
    {
      "inputs": [
        {
          "internalType": "address",
          "name": "account",
          "type": "address"
        }
      ],
      "name": "balanceOf",
      "outputs": [
        {
          "internalType": "uint256",
          "name": "",
          "type": "uint256"
        }
      ],
      "stateMutability": "view",
      "type": "function"
    },
    {
      "inputs": [
        {
          "internalType": "uint256",
          "name": "amount",
          "type": "uint256"
        }
      ],
      "name": "burn",
      "outputs": [],
      "stateMutability": "nonpayable",
      "type": "function"
    },
    {
      "inputs": [
        {
          "internalType": "address",
          "name": "account",
          "type": "address"
        },
        {
          "internalType": "uint256",
          "name": "amount",
          "type": "uint256"
        }
      ],
      "name": "burnFrom",
      "outputs": [],
      "stateMutability": "nonpayable",
      "type": "function"
    },
    {
      "inputs": [
        {
          "internalType": "address",
          "name": "account",
          "type": "address"
        },
        {
          "internalType": "uint32",
          "name": "pos",
          "type": "uint32"
        }
      ],
      "name": "checkpoints",
      "outputs": [
        {
          "components": [
            {
              "internalType": "uint32",
              "name": "fromBlock",
              "type": "uint32"
            },
            {
              "internalType": "uint224",
              "name": "votes",
              "type": "uint224"
            }
          ],
          "internalType": "struct ERC20VotesUpgradeable.Checkpoint",
          "name": "",
          "type": "tuple"
        }
      ],
      "stateMutability": "view",
      "type": "function"
    },
    {
      "inputs": [],
      "name": "contractURI",
      "outputs": [
        {
          "internalType": "string",
          "name": "",
          "type": "string"
        }
      ],
      "stateMutability": "view",
      "type": "function"
    },
    {
      "inputs": [],
      "name": "decimals",
      "outputs": [
        {
          "internalType": "uint8",
          "name": "",
          "type": "uint8"
        }
      ],
      "stateMutability": "view",
      "type": "function"
    },
    {
      "inputs": [
        {
          "internalType": "address",
          "name": "spender",
          "type": "address"
        },
        {
          "internalType": "uint256",
          "name": "subtractedValue",
          "type": "uint256"
        }
      ],
      "name": "decreaseAllowance",
      "outputs": [
        {
          "internalType": "bool",
          "name": "",
          "type": "bool"
        }
      ],
      "stateMutability": "nonpayable",
      "type": "function"
    },
    {
      "inputs": [
        {
          "internalType": "address",
          "name": "delegatee",
          "type": "address"
        }
      ],
      "name": "delegate",
      "outputs": [],
      "stateMutability": "nonpayable",
      "type": "function"
    },
    {
      "inputs": [
        {
          "internalType": "address",
          "name": "delegatee",
          "type": "address"
        },
        {
          "internalType": "uint256",
          "name": "nonce",
          "type": "uint256"
        },
        {
          "internalType": "uint256",
          "name": "expiry",
          "type": "uint256"
        },
        {
          "internalType": "uint8",
          "name": "v",
          "type": "uint8"
        },
        {
          "internalType": "bytes32",
          "name": "r",
          "type": "bytes32"
        },
        {
          "internalType": "bytes32",
          "name": "s",
          "type": "bytes32"
        }
      ],
      "name": "delegateBySig",
      "outputs": [],
      "stateMutability": "nonpayable",
      "type": "function"
    },
    {
      "inputs": [
        {
          "internalType": "address",
          "name": "account",
          "type": "address"
        }
      ],
      "name": "delegates",
      "outputs": [
        {
          "internalType": "address",
          "name": "",
          "type": "address"
        }
      ],
      "stateMutability": "view",
      "type": "function"
    },
    {
      "inputs": [
        {
          "internalType": "uint256",
          "name": "blockNumber",
          "type": "uint256"
        }
      ],
      "name": "getPastTotalSupply",
      "outputs": [
        {
          "internalType": "uint256",
          "name": "",
          "type": "uint256"
        }
      ],
      "stateMutability": "view",
      "type": "function"
    },
    {
      "inputs": [
        {
          "internalType": "address",
          "name": "account",
          "type": "address"
        },
        {
          "internalType": "uint256",
          "name": "blockNumber",
          "type": "uint256"
        }
      ],
      "name": "getPastVotes",
      "outputs": [
        {
          "internalType": "uint256",
          "name": "",
          "type": "uint256"
        }
      ],
      "stateMutability": "view",
      "type": "function"
    },
    {
      "inputs": [
        {
          "internalType": "bytes32",
          "name": "role",
          "type": "bytes32"
        }
      ],
      "name": "getRoleAdmin",
      "outputs": [
        {
          "internalType": "bytes32",
          "name": "",
          "type": "bytes32"
        }
      ],
      "stateMutability": "view",
      "type": "function"
    },
    {
      "inputs": [
        {
          "internalType": "bytes32",
          "name": "role",
          "type": "bytes32"
        },
        {
          "internalType": "uint256",
          "name": "index",
          "type": "uint256"
        }
      ],
      "name": "getRoleMember",
      "outputs": [
        {
          "internalType": "address",
          "name": "",
          "type": "address"
        }
      ],
      "stateMutability": "view",
      "type": "function"
    },
    {
      "inputs": [
        {
          "internalType": "bytes32",
          "name": "role",
          "type": "bytes32"
        }
      ],
      "name": "getRoleMemberCount",
      "outputs": [
        {
          "internalType": "uint256",
          "name": "",
          "type": "uint256"
        }
      ],
      "stateMutability": "view",
      "type": "function"
    },
    {
      "inputs": [
        {
          "internalType": "address",
          "name": "account",
          "type": "address"
        }
      ],
      "name": "getVotes",
      "outputs": [
        {
          "internalType": "uint256",
          "name": "",
          "type": "uint256"
        }
      ],
      "stateMutability": "view",
      "type": "function"
    },
    {
      "inputs": [
        {
          "internalType": "bytes32",
          "name": "role",
          "type": "bytes32"
        },
        {
          "internalType": "address",
          "name": "account",
          "type": "address"
        }
      ],
      "name": "grantRole",
      "outputs": [],
      "stateMutability": "nonpayable",
      "type": "function"
    },
    {
      "inputs": [
        {
          "internalType": "bytes32",
          "name": "role",
          "type": "bytes32"
        },
        {
          "internalType": "address",
          "name": "account",
          "type": "address"
        }
      ],
      "name": "hasRole",
      "outputs": [
        {
          "internalType": "bool",
          "name": "",
          "type": "bool"
        }
      ],
      "stateMutability": "view",
      "type": "function"
    },
    {
      "inputs": [
        {
          "internalType": "address",
          "name": "spender",
          "type": "address"
        },
        {
          "internalType": "uint256",
          "name": "addedValue",
          "type": "uint256"
        }
      ],
      "name": "increaseAllowance",
      "outputs": [
        {
          "internalType": "bool",
          "name": "",
          "type": "bool"
        }
      ],
      "stateMutability": "nonpayable",
      "type": "function"
    },
    {
      "inputs": [
        {
          "internalType": "address",
          "name": "forwarder",
          "type": "address"
        }
      ],
      "name": "isTrustedForwarder",
      "outputs": [
        {
          "internalType": "bool",
          "name": "",
          "type": "bool"
        }
      ],
      "stateMutability": "view",
      "type": "function"
    },
    {
      "inputs": [
        {
          "internalType": "bytes[]",
          "name": "data",
          "type": "bytes[]"
        }
      ],
      "name": "multicall",
      "outputs": [
        {
          "internalType": "bytes[]",
          "name": "results",
          "type": "bytes[]"
        }
      ],
      "stateMutability": "nonpayable",
      "type": "function"
    },
    {
      "inputs": [],
      "name": "name",
      "outputs": [
        {
          "internalType": "string",
          "name": "",
          "type": "string"
        }
      ],
      "stateMutability": "view",
      "type": "function"
    },
    {
      "inputs": [
        {
          "internalType": "address",
          "name": "owner",
          "type": "address"
        }
      ],
      "name": "nonces",
      "outputs": [
        {
          "internalType": "uint256",
          "name": "",
          "type": "uint256"
        }
      ],
      "stateMutability": "view",
      "type": "function"
    },
    {
      "inputs": [
        {
          "internalType": "address",
          "name": "account",
          "type": "address"
        }
      ],
      "name": "numCheckpoints",
      "outputs": [
        {
          "internalType": "uint32",
          "name": "",
          "type": "uint32"
        }
      ],
      "stateMutability": "view",
      "type": "function"
    },
    {
      "inputs": [
        {
          "internalType": "address",
          "name": "owner",
          "type": "address"
        },
        {
          "internalType": "address",
          "name": "spender",
          "type": "address"
        },
        {
          "internalType": "uint256",
          "name": "value",
          "type": "uint256"
        },
        {
          "internalType": "uint256",
          "name": "deadline",
          "type": "uint256"
        },
        {
          "internalType": "uint8",
          "name": "v",
          "type": "uint8"
        },
        {
          "internalType": "bytes32",
          "name": "r",
          "type": "bytes32"
        },
        {
          "internalType": "bytes32",
          "name": "s",
          "type": "bytes32"
        }
      ],
      "name": "permit",
      "outputs": [],
      "stateMutability": "nonpayable",
      "type": "function"
    },
    {
      "inputs": [],
      "name": "primarySaleRecipient",
      "outputs": [
        {
          "internalType": "address",
          "name": "",
          "type": "address"
        }
      ],
      "stateMutability": "view",
      "type": "function"
    },
    {
      "inputs": [
        {
          "internalType": "bytes32",
          "name": "role",
          "type": "bytes32"
        },
        {
          "internalType": "address",
          "name": "account",
          "type": "address"
        }
      ],
      "name": "renounceRole",
      "outputs": [],
      "stateMutability": "nonpayable",
      "type": "function"
    },
    {
      "inputs": [
        {
          "internalType": "bytes32",
          "name": "role",
          "type": "bytes32"
        },
        {
          "internalType": "address",
          "name": "account",
          "type": "address"
        }
      ],
      "name": "revokeRole",
      "outputs": [],
      "stateMutability": "nonpayable",
      "type": "function"
    },
    {
      "inputs": [
        {
          "internalType": "bytes4",
          "name": "interfaceId",
          "type": "bytes4"
        }
      ],
      "name": "supportsInterface",
      "outputs": [
        {
          "internalType": "bool",
          "name": "",
          "type": "bool"
        }
      ],
      "stateMutability": "view",
      "type": "function"
    },
    {
      "inputs": [],
      "name": "symbol",
      "outputs": [
        {
          "internalType": "string",
          "name": "",
          "type": "string"
        }
      ],
      "stateMutability": "view",
      "type": "function"
    },
    {
      "inputs": [],
      "name": "totalSupply",
      "outputs": [
        {
          "internalType": "uint256",
          "name": "",
          "type": "uint256"
        }
      ],
      "stateMutability": "view",
      "type": "function"
    },
    {
      "inputs": [
        {
          "internalType": "address",
          "name": "to",
          "type": "address"
        },
        {
          "internalType": "uint256",
          "name": "amount",
          "type": "uint256"
        }
      ],
      "name": "transfer",
      "outputs": [
        {
          "internalType": "bool",
          "name": "",
          "type": "bool"
        }
      ],
      "stateMutability": "nonpayable",
      "type": "function"
    },
    {
      "inputs": [
        {
          "internalType": "address",
          "name": "from",
          "type": "address"
        },
        {
          "internalType": "address",
          "name": "to",
          "type": "address"
        },
        {
          "internalType": "uint256",
          "name": "amount",
          "type": "uint256"
        }
      ],
      "name": "transferFrom",
      "outputs": [
        {
          "internalType": "bool",
          "name": "",
          "type": "bool"
        }
      ],
      "stateMutability": "nonpayable",
      "type": "function"
    },
    {
      "inputs": [
        {
          "internalType": "address",
          "name": "_defaultAdmin",
          "type": "address"
        },
        {
          "internalType": "string",
          "name": "_name",
          "type": "string"
        },
        {
          "internalType": "string",
          "name": "_symbol",
          "type": "string"
        },
        {
          "internalType": "string",
          "name": "_contractURI",
          "type": "string"
        },
        {
          "internalType": "address[]",
          "name": "_trustedForwarders",
          "type": "address[]"
        },
        {
          "internalType": "address",
          "name": "_primarySaleRecipient",
          "type": "address"
        },
        {
          "internalType": "address",
          "name": "_platformFeeRecipient",
          "type": "address"
        },
        {
          "internalType": "uint256",
          "name": "_platformFeeBps",
          "type": "uint256"
        }
      ],
      "name": "initialize",
      "outputs": [],
      "stateMutability": "nonpayable",
      "type": "function"
    },
    {
      "inputs": [],
      "name": "contractType",
      "outputs": [
        {
          "internalType": "bytes32",
          "name": "",
          "type": "bytes32"
        }
      ],
      "stateMutability": "pure",
      "type": "function"
    },
    {
      "inputs": [],
      "name": "contractVersion",
      "outputs": [
        {
          "internalType": "uint8",
          "name": "",
          "type": "uint8"
        }
      ],
      "stateMutability": "pure",
      "type": "function"
    },
    {
      "inputs": [
        {
          "internalType": "address",
          "name": "to",
          "type": "address"
        },
        {
          "internalType": "uint256",
          "name": "amount",
          "type": "uint256"
        }
      ],
      "name": "mintTo",
      "outputs": [],
      "stateMutability": "nonpayable",
      "type": "function"
    },
    {
      "inputs": [
        {
          "components": [
            {
              "internalType": "address",
              "name": "to",
              "type": "address"
            },
            {
              "internalType": "address",
              "name": "primarySaleRecipient",
              "type": "address"
            },
            {
              "internalType": "uint256",
              "name": "quantity",
              "type": "uint256"
            },
            {
              "internalType": "uint256",
              "name": "price",
              "type": "uint256"
            },
            {
              "internalType": "address",
              "name": "currency",
              "type": "address"
            },
            {
              "internalType": "uint128",
              "name": "validityStartTimestamp",
              "type": "uint128"
            },
            {
              "internalType": "uint128",
              "name": "validityEndTimestamp",
              "type": "uint128"
            },
            {
              "internalType": "bytes32",
              "name": "uid",
              "type": "bytes32"
            }
          ],
          "internalType": "struct ITokenERC20.MintRequest",
          "name": "_req",
          "type": "tuple"
        },
        {
          "internalType": "bytes",
          "name": "_signature",
          "type": "bytes"
        }
      ],
      "name": "verify",
      "outputs": [
        {
          "internalType": "bool",
          "name": "",
          "type": "bool"
        },
        {
          "internalType": "address",
          "name": "",
          "type": "address"
        }
      ],
      "stateMutability": "view",
      "type": "function"
    },
    {
      "inputs": [
        {
          "components": [
            {
              "internalType": "address",
              "name": "to",
              "type": "address"
            },
            {
              "internalType": "address",
              "name": "primarySaleRecipient",
              "type": "address"
            },
            {
              "internalType": "uint256",
              "name": "quantity",
              "type": "uint256"
            },
            {
              "internalType": "uint256",
              "name": "price",
              "type": "uint256"
            },
            {
              "internalType": "address",
              "name": "currency",
              "type": "address"
            },
            {
              "internalType": "uint128",
              "name": "validityStartTimestamp",
              "type": "uint128"
            },
            {
              "internalType": "uint128",
              "name": "validityEndTimestamp",
              "type": "uint128"
            },
            {
              "internalType": "bytes32",
              "name": "uid",
              "type": "bytes32"
            }
          ],
          "internalType": "struct ITokenERC20.MintRequest",
          "name": "_req",
          "type": "tuple"
        },
        {
          "internalType": "bytes",
          "name": "_signature",
          "type": "bytes"
        }
      ],
      "name": "mintWithSignature",
      "outputs": [],
      "stateMutability": "payable",
      "type": "function"
    },
    {
      "inputs": [
        {
          "internalType": "address",
          "name": "_saleRecipient",
          "type": "address"
        }
      ],
      "name": "setPrimarySaleRecipient",
      "outputs": [],
      "stateMutability": "nonpayable",
      "type": "function"
    },
    {
      "inputs": [
        {
          "internalType": "address",
          "name": "_platformFeeRecipient",
          "type": "address"
        },
        {
          "internalType": "uint256",
          "name": "_platformFeeBps",
          "type": "uint256"
        }
      ],
      "name": "setPlatformFeeInfo",
      "outputs": [],
      "stateMutability": "nonpayable",
      "type": "function"
    },
    {
      "inputs": [],
      "name": "getPlatformFeeInfo",
      "outputs": [
        {
          "internalType": "address",
          "name": "",
          "type": "address"
        },
        {
          "internalType": "uint16",
          "name": "",
          "type": "uint16"
        }
      ],
      "stateMutability": "view",
      "type": "function"
    },
    {
      "inputs": [
        {
          "internalType": "string",
          "name": "_uri",
          "type": "string"
        }
      ],
      "name": "setContractURI",
      "outputs": [],
      "stateMutability": "nonpayable",
      "type": "function"
    }
  ],
  "bytecode": "0x608060405234801562000010575f80fd5b506200001b62000021565b620000e0565b5f54610100900460ff16156200008d5760405162461bcd60e51b815260206004820152602760248201527f496e697469616c697a61626c653a20636f6e747261637420697320696e697469604482015266616c697a696e6760c81b606482015260840160405180910390fd5b5f5460ff9081161015620000de575f805460ff191660ff9081179091556040519081527f7f26b83ff96e1f2b6a682f133852f6798a09c465da95921460cefb38474024989060200160405180910390a15b565b61437280620000ee5f395ff3fe608060405260043610610217575f3560e01c806301ffc9a71461021b57806306fdde031461024f578063079fe40e14610270578063095ea7b3146102a857806318160ddd146102c75780631e7ac488146102e557806323b872dd14610306578063248a9ca3146103255780632f2ff15d14610344578063313ce567146103635780633644e5151461038457806336568abe1461039857806339509351146103b75780633a46b1a8146103d657806342966c68146103f5578063449a52f814610414578063572b6c0514610433578063587cde1e146104525780635c19a95c146104715780636f4f2837146104905780636fcfff45146104af57806370a08231146104e357806379cc6790146105025780637ecebe00146105215780638e539e8c146105405780638f0fefbb1461055f5780639010d07c1461057257806391d1485414610591578063938e3d7b146105b057806395d89b41146105cf5780639ab24eb0146105e3578063a0a8e46014610602578063a217fddf14610615578063a457c2d714610628578063a9059cbb14610647578063ac9650d814610666578063c1b606e214610692578063c3cda520146106d0578063ca15c873146106ef578063cb2ef6f71461070e578063d45573f614610731578063d505accf14610767578063d547741f14610786578063dd62ed3e146107a5578063dfad80a6146107c4578063e8a3d485146107e3578063f1127ed8146107f7575b5f80fd5b348015610226575f80fd5b5061023a610235366004613713565b610840565b60405190151581526020015b60405180910390f35b34801561025a575f80fd5b5061026361086a565b6040516102469190613787565b34801561027b575f80fd5b5061025f54610290906001600160a01b031681565b6040516001600160a01b039091168152602001610246565b3480156102b3575f80fd5b5061023a6102c23660046137b4565b6108fa565b3480156102d2575f80fd5b5060cb545b604051908152602001610246565b3480156102f0575f80fd5b506103046102ff3660046137b4565b61091b565b005b348015610311575f80fd5b5061023a6103203660046137dc565b6109c4565b348015610330575f80fd5b506102d761033f366004613815565b6109f3565b34801561034f575f80fd5b5061030461035e36600461382c565b610a08565b34801561036e575f80fd5b5060125b60405160ff9091168152602001610246565b34801561038f575f80fd5b506102d7610a29565b3480156103a3575f80fd5b506103046103b236600461382c565b610a37565b3480156103c2575f80fd5b5061023a6103d13660046137b4565b610ac5565b3480156103e1575f80fd5b506102d76103f03660046137b4565b610af0565b348015610400575f80fd5b5061030461040f366004613815565b610b32565b34801561041f575f80fd5b5061030461042e3660046137b4565b610b46565b34801561043e575f80fd5b5061023a61044d366004613856565b610ba3565b34801561045d575f80fd5b5061029061046c366004613856565b610bc0565b34801561047c575f80fd5b5061030461048b366004613856565b610bde565b34801561049b575f80fd5b506103046104aa366004613856565b610bef565b3480156104ba575f80fd5b506104ce6104c9366004613856565b610c44565b60405163ffffffff9091168152602001610246565b3480156104ee575f80fd5b506102d76104fd366004613856565b610c66565b34801561050d575f80fd5b5061030461051c3660046137b4565b610c80565b34801561052c575f80fd5b506102d761053b366004613856565b610c9c565b34801561054b575f80fd5b506102d761055a366004613815565b610cba565b61030461056d3660046138ac565b610ce6565b34801561057d575f80fd5b5061029061058c366004613903565b610dc8565b34801561059c575f80fd5b5061023a6105ab36600461382c565b610de0565b3480156105bb575f80fd5b506103046105ca366004613923565b610e0b565b3480156105da575f80fd5b50610263610e29565b3480156105ee575f80fd5b506102d76105fd366004613856565b610e38565b34801561060d575f80fd5b506001610372565b348015610620575f80fd5b506102d75f81565b348015610633575f80fd5b5061023a6106423660046137b4565b610ebc565b348015610652575f80fd5b5061023a6106613660046137b4565b610f4b565b348015610671575f80fd5b50610685610680366004613961565b610f62565b60405161024691906139cf565b34801561069d575f80fd5b506106b16106ac3660046138ac565b611054565b6040805192151583526001600160a01b03909116602083015201610246565b3480156106db575f80fd5b506103046106ea366004613a3f565b6110a6565b3480156106fa575f80fd5b506102d7610709366004613815565b6111d7565b348015610719575f80fd5b506d29b830b1b2abb0b939aa37b5b2b760911b6102d7565b34801561073c575f80fd5b5061025e5461025d54604080516001600160a01b03909316835261ffff909116602083015201610246565b348015610772575f80fd5b50610304610781366004613a93565b6111ee565b348015610791575f80fd5b506103046107a036600461382c565b61134f565b3480156107b0575f80fd5b506102d76107bf366004613af8565b61136b565b3480156107cf575f80fd5b506103046107de366004613c47565b611395565b3480156107ee575f80fd5b50610263611598565b348015610802575f80fd5b50610816610811366004613d26565b611625565b60408051825163ffffffff1681526020928301516001600160e01b03169281019290925201610246565b5f6001600160e01b03198216635a05180f60e01b14806108645750610864826116a6565b92915050565b606060cc805461087990613d63565b80601f01602080910402602001604051908101604052809291908181526020018280546108a590613d63565b80156108f05780601f106108c7576101008083540402835291602001916108f0565b820191905f5260205f20905b8154815290600101906020018083116108d357829003601f168201915b5050505050905090565b5f806109046116da565b90506109118185856116e3565b5060019392505050565b5f61092581611806565b6127108211156109505760405162461bcd60e51b815260040161094790613d95565b60405180910390fd5b61025d80546001600160801b0319166001600160401b03841617905561025e80546001600160a01b0385166001600160a01b031990911681179091556040518381527fe2497bd806ec41a6e0dd992c29a72efc0ef8fec9092d1978fd4a1e00b2f183049060200160405180910390a2505050565b5f806109ce6116da565b90506109db858285611817565b6109e6858585611889565b60019150505b9392505050565b5f9081526101f8602052604090206001015490565b610a11826109f3565b610a1a81611806565b610a248383611a53565b505050565b5f610a32611a75565b905090565b610a3f6116da565b6001600160a01b0316816001600160a01b031614610ab75760405162461bcd60e51b815260206004820152602f60248201527f416363657373436f6e74726f6c3a2063616e206f6e6c792072656e6f756e636560448201526e103937b632b9903337b91039b2b63360891b6064820152608401610947565b610ac18282611af0565b5050565b5f80610acf6116da565b9050610911818585610ae1858961136b565b610aeb9190613dd2565b6116e3565b5f438210610b105760405162461bcd60e51b815260040161094790613de5565b6001600160a01b0383165f908152610195602052604090206109ec9083611b12565b610b43610b3d6116da565b82611bc9565b50565b610b5f5f805160206142dd8339815191526105ab6116da565b610b995760405162461bcd60e51b815260206004820152600b60248201526a3737ba1036b4b73a32b91760a91b6044820152606401610947565b610ac18282611bd3565b6001600160a01b03165f9081526065602052604090205460ff1690565b6001600160a01b039081165f90815261019460205260409020541690565b610b43610be96116da565b82611c24565b5f610bf981611806565b61025f80546001600160a01b0319166001600160a01b0384169081179091556040517f299d17e95023f496e0ffc4909cff1a61f74bb5eb18de6f900f4155bfa1b3b333905f90a25050565b6001600160a01b0381165f908152610195602052604081205461086490611ca2565b6001600160a01b03165f90815260c9602052604090205490565b610c9282610c8c6116da565b83611817565b610ac18282611bc9565b6001600160a01b0381165f9081526101616020526040812054610864565b5f438210610cda5760405162461bcd60e51b815260040161094790613de5565b61086461019683611b12565b600260015403610d385760405162461bcd60e51b815260206004820152601f60248201527f5265656e7472616e637947756172643a207265656e7472616e742063616c6c006044820152606401610947565b60026001555f610d49848484611d0a565b90505f610d596020860186613856565b9050610d6485611ea0565b610d72818660400135611bd3565b806001600160a01b0316826001600160a01b03167fc4d88b1adde72eb5acf63f3e219ef5b223262233acf507c3b171277c91973c6787604051610db59190613e32565b60405180910390a3505060018055505050565b5f82815261022a602052604081206109ec9083612044565b5f9182526101f8602090815260408084206001600160a01b0393909316845291905290205460ff1690565b5f610e1581611806565b61025c610e23838583613f29565b50505050565b606060cd805461087990613d63565b6001600160a01b0381165f90815261019560205260408120548015610eaa576001600160a01b0383165f90815261019560205260409020610e7a600183613fdf565b81548110610e8a57610e8a613ff2565b5f91825260209091200154600160201b90046001600160e01b0316610eac565b5f5b6001600160e01b03169392505050565b5f80610ec66116da565b90505f610ed3828661136b565b905083811015610f335760405162461bcd60e51b815260206004820152602560248201527f45524332303a2064656372656173656420616c6c6f77616e63652062656c6f77604482015264207a65726f60d81b6064820152608401610947565b610f4082868684036116e3565b506001949350505050565b5f80610f556116da565b9050610911818585611889565b6060816001600160401b03811115610f7c57610f7c613b20565b604051908082528060200260200182016040528015610faf57816020015b6060815260200190600190039081610f9a5790505b5090505f5b8281101561104d5761101d30858584818110610fd257610fd2613ff2565b9050602002810190610fe49190614006565b8080601f0160208091040260200160405190810160405280939291908181526020018383808284375f9201919091525061204f92505050565b82828151811061102f5761102f613ff2565b6020026020010181905250808061104590614048565b915050610fb4565b5092915050565b5f805f61106286868661213d565b60e08701355f908152610260602052604090205490915060ff1615801561109b575061109b5f805160206142dd83398151915282610de0565b969095509350505050565b834211156110f65760405162461bcd60e51b815260206004820152601d60248201527f4552433230566f7465733a207369676e617475726520657870697265640000006044820152606401610947565b604080517fe48329057bfd03d55e49b547132e39cffd9c1820ad7b9d4c5307691425d15adf60208201526001600160a01b0388169181019190915260608101869052608081018590525f9061116f906111679060a0016040516020818303038152906040528051906020012061219f565b8585856121eb565b905061117a81612211565b86146111c45760405162461bcd60e51b81526020600482015260196024820152784552433230566f7465733a20696e76616c6964206e6f6e636560381b6044820152606401610947565b6111ce8188611c24565b50505050505050565b5f81815261022a6020526040812061086490612239565b8342111561123e5760405162461bcd60e51b815260206004820152601d60248201527f45524332305065726d69743a206578706972656420646561646c696e650000006044820152606401610947565b5f7f6e71edae12b1b97f4d1f60370fef10105fa2faae0126114a169c64845d6126c988888861126c8c612211565b6040805160208101969096526001600160a01b0394851690860152929091166060840152608083015260a082015260c0810186905260e0016040516020818303038152906040528051906020012090505f6112c68261219f565b90505f6112d5828787876121eb565b9050896001600160a01b0316816001600160a01b0316146113385760405162461bcd60e51b815260206004820152601e60248201527f45524332305065726d69743a20696e76616c6964207369676e617475726500006044820152606401610947565b6113438a8a8a6116e3565b50505050505050505050565b611358826109f3565b61136181611806565b610a248383611af0565b6001600160a01b039182165f90815260ca6020908152604080832093909416825291909152205490565b5f54610100900460ff16158080156113b357505f54600160ff909116105b806113d357506113c230612242565b1580156113d357505f5460ff166001145b6114365760405162461bcd60e51b815260206004820152602e60248201527f496e697469616c697a61626c653a20636f6e747261637420697320616c72656160448201526d191e481a5b9a5d1a585b1a5e995960921b6064820152608401610947565b5f805460ff191660011790558015611457575f805461ff0019166101001790555b61145f612251565b61146885612281565b6114718861230c565b61147b8888612355565b61025c6114888782614060565b5061025f80546001600160a01b038087166001600160a01b03199283161790925561025e8054928616929091169190911790556127108211156114dd5760405162461bcd60e51b815260040161094790613d95565b61025d80546001600160801b0319166001600160801b0384161790556115035f8a612394565b61151a5f805160206142968339815191528a612394565b6115315f805160206142dd8339815191528a612394565b6115485f805160206142968339815191525f612394565b801561158d575f805461ff0019169055604051600181527f7f26b83ff96e1f2b6a682f133852f6798a09c465da95921460cefb38474024989060200160405180910390a15b505050505050505050565b61025c80546115a690613d63565b80601f01602080910402602001604051908101604052809291908181526020018280546115d290613d63565b801561161d5780601f106115f45761010080835404028352916020019161161d565b820191905f5260205f20905b81548152906001019060200180831161160057829003601f168201915b505050505081565b604080518082019091525f80825260208201526001600160a01b0383165f90815261019560205260409020805463ffffffff841690811061166857611668613ff2565b5f9182526020918290206040805180820190915291015463ffffffff81168252600160201b90046001600160e01b0316918101919091529392505050565b5f6001600160e01b03198216637965db0b60e01b148061086457506301ffc9a760e01b6001600160e01b0319831614610864565b5f610a3261239e565b6001600160a01b0383166117455760405162461bcd60e51b8152602060048201526024808201527f45524332303a20617070726f76652066726f6d20746865207a65726f206164646044820152637265737360e01b6064820152608401610947565b6001600160a01b0382166117a65760405162461bcd60e51b815260206004820152602260248201527f45524332303a20617070726f766520746f20746865207a65726f206164647265604482015261737360f01b6064820152608401610947565b6001600160a01b038381165f81815260ca602090815260408083209487168084529482529182902085905590518481527f8c5be1e5ebec7d5bd14f71427d1e84f3dd0314c0f7b2291e5b200ac8c7c3b925910160405180910390a3505050565b610b43816118126116da565b6123bf565b5f611822848461136b565b90505f198114610e23578181101561187c5760405162461bcd60e51b815260206004820152601d60248201527f45524332303a20696e73756666696369656e7420616c6c6f77616e63650000006044820152606401610947565b610e2384848484036116e3565b6001600160a01b0383166118ed5760405162461bcd60e51b815260206004820152602560248201527f45524332303a207472616e736665722066726f6d20746865207a65726f206164604482015264647265737360d81b6064820152608401610947565b6001600160a01b03821661194f5760405162461bcd60e51b815260206004820152602360248201527f45524332303a207472616e7366657220746f20746865207a65726f206164647260448201526265737360e81b6064820152608401610947565b61195a838383612423565b6001600160a01b0383165f90815260c96020526040902054818110156119d15760405162461bcd60e51b815260206004820152602660248201527f45524332303a207472616e7366657220616d6f756e7420657863656564732062604482015265616c616e636560d01b6064820152608401610947565b6001600160a01b038085165f90815260c96020526040808220858503905591851681529081208054849290611a07908490613dd2565b92505081905550826001600160a01b0316846001600160a01b03165f805160206142fd83398151915284604051611a4091815260200190565b60405180910390a3610e238484846124e0565b611a5d82826124eb565b5f82815261022a60205260409020610a249082612572565b5f610a327f8b73c3c69bb8fe3d512ecc4cf759cc79239f7b179b0ffacaa9a75d522b39400f611aa461012d5490565b61012e546040805160208101859052908101839052606081018290524660808201523060a08201525f9060c0016040516020818303038152906040528051906020012090509392505050565b611afa8282612586565b5f82815261022a60205260409020610a24908261260b565b81545f90815b81811015611b73575f611b2b828461261f565b905084868281548110611b4057611b40613ff2565b5f9182526020909120015463ffffffff161115611b5f57809250611b6d565b611b6a816001613dd2565b91505b50611b18565b8115611bb55784611b85600184613fdf565b81548110611b9557611b95613ff2565b5f91825260209091200154600160201b90046001600160e01b0316611bb7565b5f5b6001600160e01b031695945050505050565b610ac18282612639565b611bdd8282612652565b816001600160a01b03167f3f2c9d57c068687834f0de942a9babb9e5acab57d516d3480a3c16ee165a427382604051611c1891815260200190565b60405180910390a25050565b5f611c2e83610bc0565b90505f611c3a84610c66565b6001600160a01b038581165f818152610194602052604080822080546001600160a01b031916898616908117909155905194955093928616927f3134e8a2e6d97e929a7e54011ea5485d7d196dd5f0ba4d4ef95803e8e3fc257f9190a4610e2382848361265c565b5f63ffffffff821115611d065760405162461bcd60e51b815260206004820152602660248201527f53616665436173743a2076616c756520646f65736e27742066697420696e203360448201526532206269747360d01b6064820152608401610947565b5090565b5f805f611d18868686611054565b9150915081611d5d5760405162461bcd60e51b8152602060048201526011602482015270696e76616c6964207369676e617475726560781b6044820152606401610947565b42611d6e60c0880160a08901614116565b6001600160801b031611158015611d9d575042611d9160e0880160c08901614116565b6001600160801b031610155b611ddb5760405162461bcd60e51b815260206004820152600f60248201526e1c995c5d595cdd08195e1c1a5c9959608a1b6044820152606401610947565b5f611de96020880188613856565b6001600160a01b031603611e355760405162461bcd60e51b81526020600482015260136024820152721c9958da5c1a595b9d081d5b9919599a5b9959606a1b6044820152606401610947565b5f866040013511611e785760405162461bcd60e51b815260206004820152600d60248201526c7a65726f207175616e7469747960981b6044820152606401610947565b60e08601355f90815261026060205260409020805460ff191660011790559150509392505050565b80606001355f03611eae5750565b61025d545f9061271090611ecf906001600160801b0316606085013561412f565b611ed99190614146565b905073eeeeeeeeeeeeeeeeeeeeeeeeeeeeeeeeeeeeeeee611f0060a0840160808501613856565b6001600160a01b031603611f5f5781606001353414611f5a5760405162461bcd60e51b815260206004820152601660248201527536bab9ba1039b2b732103a37ba30b610383934b1b29760511b6044820152606401610947565b611fa2565b3415611fa25760405162461bcd60e51b81526020600482015260126024820152716d73672076616c7565206e6f74207a65726f60701b6044820152606401610947565b5f80611fb46040850160208601613856565b6001600160a01b031614611fd757611fd26040840160208501613856565b611fe5565b61025f546001600160a01b03165b9050612015611ffa60a0850160808601613856565b6120026116da565b61025e546001600160a01b031685612772565b610a2461202860a0850160808601613856565b6120306116da565b8361203f866060890135613fdf565b612772565b5f6109ec83836127b8565b606061205a83612242565b6120b55760405162461bcd60e51b815260206004820152602660248201527f416464726573733a2064656c65676174652063616c6c20746f206e6f6e2d636f6044820152651b9d1c9858dd60d21b6064820152608401610947565b5f80846001600160a01b0316846040516120cf9190614165565b5f60405180830381855af49150503d805f8114612107576040519150601f19603f3d011682016040523d82523d5f602084013e61210c565b606091505b509150915061213482826040518060600160405280602781526020016142b6602791396127de565b95945050505050565b5f61219783838080601f0160208091040260200160405190810160405280939291908181526020018383808284375f9201919091525061219192506121859150889050612817565b8051906020012061219f565b9061290b565b949350505050565b5f6108646121ab611a75565b8360405161190160f01b602082015260228101839052604281018290525f9060620160405160208183030381529060405280519060200120905092915050565b5f805f6121fa8787878761292d565b9150915061220781612a08565b5095945050505050565b6001600160a01b0381165f908152610161602052604090208054600181018255905b50919050565b5f610864825490565b6001600160a01b03163b151590565b5f54610100900460ff166122775760405162461bcd60e51b815260040161094790614180565b61227f612bb8565b565b5f54610100900460ff166122a75760405162461bcd60e51b815260040161094790614180565b5f5b8151811015610ac157600160655f8484815181106122c9576122c9613ff2565b6020908102919091018101516001600160a01b031682528101919091526040015f20805460ff19169115159190911790558061230481614048565b9150506122a9565b5f54610100900460ff166123325760405162461bcd60e51b815260040161094790614180565b610b4381604051806040016040528060018152602001603160f81b815250612be4565b5f54610100900460ff1661237b5760405162461bcd60e51b815260040161094790614180565b60cc6123878382614060565b5060cd610a248282614060565b610ac18282611a53565b5f6123a833610ba3565b156123ba575060131936013560601c90565b503390565b6123c98282610de0565b610ac1576123e1816001600160a01b03166014612c26565b6123ec836020612c26565b6040516020016123fd9291906141cb565b60408051601f198184030181529082905262461bcd60e51b825261094791600401613787565b61243a5f805160206142968339815191525f610de0565b15801561244f57506001600160a01b03831615155b801561246357506001600160a01b03821615155b15610a245761247f5f8051602061429683398151915284610de0565b8061249c575061249c5f8051602061429683398151915283610de0565b610a245760405162461bcd60e51b81526020600482015260156024820152743a3930b739b332b939903932b9ba3934b1ba32b21760591b6044820152606401610947565b610a24838383612dbb565b6124f58282610de0565b610ac1575f8281526101f8602090815260408083206001600160a01b03851684529091529020805460ff1916600117905561252e6116da565b6001600160a01b0316816001600160a01b0316837f2f8788117e7eff1d82e926ec794901d17c78024a50270940304540a733656f0d60405160405180910390a45050565b5f6109ec836001600160a01b038416612dd6565b6125908282610de0565b15610ac1575f8281526101f8602090815260408083206001600160a01b03851684529091529020805460ff191690556125c76116da565b6001600160a01b0316816001600160a01b0316837ff6391f5c32d9c69d2a47ea670b442974b53935d1edc7fd64eb21e047a839171b60405160405180910390a45050565b5f6109ec836001600160a01b038416612e22565b5f61262d6002848418614146565b6109ec90848416613dd2565b6126438282612f05565b610e2361019661304e83613059565b610ac182826131c7565b816001600160a01b0316836001600160a01b03161415801561267d57505f81115b15610a24576001600160a01b038316156126f8576001600160a01b0383165f9081526101956020526040812081906126b89061304e85613059565b91509150846001600160a01b03165f8051602061431d83398151915283836040516126ed929190918252602082015260400190565b60405180910390a250505b6001600160a01b03821615610a24576001600160a01b0382165f90815261019560205260408120819061272e9061325285613059565b91509150836001600160a01b03165f8051602061431d8339815191528383604051612763929190918252602082015260400190565b60405180910390a25050505050565b8015610e235773eeeeeeeeeeeeeeeeeeeeeeeeeeeeeeeeeeeeeeed196001600160a01b038516016127ac576127a7828261325d565b610e23565b610e23848484846132fb565b5f825f0182815481106127cd576127cd613ff2565b905f5260205f200154905092915050565b606083156127ed5750816109ec565b8251156127fd5782518084602001fd5b8160405162461bcd60e51b81526004016109479190613787565b60607fbac245dbd9b8b2bb334c0675db20a7a7a8506de563990c4ce3207f4c3c5b75e16128476020840184613856565b6128576040850160208601613856565b6040850135606086013561287160a0880160808901613856565b61288160c0890160a08a01614116565b61289160e08a0160c08b01614116565b6040805160208101999099526001600160a01b03978816908901529486166060880152608087019390935260a086019190915290921660c08401526001600160801b0391821660e0808501919091529116610100830152830135610120820152610140016040516020818303038152906040529050919050565b5f805f612918858561334e565b9150915061292581612a08565b509392505050565b5f806fa2a8918ca85bafe22016d0b997e4df60600160ff1b0383111561295857505f905060036129ff565b8460ff16601b1415801561297057508460ff16601c14155b1561298057505f905060046129ff565b604080515f8082526020820180845289905260ff881692820192909252606081018690526080810185905260019060a0016020604051602081039080840390855afa1580156129d1573d5f803e3d5ffd5b5050604051601f1901519150506001600160a01b0381166129f9575f600192509250506129ff565b91505f90505b94509492505050565b5f816004811115612a1b57612a1b614239565b03612a235750565b6001816004811115612a3757612a37614239565b03612a7f5760405162461bcd60e51b815260206004820152601860248201527745434453413a20696e76616c6964207369676e617475726560401b6044820152606401610947565b6002816004811115612a9357612a93614239565b03612ae05760405162461bcd60e51b815260206004820152601f60248201527f45434453413a20696e76616c6964207369676e6174757265206c656e677468006044820152606401610947565b6003816004811115612af457612af4614239565b03612b4c5760405162461bcd60e51b815260206004820152602260248201527f45434453413a20696e76616c6964207369676e6174757265202773272076616c604482015261756560f01b6064820152608401610947565b6004816004811115612b6057612b60614239565b03610b435760405162461bcd60e51b815260206004820152602260248201527f45434453413a20696e76616c6964207369676e6174757265202776272076616c604482015261756560f01b6064820152608401610947565b5f54610100900460ff16612bde5760405162461bcd60e51b815260040161094790614180565b60018055565b5f54610100900460ff16612c0a5760405162461bcd60e51b815260040161094790614180565b81516020928301208151919092012061012d9190915561012e55565b60605f612c3483600261412f565b612c3f906002613dd2565b6001600160401b03811115612c5657612c56613b20565b6040519080825280601f01601f191660200182016040528015612c80576020820181803683370190505b509050600360fc1b815f81518110612c9a57612c9a613ff2565b60200101906001600160f81b03191690815f1a905350600f60fb1b81600181518110612cc857612cc8613ff2565b60200101906001600160f81b03191690815f1a9053505f612cea84600261412f565b612cf5906001613dd2565b90505b6001811115612d6c576f181899199a1a9b1b9c1cb0b131b232b360811b85600f1660108110612d2957612d29613ff2565b1a60f81b828281518110612d3f57612d3f613ff2565b60200101906001600160f81b03191690815f1a90535060049490941c93612d658161424d565b9050612cf8565b5083156109ec5760405162461bcd60e51b815260206004820181905260248201527f537472696e67733a20686578206c656e67746820696e73756666696369656e746044820152606401610947565b610a24612dc784610bc0565b612dd084610bc0565b8361265c565b5f818152600183016020526040812054612e1b57508154600181810184555f848152602080822090930184905584548482528286019093526040902091909155610864565b505f610864565b5f8181526001830160205260408120548015612efc575f612e44600183613fdf565b85549091505f90612e5790600190613fdf565b9050818114612eb6575f865f018281548110612e7557612e75613ff2565b905f5260205f200154905080875f018481548110612e9557612e95613ff2565b5f918252602080832090910192909255918252600188019052604090208390555b8554869080612ec757612ec7614262565b600190038181905f5260205f20015f90559055856001015f8681526020019081526020015f205f905560019350505050610864565b5f915050610864565b6001600160a01b038216612f655760405162461bcd60e51b815260206004820152602160248201527f45524332303a206275726e2066726f6d20746865207a65726f206164647265736044820152607360f81b6064820152608401610947565b612f70825f83612423565b6001600160a01b0382165f90815260c9602052604090205481811015612fe35760405162461bcd60e51b815260206004820152602260248201527f45524332303a206275726e20616d6f756e7420657863656564732062616c616e604482015261636560f01b6064820152608401610947565b6001600160a01b0383165f90815260c960205260408120838303905560cb8054849290613011908490613fdf565b90915550506040518281525f906001600160a01b038516905f805160206142fd8339815191529060200160405180910390a3610a24835f846124e0565b5f6109ec8284613fdf565b82545f90819080156130a15785613071600183613fdf565b8154811061308157613081613ff2565b5f91825260209091200154600160201b90046001600160e01b03166130a3565b5f5b6001600160e01b031692506130bc83858763ffffffff16565b91505f811180156130f8575043866130d5600184613fdf565b815481106130e5576130e5613ff2565b5f9182526020909120015463ffffffff16145b156131555761310682613390565b86613112600184613fdf565b8154811061312257613122613ff2565b905f5260205f20015f0160046101000a8154816001600160e01b0302191690836001600160e01b031602179055506131be565b85604051806040016040528061316a43611ca2565b63ffffffff16815260200161317e85613390565b6001600160e01b0390811690915282546001810184555f93845260209384902083519490930151909116600160201b0263ffffffff909316929092179101555b50935093915050565b6131d182826133f8565b60cb546001600160e01b0310156132435760405162461bcd60e51b815260206004820152603060248201527f4552433230566f7465733a20746f74616c20737570706c79207269736b73206f60448201526f766572666c6f77696e6720766f74657360801b6064820152608401610947565b610e2361019661325283613059565b5f6109ec8284613dd2565b5f826001600160a01b0316826040515f6040518083038185875af1925050503d805f81146132a6576040519150601f19603f3d011682016040523d82523d5f602084013e6132ab565b606091505b5050905080610a245760405162461bcd60e51b815260206004820152601c60248201527b1b985d1a5d99481d1bdad95b881d1c985b9cd9995c8819985a5b195960221b6044820152606401610947565b816001600160a01b0316836001600160a01b03160315610e2357306001600160a01b03841603613339576127a76001600160a01b03851683836134d3565b610e236001600160a01b038516848484613536565b5f808251604103613382576020830151604084015160608501515f1a6133768782858561292d565b94509450505050613389565b505f905060025b9250929050565b5f6001600160e01b03821115611d065760405162461bcd60e51b815260206004820152602760248201527f53616665436173743a2076616c756520646f65736e27742066697420696e20326044820152663234206269747360c81b6064820152608401610947565b6001600160a01b03821661344e5760405162461bcd60e51b815260206004820152601f60248201527f45524332303a206d696e7420746f20746865207a65726f2061646472657373006044820152606401610947565b6134595f8383612423565b8060cb5f82825461346a9190613dd2565b90915550506001600160a01b0382165f90815260c9602052604081208054839290613496908490613dd2565b90915550506040518181526001600160a01b038316905f905f805160206142fd8339815191529060200160405180910390a3610ac15f83836124e0565b6040516001600160a01b038316602482015260448101829052610a2490849063a9059cbb60e01b906064015b60408051601f198184030181529190526020810180516001600160e01b03166001600160e01b03199093169290921790915261356e565b6040516001600160a01b0380851660248301528316604482015260648101829052610e239085906323b872dd60e01b906084016134ff565b5f6135c2826040518060400160405280602081526020017f5361666545524332303a206c6f772d6c6576656c2063616c6c206661696c6564815250856001600160a01b031661363f9092919063ffffffff16565b805190915015610a2457808060200190518101906135e09190614276565b610a245760405162461bcd60e51b815260206004820152602a60248201527f5361666545524332303a204552433230206f7065726174696f6e20646964206e6044820152691bdd081cdd58d8d9595960b21b6064820152608401610947565b606061219784845f858561365285612242565b61369e5760405162461bcd60e51b815260206004820152601d60248201527f416464726573733a2063616c6c20746f206e6f6e2d636f6e74726163740000006044820152606401610947565b5f80866001600160a01b031685876040516136b99190614165565b5f6040518083038185875af1925050503d805f81146136f3576040519150601f19603f3d011682016040523d82523d5f602084013e6136f8565b606091505b50915091506137088282866127de565b979650505050505050565b5f60208284031215613723575f80fd5b81356001600160e01b0319811681146109ec575f80fd5b5f5b8381101561375457818101518382015260200161373c565b50505f910152565b5f815180845261377381602086016020860161373a565b601f01601f19169290920160200192915050565b602081525f6109ec602083018461375c565b80356001600160a01b03811681146137af575f80fd5b919050565b5f80604083850312156137c5575f80fd5b6137ce83613799565b946020939093013593505050565b5f805f606084860312156137ee575f80fd5b6137f784613799565b925061380560208501613799565b9150604084013590509250925092565b5f60208284031215613825575f80fd5b5035919050565b5f806040838503121561383d575f80fd5b8235915061384d60208401613799565b90509250929050565b5f60208284031215613866575f80fd5b6109ec82613799565b5f8083601f84011261387f575f80fd5b5081356001600160401b03811115613895575f80fd5b602083019150836020828501011115613389575f80fd5b5f805f8385036101208112156138c0575f80fd5b610100808212156138cf575f80fd5b85945084013590506001600160401b038111156138ea575f80fd5b6138f68682870161386f565b9497909650939450505050565b5f8060408385031215613914575f80fd5b50508035926020909101359150565b5f8060208385031215613934575f80fd5b82356001600160401b03811115613949575f80fd5b6139558582860161386f565b90969095509350505050565b5f8060208385031215613972575f80fd5b82356001600160401b0380821115613988575f80fd5b818501915085601f83011261399b575f80fd5b8135818111156139a9575f80fd5b8660208260051b85010111156139bd575f80fd5b60209290920196919550909350505050565b5f602080830181845280855180835260408601915060408160051b87010192508387015f5b82811015613a2257603f19888603018452613a1085835161375c565b945092850192908501906001016139f4565b5092979650505050505050565b803560ff811681146137af575f80fd5b5f805f805f8060c08789031215613a54575f80fd5b613a5d87613799565b95506020870135945060408701359350613a7960608801613a2f565b92506080870135915060a087013590509295509295509295565b5f805f805f805f60e0888a031215613aa9575f80fd5b613ab288613799565b9650613ac060208901613799565b95506040880135945060608801359350613adc60808901613a2f565b925060a0880135915060c0880135905092959891949750929550565b5f8060408385031215613b09575f80fd5b613b1283613799565b915061384d60208401613799565b634e487b7160e01b5f52604160045260245ffd5b604051601f8201601f191681016001600160401b0381118282101715613b5c57613b5c613b20565b604052919050565b5f82601f830112613b73575f80fd5b81356001600160401b03811115613b8c57613b8c613b20565b613b9f601f8201601f1916602001613b34565b818152846020838601011115613bb3575f80fd5b816020850160208301375f918101602001919091529392505050565b5f82601f830112613bde575f80fd5b813560206001600160401b03821115613bf957613bf9613b20565b8160051b613c08828201613b34565b9283528481018201928281019087851115613c21575f80fd5b83870192505b8483101561370857613c3883613799565b82529183019190830190613c27565b5f805f805f805f80610100898b031215613c5f575f80fd5b613c6889613799565b975060208901356001600160401b0380821115613c83575f80fd5b613c8f8c838d01613b64565b985060408b0135915080821115613ca4575f80fd5b613cb08c838d01613b64565b975060608b0135915080821115613cc5575f80fd5b613cd18c838d01613b64565b965060808b0135915080821115613ce6575f80fd5b50613cf38b828c01613bcf565b945050613d0260a08a01613799565b9250613d1060c08a01613799565b915060e089013590509295985092959890939650565b5f8060408385031215613d37575f80fd5b613d4083613799565b9150602083013563ffffffff81168114613d58575f80fd5b809150509250929050565b600181811c90821680613d7757607f821691505b60208210810361223357634e487b7160e01b5f52602260045260245ffd5b6020808252600f908201526e65786365656473204d41585f42505360881b604082015260600190565b634e487b7160e01b5f52601160045260245ffd5b8082018082111561086457610864613dbe565b6020808252601f908201527f4552433230566f7465733a20626c6f636b206e6f7420796574206d696e656400604082015260600190565b80356001600160801b03811681146137af575f80fd5b61010081016001600160a01b0380613e4985613799565b16835280613e5960208601613799565b166020840152604084013560408401526060840135606084015280613e8060808601613799565b16608084015250613e9360a08401613e1c565b6001600160801b0381811660a085015280613eb060c08701613e1c565b1660c0850152505060e083013560e083015292915050565b601f821115610a24575f81815260208120601f850160051c81016020861015613eee5750805b601f850160051c820191505b81811015613f0d57828155600101613efa565b505050505050565b5f19600383901b1c191660019190911b1790565b6001600160401b03831115613f4057613f40613b20565b613f5483613f4e8354613d63565b83613ec8565b5f601f841160018114613f80575f8515613f6e5750838201355b613f788682613f15565b845550613fd8565b5f83815260209020601f19861690835b82811015613fb05786850135825560209485019460019092019101613f90565b5086821015613fcc575f1960f88860031b161c19848701351681555b505060018560011b0183555b5050505050565b8181038181111561086457610864613dbe565b634e487b7160e01b5f52603260045260245ffd5b5f808335601e1984360301811261401b575f80fd5b8301803591506001600160401b03821115614034575f80fd5b602001915036819003821315613389575f80fd5b5f6001820161405957614059613dbe565b5060010190565b81516001600160401b0381111561407957614079613b20565b61408d816140878454613d63565b84613ec8565b602080601f8311600181146140bb575f84156140a95750858301515b6140b38582613f15565b865550613f0d565b5f85815260208120601f198616915b828110156140e9578886015182559484019460019091019084016140ca565b508582101561410657878501515f19600388901b60f8161c191681555b5050505050600190811b01905550565b5f60208284031215614126575f80fd5b6109ec82613e1c565b808202811582820484141761086457610864613dbe565b5f8261416057634e487b7160e01b5f52601260045260245ffd5b500490565b5f825161417681846020870161373a565b9190910192915050565b6020808252602b908201527f496e697469616c697a61626c653a20636f6e7472616374206973206e6f74206960408201526a6e697469616c697a696e6760a81b606082015260800190565b76020b1b1b2b9b9a1b7b73a3937b61d1030b1b1b7bab73a1604d1b81525f83516141fc81601785016020880161373a565b7001034b99036b4b9b9b4b733903937b6329607d1b601791840191820152835161422d81602884016020880161373a565b01602801949350505050565b634e487b7160e01b5f52602160045260245ffd5b5f8161425b5761425b613dbe565b505f190190565b634e487b7160e01b5f52603160045260245ffd5b5f60208284031215614286575f80fd5b815180151581146109ec575f80fdfe8502233096d909befbda0999bb8ea2f3a6be3c138b9fbf003752a4c8bce86f6c416464726573733a206c6f772d6c6576656c2064656c65676174652063616c6c206661696c65649f2df0fed2c77648de5860a4cc508cd0818c85b8b8a1ab4ceeef8d981c8956a6ddf252ad1be2c89b69c2b068fc378daa952ba7f163c4a11628f55a4df523b3efdec2bacdd2f05b59de34da9b523dff8be42e5e38e818c82fdb0bae774387a724a2646970667358221220ff4708b8c6adbd7920192f4f96647664af530069767c87b35d43f0e0b2bd7a7f64736f6c63430008150033",
  "immutableReferences": {},
  "source": "// SPDX-License-Identifier: Apache-2.0\npragma solidity ^0.8.11;\n\n//Interface\nimport { ITokenERC20 } from \"@thirdweb-dev/contracts/interfaces/token/ITokenERC20.sol\";\n\nimport \"@thirdweb-dev/contracts/interfaces/IThirdwebContract.sol\";\nimport \"@thirdweb-dev/contracts/extension/interface/IPlatformFee.sol\";\nimport \"@thirdweb-dev/contracts/extension/interface/IPrimarySale.sol\";\n\n// Token\nimport \"@openzeppelin/contracts-upgradeable/token/ERC20/extensions/ERC20BurnableUpgradeable.sol\";\nimport \"@openzeppelin/contracts-upgradeable/token/ERC20/extensions/ERC20VotesUpgradeable.sol\";\n\n// Security\nimport \"@openzeppelin/contracts-upgradeable/access/AccessControlEnumerableUpgradeable.sol\";\nimport \"@openzeppelin/contracts-upgradeable/security/ReentrancyGuardUpgradeable.sol\";\n\n// Signature utils\nimport \"@openzeppelin/contracts-upgradeable/utils/cryptography/ECDSAUpgradeable.sol\";\nimport \"@openzeppelin/contracts-upgradeable/utils/cryptography/draft-EIP712Upgradeable.sol\";\n\n// Meta transactions\nimport \"@thirdweb-dev/contracts/openzeppelin-presets/metatx/ERC2771ContextUpgradeable.sol\";\n\n// Utils\nimport \"@openzeppelin/contracts-upgradeable/utils/MulticallUpgradeable.sol\";\nimport \"@thirdweb-dev/contracts/lib/CurrencyTransferLib.sol\";\nimport \"@thirdweb-dev/contracts/lib/FeeType.sol\";\n\ncontract SpaceWarsToken is\n    Initializable,\n    IThirdwebContract,\n    IPrimarySale,\n    IPlatformFee,\n    ReentrancyGuardUpgradeable,\n    ERC2771ContextUpgradeable,\n    MulticallUpgradeable,\n    ERC20BurnableUpgradeable,\n    ERC20VotesUpgradeable,\n    ITokenERC20,\n    AccessControlEnumerableUpgradeable\n{\n    using ECDSAUpgradeable for bytes32;\n\n    bytes32 private constant MODULE_TYPE = bytes32(\"SpaceWarsToken\");\n    uint256 private constant VERSION = 1;\n\n    bytes32 private constant TYPEHASH =\n        keccak256(\n            \"MintRequest(address to,address primarySaleRecipient,uint256 quantity,uint256 price,address currency,uint128 validityStartTimestamp,uint128 validityEndTimestamp,bytes32 uid)\"\n        );\n\n    bytes32 internal constant MINTER_ROLE = keccak256(\"MINTER_ROLE\");\n    bytes32 internal constant TRANSFER_ROLE = keccak256(\"TRANSFER_ROLE\");\n\n    /// @dev Returns the URI for the storefront-level metadata of the contract.\n    string public contractURI;\n\n    /// @dev Max bps in the thirdweb system\n    uint128 internal constant MAX_BPS = 10_000;\n\n    /// @dev The % of primary sales collected by the contract as fees.\n    uint128 private platformFeeBps;\n\n    /// @dev The adress that receives all primary sales value.\n    address internal platformFeeRecipient;\n\n    /// @dev The adress that receives all primary sales value.\n    address public primarySaleRecipient;\n\n    /// @dev Mapping from mint request UID => whether the mint request is processed.\n    mapping(bytes32 => bool) private minted;\n\n    /// @custom:oz-upgrades-unsafe-allow constructor\n    constructor() {\n        _disableInitializers();\n    }\n\n    /// @dev Initiliazes the contract, like a constructor.\n    function initialize(\n        address _defaultAdmin,\n        string memory _name,\n        string memory _symbol,\n        string memory _contractURI,\n        address[] memory _trustedForwarders,\n        address _primarySaleRecipient,\n        address _platformFeeRecipient,\n        uint256 _platformFeeBps\n    ) external initializer {\n        __ReentrancyGuard_init();\n        __ERC2771Context_init_unchained(_trustedForwarders);\n        __ERC20Permit_init(_name);\n        __ERC20_init_unchained(_name, _symbol);\n\n        contractURI = _contractURI;\n        primarySaleRecipient = _primarySaleRecipient;\n        platformFeeRecipient = _platformFeeRecipient;\n\n        require(_platformFeeBps <= MAX_BPS, \"exceeds MAX_BPS\");\n        platformFeeBps = uint128(_platformFeeBps);\n\n        _setupRole(DEFAULT_ADMIN_ROLE, _defaultAdmin);\n        _setupRole(TRANSFER_ROLE, _defaultAdmin);\n        _setupRole(MINTER_ROLE, _defaultAdmin);\n        _setupRole(TRANSFER_ROLE, address(0));\n    }\n\n    /// @dev Returns the module type of the contract.\n    function contractType() external pure virtual returns (bytes32) {\n        return MODULE_TYPE;\n    }\n\n    /// @dev Returns the version of the contract.\n    function contractVersion() external pure virtual returns (uint8) {\n        return uint8(VERSION);\n    }\n\n    function _afterTokenTransfer(\n        address from,\n        address to,\n        uint256 amount\n    ) internal virtual override(ERC20Upgradeable, ERC20VotesUpgradeable) {\n        super._afterTokenTransfer(from, to, amount);\n    }\n\n    /// @dev Runs on every transfer.\n    function _beforeTokenTransfer(\n        address from,\n        address to,\n        uint256 amount\n    ) internal override {\n        super._beforeTokenTransfer(from, to, amount);\n\n        if (!hasRole(TRANSFER_ROLE, address(0)) && from != address(0) && to != address(0)) {\n            require(hasRole(TRANSFER_ROLE, from) || hasRole(TRANSFER_ROLE, to), \"transfers restricted.\");\n        }\n    }\n\n    function _mint(address account, uint256 amount) internal virtual override(ERC20Upgradeable, ERC20VotesUpgradeable) {\n        super._mint(account, amount);\n    }\n\n    function _burn(address account, uint256 amount) internal virtual override(ERC20Upgradeable, ERC20VotesUpgradeable) {\n        super._burn(account, amount);\n    }\n\n    /**\n     * @dev Creates `amount` new tokens for `to`.\n     *\n     * See {ERC20-_mint}.\n     *\n     * Requirements:\n     *\n     * - the caller must have the `MINTER_ROLE`.\n     */\n    function mintTo(address to, uint256 amount) public virtual {\n        require(hasRole(MINTER_ROLE, _msgSender()), \"not minter.\");\n        _mintTo(to, amount);\n    }\n\n    /// @dev Verifies that a mint request is signed by an account holding MINTER_ROLE (at the time of the function call).\n    function verify(MintRequest calldata _req, bytes calldata _signature) public view returns (bool, address) {\n        address signer = recoverAddress(_req, _signature);\n        return (!minted[_req.uid] && hasRole(MINTER_ROLE, signer), signer);\n    }\n\n    /// @dev Mints tokens according to the provided mint request.\n    function mintWithSignature(MintRequest calldata _req, bytes calldata _signature) external payable nonReentrant {\n        address signer = verifyRequest(_req, _signature);\n        address receiver = _req.to;\n\n        collectPrice(_req);\n\n        _mintTo(receiver, _req.quantity);\n\n        emit TokensMintedWithSignature(signer, receiver, _req);\n    }\n\n    /// @dev Lets a module admin set the default recipient of all primary sales.\n    function setPrimarySaleRecipient(address _saleRecipient) external onlyRole(DEFAULT_ADMIN_ROLE) {\n        primarySaleRecipient = _saleRecipient;\n        emit PrimarySaleRecipientUpdated(_saleRecipient);\n    }\n\n    /// @dev Lets a module admin update the fees on primary sales.\n    function setPlatformFeeInfo(address _platformFeeRecipient, uint256 _platformFeeBps)\n        external\n        onlyRole(DEFAULT_ADMIN_ROLE)\n    {\n        require(_platformFeeBps <= MAX_BPS, \"exceeds MAX_BPS\");\n\n        platformFeeBps = uint64(_platformFeeBps);\n        platformFeeRecipient = _platformFeeRecipient;\n\n        emit PlatformFeeInfoUpdated(_platformFeeRecipient, _platformFeeBps);\n    }\n\n    /// @dev Returns the platform fee bps and recipient.\n    function getPlatformFeeInfo() external view returns (address, uint16) {\n        return (platformFeeRecipient, uint16(platformFeeBps));\n    }\n\n    /// @dev Collects and distributes the primary sale value of tokens being claimed.\n    function collectPrice(MintRequest calldata _req) internal {\n        if (_req.price == 0) {\n            return;\n        }\n\n        uint256 platformFees = (_req.price * platformFeeBps) / MAX_BPS;\n\n        if (_req.currency == CurrencyTransferLib.NATIVE_TOKEN) {\n            require(msg.value == _req.price, \"must send total price.\");\n        } else {\n            require(msg.value == 0, \"msg value not zero\");\n        }\n\n        address saleRecipient = _req.primarySaleRecipient == address(0)\n            ? primarySaleRecipient\n            : _req.primarySaleRecipient;\n\n        CurrencyTransferLib.transferCurrency(_req.currency, _msgSender(), platformFeeRecipient, platformFees);\n        CurrencyTransferLib.transferCurrency(_req.currency, _msgSender(), saleRecipient, _req.price - platformFees);\n    }\n\n    /// @dev Mints `amount` of tokens to `to`\n    function _mintTo(address _to, uint256 _amount) internal {\n        _mint(_to, _amount);\n        emit TokensMinted(_to, _amount);\n    }\n\n    /// @dev Verifies that a mint request is valid.\n    function verifyRequest(MintRequest calldata _req, bytes calldata _signature) internal returns (address) {\n        (bool success, address signer) = verify(_req, _signature);\n        require(success, \"invalid signature\");\n\n        require(\n            _req.validityStartTimestamp <= block.timestamp && _req.validityEndTimestamp >= block.timestamp,\n            \"request expired\"\n        );\n        require(_req.to != address(0), \"recipient undefined\");\n        require(_req.quantity > 0, \"zero quantity\");\n\n        minted[_req.uid] = true;\n\n        return signer;\n    }\n\n    /// @dev Returns the address of the signer of the mint request.\n    function recoverAddress(MintRequest calldata _req, bytes calldata _signature) internal view returns (address) {\n        return _hashTypedDataV4(keccak256(_encodeRequest(_req))).recover(_signature);\n    }\n\n    /// @dev Resolves 'stack too deep' error in `recoverAddress`.\n    function _encodeRequest(MintRequest calldata _req) internal pure returns (bytes memory) {\n        return\n            abi.encode(\n                TYPEHASH,\n                _req.to,\n                _req.primarySaleRecipient,\n                _req.quantity,\n                _req.price,\n                _req.currency,\n                _req.validityStartTimestamp,\n                _req.validityEndTimestamp,\n                _req.uid\n            );\n    }\n\n    /// @dev Sets contract URI for the storefront-level metadata of the contract.\n    function setContractURI(string calldata _uri) external onlyRole(DEFAULT_ADMIN_ROLE) {\n        contractURI = _uri;\n    }\n\n    function _msgSender()\n        internal\n        view\n        virtual\n        override(ContextUpgradeable, ERC2771ContextUpgradeable)\n        returns (address sender)\n    {\n        return ERC2771ContextUpgradeable._msgSender();\n    }\n\n    function _msgData()\n        internal\n        view\n        virtual\n        override(ContextUpgradeable, ERC2771ContextUpgradeable)\n        returns (bytes calldata)\n    {\n        return ERC2771ContextUpgradeable._msgData();\n    }\n}",
  "sourcePath": "c:\\Projects\\AyazDuru.Blockchain.Samples.MarketplaceNFTAndToken\\source\\contracts\\SpaceWarsToken.sol",
  "compiler": {
    "name": "solc",
    "version": "0.8.21+commit.d9974bed.Emscripten.clang"
  },
  "schemaVersion": "3.4.15",
  "updatedAt": "2023-08-15T23:19:36.793Z",
  "devdoc": {
    "events": {
      "Approval(address,address,uint256)": {
        "details": "Emitted when the allowance of a `spender` for an `owner` is set by a call to {approve}. `value` is the new allowance."
      },
      "DelegateChanged(address,address,address)": {
        "details": "Emitted when an account changes their delegate."
      },
      "DelegateVotesChanged(address,uint256,uint256)": {
        "details": "Emitted when a token transfer or delegate change results in changes to a delegate's number of votes."
      },
      "FlatPlatformFeeUpdated(address,uint256)": {
        "details": "Emitted when the flat platform fee is updated."
      },
      "Initialized(uint8)": {
        "details": "Triggered when the contract has been initialized or reinitialized."
      },
      "PlatformFeeInfoUpdated(address,uint256)": {
        "details": "Emitted when fee on primary sales is updated."
      },
      "PlatformFeeTypeUpdated(uint8)": {
        "details": "Emitted when the platform fee type is updated."
      },
      "PrimarySaleRecipientUpdated(address)": {
        "details": "Emitted when a new sale recipient is set."
      },
      "RoleAdminChanged(bytes32,bytes32,bytes32)": {
        "details": "Emitted when `newAdminRole` is set as ``role``'s admin role, replacing `previousAdminRole` `DEFAULT_ADMIN_ROLE` is the starting admin for all roles, despite {RoleAdminChanged} not being emitted signaling this. _Available since v3.1._"
      },
      "RoleGranted(bytes32,address,address)": {
        "details": "Emitted when `account` is granted `role`. `sender` is the account that originated the contract call, an admin role bearer except when using {AccessControl-_setupRole}."
      },
      "RoleRevoked(bytes32,address,address)": {
        "details": "Emitted when `account` is revoked `role`. `sender` is the account that originated the contract call:   - if using `revokeRole`, it is the admin role bearer   - if using `renounceRole`, it is the role bearer (i.e. `account`)"
      },
      "TokensMinted(address,uint256)": {
        "details": "Emitted when an account with MINTER_ROLE mints an NFT."
      },
      "TokensMintedWithSignature(address,address,(address,address,uint256,uint256,address,uint128,uint128,bytes32))": {
        "details": "Emitted when tokens are minted."
      },
      "Transfer(address,address,uint256)": {
        "details": "Emitted when `value` tokens are moved from one account (`from`) to another (`to`). Note that `value` may be zero."
      }
    },
    "kind": "dev",
    "methods": {
      "DOMAIN_SEPARATOR()": {
        "details": "See {IERC20Permit-DOMAIN_SEPARATOR}."
      },
      "allowance(address,address)": {
        "details": "See {IERC20-allowance}."
      },
      "approve(address,uint256)": {
        "details": "See {IERC20-approve}. NOTE: If `amount` is the maximum `uint256`, the allowance is not updated on `transferFrom`. This is semantically equivalent to an infinite approval. Requirements: - `spender` cannot be the zero address."
      },
      "balanceOf(address)": {
        "details": "See {IERC20-balanceOf}."
      },
      "burn(uint256)": {
        "details": "Destroys `amount` tokens from the caller. See {ERC20-_burn}."
      },
      "burnFrom(address,uint256)": {
        "details": "Destroys `amount` tokens from `account`, deducting from the caller's allowance. See {ERC20-_burn} and {ERC20-allowance}. Requirements: - the caller must have allowance for ``accounts``'s tokens of at least `amount`."
      },
      "checkpoints(address,uint32)": {
        "details": "Get the `pos`-th checkpoint for `account`."
      },
      "constructor": {
        "custom:oz-upgrades-unsafe-allow": "constructor"
      },
      "contractType()": {
        "details": "Returns the module type of the contract."
      },
      "contractVersion()": {
        "details": "Returns the version of the contract."
      },
      "decimals()": {
        "details": "Returns the number of decimals used to get its user representation. For example, if `decimals` equals `2`, a balance of `505` tokens should be displayed to a user as `5.05` (`505 / 10 ** 2`). Tokens usually opt for a value of 18, imitating the relationship between Ether and Wei. This is the value {ERC20} uses, unless this function is overridden; NOTE: This information is only used for _display_ purposes: it in no way affects any of the arithmetic of the contract, including {IERC20-balanceOf} and {IERC20-transfer}."
      },
      "decreaseAllowance(address,uint256)": {
        "details": "Atomically decreases the allowance granted to `spender` by the caller. This is an alternative to {approve} that can be used as a mitigation for problems described in {IERC20-approve}. Emits an {Approval} event indicating the updated allowance. Requirements: - `spender` cannot be the zero address. - `spender` must have allowance for the caller of at least `subtractedValue`."
      },
      "delegate(address)": {
        "details": "Delegate votes from the sender to `delegatee`."
      },
      "delegateBySig(address,uint256,uint256,uint8,bytes32,bytes32)": {
        "details": "Delegates votes from signer to `delegatee`"
      },
      "delegates(address)": {
        "details": "Get the address `account` is currently delegating to."
      },
      "getPastTotalSupply(uint256)": {
        "details": "Retrieve the `totalSupply` at the end of `blockNumber`. Note, this value is the sum of all balances. It is but NOT the sum of all the delegated votes! Requirements: - `blockNumber` must have been already mined"
      },
      "getPastVotes(address,uint256)": {
        "details": "Retrieve the number of votes for `account` at the end of `blockNumber`. Requirements: - `blockNumber` must have been already mined"
      },
      "getPlatformFeeInfo()": {
        "details": "Returns the platform fee bps and recipient."
      },
      "getRoleAdmin(bytes32)": {
        "details": "Returns the admin role that controls `role`. See {grantRole} and {revokeRole}. To change a role's admin, use {_setRoleAdmin}."
      },
      "getRoleMember(bytes32,uint256)": {
        "details": "Returns one of the accounts that have `role`. `index` must be a value between 0 and {getRoleMemberCount}, non-inclusive. Role bearers are not sorted in any particular way, and their ordering may change at any point. WARNING: When using {getRoleMember} and {getRoleMemberCount}, make sure you perform all queries on the same block. See the following https://forum.openzeppelin.com/t/iterating-over-elements-on-enumerableset-in-openzeppelin-contracts/2296[forum post] for more information."
      },
      "getRoleMemberCount(bytes32)": {
        "details": "Returns the number of accounts that have `role`. Can be used together with {getRoleMember} to enumerate all bearers of a role."
      },
      "getVotes(address)": {
        "details": "Gets the current votes balance for `account`"
      },
      "grantRole(bytes32,address)": {
        "details": "Grants `role` to `account`. If `account` had not been already granted `role`, emits a {RoleGranted} event. Requirements: - the caller must have ``role``'s admin role. May emit a {RoleGranted} event."
      },
      "hasRole(bytes32,address)": {
        "details": "Returns `true` if `account` has been granted `role`."
      },
      "increaseAllowance(address,uint256)": {
        "details": "Atomically increases the allowance granted to `spender` by the caller. This is an alternative to {approve} that can be used as a mitigation for problems described in {IERC20-approve}. Emits an {Approval} event indicating the updated allowance. Requirements: - `spender` cannot be the zero address."
      },
      "initialize(address,string,string,string,address[],address,address,uint256)": {
        "details": "Initiliazes the contract, like a constructor."
      },
      "mintTo(address,uint256)": {
        "details": "Creates `amount` new tokens for `to`. See {ERC20-_mint}. Requirements: - the caller must have the `MINTER_ROLE`."
      },
      "mintWithSignature((address,address,uint256,uint256,address,uint128,uint128,bytes32),bytes)": {
        "details": "Mints tokens according to the provided mint request."
      },
      "multicall(bytes[])": {
        "details": "Receives and executes a batch of function calls on this contract."
      },
      "name()": {
        "details": "Returns the name of the token."
      },
      "nonces(address)": {
        "details": "See {IERC20Permit-nonces}."
      },
      "numCheckpoints(address)": {
        "details": "Get number of checkpoints for `account`."
      },
      "permit(address,address,uint256,uint256,uint8,bytes32,bytes32)": {
        "details": "See {IERC20Permit-permit}."
      },
      "renounceRole(bytes32,address)": {
        "details": "Revokes `role` from the calling account. Roles are often managed via {grantRole} and {revokeRole}: this function's purpose is to provide a mechanism for accounts to lose their privileges if they are compromised (such as when a trusted device is misplaced). If the calling account had been revoked `role`, emits a {RoleRevoked} event. Requirements: - the caller must be `account`. May emit a {RoleRevoked} event."
      },
      "revokeRole(bytes32,address)": {
        "details": "Revokes `role` from `account`. If `account` had been granted `role`, emits a {RoleRevoked} event. Requirements: - the caller must have ``role``'s admin role. May emit a {RoleRevoked} event."
      },
      "setContractURI(string)": {
        "details": "Sets contract URI for the storefront-level metadata of the contract."
      },
      "setPlatformFeeInfo(address,uint256)": {
        "details": "Lets a module admin update the fees on primary sales."
      },
      "setPrimarySaleRecipient(address)": {
        "details": "Lets a module admin set the default recipient of all primary sales."
      },
      "supportsInterface(bytes4)": {
        "details": "See {IERC165-supportsInterface}."
      },
      "symbol()": {
        "details": "Returns the symbol of the token, usually a shorter version of the name."
      },
      "totalSupply()": {
        "details": "See {IERC20-totalSupply}."
      },
      "transfer(address,uint256)": {
        "details": "See {IERC20-transfer}. Requirements: - `to` cannot be the zero address. - the caller must have a balance of at least `amount`."
      },
      "transferFrom(address,address,uint256)": {
        "details": "See {IERC20-transferFrom}. Emits an {Approval} event indicating the updated allowance. This is not required by the EIP. See the note at the beginning of {ERC20}. NOTE: Does not update the allowance if the current allowance is the maximum `uint256`. Requirements: - `from` and `to` cannot be the zero address. - `from` must have a balance of at least `amount`. - the caller must have allowance for ``from``'s tokens of at least `amount`."
      },
      "verify((address,address,uint256,uint256,address,uint128,uint128,bytes32),bytes)": {
        "details": "Verifies that a mint request is signed by an account holding MINTER_ROLE (at the time of the function call)."
      }
    },
    "stateVariables": {
      "MAX_BPS": {
        "details": "Max bps in the thirdweb system"
      },
      "contractURI": {
        "details": "Returns the URI for the storefront-level metadata of the contract."
      },
      "minted": {
        "details": "Mapping from mint request UID => whether the mint request is processed."
      },
      "platformFeeBps": {
        "details": "The % of primary sales collected by the contract as fees."
      },
      "platformFeeRecipient": {
        "details": "The adress that receives all primary sales value."
      },
      "primarySaleRecipient": {
        "details": "The adress that receives all primary sales value."
      }
    },
    "version": 1
  },
  "userdoc": {
    "kind": "user",
    "methods": {},
    "version": 1
  }
}