{
  "contractName": "TokenStore",
  "abi": [
    {
      "inputs": [
        {
          "internalType": "uint256",
          "name": "_bundleId",
          "type": "uint256"
        }
      ],
      "name": "getTokenCountOfBundle",
      "outputs": [
        {
          "internalType": "uint256",
          "name": "",
          "type": "uint256"
        }
      ],
      "stateMutability": "view",
      "type": "function"
    },
    {
      "inputs": [
        {
          "internalType": "uint256",
          "name": "_bundleId",
          "type": "uint256"
        },
        {
          "internalType": "uint256",
          "name": "index",
          "type": "uint256"
        }
      ],
      "name": "getTokenOfBundle",
      "outputs": [
        {
          "components": [
            {
              "internalType": "address",
              "name": "assetContract",
              "type": "address"
            },
            {
              "internalType": "enum ITokenBundle.TokenType",
              "name": "tokenType",
              "type": "uint8"
            },
            {
              "internalType": "uint256",
              "name": "tokenId",
              "type": "uint256"
            },
            {
              "internalType": "uint256",
              "name": "totalAmount",
              "type": "uint256"
            }
          ],
          "internalType": "struct ITokenBundle.Token",
          "name": "",
          "type": "tuple"
        }
      ],
      "stateMutability": "view",
      "type": "function"
    },
    {
      "inputs": [
        {
          "internalType": "uint256",
          "name": "_bundleId",
          "type": "uint256"
        }
      ],
      "name": "getUriOfBundle",
      "outputs": [
        {
          "internalType": "string",
          "name": "",
          "type": "string"
        }
      ],
      "stateMutability": "view",
      "type": "function"
    },
    {
      "inputs": [
        {
          "internalType": "address",
          "name": "",
          "type": "address"
        },
        {
          "internalType": "address",
          "name": "",
          "type": "address"
        },
        {
          "internalType": "uint256[]",
          "name": "",
          "type": "uint256[]"
        },
        {
          "internalType": "uint256[]",
          "name": "",
          "type": "uint256[]"
        },
        {
          "internalType": "bytes",
          "name": "",
          "type": "bytes"
        }
      ],
      "name": "onERC1155BatchReceived",
      "outputs": [
        {
          "internalType": "bytes4",
          "name": "",
          "type": "bytes4"
        }
      ],
      "stateMutability": "nonpayable",
      "type": "function"
    },
    {
      "inputs": [
        {
          "internalType": "address",
          "name": "",
          "type": "address"
        },
        {
          "internalType": "address",
          "name": "",
          "type": "address"
        },
        {
          "internalType": "uint256",
          "name": "",
          "type": "uint256"
        },
        {
          "internalType": "uint256",
          "name": "",
          "type": "uint256"
        },
        {
          "internalType": "bytes",
          "name": "",
          "type": "bytes"
        }
      ],
      "name": "onERC1155Received",
      "outputs": [
        {
          "internalType": "bytes4",
          "name": "",
          "type": "bytes4"
        }
      ],
      "stateMutability": "nonpayable",
      "type": "function"
    },
    {
      "inputs": [
        {
          "internalType": "address",
          "name": "",
          "type": "address"
        },
        {
          "internalType": "address",
          "name": "",
          "type": "address"
        },
        {
          "internalType": "uint256",
          "name": "",
          "type": "uint256"
        },
        {
          "internalType": "bytes",
          "name": "",
          "type": "bytes"
        }
      ],
      "name": "onERC721Received",
      "outputs": [
        {
          "internalType": "bytes4",
          "name": "",
          "type": "bytes4"
        }
      ],
      "stateMutability": "nonpayable",
      "type": "function"
    },
    {
      "inputs": [
        {
          "internalType": "bytes4",
          "name": "interfaceId",
          "type": "bytes4"
        }
      ],
      "name": "supportsInterface",
      "outputs": [
        {
          "internalType": "bool",
          "name": "",
          "type": "bool"
        }
      ],
      "stateMutability": "view",
      "type": "function"
    }
  ],
  "bytecode": "0x608060405234801561000f575f80fd5b5061072e8061001d5f395ff3fe608060405234801561000f575f80fd5b506004361061006b575f3560e01c806301ffc9a71461006f578063150b7a02146100975780631da799c9146100ce57806361195e94146100ee578063bc197c811461010e578063d0d2fe251461012d578063f23a6e611461015a575b5f80fd5b61008261007d3660046102fe565b610179565b60405190151581526020015b60405180910390f35b6100b56100a53660046103f6565b630a85bd0160e11b949350505050565b6040516001600160e01b0319909116815260200161008e565b6100e16100dc366004610459565b6101af565b60405161008e919061048d565b6101016100fc3660046104e1565b61025c565b60405161008e91906104f8565b6100b561011c3660046105bf565b63bc197c8160e01b95945050505050565b61014c61013b3660046104e1565b5f9081526020819052604090205490565b60405190815260200161008e565b6100b5610168366004610661565b63f23a6e6160e01b95945050505050565b5f6001600160e01b03198216630271189760e51b14806101a957506301ffc9a760e01b6001600160e01b03198316145b92915050565b6101d860408051608081019091525f808252602082019081526020015f81526020015f81525090565b5f83815260208181526040808320858452600290810183529281902081516080810190925280546001600160a01b038116835291939092840191600160a01b900460ff169081111561022c5761022c610479565b600281111561023d5761023d610479565b8152600182015460208201526002909101546040909101529392505050565b5f81815260208190526040902060010180546060919061027b906106c0565b80601f01602080910402602001604051908101604052809291908181526020018280546102a7906106c0565b80156102f25780601f106102c9576101008083540402835291602001916102f2565b820191905f5260205f20905b8154815290600101906020018083116102d557829003601f168201915b50505050509050919050565b5f6020828403121561030e575f80fd5b81356001600160e01b031981168114610325575f80fd5b9392505050565b80356001600160a01b0381168114610342575f80fd5b919050565b634e487b7160e01b5f52604160045260245ffd5b604051601f8201601f191681016001600160401b038111828210171561038357610383610347565b604052919050565b5f82601f83011261039a575f80fd5b81356001600160401b038111156103b3576103b3610347565b6103c6601f8201601f191660200161035b565b8181528460208386010111156103da575f80fd5b816020850160208301375f918101602001919091529392505050565b5f805f8060808587031215610409575f80fd5b6104128561032c565b93506104206020860161032c565b92506040850135915060608501356001600160401b03811115610441575f80fd5b61044d8782880161038b565b91505092959194509250565b5f806040838503121561046a575f80fd5b50508035926020909101359150565b634e487b7160e01b5f52602160045260245ffd5b81516001600160a01b0316815260208201516080820190600381106104c057634e487b7160e01b5f52602160045260245ffd5b80602084015250604083015160408301526060830151606083015292915050565b5f602082840312156104f1575f80fd5b5035919050565b5f6020808352835180828501525f5b8181101561052357858101830151858201604001528201610507565b505f604082860101526040601f19601f8301168501019250505092915050565b5f82601f830112610552575f80fd5b813560206001600160401b0382111561056d5761056d610347565b8160051b61057c82820161035b565b9283528481018201928281019087851115610595575f80fd5b83870192505b848310156105b45782358252918301919083019061059b565b979650505050505050565b5f805f805f60a086880312156105d3575f80fd5b6105dc8661032c565b94506105ea6020870161032c565b935060408601356001600160401b0380821115610605575f80fd5b61061189838a01610543565b94506060880135915080821115610626575f80fd5b61063289838a01610543565b93506080880135915080821115610647575f80fd5b506106548882890161038b565b9150509295509295909350565b5f805f805f60a08688031215610675575f80fd5b61067e8661032c565b945061068c6020870161032c565b9350604086013592506060860135915060808601356001600160401b038111156106b4575f80fd5b6106548882890161038b565b600181811c908216806106d457607f821691505b6020821081036106f257634e487b7160e01b5f52602260045260245ffd5b5091905056fea26469706673582212204a7bcb27c02cbd41b0d98ee4ccdea042c50c0e8d04081ab5ca081cfba27c1ac264736f6c63430008150033",
  "immutableReferences": {},
  "source": "// SPDX-License-Identifier: Apache-2.0\npragma solidity ^0.8.0;\n\n//  ==========  External imports    ==========\n\nimport \"@thirdweb-dev/contracts/eip/interface/IERC1155.sol\";\nimport \"@thirdweb-dev/contracts/eip/interface/IERC721.sol\";\n\nimport \"@thirdweb-dev/contracts/openzeppelin-presets/utils/ERC1155/ERC1155Holder.sol\";\nimport \"@thirdweb-dev/contracts/openzeppelin-presets/utils/ERC721/ERC721Holder.sol\";\n\n//  ==========  Internal imports    ==========\n\nimport { TokenBundle, ITokenBundle } from \"./TokenBundle.sol\";\nimport \"@thirdweb-dev/contracts/lib/CurrencyTransferLib.sol\";\n\n/**\n *  @title   Token Store\n *  @notice  `TokenStore` contract extension allows bundling-up of ERC20/ERC721/ERC1155 and native-tokan assets\n *           and provides logic for storing, releasing, and transferring them from the extending contract.\n *  @dev     See {CurrencyTransferLib}\n */\n\ncontract TokenStore is TokenBundle, ERC721Holder, ERC1155Holder {\n   \n   function _nativeTokenWrapper()  internal view virtual returns (address) {\n        return address(this);\n    }\n    /// @dev Store / escrow multiple ERC1155, ERC721, ERC20 tokens.\n    function _storeTokens(\n        address _tokenOwner,\n        Token[] calldata _tokens,\n        string memory _uriForTokens,\n        uint256 _idForTokens\n    ) internal {\n        _createBundle(_tokens, _idForTokens);\n        _setUriOfBundle(_uriForTokens, _idForTokens);\n        _transferTokenBatch(_tokenOwner, address(this), _tokens);\n    }\n\n    /// @dev Release stored / escrowed ERC1155, ERC721, ERC20 tokens.\n    function _releaseTokens(address _recipient, uint256 _idForContent) internal {\n        uint256 count = getTokenCountOfBundle(_idForContent);\n        Token[] memory tokensToRelease = new Token[](count);\n\n        for (uint256 i = 0; i < count; i += 1) {\n            tokensToRelease[i] = getTokenOfBundle(_idForContent, i);\n        }\n\n        _deleteBundle(_idForContent);\n\n        _transferTokenBatch(address(this), _recipient, tokensToRelease);\n    }\n\n    /// @dev Transfers an arbitrary ERC20 / ERC721 / ERC1155 token.\n    function _transferToken(\n        address _from,\n        address _to,\n        Token memory _token\n    ) internal {\n        if (_token.tokenType == TokenType.ERC20) {\n            CurrencyTransferLib.transferCurrencyWithWrapper(\n                _token.assetContract,\n                _from,\n                _to,\n                _token.totalAmount,\n                _nativeTokenWrapper()\n            );\n        } else if (_token.tokenType == TokenType.ERC721) {\n            IERC721(_token.assetContract).safeTransferFrom(_from, _to, _token.tokenId);\n        } else if (_token.tokenType == TokenType.ERC1155) {\n            IERC1155(_token.assetContract).safeTransferFrom(_from, _to, _token.tokenId, _token.totalAmount, \"\");\n        }\n    }\n\n    /// @dev Transfers multiple arbitrary ERC20 / ERC721 / ERC1155 tokens.\n    function _transferTokenBatch(\n        address _from,\n        address _to,\n        Token[] memory _tokens\n    ) internal {\n        uint256 nativeTokenValue;\n        for (uint256 i = 0; i < _tokens.length; i += 1) {\n            if (_tokens[i].assetContract == CurrencyTransferLib.NATIVE_TOKEN && _to == address(this)) {\n                nativeTokenValue += _tokens[i].totalAmount;\n            } else {\n                _transferToken(_from, _to, _tokens[i]);\n            }\n        }\n        if (nativeTokenValue != 0) {\n            Token memory _nativeToken = Token({\n                assetContract: CurrencyTransferLib.NATIVE_TOKEN,\n                tokenType: ITokenBundle.TokenType.ERC20,\n                tokenId: 0,\n                totalAmount: nativeTokenValue\n            });\n            _transferToken(_from, _to, _nativeToken);\n        }\n    }\n}",
  "sourcePath": "c:\\Projects\\AyazDuru.Blockchain.Samples.MarketplaceNFTAndToken\\source\\contracts\\TokenStore.sol",
  "compiler": {
    "name": "solc",
    "version": "0.8.21+commit.d9974bed.Emscripten.clang"
  },
  "schemaVersion": "3.4.15",
  "updatedAt": "2023-08-15T23:19:36.811Z",
  "devdoc": {
    "details": "See {CurrencyTransferLib}",
    "kind": "dev",
    "methods": {
      "getTokenCountOfBundle(uint256)": {
        "details": "Returns the total number of assets in a particular bundle."
      },
      "getTokenOfBundle(uint256,uint256)": {
        "details": "Returns an asset contained in a particular bundle, at a particular index."
      },
      "getUriOfBundle(uint256)": {
        "details": "Returns the uri of a particular bundle."
      },
      "onERC721Received(address,address,uint256,bytes)": {
        "details": "See {IERC721Receiver-onERC721Received}. Always returns `IERC721Receiver.onERC721Received.selector`."
      },
      "supportsInterface(bytes4)": {
        "details": "See {IERC165-supportsInterface}."
      }
    },
    "title": "Token Store",
    "version": 1
  },
  "userdoc": {
    "kind": "user",
    "methods": {},
    "notice": "`TokenStore` contract extension allows bundling-up of ERC20/ERC721/ERC1155 and native-tokan assets           and provides logic for storing, releasing, and transferring them from the extending contract.",
    "version": 1
  }
}